{"abi":[{"type":"constructor","inputs":[{"name":"_wlfiToken","type":"address","internalType":"address"},{"name":"_usd1Token","type":"address","internalType":"address"},{"name":"_usd1PriceFeed","type":"address","internalType":"address"},{"name":"_wlfiUsd1Pool","type":"address","internalType":"address"},{"name":"_uniswapRouter","type":"address","internalType":"address"},{"name":"_owner","type":"address","internalType":"address"}],"stateMutability":"nonpayable"},{"type":"receive","stateMutability":"payable"},{"type":"function","name":"MAX_STRATEGIES","inputs":[],"outputs":[{"name":"","type":"uint256","internalType":"uint256"}],"stateMutability":"view"},{"type":"function","name":"UNISWAP_ROUTER","inputs":[],"outputs":[{"name":"","type":"address","internalType":"contract ISwapRouter"}],"stateMutability":"view"},{"type":"function","name":"USD1_PRICE_FEED","inputs":[],"outputs":[{"name":"","type":"address","internalType":"contract AggregatorV3Interface"}],"stateMutability":"view"},{"type":"function","name":"USD1_TOKEN","inputs":[],"outputs":[{"name":"","type":"address","internalType":"contract IERC20"}],"stateMutability":"view"},{"type":"function","name":"WLFI_TOKEN","inputs":[],"outputs":[{"name":"","type":"address","internalType":"contract IERC20"}],"stateMutability":"view"},{"type":"function","name":"WLFI_USD1_POOL","inputs":[],"outputs":[{"name":"","type":"address","internalType":"contract IUniswapV3Pool"}],"stateMutability":"view"},{"type":"function","name":"_getTWAPPrice","inputs":[],"outputs":[{"name":"","type":"uint256","internalType":"uint256"}],"stateMutability":"view"},{"type":"function","name":"acceptManager","inputs":[],"outputs":[],"stateMutability":"nonpayable"},{"type":"function","name":"activeStrategies","inputs":[{"name":"","type":"address","internalType":"address"}],"outputs":[{"name":"","type":"bool","internalType":"bool"}],"stateMutability":"view"},{"type":"function","name":"addStrategy","inputs":[{"name":"strategy","type":"address","internalType":"address"},{"name":"weight","type":"uint256","internalType":"uint256"}],"outputs":[],"stateMutability":"nonpayable"},{"type":"function","name":"allowance","inputs":[{"name":"owner","type":"address","internalType":"address"},{"name":"spender","type":"address","internalType":"address"}],"outputs":[{"name":"","type":"uint256","internalType":"uint256"}],"stateMutability":"view"},{"type":"function","name":"approve","inputs":[{"name":"spender","type":"address","internalType":"address"},{"name":"value","type":"uint256","internalType":"uint256"}],"outputs":[{"name":"","type":"bool","internalType":"bool"}],"stateMutability":"nonpayable"},{"type":"function","name":"asset","inputs":[],"outputs":[{"name":"","type":"address","internalType":"address"}],"stateMutability":"view"},{"type":"function","name":"authorized","inputs":[{"name":"","type":"address","internalType":"address"}],"outputs":[{"name":"","type":"bool","internalType":"bool"}],"stateMutability":"view"},{"type":"function","name":"balanceOf","inputs":[{"name":"account","type":"address","internalType":"address"}],"outputs":[{"name":"","type":"uint256","internalType":"uint256"}],"stateMutability":"view"},{"type":"function","name":"calculateUSDValue","inputs":[{"name":"wlfiAmount","type":"uint256","internalType":"uint256"},{"name":"usd1Amount","type":"uint256","internalType":"uint256"}],"outputs":[{"name":"usdValue","type":"uint256","internalType":"uint256"}],"stateMutability":"view"},{"type":"function","name":"convertToAssets","inputs":[{"name":"shares","type":"uint256","internalType":"uint256"}],"outputs":[{"name":"","type":"uint256","internalType":"uint256"}],"stateMutability":"view"},{"type":"function","name":"convertToShares","inputs":[{"name":"assets","type":"uint256","internalType":"uint256"}],"outputs":[{"name":"","type":"uint256","internalType":"uint256"}],"stateMutability":"view"},{"type":"function","name":"decimals","inputs":[],"outputs":[{"name":"","type":"uint8","internalType":"uint8"}],"stateMutability":"view"},{"type":"function","name":"deploymentThreshold","inputs":[],"outputs":[{"name":"","type":"uint256","internalType":"uint256"}],"stateMutability":"view"},{"type":"function","name":"deposit","inputs":[{"name":"assets","type":"uint256","internalType":"uint256"},{"name":"receiver","type":"address","internalType":"address"}],"outputs":[{"name":"shares","type":"uint256","internalType":"uint256"}],"stateMutability":"nonpayable"},{"type":"function","name":"depositDual","inputs":[{"name":"wlfiAmount","type":"uint256","internalType":"uint256"},{"name":"usd1Amount","type":"uint256","internalType":"uint256"},{"name":"receiver","type":"address","internalType":"address"}],"outputs":[{"name":"shares","type":"uint256","internalType":"uint256"}],"stateMutability":"nonpayable"},{"type":"function","name":"forceDeployToStrategies","inputs":[],"outputs":[],"stateMutability":"nonpayable"},{"type":"function","name":"getCurrentPrices","inputs":[],"outputs":[{"name":"wlfiPriceUSD","type":"uint256","internalType":"uint256"},{"name":"usd1PriceUSD","type":"uint256","internalType":"uint256"}],"stateMutability":"view"},{"type":"function","name":"getStrategies","inputs":[],"outputs":[{"name":"strategies","type":"address[]","internalType":"address[]"},{"name":"weights","type":"uint256[]","internalType":"uint256[]"}],"stateMutability":"view"},{"type":"function","name":"getStrategyAssets","inputs":[],"outputs":[{"name":"strategies","type":"address[]","internalType":"address[]"},{"name":"wlfiAmounts","type":"uint256[]","internalType":"uint256[]"},{"name":"usd1Amounts","type":"uint256[]","internalType":"uint256[]"}],"stateMutability":"view"},{"type":"function","name":"getUSD1Price","inputs":[],"outputs":[{"name":"price","type":"uint256","internalType":"uint256"}],"stateMutability":"view"},{"type":"function","name":"getVaultBalances","inputs":[],"outputs":[{"name":"wlfi","type":"uint256","internalType":"uint256"},{"name":"usd1","type":"uint256","internalType":"uint256"}],"stateMutability":"view"},{"type":"function","name":"getVaultBalancesUSD","inputs":[],"outputs":[{"name":"wlfiValueUSD","type":"uint256","internalType":"uint256"},{"name":"usd1ValueUSD","type":"uint256","internalType":"uint256"},{"name":"totalValueUSD","type":"uint256","internalType":"uint256"}],"stateMutability":"view"},{"type":"function","name":"getWLFIPrice","inputs":[],"outputs":[{"name":"price","type":"uint256","internalType":"uint256"}],"stateMutability":"view"},{"type":"function","name":"injectCapital","inputs":[{"name":"wlfiAmount","type":"uint256","internalType":"uint256"},{"name":"usd1Amount","type":"uint256","internalType":"uint256"}],"outputs":[],"stateMutability":"nonpayable"},{"type":"function","name":"lastDeployment","inputs":[],"outputs":[{"name":"","type":"uint256","internalType":"uint256"}],"stateMutability":"view"},{"type":"function","name":"lastRebalance","inputs":[],"outputs":[{"name":"","type":"uint256","internalType":"uint256"}],"stateMutability":"view"},{"type":"function","name":"manager","inputs":[],"outputs":[{"name":"","type":"address","internalType":"address"}],"stateMutability":"view"},{"type":"function","name":"maxDeposit","inputs":[{"name":"","type":"address","internalType":"address"}],"outputs":[{"name":"","type":"uint256","internalType":"uint256"}],"stateMutability":"view"},{"type":"function","name":"maxMint","inputs":[{"name":"","type":"address","internalType":"address"}],"outputs":[{"name":"","type":"uint256","internalType":"uint256"}],"stateMutability":"view"},{"type":"function","name":"maxPriceAge","inputs":[],"outputs":[{"name":"","type":"uint256","internalType":"uint256"}],"stateMutability":"view"},{"type":"function","name":"maxRedeem","inputs":[{"name":"owner","type":"address","internalType":"address"}],"outputs":[{"name":"","type":"uint256","internalType":"uint256"}],"stateMutability":"view"},{"type":"function","name":"maxTotalSupply","inputs":[],"outputs":[{"name":"","type":"uint256","internalType":"uint256"}],"stateMutability":"view"},{"type":"function","name":"maxWithdraw","inputs":[{"name":"owner","type":"address","internalType":"address"}],"outputs":[{"name":"","type":"uint256","internalType":"uint256"}],"stateMutability":"view"},{"type":"function","name":"minDeploymentInterval","inputs":[],"outputs":[{"name":"","type":"uint256","internalType":"uint256"}],"stateMutability":"view"},{"type":"function","name":"mint","inputs":[{"name":"shares","type":"uint256","internalType":"uint256"},{"name":"receiver","type":"address","internalType":"address"}],"outputs":[{"name":"","type":"uint256","internalType":"uint256"}],"stateMutability":"nonpayable"},{"type":"function","name":"name","inputs":[],"outputs":[{"name":"","type":"string","internalType":"string"}],"stateMutability":"view"},{"type":"function","name":"owner","inputs":[],"outputs":[{"name":"","type":"address","internalType":"address"}],"stateMutability":"view"},{"type":"function","name":"paused","inputs":[],"outputs":[{"name":"","type":"bool","internalType":"bool"}],"stateMutability":"view"},{"type":"function","name":"pendingManager","inputs":[],"outputs":[{"name":"","type":"address","internalType":"address"}],"stateMutability":"view"},{"type":"function","name":"previewDeposit","inputs":[{"name":"assets","type":"uint256","internalType":"uint256"}],"outputs":[{"name":"","type":"uint256","internalType":"uint256"}],"stateMutability":"view"},{"type":"function","name":"previewDepositDual","inputs":[{"name":"wlfiAmount","type":"uint256","internalType":"uint256"},{"name":"usd1Amount","type":"uint256","internalType":"uint256"}],"outputs":[{"name":"shares","type":"uint256","internalType":"uint256"},{"name":"usdValue","type":"uint256","internalType":"uint256"}],"stateMutability":"view"},{"type":"function","name":"previewMint","inputs":[{"name":"shares","type":"uint256","internalType":"uint256"}],"outputs":[{"name":"","type":"uint256","internalType":"uint256"}],"stateMutability":"view"},{"type":"function","name":"previewRedeem","inputs":[{"name":"shares","type":"uint256","internalType":"uint256"}],"outputs":[{"name":"","type":"uint256","internalType":"uint256"}],"stateMutability":"view"},{"type":"function","name":"previewWithdraw","inputs":[{"name":"assets","type":"uint256","internalType":"uint256"}],"outputs":[{"name":"","type":"uint256","internalType":"uint256"}],"stateMutability":"view"},{"type":"function","name":"redeem","inputs":[{"name":"shares","type":"uint256","internalType":"uint256"},{"name":"receiver","type":"address","internalType":"address"},{"name":"owner","type":"address","internalType":"address"}],"outputs":[{"name":"","type":"uint256","internalType":"uint256"}],"stateMutability":"nonpayable"},{"type":"function","name":"removeStrategy","inputs":[{"name":"strategy","type":"address","internalType":"address"}],"outputs":[],"stateMutability":"nonpayable"},{"type":"function","name":"renounceOwnership","inputs":[],"outputs":[],"stateMutability":"nonpayable"},{"type":"function","name":"rescueETH","inputs":[],"outputs":[],"stateMutability":"nonpayable"},{"type":"function","name":"rescueToken","inputs":[{"name":"token","type":"address","internalType":"address"},{"name":"amount","type":"uint256","internalType":"uint256"},{"name":"to","type":"address","internalType":"address"}],"outputs":[],"stateMutability":"nonpayable"},{"type":"function","name":"setDeploymentParams","inputs":[{"name":"_threshold","type":"uint256","internalType":"uint256"},{"name":"_interval","type":"uint256","internalType":"uint256"}],"outputs":[],"stateMutability":"nonpayable"},{"type":"function","name":"setManager","inputs":[{"name":"_newManager","type":"address","internalType":"address"}],"outputs":[],"stateMutability":"nonpayable"},{"type":"function","name":"setMaxPriceAge","inputs":[{"name":"_maxPriceAge","type":"uint256","internalType":"uint256"}],"outputs":[],"stateMutability":"nonpayable"},{"type":"function","name":"setMaxTotalSupply","inputs":[{"name":"_maxTotalSupply","type":"uint256","internalType":"uint256"}],"outputs":[],"stateMutability":"nonpayable"},{"type":"function","name":"setPaused","inputs":[{"name":"_paused","type":"bool","internalType":"bool"}],"outputs":[],"stateMutability":"nonpayable"},{"type":"function","name":"setTWAPInterval","inputs":[{"name":"_interval","type":"uint32","internalType":"uint32"}],"outputs":[],"stateMutability":"nonpayable"},{"type":"function","name":"strategyList","inputs":[{"name":"","type":"uint256","internalType":"uint256"}],"outputs":[{"name":"","type":"address","internalType":"address"}],"stateMutability":"view"},{"type":"function","name":"strategyWeights","inputs":[{"name":"","type":"address","internalType":"address"}],"outputs":[{"name":"","type":"uint256","internalType":"uint256"}],"stateMutability":"view"},{"type":"function","name":"symbol","inputs":[],"outputs":[{"name":"","type":"string","internalType":"string"}],"stateMutability":"view"},{"type":"function","name":"totalAssets","inputs":[],"outputs":[{"name":"","type":"uint256","internalType":"uint256"}],"stateMutability":"view"},{"type":"function","name":"totalStrategyWeight","inputs":[],"outputs":[{"name":"","type":"uint256","internalType":"uint256"}],"stateMutability":"view"},{"type":"function","name":"totalSupply","inputs":[],"outputs":[{"name":"","type":"uint256","internalType":"uint256"}],"stateMutability":"view"},{"type":"function","name":"transfer","inputs":[{"name":"to","type":"address","internalType":"address"},{"name":"value","type":"uint256","internalType":"uint256"}],"outputs":[{"name":"","type":"bool","internalType":"bool"}],"stateMutability":"nonpayable"},{"type":"function","name":"transferFrom","inputs":[{"name":"from","type":"address","internalType":"address"},{"name":"to","type":"address","internalType":"address"},{"name":"value","type":"uint256","internalType":"uint256"}],"outputs":[{"name":"","type":"bool","internalType":"bool"}],"stateMutability":"nonpayable"},{"type":"function","name":"transferOwnership","inputs":[{"name":"newOwner","type":"address","internalType":"address"}],"outputs":[],"stateMutability":"nonpayable"},{"type":"function","name":"twapInterval","inputs":[],"outputs":[{"name":"","type":"uint32","internalType":"uint32"}],"stateMutability":"view"},{"type":"function","name":"usd1Balance","inputs":[],"outputs":[{"name":"","type":"uint256","internalType":"uint256"}],"stateMutability":"view"},{"type":"function","name":"withdraw","inputs":[{"name":"assets","type":"uint256","internalType":"uint256"},{"name":"receiver","type":"address","internalType":"address"},{"name":"owner","type":"address","internalType":"address"}],"outputs":[{"name":"","type":"uint256","internalType":"uint256"}],"stateMutability":"nonpayable"},{"type":"function","name":"withdrawDual","inputs":[{"name":"shares","type":"uint256","internalType":"uint256"},{"name":"receiver","type":"address","internalType":"address"}],"outputs":[{"name":"wlfiAmount","type":"uint256","internalType":"uint256"},{"name":"usd1Amount","type":"uint256","internalType":"uint256"}],"stateMutability":"nonpayable"},{"type":"function","name":"wlfiBalance","inputs":[],"outputs":[{"name":"","type":"uint256","internalType":"uint256"}],"stateMutability":"view"},{"type":"event","name":"Approval","inputs":[{"name":"owner","type":"address","indexed":true,"internalType":"address"},{"name":"spender","type":"address","indexed":true,"internalType":"address"},{"name":"value","type":"uint256","indexed":false,"internalType":"uint256"}],"anonymous":false},{"type":"event","name":"CapitalInjected","inputs":[{"name":"from","type":"address","indexed":true,"internalType":"address"},{"name":"wlfiAmount","type":"uint256","indexed":false,"internalType":"uint256"},{"name":"usd1Amount","type":"uint256","indexed":false,"internalType":"uint256"}],"anonymous":false},{"type":"event","name":"Deposit","inputs":[{"name":"sender","type":"address","indexed":true,"internalType":"address"},{"name":"owner","type":"address","indexed":true,"internalType":"address"},{"name":"assets","type":"uint256","indexed":false,"internalType":"uint256"},{"name":"shares","type":"uint256","indexed":false,"internalType":"uint256"}],"anonymous":false},{"type":"event","name":"DualDeposit","inputs":[{"name":"user","type":"address","indexed":true,"internalType":"address"},{"name":"wlfiAmount","type":"uint256","indexed":false,"internalType":"uint256"},{"name":"usd1Amount","type":"uint256","indexed":false,"internalType":"uint256"},{"name":"wlfiPriceUSD","type":"uint256","indexed":false,"internalType":"uint256"},{"name":"usd1PriceUSD","type":"uint256","indexed":false,"internalType":"uint256"},{"name":"totalUSDValue","type":"uint256","indexed":false,"internalType":"uint256"},{"name":"shares","type":"uint256","indexed":false,"internalType":"uint256"}],"anonymous":false},{"type":"event","name":"DualWithdraw","inputs":[{"name":"user","type":"address","indexed":true,"internalType":"address"},{"name":"shares","type":"uint256","indexed":false,"internalType":"uint256"},{"name":"wlfiAmount","type":"uint256","indexed":false,"internalType":"uint256"},{"name":"usd1Amount","type":"uint256","indexed":false,"internalType":"uint256"}],"anonymous":false},{"type":"event","name":"EmergencyPause","inputs":[{"name":"paused","type":"bool","indexed":false,"internalType":"bool"}],"anonymous":false},{"type":"event","name":"ManagerSet","inputs":[{"name":"oldManager","type":"address","indexed":true,"internalType":"address"},{"name":"newManager","type":"address","indexed":true,"internalType":"address"}],"anonymous":false},{"type":"event","name":"OwnershipTransferred","inputs":[{"name":"previousOwner","type":"address","indexed":true,"internalType":"address"},{"name":"newOwner","type":"address","indexed":true,"internalType":"address"}],"anonymous":false},{"type":"event","name":"Rebalanced","inputs":[{"name":"newWlfiBalance","type":"uint256","indexed":false,"internalType":"uint256"},{"name":"newUsd1Balance","type":"uint256","indexed":false,"internalType":"uint256"}],"anonymous":false},{"type":"event","name":"StrategyAdded","inputs":[{"name":"strategy","type":"address","indexed":true,"internalType":"address"},{"name":"weight","type":"uint256","indexed":false,"internalType":"uint256"}],"anonymous":false},{"type":"event","name":"StrategyDeployed","inputs":[{"name":"strategy","type":"address","indexed":true,"internalType":"address"},{"name":"wlfiDeployed","type":"uint256","indexed":false,"internalType":"uint256"},{"name":"usd1Deployed","type":"uint256","indexed":false,"internalType":"uint256"}],"anonymous":false},{"type":"event","name":"StrategyRemoved","inputs":[{"name":"strategy","type":"address","indexed":true,"internalType":"address"}],"anonymous":false},{"type":"event","name":"Transfer","inputs":[{"name":"from","type":"address","indexed":true,"internalType":"address"},{"name":"to","type":"address","indexed":true,"internalType":"address"},{"name":"value","type":"uint256","indexed":false,"internalType":"uint256"}],"anonymous":false},{"type":"event","name":"Withdraw","inputs":[{"name":"sender","type":"address","indexed":true,"internalType":"address"},{"name":"receiver","type":"address","indexed":true,"internalType":"address"},{"name":"owner","type":"address","indexed":true,"internalType":"address"},{"name":"assets","type":"uint256","indexed":false,"internalType":"uint256"},{"name":"shares","type":"uint256","indexed":false,"internalType":"uint256"}],"anonymous":false},{"type":"error","name":"ERC20InsufficientAllowance","inputs":[{"name":"spender","type":"address","internalType":"address"},{"name":"allowance","type":"uint256","internalType":"uint256"},{"name":"needed","type":"uint256","internalType":"uint256"}]},{"type":"error","name":"ERC20InsufficientBalance","inputs":[{"name":"sender","type":"address","internalType":"address"},{"name":"balance","type":"uint256","internalType":"uint256"},{"name":"needed","type":"uint256","internalType":"uint256"}]},{"type":"error","name":"ERC20InvalidApprover","inputs":[{"name":"approver","type":"address","internalType":"address"}]},{"type":"error","name":"ERC20InvalidReceiver","inputs":[{"name":"receiver","type":"address","internalType":"address"}]},{"type":"error","name":"ERC20InvalidSender","inputs":[{"name":"sender","type":"address","internalType":"address"}]},{"type":"error","name":"ERC20InvalidSpender","inputs":[{"name":"spender","type":"address","internalType":"address"}]},{"type":"error","name":"ERC4626ExceededMaxDeposit","inputs":[{"name":"receiver","type":"address","internalType":"address"},{"name":"assets","type":"uint256","internalType":"uint256"},{"name":"max","type":"uint256","internalType":"uint256"}]},{"type":"error","name":"ERC4626ExceededMaxMint","inputs":[{"name":"receiver","type":"address","internalType":"address"},{"name":"shares","type":"uint256","internalType":"uint256"},{"name":"max","type":"uint256","internalType":"uint256"}]},{"type":"error","name":"ERC4626ExceededMaxRedeem","inputs":[{"name":"owner","type":"address","internalType":"address"},{"name":"shares","type":"uint256","internalType":"uint256"},{"name":"max","type":"uint256","internalType":"uint256"}]},{"type":"error","name":"ERC4626ExceededMaxWithdraw","inputs":[{"name":"owner","type":"address","internalType":"address"},{"name":"assets","type":"uint256","internalType":"uint256"},{"name":"max","type":"uint256","internalType":"uint256"}]},{"type":"error","name":"InsufficientBalance","inputs":[]},{"type":"error","name":"InvalidAmount","inputs":[]},{"type":"error","name":"InvalidPrice","inputs":[]},{"type":"error","name":"InvalidWeight","inputs":[]},{"type":"error","name":"MaxStrategiesReached","inputs":[]},{"type":"error","name":"OwnableInvalidOwner","inputs":[{"name":"owner","type":"address","internalType":"address"}]},{"type":"error","name":"OwnableUnauthorizedAccount","inputs":[{"name":"account","type":"address","internalType":"address"}]},{"type":"error","name":"Paused","inputs":[]},{"type":"error","name":"ReentrancyGuardReentrantCall","inputs":[]},{"type":"error","name":"SafeERC20FailedOperation","inputs":[{"name":"token","type":"address","internalType":"address"}]},{"type":"error","name":"SlippageExceeded","inputs":[]},{"type":"error","name":"StalePrice","inputs":[]},{"type":"error","name":"StrategyAlreadyActive","inputs":[]},{"type":"error","name":"StrategyNotActive","inputs":[]},{"type":"error","name":"Unauthorized","inputs":[]},{"type":"error","name":"ZeroAddress","inputs":[]}],"bytecode":{"object":"0x6101606040526a295be96e64066972000000600d55600e805463ffffffff191661070817905562015180600f5568056bc75e2d6310000060105561012c6011553480156200004c57600080fd5b5060405162004e9a38038062004e9a8339810160408190526200006f9162000385565b8086604051806040016040528060128152602001714561676c65205661756c742053686172657360701b81525060405180604001604052806006815260200165764541474c4560d01b8152508160039081620000cc9190620004ad565b506004620000db8282620004ad565b505050600080620000f2836200023160201b60201c565b91509150816200010457601262000106565b805b60ff1660a05250506001600160a01b0390811660805281166200014357604051631e4fbdf760e01b81526000600482015260240160405180910390fd5b6200014e8162000316565b5060016006556001600160a01b03861615806200017257506001600160a01b038516155b806200018557506001600160a01b038416155b806200019857506001600160a01b038316155b80620001ab57506001600160a01b038216155b15620001ca5760405163d92e233d60e01b815260040160405180910390fd5b6001600160a01b0395861660e05293851660c05291841661010052831661012052821661014052601380546001600160a01b031916919092169081179091556000908152601560205260409020805460ff19166001179055426012819055601655620005c4565b60408051600481526024810182526020810180516001600160e01b031663313ce56760e01b17905290516000918291829182916001600160a01b038716916200027a9162000579565b600060405180830381855afa9150503d8060008114620002b7576040519150601f19603f3d011682016040523d82523d6000602084013e620002bc565b606091505b5091509150818015620002d157506020815110155b156200030957600081806020019051810190620002ef9190620005aa565b905060ff811162000307576001969095509350505050565b505b5060009485945092505050565b600580546001600160a01b038381166001600160a01b0319831681179093556040519116919082907f8be0079c531659141344cd1fd0a4f28419497f9722a3daafe3b4186f6b6457e090600090a35050565b80516001600160a01b03811681146200038057600080fd5b919050565b60008060008060008060c087890312156200039f57600080fd5b620003aa8762000368565b9550620003ba6020880162000368565b9450620003ca6040880162000368565b9350620003da6060880162000368565b9250620003ea6080880162000368565b9150620003fa60a0880162000368565b90509295509295509295565b634e487b7160e01b600052604160045260246000fd5b600181811c908216806200043157607f821691505b6020821081036200045257634e487b7160e01b600052602260045260246000fd5b50919050565b601f821115620004a8576000816000526020600020601f850160051c81016020861015620004835750805b601f850160051c820191505b81811015620004a4578281556001016200048f565b5050505b505050565b81516001600160401b03811115620004c957620004c962000406565b620004e181620004da84546200041c565b8462000458565b602080601f831160018114620005195760008415620005005750858301515b600019600386901b1c1916600185901b178555620004a4565b600085815260208120601f198616915b828110156200054a5788860151825594840194600190910190840162000529565b5085821015620005695787850151600019600388901b60f8161c191681555b5050505050600190811b01905550565b6000825160005b818110156200059c576020818601810151858301520162000580565b506000920191825250919050565b600060208284031215620005bd57600080fd5b5051919050565b60805160a05160c05160e051610100516101205161014051614804620006966000396000610cc0015260008181610a7901528181611efb01526133c701526000818161087d0152818161209a01526121cd0152600081816109d20152818161148c01528181611a1501528181611cf60152818161250a01528181612d120152613243015260008181610c2c015281816114df01528181611a680152818161254401528181612d4d015261327d015260006113de0152600081816106ef015281816134e5015261382601526148046000f3fe60806040526004361061044a5760003560e01c8063767f06ae11610234578063b460af941161012e578063d0ebdbe7116100b6578063ed84c5f31161007a578063ed84c5f314610d68578063ef8b30f714610bfa578063f06772ee14610d7d578063f2fde38b14610dad578063f8a67a6214610dcd57600080fd5b8063d0ebdbe714610c8e578063d826492014610cae578063d88c151714610ce2578063d905777e14610d02578063dd62ed3e14610d2257600080fd5b8063c63d75b6116100fd578063c63d75b614610779578063c6e6f59214610bfa578063c6e831e814610c1a578063c9411e2214610c4e578063ce96cb7714610c6e57600080fd5b8063b460af9414610b67578063b49a60bb14610b87578063b918161114610baa578063ba08765214610bda57600080fd5b806395d89b41116101bc578063a0317bd611610180578063a0317bd614610ad1578063a267526b14610ae7578063a9059cbb14610b07578063b09943c314610b27578063b3d7f6b914610b4757600080fd5b806395d89b4114610a325780639699b63f14610a4757806396c1c43314610a6757806398d3b20914610a9b578063a00fff6f14610ab157600080fd5b8063852d0d6e11610203578063852d0d6e1461099657806389b12716146109ab5780638ba17976146109c05780638da5cb5b146109f457806394bf804d14610a1257600080fd5b8063767f06ae1461091f57806379f06d21146109345780637cd368441461095457806383189fa11461098157600080fd5b8063313ce567116103455780634cdad506116102cd578063656a4b2011610291578063656a4b201461086b57806368e5ce841461089f5780636e553f65146108b457806370a08231146108d4578063715018a61461090a57600080fd5b80634cdad506146104cc57806356447ce8146107e657806357fce5b7146108065780635c272ef61461082a5780635c975abb1461084a57600080fd5b80633f3e4c11116103145780633f3e4c1114610759578063402d267d1461077957806345650c071461079b578063481c6a75146107b157806348ff15b3146107d157600080fd5b8063313ce56714610699578063386db353146106c057806338d52e0f146106e05780633c1d5df01461072757600080fd5b80631584410a116103d3578063223706851161039757806322370685146105f457806323b872dd1461061d57806329ea1c0b1461063d5780632ab4d052146106535780632c178bd01461066957600080fd5b80631584410a1461057257806316c38b3c14610588578063175188e8146105aa57806318160ddd146105ca57806320800a00146105df57600080fd5b806307a2d13a1161041a57806307a2d13a146104cc578063095ea7b3146104ec5780630a28a4771461051c578063106b9ca11461053c578063119328d61461055257600080fd5b8062cfdb091461045657806301e1d1141461047f578063055a2b581461049457806306fdde03146104aa57600080fd5b3661045157005b600080fd5b34801561046257600080fd5b5061046c60115481565b6040519081526020015b60405180910390f35b34801561048b57600080fd5b5061046c610ded565b3480156104a057600080fd5b5061046c60085481565b3480156104b657600080fd5b506104bf610f14565b6040516104769190613dc1565b3480156104d857600080fd5b5061046c6104e7366004613e10565b610fa6565b3480156104f857600080fd5b5061050c610507366004613e3e565b610fb9565b6040519015158152602001610476565b34801561052857600080fd5b5061046c610537366004613e10565b610fd1565b34801561054857600080fd5b5061046c60165481565b34801561055e57600080fd5b5061046c61056d366004613e6a565b610fde565b34801561057e57600080fd5b5061046c600f5481565b34801561059457600080fd5b506105a86105a3366004613e9a565b61104e565b005b3480156105b657600080fd5b506105a86105c5366004613eb7565b6110ae565b3480156105d657600080fd5b5060025461046c565b3480156105eb57600080fd5b506105a8611362565b34801561060057600080fd5b506007546008545b60408051928352602083019190915201610476565b34801561062957600080fd5b5061050c610638366004613ed4565b6113b0565b34801561064957600080fd5b5061046c60075481565b34801561065f57600080fd5b5061046c600d5481565b34801561067557600080fd5b5061050c610684366004613eb7565b60096020526000908152604090205460ff1681565b3480156106a557600080fd5b506106ae6113d6565b60405160ff9091168152602001610476565b3480156106cc57600080fd5b506105a86106db366004613e6a565b611407565b3480156106ec57600080fd5b507f00000000000000000000000000000000000000000000000000000000000000005b6040516001600160a01b039091168152602001610476565b34801561073357600080fd5b50600e546107449063ffffffff1681565b60405163ffffffff9091168152602001610476565b34801561076557600080fd5b506105a8610774366004613e10565b61155f565b34801561078557600080fd5b5061046c610794366004613eb7565b5060001990565b3480156107a757600080fd5b5061046c60125481565b3480156107bd57600080fd5b5060135461070f906001600160a01b031681565b3480156107dd57600080fd5b506105a8611601565b3480156107f257600080fd5b506105a8610801366004613e10565b6116a2565b34801561081257600080fd5b5061081b6116fe565b60405161047693929190613f8b565b34801561083657600080fd5b5061046c610845366004613fc4565b611964565b34801561085657600080fd5b5060145461050c90600160a01b900460ff1681565b34801561087757600080fd5b5061070f7f000000000000000000000000000000000000000000000000000000000000000081565b3480156108ab57600080fd5b506105a8611bc1565b3480156108c057600080fd5b5061046c6108cf366004613ffd565b611c6c565b3480156108e057600080fd5b5061046c6108ef366004613eb7565b6001600160a01b031660009081526020819052604090205490565b34801561091657600080fd5b506105a8611e36565b34801561092b57600080fd5b5061046c600581565b34801561094057600080fd5b506105a861094f366004613e6a565b611e48565b34801561096057600080fd5b5061046c61096f366004613eb7565b600a6020526000908152604090205481565b34801561098d57600080fd5b5061046c611e5b565b3480156109a257600080fd5b50610608612075565b3480156109b757600080fd5b5061046c612090565b3480156109cc57600080fd5b5061070f7f000000000000000000000000000000000000000000000000000000000000000081565b348015610a0057600080fd5b506005546001600160a01b031661070f565b348015610a1e57600080fd5b5061046c610a2d366004613ffd565b6122b3565b348015610a3e57600080fd5b506104bf6122d9565b348015610a5357600080fd5b50610608610a62366004613e6a565b6122e8565b348015610a7357600080fd5b5061070f7f000000000000000000000000000000000000000000000000000000000000000081565b348015610aa757600080fd5b5061046c600c5481565b348015610abd57600080fd5b5060145461070f906001600160a01b031681565b348015610add57600080fd5b5061046c60105481565b348015610af357600080fd5b5061070f610b02366004613e10565b61233f565b348015610b1357600080fd5b5061050c610b22366004613e3e565b612369565b348015610b3357600080fd5b50610608610b42366004613ffd565b612377565b348015610b5357600080fd5b5061046c610b62366004613e10565b6125c5565b348015610b7357600080fd5b5061046c610b8236600461402d565b6125d2565b348015610b9357600080fd5b50610b9c61262a565b604051610476929190614064565b348015610bb657600080fd5b5061050c610bc5366004613eb7565b60156020526000908152604090205460ff1681565b348015610be657600080fd5b5061046c610bf536600461402d565b612793565b348015610c0657600080fd5b5061046c610c15366004613e10565b6127e2565b348015610c2657600080fd5b5061070f7f000000000000000000000000000000000000000000000000000000000000000081565b348015610c5a57600080fd5b506105a8610c69366004613e3e565b6127ef565b348015610c7a57600080fd5b5061046c610c89366004613eb7565b612a84565b348015610c9a57600080fd5b506105a8610ca9366004613eb7565b612aa8565b348015610cba57600080fd5b5061070f7f000000000000000000000000000000000000000000000000000000000000000081565b348015610cee57600080fd5b506105a8610cfd366004614089565b612af9565b348015610d0e57600080fd5b5061046c610d1d366004613eb7565b612b8a565b348015610d2e57600080fd5b5061046c610d3d3660046140af565b6001600160a01b03918216600090815260016020908152604080832093909416825291909152205490565b348015610d7457600080fd5b5061046c612ba8565b348015610d8957600080fd5b50610d92612c63565b60408051938452602084019290925290820152606001610476565b348015610db957600080fd5b506105a8610dc8366004613eb7565b612ccd565b348015610dd957600080fd5b506105a8610de83660046140dd565b612d08565b600080610dfe600754600854610fde565b600b5490915060005b81811015610f0c5760096000600b8381548110610e2657610e26614114565b60009182526020808320909101546001600160a01b0316835282019290925260400190205460ff1615610f0457600080600b8381548110610e6957610e69614114565b9060005260206000200160009054906101000a90046001600160a01b03166001600160a01b031663c4a7761e6040518163ffffffff1660e01b81526004016040805180830381865afa158015610ec3573d6000803e3d6000fd5b505050506040513d601f19601f82011682018060405250810190610ee7919061412a565b91509150610ef58282610fde565b610eff9086614164565b945050505b600101610e07565b509092915050565b606060038054610f2390614177565b80601f0160208091040260200160405190810160405280929190818152602001828054610f4f90614177565b8015610f9c5780601f10610f7157610100808354040283529160200191610f9c565b820191906000526020600020905b815481529060010190602001808311610f7f57829003601f168201915b5050505050905090565b6000610fb3826000612e18565b92915050565b600033610fc7818585612e52565b5060019392505050565b6000610fb3826001612e5f565b600080610fe9612ba8565b90506000610ff5612090565b90506000670de0b6b3a764000061100c84886141b1565b61101691906141de565b90506000670de0b6b3a764000061102d84886141b1565b61103791906141de565b90506110438183614164565b979650505050505050565b611056612e8f565b60148054821515600160a01b0260ff60a01b199091161790556040517fb80d1ae5628c2af91424c54c87acfd15016be4bebeef0425b328238702f34831906110a390831515815260200190565b60405180910390a150565b6013546001600160a01b031633148015906110d457506005546001600160a01b03163314155b156110f1576040516282b42960e81b815260040160405180910390fd5b6001600160a01b03811660009081526009602052604090205460ff1661112a57604051631b92e95360e31b815260040160405180910390fd5b604051632e1a7d4d60e01b8152600019600482015260009081906001600160a01b03841690632e1a7d4d9060240160408051808303816000875af1158015611176573d6000803e3d6000fd5b505050506040513d601f19601f8201168201806040525081019061119a919061412a565b9150915081600760008282546111b09190614164565b9250508190555080600860008282546111c99190614164565b90915550506001600160a01b0383166000908152600960209081526040808320805460ff19169055600a909152812054600c80549192909161120c9084906141f2565b90915550506001600160a01b0383166000908152600a60205260408120819055600b54905b8181101561132757846001600160a01b0316600b828154811061125657611256614114565b6000918252602090912001546001600160a01b03160361131f57600b61127d6001846141f2565b8154811061128d5761128d614114565b600091825260209091200154600b80546001600160a01b0390921691839081106112b9576112b9614114565b9060005260206000200160006101000a8154816001600160a01b0302191690836001600160a01b03160217905550600b8054806112f8576112f8614205565b600082815260209020810160001990810180546001600160a01b0319169055019055611327565b600101611231565b506040516001600160a01b038516907f09a1db4b80c32706328728508c941a6b954f31eb5affd32f236c1fd405f8fea490600090a250505050565b61136a612e8f565b4780156113ad576005546040516001600160a01b039091169082156108fc029083906000818181858888f193505050501580156113ab573d6000803e3d6000fd5b505b50565b6000336113be858285612ebc565b6113c9858585612f28565b60019150505b9392505050565b6000611402817f000000000000000000000000000000000000000000000000000000000000000061421b565b905090565b3360009081526015602052604090205460ff1615801561143257506005546001600160a01b03163314155b1561144f576040516282b42960e81b815260040160405180910390fd5b8115801561145b575080155b156114795760405163162908e360e11b815260040160405180910390fd5b81156114cc576114b46001600160a01b037f000000000000000000000000000000000000000000000000000000000000000016333085612f87565b81600760008282546114c69190614164565b90915550505b801561151f576115076001600160a01b037f000000000000000000000000000000000000000000000000000000000000000016333084612f87565b80600860008282546115199190614164565b90915550505b604080518381526020810183905233917fbe3fa47138efc08c52a1c62d79a4f0f1834fcb990b2bdcd62e673c3622bdd33f91015b60405180910390a25050565b611567612e8f565b6002548110156115b55760405162461bcd60e51b815260206004820152601460248201527342656c6f772063757272656e7420737570706c7960601b60448201526064015b60405180910390fd5b6b033b2e3c9fd0803ce80000008111156115fc5760405162461bcd60e51b81526020600482015260086024820152670a8dede40d0d2ced60c31b60448201526064016115ac565b600d55565b6014546001600160a01b0316331461162b576040516282b42960e81b815260040160405180910390fd5b60138054601480546001600160a01b038082166001600160a01b031980861682178755909216909255600090815260156020526040808220805460ff1916600117905593549351928216939091169183917fc64707e618a83637fc41ad1e3aa4242bd5fdd353f3d60bc0faf40db0d7d8607891a350565b6116aa612e8f565b610e1081101580156116bf57506202a3008111155b6116f95760405162461bcd60e51b815260206004820152600b60248201526a496e76616c69642061676560a81b60448201526064016115ac565b600f55565b600b54606090819081908067ffffffffffffffff81111561172157611721614234565b60405190808252806020026020018201604052801561174a578160200160208202803683370190505b5093508067ffffffffffffffff81111561176657611766614234565b60405190808252806020026020018201604052801561178f578160200160208202803683370190505b5092508067ffffffffffffffff8111156117ab576117ab614234565b6040519080825280602002602001820160405280156117d4578160200160208202803683370190505b50915060005b8181101561195d57600b81815481106117f5576117f5614114565b9060005260206000200160009054906101000a90046001600160a01b031685828151811061182557611825614114565b60200260200101906001600160a01b031690816001600160a01b03168152505060096000600b838154811061185c5761185c614114565b60009182526020808320909101546001600160a01b0316835282019290925260400190205460ff161561195557600b818154811061189c5761189c614114565b9060005260206000200160009054906101000a90046001600160a01b03166001600160a01b031663c4a7761e6040518163ffffffff1660e01b81526004016040805180830381865afa1580156118f6573d6000803e3d6000fd5b505050506040513d601f19601f8201168201806040525081019061191a919061412a565b85838151811061192c5761192c614114565b6020026020010185848151811061194557611945614114565b6020908102919091010191909152525b6001016117da565b5050909192565b600061196e612fee565b601454600160a01b900460ff1615611999576040516313d0ff5960e31b815260040160405180910390fd5b831580156119a5575082155b156119c35760405163162908e360e11b815260040160405180910390fd5b6001600160a01b0382166119ea5760405163d92e233d60e01b815260040160405180910390fd5b60006119f4612ba8565b90506000611a00612090565b90508515611a5557611a3d6001600160a01b037f000000000000000000000000000000000000000000000000000000000000000016333089612f87565b8560076000828254611a4f9190614164565b90915550505b8415611aa857611a906001600160a01b037f000000000000000000000000000000000000000000000000000000000000000016333088612f87565b8460086000828254611aa29190614164565b90915550505b6000611ab48787610fde565b9050611abf60025490565b600003611ada57611ad381620138806141b1565b9350611afc565b611ae2610ded565b600254611aef90836141b1565b611af991906141de565b93505b600d5484611b0960025490565b611b139190614164565b1115611b325760405163162908e360e11b815260040160405180910390fd5b611b3c8585613018565b611b4461304e565b15611b5c57611b576007546008546130ab565b426012555b6040805188815260208101889052908101849052606081018390526080810182905260a0810185905233907f527388e4dad6def65deffcf72e615ac5b8b230c9972b404d6f5f5d29a96954ea9060c00160405180910390a25050506113cf6001600655565b6013546001600160a01b03163314801590611be757506005546001600160a01b03163314155b15611c04576040516282b42960e81b815260040160405180910390fd5b611c0c612fee565b600c54600003611c4e5760405162461bcd60e51b815260206004820152600d60248201526c4e6f207374726174656769657360981b60448201526064016115ac565b611c5c6007546008546130ab565b42601255611c6a6001600655565b565b6000611c76612fee565b601454600160a01b900460ff1615611ca1576040516313d0ff5960e31b815260040160405180910390fd5b82600003611cc25760405163162908e360e11b815260040160405180910390fd5b6001600160a01b038216611ce95760405163d92e233d60e01b815260040160405180910390fd5b611d1e6001600160a01b037f000000000000000000000000000000000000000000000000000000000000000016333086612f87565b8260076000828254611d309190614164565b9091555060009050611d428482610fde565b9050611d4d60025490565b15611d7657611d5a610ded565b600254611d6790836141b1565b611d7191906141de565b611d83565b611d8381620138806141b1565b9150600d5482611d9260025490565b611d9c9190614164565b1115611dbb5760405163162908e360e11b815260040160405180910390fd5b611dc58383613018565b611dcd61304e565b15611de557611de06007546008546130ab565b426012555b60408051858152602081018490526001600160a01b0385169133917fdcbc1c05240f31ff3ad067ef1ee35ce4997762752e3a095284754544f4c709d7910160405180910390a350610fb36001600655565b611e3e612e8f565b611c6a6000613370565b611e50612e8f565b601091909155601155565b604080516002808252606082018352600092839291906020830190803683375050600e54825192935063ffffffff1691839150600090611e9d57611e9d614114565b602002602001019063ffffffff16908163ffffffff1681525050600081600181518110611ecc57611ecc614114565b63ffffffff9092166020928302919091019091015260405163883bdbfd60e01b81526000906001600160a01b037f0000000000000000000000000000000000000000000000000000000000000000169063883bdbfd90611f3090859060040161424a565b600060405180830381865afa158015611f4d573d6000803e3d6000fd5b505050506040513d6000823e601f3d908101601f19168201604052611f759190810190614361565b509050600081600081518110611f8d57611f8d614114565b602002602001015182600181518110611fa857611fa8614114565b6020026020010151611fba919061442d565b600e54909150600090611fd39063ffffffff168361445a565b90506103e7198160020b138015611fee57506103e88160020b125b1561205d57670de0b6b3a76400006000612012600284900b655af3107a4000614498565b9050600061202082846144c8565b90506000811161203857670de0b6b3a7640000612051565b612051816ec097ce7bc90715b34b9f10000000006141de565b97505050505050505090565b6120656133c2565b94505050505090565b5050505090565b600080612080612ba8565b612088612090565b915091509091565b60008060008060007f00000000000000000000000000000000000000000000000000000000000000006001600160a01b031663feaf968c6040518163ffffffff1660e01b815260040160a060405180830381865afa1580156120f6573d6000803e3d6000fd5b505050506040513d601f19601f8201168201806040525081019061211a919061450f565b945094505093509350600083136121435760405162bfc92160e01b815260040160405180910390fd5b8160000361216457604051630cd5fa0760e11b815260040160405180910390fd5b8369ffffffffffffffffffff168169ffffffffffffffffffff16101561219d57604051630cd5fa0760e11b815260040160405180910390fd5b600f546121aa83426141f2565b11156121c957604051630cd5fa0760e11b815260040160405180910390fd5b60007f00000000000000000000000000000000000000000000000000000000000000006001600160a01b031663313ce5676040518163ffffffff1660e01b8152600401602060405180830381865afa158015612229573d6000803e3d6000fd5b505050506040513d601f19601f8201168201806040525081019061224d9190614570565b905061225a81601261458b565b61226590600a614688565b61226f90856141b1565b9550670d2f13f7789f000086108061228e5750670e92596fd629000086115b156122ab5760405162bfc92160e01b815260040160405180910390fd5b505050505090565b600060001960006122c3856125c5565b90506122d1338583886134e0565b949350505050565b606060048054610f2390614177565b6000806122f58484610fde565b905061230060025490565b156123295761230d610ded565b60025461231a90836141b1565b61232491906141de565b612336565b61233681620138806141b1565b91509250929050565b600b818154811061234f57600080fd5b6000918252602090912001546001600160a01b0316905081565b600033610fc7818585612f28565b600080612382612fee565b836000036123a35760405163162908e360e11b815260040160405180910390fd5b6001600160a01b0383166123ca5760405163d92e233d60e01b815260040160405180910390fd5b336000908152602081905260409020548411156123fa57604051631e9acf1760e31b815260040160405180910390fd5b6000612404610ded565b9050600061241160025490565b905060008161242088856141b1565b61242a91906141de565b90506000828860075461243d91906141b1565b61244791906141de565b90506000838960085461245a91906141b1565b61246491906141de565b905081965080955060006124788383610fde565b9050838110156124bd57600061248e82866141f2565b905060008061249c83613572565b90925090506124ab828c614164565b9a506124b7818b614164565b99505050505b6124c7338b61378c565b82600760008282546124d991906141f2565b9250508190555081600860008282546124f291906141f2565b90915550508715612531576125316001600160a01b037f0000000000000000000000000000000000000000000000000000000000000000168a8a6137c2565b861561256b5761256b6001600160a01b037f0000000000000000000000000000000000000000000000000000000000000000168a896137c2565b604080518b8152602081018a905290810188905233907fd9c54d301d6668689a527e28d9849021b9227514f8ce8c57b95ca5dee5e60a2d9060600160405180910390a25050505050506125be6001600655565b9250929050565b6000610fb3826001612e18565b6000806125de83612a84565b90508085111561260757828582604051633fa733bb60e21b81526004016115ac93929190614697565b600061261286610fd1565b905061262133868689856137f3565b95945050505050565b600b5460609081908067ffffffffffffffff81111561264b5761264b614234565b604051908082528060200260200182016040528015612674578160200160208202803683370190505b5092508067ffffffffffffffff81111561269057612690614234565b6040519080825280602002602001820160405280156126b9578160200160208202803683370190505b50915060005b8181101561278d57600b81815481106126da576126da614114565b9060005260206000200160009054906101000a90046001600160a01b031684828151811061270a5761270a614114565b60200260200101906001600160a01b031690816001600160a01b031681525050600a6000600b838154811061274157612741614114565b60009182526020808320909101546001600160a01b03168352820192909252604001902054835184908390811061277a5761277a614114565b60209081029190910101526001016126bf565b50509091565b60008061279f83612b8a565b9050808511156127c857828582604051632e52afbb60e21b81526004016115ac93929190614697565b60006127d386610fa6565b9050612621338686848a6137f3565b6000610fb3826000612e5f565b6013546001600160a01b0316331480159061281557506005546001600160a01b03163314155b15612832576040516282b42960e81b815260040160405180910390fd5b6001600160a01b0382166128595760405163d92e233d60e01b815260040160405180910390fd5b6001600160a01b03821660009081526009602052604090205460ff16156128935760405163c976754d60e01b815260040160405180910390fd5b600b546005116128b657604051631f62ca4f60e21b815260040160405180910390fd5b8015806128c4575061271081115b156128e25760405163585b926360e01b815260040160405180910390fd5b61271081600c546128f39190614164565b11156129125760405163585b926360e01b815260040160405180910390fd5b816001600160a01b031663392e53cd6040518163ffffffff1660e01b8152600401602060405180830381865afa158015612950573d6000803e3d6000fd5b505050506040513d601f19601f8201168201806040525081019061297491906146b8565b6129c05760405162461bcd60e51b815260206004820152601860248201527f5374726174656779206e6f7420696e697469616c697a6564000000000000000060448201526064016115ac565b6001600160a01b0382166000818152600960209081526040808320805460ff19166001908117909155600a9092528220849055600b8054918201815582527f0175b7a638427703f0dbe7bb9bbf987a2551717b34e79f33b5b1008d1fa01db90180546001600160a01b031916909217909155600c8054839290612a44908490614164565b90915550506040518181526001600160a01b038316907f2f564a83158ad1831793ad3e69257b52f39ece5d49cb0d8746708ecb9ef964da90602001611553565b6001600160a01b038116600090815260208190526040812054610fb3906000612e18565b612ab0612e8f565b6001600160a01b038116612ad75760405163d92e233d60e01b815260040160405180910390fd5b601480546001600160a01b0319166001600160a01b0392909216919091179055565b612b01612e8f565b63ffffffff81161580612b2f575061012c8163ffffffff1610158015612b2f5750611c208163ffffffff1611155b612b6e5760405162461bcd60e51b815260206004820152601060248201526f125b9d985b1a59081a5b9d195c9d985b60821b60448201526064016115ac565b600e805463ffffffff191663ffffffff92909216919091179055565b6001600160a01b038116600090815260208190526040812054610fb3565b600080612bb3612090565b600e5490915060009063ffffffff1615612c3457306001600160a01b03166383189fa16040518163ffffffff1660e01b8152600401602060405180830381865afa925050508015612c21575060408051601f3d908101601f19168201909252612c1e918101906146d5565b60015b612c2d57612c2d6133c2565b9050612c3f565b612c3c6133c2565b90505b670de0b6b3a7640000612c5283836141b1565b612c5c91906141de565b9250505090565b6000806000670de0b6b3a7640000612c79612ba8565b600754612c8691906141b1565b612c9091906141de565b9250670de0b6b3a7640000612ca3612090565b600854612cb091906141b1565b612cba91906141de565b9150612cc68284614164565b9050909192565b612cd5612e8f565b6001600160a01b038116612cff57604051631e4fbdf760e01b8152600060048201526024016115ac565b6113ad81613370565b612d10612e8f565b7f00000000000000000000000000000000000000000000000000000000000000006001600160a01b0316836001600160a01b03161480612d8157507f00000000000000000000000000000000000000000000000000000000000000006001600160a01b0316836001600160a01b0316145b15612dd85760405162461bcd60e51b815260206004820152602160248201527f5573652077697468647261774475616c20666f72207661756c7420746f6b656e6044820152607360f81b60648201526084016115ac565b6001600160a01b038116612dff5760405163d92e233d60e01b815260040160405180910390fd5b612e136001600160a01b03841682846137c2565b505050565b60006113cf612e25610ded565b612e30906001614164565b612e3c6000600a614688565b600254612e499190614164565b859190856138b3565b612e1383838360016138f7565b60006113cf612e6f82600a614688565b600254612e7c9190614164565b612e84610ded565b612e49906001614164565b6005546001600160a01b03163314611c6a5760405163118cdaa760e01b81523360048201526024016115ac565b6001600160a01b03838116600090815260016020908152604080832093861683529290522054600019811015612f225781811015612f1357828183604051637dc7a0d960e11b81526004016115ac93929190614697565b612f22848484840360006138f7565b50505050565b6001600160a01b038316612f5257604051634b637e8f60e11b8152600060048201526024016115ac565b6001600160a01b038216612f7c5760405163ec442f0560e01b8152600060048201526024016115ac565b612e138383836139be565b6040516001600160a01b038481166024830152838116604483015260648201839052612f229186918216906323b872dd906084015b604051602081830303815290604052915060e01b6020820180516001600160e01b038381831617835250505050613ad5565b60026006540361301157604051633ee5aeb560e01b815260040160405180910390fd5b6002600655565b6001600160a01b0382166130425760405163ec442f0560e01b8152600060048201526024016115ac565b6113ab600083836139be565b6000600c546000036130605750600090565b6000613070600754600854610fde565b905060105481101561308457600091505090565b6011546012546130949190614164565b4210156130a357600091505090565b600191505090565b600c546000036130b9575050565b60006130c58383610fde565b9050806000036130d457505050565b600b5460005b81811015613369576000600b82815481106130f7576130f7614114565b60009182526020808320909101546001600160a01b0316808352600990915260409091205490915060ff16801561314557506001600160a01b0381166000908152600a602052604090205415155b1561336057600c546001600160a01b0382166000908152600a602052604081205490919061317390876141b1565b61317d91906141de565b9050600080881161318f5760006131a4565b8561319a89846141b1565b6131a491906141de565b905060008088116131b65760006131cb565b866131c189856141b1565b6131cb91906141de565b90506007548211156131dd5760075491505b6008548111156131ec57506008545b60008211806131fb5750600081115b1561335c57816007600082825461321291906141f2565b92505081905550806008600082825461322b91906141f2565b9091555050811561326a5761326a6001600160a01b037f0000000000000000000000000000000000000000000000000000000000000000168584613b46565b80156132a4576132a46001600160a01b037f0000000000000000000000000000000000000000000000000000000000000000168583613b46565b604051631c57762b60e31b815260048101839052602481018290526001600160a01b0385169063e2bbb158906044016020604051808303816000875af11580156132f2573d6000803e3d6000fd5b505050506040513d601f19601f8201168201806040525081019061331691906146d5565b5060408051838152602081018390526001600160a01b038616917ffe21ae5405b014c3a0c011f9950992ccc080a66a6ea082b33d35fb760c11ebe7910160405180910390a25b5050505b506001016130da565b5050505050565b600580546001600160a01b038381166001600160a01b0319831681179093556040519116919082907f8be0079c531659141344cd1fd0a4f28419497f9722a3daafe3b4186f6b6457e090600090a35050565b6000807f00000000000000000000000000000000000000000000000000000000000000006001600160a01b0316633850c7bd6040518163ffffffff1660e01b815260040160e060405180830381865afa158015613423573d6000803e3d6000fd5b505050506040513d601f19601f820116820180604052508101906134479190614700565b50505050505090506000816001600160a01b0316826001600160a01b031661346f91906141b1565b9050600160c01b60008161348b84670de0b6b3a76400006141b1565b61349591906141de565b9050600081116134ac5766038d7ea4c680006134c5565b6134c5816ec097ce7bc90715b34b9f10000000006141de565b94508460000361206e5766038d7ea4c6800094505050505090565b61350c7f0000000000000000000000000000000000000000000000000000000000000000853085612f87565b6135168382613018565b826001600160a01b0316846001600160a01b03167fdcbc1c05240f31ff3ad067ef1ee35ce4997762752e3a095284754544f4c709d78484604051613564929190918252602082015260400190565b60405180910390a350505050565b600b546000908190815b81811015613785576000600b828154811061359957613599614114565b60009182526020808320909101546001600160a01b0316808352600990915260409091205490915060ff1680156135d05750600086115b1561377c57600080826001600160a01b031663c4a7761e6040518163ffffffff1660e01b81526004016040805180830381865afa158015613615573d6000803e3d6000fd5b505050506040513d601f19601f82011682018060405250810190613639919061412a565b9150915060006136498383610fde565b9050801561377857600c546001600160a01b0385166000908152600a602052604081205490919061367a908c6141b1565b61368491906141de565b9050801561377657604051632e1a7d4d60e01b81526004810182905260009081906001600160a01b03881690632e1a7d4d9060240160408051808303816000875af11580156136d7573d6000803e3d6000fd5b505050506040513d601f19601f820116820180604052508101906136fb919061412a565b9150915081600760008282546137119190614164565b92505081905550806008600082825461372a9190614164565b9091555061373a9050828c614164565b9a50613746818b614164565b995060006137548383610fde565b90508c81101561376d57613768818e6141f2565b613770565b60005b9c505050505b505b5050505b5060010161357c565b5050915091565b6001600160a01b0382166137b657604051634b637e8f60e11b8152600060048201526024016115ac565b6113ab826000836139be565b6040516001600160a01b03838116602483015260448201839052612e1391859182169063a9059cbb90606401612fbc565b826001600160a01b0316856001600160a01b03161461381757613817838683612ebc565b613821838261378c565b61384c7f000000000000000000000000000000000000000000000000000000000000000085846137c2565b826001600160a01b0316846001600160a01b0316866001600160a01b03167ffbde797d201c681b91056529119e0b02407c7bb96a4a2c75c01fc9667232c8db85856040516138a4929190918252602082015260400190565b60405180910390a45050505050565b60006138e26138c183613bd0565b80156138dd5750600084806138d8576138d86141c8565b868809115b151590565b6138ed868686613bfd565b6126219190614164565b6001600160a01b0384166139215760405163e602df0560e01b8152600060048201526024016115ac565b6001600160a01b03831661394b57604051634a1406b160e11b8152600060048201526024016115ac565b6001600160a01b0380851660009081526001602090815260408083209387168352929052208290558015612f2257826001600160a01b0316846001600160a01b03167f8c5be1e5ebec7d5bd14f71427d1e84f3dd0314c0f7b2291e5b200ac8c7c3b9258460405161356491815260200190565b6001600160a01b0383166139e95780600260008282546139de9190614164565b90915550613a489050565b6001600160a01b03831660009081526020819052604090205481811015613a295783818360405163391434e360e21b81526004016115ac93929190614697565b6001600160a01b03841660009081526020819052604090209082900390555b6001600160a01b038216613a6457600280548290039055613a83565b6001600160a01b03821660009081526020819052604090208054820190555b816001600160a01b0316836001600160a01b03167fddf252ad1be2c89b69c2b068fc378daa952ba7f163c4a11628f55a4df523b3ef83604051613ac891815260200190565b60405180910390a3505050565b600080602060008451602086016000885af180613af8576040513d6000823e3d81fd5b50506000513d91508115613b10578060011415613b1d565b6001600160a01b0384163b155b15612f2257604051635274afe760e01b81526001600160a01b03851660048201526024016115ac565b604051636eb1769f60e11b81523060048201526001600160a01b0383811660248301526000919085169063dd62ed3e90604401602060405180830381865afa158015613b96573d6000803e3d6000fd5b505050506040513d601f19601f82011682018060405250810190613bba91906146d5565b9050612f228484613bcb8585614164565b613cb2565b60006002826003811115613be657613be6614796565b613bf091906147ac565b60ff166001149050919050565b6000806000613c0c8686613d42565b9150915081600003613c3157838181613c2757613c276141c8565b04925050506113cf565b818411613c4857613c486003851502601118613d60565b6000848688096000868103871696879004966002600389028118808a02820302808a02820302808a02820302808a02820302808a02820302808a02909103029181900381900460010185841190960395909502919093039390930492909217029150509392505050565b604080516001600160a01b038416602482015260448082018490528251808303909101815260649091019091526020810180516001600160e01b031663095ea7b360e01b179052613d038482613d72565b612f22576040516001600160a01b03848116602483015260006044830152613d3891869182169063095ea7b390606401612fbc565b612f228482613ad5565b60008060001983850993909202808410938190039390930393915050565b634e487b71600052806020526024601cfd5b6000806000806020600086516020880160008a5af192503d91506000519050828015613db757508115613da85780600114613db7565b6000866001600160a01b03163b115b9695505050505050565b60006020808352835180602085015260005b81811015613def57858101830151858201604001528201613dd3565b506000604082860101526040601f19601f8301168501019250505092915050565b600060208284031215613e2257600080fd5b5035919050565b6001600160a01b03811681146113ad57600080fd5b60008060408385031215613e5157600080fd5b8235613e5c81613e29565b946020939093013593505050565b60008060408385031215613e7d57600080fd5b50508035926020909101359150565b80151581146113ad57600080fd5b600060208284031215613eac57600080fd5b81356113cf81613e8c565b600060208284031215613ec957600080fd5b81356113cf81613e29565b600080600060608486031215613ee957600080fd5b8335613ef481613e29565b92506020840135613f0481613e29565b929592945050506040919091013590565b60008151808452602080850194506020840160005b83811015613f4f5781516001600160a01b031687529582019590820190600101613f2a565b509495945050505050565b60008151808452602080850194506020840160005b83811015613f4f57815187529582019590820190600101613f6f565b606081526000613f9e6060830186613f15565b8281036020840152613fb08186613f5a565b90508281036040840152613db78185613f5a565b600080600060608486031215613fd957600080fd5b83359250602084013591506040840135613ff281613e29565b809150509250925092565b6000806040838503121561401057600080fd5b82359150602083013561402281613e29565b809150509250929050565b60008060006060848603121561404257600080fd5b83359250602084013561405481613e29565b91506040840135613ff281613e29565b6040815260006140776040830185613f15565b82810360208401526126218185613f5a565b60006020828403121561409b57600080fd5b813563ffffffff811681146113cf57600080fd5b600080604083850312156140c257600080fd5b82356140cd81613e29565b9150602083013561402281613e29565b6000806000606084860312156140f257600080fd5b83356140fd81613e29565b9250602084013591506040840135613ff281613e29565b634e487b7160e01b600052603260045260246000fd5b6000806040838503121561413d57600080fd5b505080516020909101519092909150565b634e487b7160e01b600052601160045260246000fd5b80820180821115610fb357610fb361414e565b600181811c9082168061418b57607f821691505b6020821081036141ab57634e487b7160e01b600052602260045260246000fd5b50919050565b8082028115828204841417610fb357610fb361414e565b634e487b7160e01b600052601260045260246000fd5b6000826141ed576141ed6141c8565b500490565b81810381811115610fb357610fb361414e565b634e487b7160e01b600052603160045260246000fd5b60ff8181168382160190811115610fb357610fb361414e565b634e487b7160e01b600052604160045260246000fd5b6020808252825182820181905260009190848201906040850190845b8181101561428857835163ffffffff1683529284019291840191600101614266565b50909695505050505050565b604051601f8201601f1916810167ffffffffffffffff811182821017156142bd576142bd614234565b604052919050565b600067ffffffffffffffff8211156142df576142df614234565b5060051b60200190565b600082601f8301126142fa57600080fd5b8151602061430f61430a836142c5565b614294565b8083825260208201915060208460051b87010193508684111561433157600080fd5b602086015b8481101561435657805161434981613e29565b8352918301918301614336565b509695505050505050565b6000806040838503121561437457600080fd5b825167ffffffffffffffff8082111561438c57600080fd5b818501915085601f8301126143a057600080fd5b815160206143b061430a836142c5565b82815260059290921b840181019181810190898411156143cf57600080fd5b948201945b838610156143fd5785518060060b81146143ee5760008081fd5b825294820194908201906143d4565b9188015191965090935050508082111561441657600080fd5b50614423858286016142e9565b9150509250929050565b600682810b9082900b03667fffffffffffff198112667fffffffffffff82131715610fb357610fb361414e565b60008160060b8360060b80614471576144716141c8565b667fffffffffffff1982146000198214161561448f5761448f61414e565b90059392505050565b80820260008212600160ff1b841416156144b4576144b461414e565b8181058314821517610fb357610fb361414e565b80820182811260008312801582168215821617156144e8576144e861414e565b505092915050565b805169ffffffffffffffffffff8116811461450a57600080fd5b919050565b600080600080600060a0868803121561452757600080fd5b614530866144f0565b9450602086015193506040860151925060608601519150614553608087016144f0565b90509295509295909350565b805160ff8116811461450a57600080fd5b60006020828403121561458257600080fd5b6113cf8261455f565b60ff8281168282160390811115610fb357610fb361414e565b600181815b808511156145df5781600019048211156145c5576145c561414e565b808516156145d257918102915b93841c93908002906145a9565b509250929050565b6000826145f657506001610fb3565b8161460357506000610fb3565b816001811461461957600281146146235761463f565b6001915050610fb3565b60ff8411156146345761463461414e565b50506001821b610fb3565b5060208310610133831016604e8410600b8410161715614662575081810a610fb3565b61466c83836145a4565b80600019048211156146805761468061414e565b029392505050565b60006113cf60ff8416836145e7565b6001600160a01b039390931683526020830191909152604082015260600190565b6000602082840312156146ca57600080fd5b81516113cf81613e8c565b6000602082840312156146e757600080fd5b5051919050565b805161ffff8116811461450a57600080fd5b600080600080600080600060e0888a03121561471b57600080fd5b875161472681613e29565b8097505060208801518060020b811461473e57600080fd5b955061474c604089016146ee565b945061475a606089016146ee565b9350614768608089016146ee565b925061477660a0890161455f565b915060c088015161478681613e8c565b8091505092959891949750929550565b634e487b7160e01b600052602160045260246000fd5b600060ff8316806147bf576147bf6141c8565b8060ff8416069150509291505056fea264697066735822122011789babfca4d98a299febe27e2f6ef97fee86ac35593f5098d1ffd54f34fa7e64736f6c63430008160033","linkReferences":{}},"methodIdentifiers":{"MAX_STRATEGIES()":"767f06ae","UNISWAP_ROUTER()":"d8264920","USD1_PRICE_FEED()":"656a4b20","USD1_TOKEN()":"c6e831e8","WLFI_TOKEN()":"8ba17976","WLFI_USD1_POOL()":"96c1c433","_getTWAPPrice()":"83189fa1","acceptManager()":"48ff15b3","activeStrategies(address)":"2c178bd0","addStrategy(address,uint256)":"c9411e22","allowance(address,address)":"dd62ed3e","approve(address,uint256)":"095ea7b3","asset()":"38d52e0f","authorized(address)":"b9181611","balanceOf(address)":"70a08231","calculateUSDValue(uint256,uint256)":"119328d6","convertToAssets(uint256)":"07a2d13a","convertToShares(uint256)":"c6e6f592","decimals()":"313ce567","deploymentThreshold()":"a0317bd6","deposit(uint256,address)":"6e553f65","depositDual(uint256,uint256,address)":"5c272ef6","forceDeployToStrategies()":"68e5ce84","getCurrentPrices()":"852d0d6e","getStrategies()":"b49a60bb","getStrategyAssets()":"57fce5b7","getUSD1Price()":"89b12716","getVaultBalances()":"22370685","getVaultBalancesUSD()":"f06772ee","getWLFIPrice()":"ed84c5f3","injectCapital(uint256,uint256)":"386db353","lastDeployment()":"45650c07","lastRebalance()":"106b9ca1","manager()":"481c6a75","maxDeposit(address)":"402d267d","maxMint(address)":"c63d75b6","maxPriceAge()":"1584410a","maxRedeem(address)":"d905777e","maxTotalSupply()":"2ab4d052","maxWithdraw(address)":"ce96cb77","minDeploymentInterval()":"00cfdb09","mint(uint256,address)":"94bf804d","name()":"06fdde03","owner()":"8da5cb5b","paused()":"5c975abb","pendingManager()":"a00fff6f","previewDeposit(uint256)":"ef8b30f7","previewDepositDual(uint256,uint256)":"9699b63f","previewMint(uint256)":"b3d7f6b9","previewRedeem(uint256)":"4cdad506","previewWithdraw(uint256)":"0a28a477","redeem(uint256,address,address)":"ba087652","removeStrategy(address)":"175188e8","renounceOwnership()":"715018a6","rescueETH()":"20800a00","rescueToken(address,uint256,address)":"f8a67a62","setDeploymentParams(uint256,uint256)":"79f06d21","setManager(address)":"d0ebdbe7","setMaxPriceAge(uint256)":"56447ce8","setMaxTotalSupply(uint256)":"3f3e4c11","setPaused(bool)":"16c38b3c","setTWAPInterval(uint32)":"d88c1517","strategyList(uint256)":"a267526b","strategyWeights(address)":"7cd36844","symbol()":"95d89b41","totalAssets()":"01e1d114","totalStrategyWeight()":"98d3b209","totalSupply()":"18160ddd","transfer(address,uint256)":"a9059cbb","transferFrom(address,address,uint256)":"23b872dd","transferOwnership(address)":"f2fde38b","twapInterval()":"3c1d5df0","usd1Balance()":"055a2b58","withdraw(uint256,address,address)":"b460af94","withdrawDual(uint256,address)":"b09943c3","wlfiBalance()":"29ea1c0b"},"id":0}