{"abi":[{"type":"constructor","inputs":[{"name":"_wlfiToken","type":"address","internalType":"address"},{"name":"_usd1Token","type":"address","internalType":"address"},{"name":"_usd1PriceFeed","type":"address","internalType":"address"},{"name":"_wlfiUsd1Pool","type":"address","internalType":"address"},{"name":"_uniswapRouter","type":"address","internalType":"address"},{"name":"_owner","type":"address","internalType":"address"}],"stateMutability":"nonpayable"},{"type":"receive","stateMutability":"payable"},{"type":"function","name":"MAX_FEE","inputs":[],"outputs":[{"name":"","type":"uint16","internalType":"uint16"}],"stateMutability":"view"},{"type":"function","name":"MAX_STRATEGIES","inputs":[],"outputs":[{"name":"","type":"uint256","internalType":"uint256"}],"stateMutability":"view"},{"type":"function","name":"UNISWAP_ROUTER","inputs":[],"outputs":[{"name":"","type":"address","internalType":"contract ISwapRouter"}],"stateMutability":"view"},{"type":"function","name":"USD1_PRICE_FEED","inputs":[],"outputs":[{"name":"","type":"address","internalType":"contract AggregatorV3Interface"}],"stateMutability":"view"},{"type":"function","name":"USD1_TOKEN","inputs":[],"outputs":[{"name":"","type":"address","internalType":"contract IERC20"}],"stateMutability":"view"},{"type":"function","name":"WLFI_TOKEN","inputs":[],"outputs":[{"name":"","type":"address","internalType":"contract IERC20"}],"stateMutability":"view"},{"type":"function","name":"WLFI_USD1_POOL","inputs":[],"outputs":[{"name":"","type":"address","internalType":"contract IUniswapV3Pool"}],"stateMutability":"view"},{"type":"function","name":"_getTWAPPrice","inputs":[],"outputs":[{"name":"","type":"uint256","internalType":"uint256"}],"stateMutability":"view"},{"type":"function","name":"acceptManagement","inputs":[],"outputs":[],"stateMutability":"nonpayable"},{"type":"function","name":"activeStrategies","inputs":[{"name":"","type":"address","internalType":"address"}],"outputs":[{"name":"","type":"bool","internalType":"bool"}],"stateMutability":"view"},{"type":"function","name":"addStrategy","inputs":[{"name":"strategy","type":"address","internalType":"address"},{"name":"weight","type":"uint256","internalType":"uint256"}],"outputs":[],"stateMutability":"nonpayable"},{"type":"function","name":"allowance","inputs":[{"name":"owner","type":"address","internalType":"address"},{"name":"spender","type":"address","internalType":"address"}],"outputs":[{"name":"","type":"uint256","internalType":"uint256"}],"stateMutability":"view"},{"type":"function","name":"approve","inputs":[{"name":"spender","type":"address","internalType":"address"},{"name":"value","type":"uint256","internalType":"uint256"}],"outputs":[{"name":"","type":"bool","internalType":"bool"}],"stateMutability":"nonpayable"},{"type":"function","name":"asset","inputs":[],"outputs":[{"name":"","type":"address","internalType":"address"}],"stateMutability":"view"},{"type":"function","name":"authorized","inputs":[{"name":"","type":"address","internalType":"address"}],"outputs":[{"name":"","type":"bool","internalType":"bool"}],"stateMutability":"view"},{"type":"function","name":"balanceOf","inputs":[{"name":"account","type":"address","internalType":"address"}],"outputs":[{"name":"","type":"uint256","internalType":"uint256"}],"stateMutability":"view"},{"type":"function","name":"convertToAssets","inputs":[{"name":"shares","type":"uint256","internalType":"uint256"}],"outputs":[{"name":"","type":"uint256","internalType":"uint256"}],"stateMutability":"view"},{"type":"function","name":"convertToShares","inputs":[{"name":"assets","type":"uint256","internalType":"uint256"}],"outputs":[{"name":"","type":"uint256","internalType":"uint256"}],"stateMutability":"view"},{"type":"function","name":"decimals","inputs":[],"outputs":[{"name":"","type":"uint8","internalType":"uint8"}],"stateMutability":"view"},{"type":"function","name":"deploymentThreshold","inputs":[],"outputs":[{"name":"","type":"uint256","internalType":"uint256"}],"stateMutability":"view"},{"type":"function","name":"deposit","inputs":[{"name":"assets","type":"uint256","internalType":"uint256"},{"name":"receiver","type":"address","internalType":"address"}],"outputs":[{"name":"shares","type":"uint256","internalType":"uint256"}],"stateMutability":"nonpayable"},{"type":"function","name":"depositDual","inputs":[{"name":"wlfiAmount","type":"uint256","internalType":"uint256"},{"name":"usd1Amount","type":"uint256","internalType":"uint256"},{"name":"receiver","type":"address","internalType":"address"}],"outputs":[{"name":"shares","type":"uint256","internalType":"uint256"}],"stateMutability":"nonpayable"},{"type":"function","name":"emergencyAdmin","inputs":[],"outputs":[{"name":"","type":"address","internalType":"address"}],"stateMutability":"view"},{"type":"function","name":"emergencyWithdraw","inputs":[{"name":"wlfiAmount","type":"uint256","internalType":"uint256"},{"name":"usd1Amount","type":"uint256","internalType":"uint256"},{"name":"to","type":"address","internalType":"address"}],"outputs":[],"stateMutability":"nonpayable"},{"type":"function","name":"forceDeployToStrategies","inputs":[],"outputs":[],"stateMutability":"nonpayable"},{"type":"function","name":"fullProfitUnlockDate","inputs":[],"outputs":[{"name":"","type":"uint96","internalType":"uint96"}],"stateMutability":"view"},{"type":"function","name":"getCurrentPrices","inputs":[],"outputs":[{"name":"wlfiPriceUSD","type":"uint256","internalType":"uint256"},{"name":"usd1PriceUSD","type":"uint256","internalType":"uint256"}],"stateMutability":"view"},{"type":"function","name":"getOraclePoolPriceDelta","inputs":[],"outputs":[{"name":"deltaBps","type":"int256","internalType":"int256"}],"stateMutability":"view"},{"type":"function","name":"getStrategies","inputs":[],"outputs":[{"name":"strategies","type":"address[]","internalType":"address[]"},{"name":"weights","type":"uint256[]","internalType":"uint256[]"}],"stateMutability":"view"},{"type":"function","name":"getStrategyAssets","inputs":[],"outputs":[{"name":"strategies","type":"address[]","internalType":"address[]"},{"name":"wlfiAmounts","type":"uint256[]","internalType":"uint256[]"},{"name":"usd1Amounts","type":"uint256[]","internalType":"uint256[]"}],"stateMutability":"view"},{"type":"function","name":"getUSD1Price","inputs":[],"outputs":[{"name":"price","type":"uint256","internalType":"uint256"}],"stateMutability":"view"},{"type":"function","name":"getVaultBalances","inputs":[],"outputs":[{"name":"wlfi","type":"uint256","internalType":"uint256"},{"name":"usd1","type":"uint256","internalType":"uint256"}],"stateMutability":"view"},{"type":"function","name":"getVaultBalancesWlfi","inputs":[],"outputs":[{"name":"wlfiAmount","type":"uint256","internalType":"uint256"},{"name":"usd1InWlfi","type":"uint256","internalType":"uint256"},{"name":"totalWlfi","type":"uint256","internalType":"uint256"}],"stateMutability":"view"},{"type":"function","name":"getWLFIPrice","inputs":[],"outputs":[{"name":"price","type":"uint256","internalType":"uint256"}],"stateMutability":"view"},{"type":"function","name":"injectCapital","inputs":[{"name":"wlfiAmount","type":"uint256","internalType":"uint256"},{"name":"usd1Amount","type":"uint256","internalType":"uint256"}],"outputs":[],"stateMutability":"nonpayable"},{"type":"function","name":"isShutdown","inputs":[],"outputs":[{"name":"","type":"bool","internalType":"bool"}],"stateMutability":"view"},{"type":"function","name":"keeper","inputs":[],"outputs":[{"name":"","type":"address","internalType":"address"}],"stateMutability":"view"},{"type":"function","name":"lastDeployment","inputs":[],"outputs":[{"name":"","type":"uint256","internalType":"uint256"}],"stateMutability":"view"},{"type":"function","name":"lastRebalance","inputs":[],"outputs":[{"name":"","type":"uint256","internalType":"uint256"}],"stateMutability":"view"},{"type":"function","name":"lastReport","inputs":[],"outputs":[{"name":"","type":"uint96","internalType":"uint96"}],"stateMutability":"view"},{"type":"function","name":"lockedShares","inputs":[],"outputs":[{"name":"","type":"uint256","internalType":"uint256"}],"stateMutability":"view"},{"type":"function","name":"management","inputs":[],"outputs":[{"name":"","type":"address","internalType":"address"}],"stateMutability":"view"},{"type":"function","name":"maxDeposit","inputs":[{"name":"receiver","type":"address","internalType":"address"}],"outputs":[{"name":"","type":"uint256","internalType":"uint256"}],"stateMutability":"view"},{"type":"function","name":"maxMint","inputs":[{"name":"receiver","type":"address","internalType":"address"}],"outputs":[{"name":"","type":"uint256","internalType":"uint256"}],"stateMutability":"view"},{"type":"function","name":"maxPriceAge","inputs":[],"outputs":[{"name":"","type":"uint256","internalType":"uint256"}],"stateMutability":"view"},{"type":"function","name":"maxRedeem","inputs":[{"name":"owner","type":"address","internalType":"address"}],"outputs":[{"name":"","type":"uint256","internalType":"uint256"}],"stateMutability":"view"},{"type":"function","name":"maxTotalSupply","inputs":[],"outputs":[{"name":"","type":"uint256","internalType":"uint256"}],"stateMutability":"view"},{"type":"function","name":"maxWithdraw","inputs":[{"name":"owner","type":"address","internalType":"address"}],"outputs":[{"name":"","type":"uint256","internalType":"uint256"}],"stateMutability":"view"},{"type":"function","name":"minDeploymentInterval","inputs":[],"outputs":[{"name":"","type":"uint256","internalType":"uint256"}],"stateMutability":"view"},{"type":"function","name":"mint","inputs":[{"name":"shares","type":"uint256","internalType":"uint256"},{"name":"receiver","type":"address","internalType":"address"}],"outputs":[{"name":"assets","type":"uint256","internalType":"uint256"}],"stateMutability":"nonpayable"},{"type":"function","name":"name","inputs":[],"outputs":[{"name":"","type":"string","internalType":"string"}],"stateMutability":"view"},{"type":"function","name":"owner","inputs":[],"outputs":[{"name":"","type":"address","internalType":"address"}],"stateMutability":"view"},{"type":"function","name":"paused","inputs":[],"outputs":[{"name":"","type":"bool","internalType":"bool"}],"stateMutability":"view"},{"type":"function","name":"pendingManagement","inputs":[],"outputs":[{"name":"","type":"address","internalType":"address"}],"stateMutability":"view"},{"type":"function","name":"performanceFee","inputs":[],"outputs":[{"name":"","type":"uint16","internalType":"uint16"}],"stateMutability":"view"},{"type":"function","name":"performanceFeeRecipient","inputs":[],"outputs":[{"name":"","type":"address","internalType":"address"}],"stateMutability":"view"},{"type":"function","name":"previewCapitalInjection","inputs":[{"name":"wlfiAmount","type":"uint256","internalType":"uint256"},{"name":"usd1Amount","type":"uint256","internalType":"uint256"}],"outputs":[{"name":"newShareValue","type":"uint256","internalType":"uint256"},{"name":"valueIncrease","type":"uint256","internalType":"uint256"},{"name":"percentageIncrease","type":"uint256","internalType":"uint256"}],"stateMutability":"view"},{"type":"function","name":"previewDeposit","inputs":[{"name":"assets","type":"uint256","internalType":"uint256"}],"outputs":[{"name":"shares","type":"uint256","internalType":"uint256"}],"stateMutability":"view"},{"type":"function","name":"previewDepositDual","inputs":[{"name":"wlfiAmount","type":"uint256","internalType":"uint256"},{"name":"usd1Amount","type":"uint256","internalType":"uint256"}],"outputs":[{"name":"shares","type":"uint256","internalType":"uint256"},{"name":"totalWlfi","type":"uint256","internalType":"uint256"}],"stateMutability":"view"},{"type":"function","name":"previewMint","inputs":[{"name":"shares","type":"uint256","internalType":"uint256"}],"outputs":[{"name":"assets","type":"uint256","internalType":"uint256"}],"stateMutability":"view"},{"type":"function","name":"previewRedeem","inputs":[{"name":"shares","type":"uint256","internalType":"uint256"}],"outputs":[{"name":"assets","type":"uint256","internalType":"uint256"}],"stateMutability":"view"},{"type":"function","name":"previewWithdraw","inputs":[{"name":"assets","type":"uint256","internalType":"uint256"}],"outputs":[{"name":"shares","type":"uint256","internalType":"uint256"}],"stateMutability":"view"},{"type":"function","name":"profitMaxUnlockTime","inputs":[],"outputs":[{"name":"","type":"uint32","internalType":"uint32"}],"stateMutability":"view"},{"type":"function","name":"profitUnlockingRate","inputs":[],"outputs":[{"name":"","type":"uint256","internalType":"uint256"}],"stateMutability":"view"},{"type":"function","name":"redeem","inputs":[{"name":"shares","type":"uint256","internalType":"uint256"},{"name":"receiver","type":"address","internalType":"address"},{"name":"owner","type":"address","internalType":"address"}],"outputs":[{"name":"assets","type":"uint256","internalType":"uint256"}],"stateMutability":"nonpayable"},{"type":"function","name":"removeStrategy","inputs":[{"name":"strategy","type":"address","internalType":"address"}],"outputs":[],"stateMutability":"nonpayable"},{"type":"function","name":"renounceOwnership","inputs":[],"outputs":[],"stateMutability":"nonpayable"},{"type":"function","name":"report","inputs":[],"outputs":[{"name":"profit","type":"uint256","internalType":"uint256"},{"name":"loss","type":"uint256","internalType":"uint256"}],"stateMutability":"nonpayable"},{"type":"function","name":"rescueETH","inputs":[],"outputs":[],"stateMutability":"nonpayable"},{"type":"function","name":"rescueToken","inputs":[{"name":"token","type":"address","internalType":"address"},{"name":"amount","type":"uint256","internalType":"uint256"},{"name":"to","type":"address","internalType":"address"}],"outputs":[],"stateMutability":"nonpayable"},{"type":"function","name":"setDeploymentParams","inputs":[{"name":"_threshold","type":"uint256","internalType":"uint256"},{"name":"_interval","type":"uint256","internalType":"uint256"}],"outputs":[],"stateMutability":"nonpayable"},{"type":"function","name":"setEmergencyAdmin","inputs":[{"name":"_emergencyAdmin","type":"address","internalType":"address"}],"outputs":[],"stateMutability":"nonpayable"},{"type":"function","name":"setKeeper","inputs":[{"name":"_keeper","type":"address","internalType":"address"}],"outputs":[],"stateMutability":"nonpayable"},{"type":"function","name":"setMaxPriceAge","inputs":[{"name":"_maxPriceAge","type":"uint256","internalType":"uint256"}],"outputs":[],"stateMutability":"nonpayable"},{"type":"function","name":"setMaxTotalSupply","inputs":[{"name":"_maxTotalSupply","type":"uint256","internalType":"uint256"}],"outputs":[],"stateMutability":"nonpayable"},{"type":"function","name":"setPaused","inputs":[{"name":"_paused","type":"bool","internalType":"bool"}],"outputs":[],"stateMutability":"nonpayable"},{"type":"function","name":"setPendingManagement","inputs":[{"name":"_management","type":"address","internalType":"address"}],"outputs":[],"stateMutability":"nonpayable"},{"type":"function","name":"setPerformanceFee","inputs":[{"name":"_performanceFee","type":"uint16","internalType":"uint16"}],"outputs":[],"stateMutability":"nonpayable"},{"type":"function","name":"setPerformanceFeeRecipient","inputs":[{"name":"_performanceFeeRecipient","type":"address","internalType":"address"}],"outputs":[],"stateMutability":"nonpayable"},{"type":"function","name":"setProfitMaxUnlockTime","inputs":[{"name":"_profitMaxUnlockTime","type":"uint256","internalType":"uint256"}],"outputs":[],"stateMutability":"nonpayable"},{"type":"function","name":"setSwapSlippage","inputs":[{"name":"_slippageBps","type":"uint256","internalType":"uint256"}],"outputs":[],"stateMutability":"nonpayable"},{"type":"function","name":"setTWAPInterval","inputs":[{"name":"_interval","type":"uint32","internalType":"uint32"}],"outputs":[],"stateMutability":"nonpayable"},{"type":"function","name":"setWhitelist","inputs":[{"name":"_account","type":"address","internalType":"address"},{"name":"_status","type":"bool","internalType":"bool"}],"outputs":[],"stateMutability":"nonpayable"},{"type":"function","name":"setWhitelistBatch","inputs":[{"name":"_accounts","type":"address[]","internalType":"address[]"},{"name":"_status","type":"bool","internalType":"bool"}],"outputs":[],"stateMutability":"nonpayable"},{"type":"function","name":"setWhitelistEnabled","inputs":[{"name":"_enabled","type":"bool","internalType":"bool"}],"outputs":[],"stateMutability":"nonpayable"},{"type":"function","name":"shutdownStrategy","inputs":[],"outputs":[],"stateMutability":"nonpayable"},{"type":"function","name":"strategyList","inputs":[{"name":"","type":"uint256","internalType":"uint256"}],"outputs":[{"name":"","type":"address","internalType":"address"}],"stateMutability":"view"},{"type":"function","name":"strategyWeights","inputs":[{"name":"","type":"address","internalType":"address"}],"outputs":[{"name":"","type":"uint256","internalType":"uint256"}],"stateMutability":"view"},{"type":"function","name":"swapSlippageBps","inputs":[],"outputs":[{"name":"","type":"uint256","internalType":"uint256"}],"stateMutability":"view"},{"type":"function","name":"symbol","inputs":[],"outputs":[{"name":"","type":"string","internalType":"string"}],"stateMutability":"view"},{"type":"function","name":"syncBalances","inputs":[],"outputs":[],"stateMutability":"nonpayable"},{"type":"function","name":"tend","inputs":[],"outputs":[],"stateMutability":"nonpayable"},{"type":"function","name":"tendTrigger","inputs":[],"outputs":[{"name":"","type":"bool","internalType":"bool"}],"stateMutability":"view"},{"type":"function","name":"totalAssets","inputs":[],"outputs":[{"name":"","type":"uint256","internalType":"uint256"}],"stateMutability":"view"},{"type":"function","name":"totalAssetsAtLastReport","inputs":[],"outputs":[{"name":"","type":"uint256","internalType":"uint256"}],"stateMutability":"view"},{"type":"function","name":"totalLockedShares","inputs":[],"outputs":[{"name":"","type":"uint256","internalType":"uint256"}],"stateMutability":"view"},{"type":"function","name":"totalStrategyWeight","inputs":[],"outputs":[{"name":"","type":"uint256","internalType":"uint256"}],"stateMutability":"view"},{"type":"function","name":"totalSupply","inputs":[],"outputs":[{"name":"","type":"uint256","internalType":"uint256"}],"stateMutability":"view"},{"type":"function","name":"transfer","inputs":[{"name":"to","type":"address","internalType":"address"},{"name":"value","type":"uint256","internalType":"uint256"}],"outputs":[{"name":"","type":"bool","internalType":"bool"}],"stateMutability":"nonpayable"},{"type":"function","name":"transferFrom","inputs":[{"name":"from","type":"address","internalType":"address"},{"name":"to","type":"address","internalType":"address"},{"name":"value","type":"uint256","internalType":"uint256"}],"outputs":[{"name":"","type":"bool","internalType":"bool"}],"stateMutability":"nonpayable"},{"type":"function","name":"transferOwnership","inputs":[{"name":"newOwner","type":"address","internalType":"address"}],"outputs":[],"stateMutability":"nonpayable"},{"type":"function","name":"twapInterval","inputs":[],"outputs":[{"name":"","type":"uint32","internalType":"uint32"}],"stateMutability":"view"},{"type":"function","name":"unlockedShares","inputs":[],"outputs":[{"name":"","type":"uint256","internalType":"uint256"}],"stateMutability":"view"},{"type":"function","name":"usd1Balance","inputs":[],"outputs":[{"name":"","type":"uint256","internalType":"uint256"}],"stateMutability":"view"},{"type":"function","name":"whitelist","inputs":[{"name":"","type":"address","internalType":"address"}],"outputs":[{"name":"","type":"bool","internalType":"bool"}],"stateMutability":"view"},{"type":"function","name":"whitelistEnabled","inputs":[],"outputs":[{"name":"","type":"bool","internalType":"bool"}],"stateMutability":"view"},{"type":"function","name":"withdraw","inputs":[{"name":"assets","type":"uint256","internalType":"uint256"},{"name":"receiver","type":"address","internalType":"address"},{"name":"owner","type":"address","internalType":"address"}],"outputs":[{"name":"shares","type":"uint256","internalType":"uint256"}],"stateMutability":"nonpayable"},{"type":"function","name":"wlfiBalance","inputs":[],"outputs":[{"name":"","type":"uint256","internalType":"uint256"}],"stateMutability":"view"},{"type":"function","name":"wlfiEquivalent","inputs":[{"name":"usd1Amount","type":"uint256","internalType":"uint256"}],"outputs":[{"name":"","type":"uint256","internalType":"uint256"}],"stateMutability":"view"},{"type":"function","name":"wlfiPerUsd1","inputs":[],"outputs":[{"name":"","type":"uint256","internalType":"uint256"}],"stateMutability":"view"},{"type":"event","name":"Approval","inputs":[{"name":"owner","type":"address","indexed":true,"internalType":"address"},{"name":"spender","type":"address","indexed":true,"internalType":"address"},{"name":"value","type":"uint256","indexed":false,"internalType":"uint256"}],"anonymous":false},{"type":"event","name":"BalancesSynced","inputs":[{"name":"wlfiBalance","type":"uint256","indexed":false,"internalType":"uint256"},{"name":"usd1Balance","type":"uint256","indexed":false,"internalType":"uint256"}],"anonymous":false},{"type":"event","name":"CapitalInjected","inputs":[{"name":"from","type":"address","indexed":true,"internalType":"address"},{"name":"wlfiAmount","type":"uint256","indexed":false,"internalType":"uint256"},{"name":"usd1Amount","type":"uint256","indexed":false,"internalType":"uint256"}],"anonymous":false},{"type":"event","name":"Deposit","inputs":[{"name":"sender","type":"address","indexed":true,"internalType":"address"},{"name":"owner","type":"address","indexed":true,"internalType":"address"},{"name":"assets","type":"uint256","indexed":false,"internalType":"uint256"},{"name":"shares","type":"uint256","indexed":false,"internalType":"uint256"}],"anonymous":false},{"type":"event","name":"DualDeposit","inputs":[{"name":"user","type":"address","indexed":true,"internalType":"address"},{"name":"wlfiAmount","type":"uint256","indexed":false,"internalType":"uint256"},{"name":"usd1Amount","type":"uint256","indexed":false,"internalType":"uint256"},{"name":"usd1SwappedToWlfi","type":"uint256","indexed":false,"internalType":"uint256"},{"name":"totalWlfiDeposited","type":"uint256","indexed":false,"internalType":"uint256"},{"name":"shares","type":"uint256","indexed":false,"internalType":"uint256"}],"anonymous":false},{"type":"event","name":"EmergencyPause","inputs":[{"name":"paused","type":"bool","indexed":false,"internalType":"bool"}],"anonymous":false},{"type":"event","name":"EmergencyWithdraw","inputs":[{"name":"to","type":"address","indexed":true,"internalType":"address"},{"name":"wlfiAmount","type":"uint256","indexed":false,"internalType":"uint256"},{"name":"usd1Amount","type":"uint256","indexed":false,"internalType":"uint256"}],"anonymous":false},{"type":"event","name":"OwnershipTransferred","inputs":[{"name":"previousOwner","type":"address","indexed":true,"internalType":"address"},{"name":"newOwner","type":"address","indexed":true,"internalType":"address"}],"anonymous":false},{"type":"event","name":"Rebalanced","inputs":[{"name":"newWlfiBalance","type":"uint256","indexed":false,"internalType":"uint256"},{"name":"newUsd1Balance","type":"uint256","indexed":false,"internalType":"uint256"}],"anonymous":false},{"type":"event","name":"Reported","inputs":[{"name":"profit","type":"uint256","indexed":false,"internalType":"uint256"},{"name":"loss","type":"uint256","indexed":false,"internalType":"uint256"},{"name":"performanceFees","type":"uint256","indexed":false,"internalType":"uint256"},{"name":"totalAssets","type":"uint256","indexed":false,"internalType":"uint256"}],"anonymous":false},{"type":"event","name":"StrategyAdded","inputs":[{"name":"strategy","type":"address","indexed":true,"internalType":"address"},{"name":"weight","type":"uint256","indexed":false,"internalType":"uint256"}],"anonymous":false},{"type":"event","name":"StrategyDeployed","inputs":[{"name":"strategy","type":"address","indexed":true,"internalType":"address"},{"name":"wlfiDeployed","type":"uint256","indexed":false,"internalType":"uint256"},{"name":"usd1Deployed","type":"uint256","indexed":false,"internalType":"uint256"}],"anonymous":false},{"type":"event","name":"StrategyRemoved","inputs":[{"name":"strategy","type":"address","indexed":true,"internalType":"address"}],"anonymous":false},{"type":"event","name":"StrategyShutdown","inputs":[],"anonymous":false},{"type":"event","name":"SwapSlippageUpdated","inputs":[{"name":"newSlippageBps","type":"uint256","indexed":false,"internalType":"uint256"}],"anonymous":false},{"type":"event","name":"Transfer","inputs":[{"name":"from","type":"address","indexed":true,"internalType":"address"},{"name":"to","type":"address","indexed":true,"internalType":"address"},{"name":"value","type":"uint256","indexed":false,"internalType":"uint256"}],"anonymous":false},{"type":"event","name":"USD1Swapped","inputs":[{"name":"usd1In","type":"uint256","indexed":false,"internalType":"uint256"},{"name":"wlfiOut","type":"uint256","indexed":false,"internalType":"uint256"},{"name":"wlfiExpected","type":"uint256","indexed":false,"internalType":"uint256"},{"name":"minWlfiOut","type":"uint256","indexed":false,"internalType":"uint256"},{"name":"slippageBps","type":"uint256","indexed":false,"internalType":"uint256"}],"anonymous":false},{"type":"event","name":"UpdateEmergencyAdmin","inputs":[{"name":"newEmergencyAdmin","type":"address","indexed":true,"internalType":"address"}],"anonymous":false},{"type":"event","name":"UpdateKeeper","inputs":[{"name":"newKeeper","type":"address","indexed":true,"internalType":"address"}],"anonymous":false},{"type":"event","name":"UpdateManagement","inputs":[{"name":"newManagement","type":"address","indexed":true,"internalType":"address"}],"anonymous":false},{"type":"event","name":"UpdatePendingManagement","inputs":[{"name":"newPendingManagement","type":"address","indexed":true,"internalType":"address"}],"anonymous":false},{"type":"event","name":"UpdatePerformanceFee","inputs":[{"name":"newPerformanceFee","type":"uint16","indexed":false,"internalType":"uint16"}],"anonymous":false},{"type":"event","name":"UpdatePerformanceFeeRecipient","inputs":[{"name":"newRecipient","type":"address","indexed":true,"internalType":"address"}],"anonymous":false},{"type":"event","name":"UpdateProfitMaxUnlockTime","inputs":[{"name":"newProfitMaxUnlockTime","type":"uint256","indexed":false,"internalType":"uint256"}],"anonymous":false},{"type":"event","name":"WhitelistEnabled","inputs":[{"name":"enabled","type":"bool","indexed":false,"internalType":"bool"}],"anonymous":false},{"type":"event","name":"WhitelistUpdated","inputs":[{"name":"account","type":"address","indexed":true,"internalType":"address"},{"name":"status","type":"bool","indexed":false,"internalType":"bool"}],"anonymous":false},{"type":"event","name":"Withdraw","inputs":[{"name":"sender","type":"address","indexed":true,"internalType":"address"},{"name":"receiver","type":"address","indexed":true,"internalType":"address"},{"name":"owner","type":"address","indexed":true,"internalType":"address"},{"name":"assets","type":"uint256","indexed":false,"internalType":"uint256"},{"name":"shares","type":"uint256","indexed":false,"internalType":"uint256"}],"anonymous":false},{"type":"error","name":"ERC20InsufficientAllowance","inputs":[{"name":"spender","type":"address","internalType":"address"},{"name":"allowance","type":"uint256","internalType":"uint256"},{"name":"needed","type":"uint256","internalType":"uint256"}]},{"type":"error","name":"ERC20InsufficientBalance","inputs":[{"name":"sender","type":"address","internalType":"address"},{"name":"balance","type":"uint256","internalType":"uint256"},{"name":"needed","type":"uint256","internalType":"uint256"}]},{"type":"error","name":"ERC20InvalidApprover","inputs":[{"name":"approver","type":"address","internalType":"address"}]},{"type":"error","name":"ERC20InvalidReceiver","inputs":[{"name":"receiver","type":"address","internalType":"address"}]},{"type":"error","name":"ERC20InvalidSender","inputs":[{"name":"sender","type":"address","internalType":"address"}]},{"type":"error","name":"ERC20InvalidSpender","inputs":[{"name":"spender","type":"address","internalType":"address"}]},{"type":"error","name":"ERC4626ExceededMaxDeposit","inputs":[{"name":"receiver","type":"address","internalType":"address"},{"name":"assets","type":"uint256","internalType":"uint256"},{"name":"max","type":"uint256","internalType":"uint256"}]},{"type":"error","name":"ERC4626ExceededMaxMint","inputs":[{"name":"receiver","type":"address","internalType":"address"},{"name":"shares","type":"uint256","internalType":"uint256"},{"name":"max","type":"uint256","internalType":"uint256"}]},{"type":"error","name":"ERC4626ExceededMaxRedeem","inputs":[{"name":"owner","type":"address","internalType":"address"},{"name":"shares","type":"uint256","internalType":"uint256"},{"name":"max","type":"uint256","internalType":"uint256"}]},{"type":"error","name":"ERC4626ExceededMaxWithdraw","inputs":[{"name":"owner","type":"address","internalType":"address"},{"name":"assets","type":"uint256","internalType":"uint256"},{"name":"max","type":"uint256","internalType":"uint256"}]},{"type":"error","name":"InsufficientBalance","inputs":[]},{"type":"error","name":"InvalidAmount","inputs":[]},{"type":"error","name":"InvalidPrice","inputs":[]},{"type":"error","name":"InvalidWeight","inputs":[]},{"type":"error","name":"MaxStrategiesReached","inputs":[]},{"type":"error","name":"OwnableInvalidOwner","inputs":[{"name":"owner","type":"address","internalType":"address"}]},{"type":"error","name":"OwnableUnauthorizedAccount","inputs":[{"name":"account","type":"address","internalType":"address"}]},{"type":"error","name":"Paused","inputs":[]},{"type":"error","name":"ReentrancyGuardReentrantCall","inputs":[]},{"type":"error","name":"SafeERC20FailedOperation","inputs":[{"name":"token","type":"address","internalType":"address"}]},{"type":"error","name":"SlippageExceeded","inputs":[]},{"type":"error","name":"StalePrice","inputs":[]},{"type":"error","name":"StrategyAlreadyActive","inputs":[]},{"type":"error","name":"StrategyNotActive","inputs":[]},{"type":"error","name":"Unauthorized","inputs":[]},{"type":"error","name":"VaultIsShutdown","inputs":[]},{"type":"error","name":"VaultNotShutdown","inputs":[]},{"type":"error","name":"ZeroAddress","inputs":[]}],"bytecode":{"object":"0x61016060409080825234620006855760c08162005b998038038091620000268285620006a6565b83398101031262000685576200003c81620006ca565b906020926200004d848301620006ca565b6200005a828401620006ca565b946200006960608501620006ca565b946200008660a06200007e60808801620006ca565b9601620006ca565b8451936001600160a01b039283169290620000a1866200068a565b60128652714561676c65205661756c742053686172657360701b85870152865192620000cd846200068a565b6006845265764541474c4560d01b8685015286516001600160401b0390818111620005795760039081549060019a8b83811c931680156200067a575b8b841014620006645781908b601f948581116200060b575b50508b908483116001146200059b576000926200058f575b505060001982851b1c1916908b1b1782555b8651928311620005795760049687548b81811c911680156200056e575b8b821014620005595790818389979695949311620004fb575b508a9184116001146200047e5760009291908462000472575b5050828b1b92600019911b1c19161785555b620001b786620006df565b901562000469575b60a05285608052169384156200045257600580546001600160a01b03198082168817909255895191959190879086167f8be0079c531659141344cd1fd0a4f28419497f9722a3daafe3b4186f6b6457e0600080a3886006556a295be96e6406697200000060195561070863ffffffff19601a541617601a5562015180601b55683635c9adc5dea00000601c5561012c601d5560326022558215801562000447575b80156200043c575b801562000431575b801562000426575b6200041a57505090829160e0521660c05280610100991689528061012098168852610140961686528181600d541617600d558181600f541617600f558160105491601154161760115581607d60a31b9160018060b01b031916171760105561127560671b6fffffffff0000000000000000000000001960135416176013556000528052816000209060ff1982541617905542601e554260215560018060601b03421660018060601b0319601554161760155551916153dd9384620007bc85396080518461278f015260a05184612af1015260c05184818161066f015281816107610152818161086301528181610fd10152818161220501528181612827015281816129d0015281816149fe0152614afe015260e0518481816105c20152818161071301528181610895015281816111fd0152818161195c01528181611a9901528181611e2f0152818161225a015281816128670152818161298901528181614a2e0152614b82015251838181612034015261406401525182818161175701528181613d750152614dc4015251818181610ca701528181614b240152614c360152f35b63d92e233d60e01b8152fd5b50848b161562000278565b50848c161562000270565b50848d161562000268565b508484161562000260565b8751631e4fbdf760e01b8152600081860152602490fd5b506012620001bf565b0151915038806200019a565b90918b9392601f198416928a6000528c600020938d6000905b828210620004d35750508511620004b8575b50505050811b018555620001ac565b01519060f884600019921b161c1916905538808080620004a9565b9294969899509496839783929486015181550196019301918d9593918a989795938e62000497565b90919293949550886000528a6000208380870160051c8201928d88106200054f575b918e918b999897969594930160051c01915b8281106200053f57505062000181565b600081558a98508e91016200052f565b925081926200051d565b602289634e487b7160e01b6000525260246000fd5b90607f169062000168565b634e487b7160e01b600052604160045260246000fd5b01519050388062000139565b60008681528d81208f9550929190601f198516908f5b828210620005ea5750508411620005d1575b505050811b0182556200014b565b015160001983871b60f8161c19169055388080620005c3565b91929395968291958786015181550195019301908f95949392918f620005b1565b909192508560005284826000209181860160051c83019386106200065a575b918f91869594930160051c01915b8281106200064a57508d915062000121565b600081558594508f910162000638565b925081926200062a565b634e487b7160e01b600052602260045260246000fd5b92607f169262000109565b600080fd5b604081019081106001600160401b038211176200057957604052565b601f909101601f19168101906001600160401b038211908210176200057957604052565b51906001600160a01b03821682036200068557565b906040516020908181019063313ce56760e01b82526004815262000703816200068a565b5160009485928392916001600160a01b03165afa3d15620007b2573d906001600160401b0382116200079e576040519162000748601f8201601f1916850184620006a6565b82523d858484013e5b8062000792575b62000764575b50508190565b81818051810103126200078e57015160ff8111156200078457806200075e565b6001925060ff1690565b8380fd5b50818151101562000758565b634e487b7160e01b85526041600452602485fd5b6060906200075156fe6080604081815260049081361015610022575b505050361561002057600080fd5b005b600092833560e01c908162cfdb091461360e5750806301e1d114146135f1578063052d9e7e1461358a578063055a2b581461356b57806306fdde031461347657806307a2d13a146134325780630952864e1461340a578063095ea7b3146133605780630a28a477146133405780630b68f46f146133175780630c595cec146132fa5780630fd35745146132c1578063106b9ca1146132a25780631584410a1461328357806316c38b3c14613222578063175188e81461302857806318160ddd1461300957806320800a0014612fa75780632237068514612f8257806323b872dd14612f455780632606a10b14612bfa57806329ea1c0b14612bdb5780632ab4d05214612bbc5780632ae1c8ef14612b9d5780632c178bd014612b5f5780632d63269214612b37578063313ce56714612ada578063336b78a01461293f57806335da3394146128b7578063386db353146127be57806338d52e0f1461277a5780633c1d5df0146127555780633f3e4c11146126ac578063402d267d14612686578063440368a3146125f357806345650c07146125d45780634cdad506146125b45780635141eebb1461259557806351fb012d1461256e57806353d6fd59146124d657806356447ce81461246157806357fce5b7146122ff5780635c272ef6146120cc5780635c975abb146120a85780635d265d3f14612063578063656a4b201461201f57806368e5ce8414611f835780636a5f1aa214611efb5780636ac169d214611eb05780636e553f6514611d9657806370905dce14611d6d57806370a0823114611d36578063715018a614611cd9578063748747e614611c51578063767f06ae14611c3557806379f06d2114611c145780637b0a11e614611bf45780637cd3684414611bbc5780637ec142ca14611b9f57806381c39bec14611b8057806383189fa114611b63578063852d0d6e14611b345780638778878214611b0e57806388a8d60214611ae557806389b1271614611ac85780638ba1797614611a845780638da5cb5b14611a5b5780639161ccd014611a3c57806394bf804d146118c357806395d89b41146117c15780639699b63f1461178657806396c1c4331461174257806398d3b209146117235780639b19251a146116e5578063a0317bd6146116c6578063a267526b14611685578063a58da0be1461156d578063a9059cbb1461153c578063aa290e6d1461147a578063aced166114611451578063b3d7f6b914611431578063b460af9414611386578063b49a60bb146112d5578063b918161114611298578063ba08765214611181578063bc063e1a14611164578063be8f1668146110dc578063bf86d690146110b8578063c3535b5214611090578063c63d75b61461106a578063c6e6f59214611000578063c6e831e814610fbc578063c8c2fe6c14610f42578063c9411e2214610cfc578063ce96cb7714610cd6578063d826492014610c92578063d88c151714610bf2578063d905777e14610bcc578063d9a0e97a14610baf578063dd62ed3e14610b66578063df69b22a14610acc578063e95502fb14610aa3578063ed27f7c914610a7a578063ed84c5f314610a5d578063ef8b30f714610a33578063f2fde38b146109a8578063f629b79014610904578063f72b2a4c1461069f578063f8a67a621461057f5763fa88dd1503610012573461057b57602036600319011261057b57600d5482359290336001600160a01b039182161415908161056c575b5061055f576101f483116105515750816020917f3b869268152040c3a55d6a6eb0c94d3c4a55a4b59ad40ec4c603826584a870479360225551908152a180f35b905163162908e360e11b8152fd5b90516282b42960e81b8152fd5b90506005541633141538610511565b8280fd5b5082903461069b57606036600319011261069b5761059b613696565b6001600160a01b039160443591838316908184036106975784906105bd6144c9565b1693807f000000000000000000000000000000000000000000000000000000000000000016851490811561066b575b506106175715610608575090610605916024359161517f565b80f35b5163d92e233d60e01b81528490fd5b815162461bcd60e51b8152602081880152602860248201527f55736520656d657267656e63792066756e6374696f6e7320666f72207661756c6044820152677420746f6b656e7360c01b6064820152608490fd5b90507f0000000000000000000000000000000000000000000000000000000000000000168414876105ec565b8580fd5b5080fd5b50903461057b576106af36613749565b93919060018060a01b03938460105416331415806108f6575b806108e8575b6108db5760ff60175416156108cd578486169586156108be578361088e575b828061085d575b505083516370a0823160e01b80825230838301526020929183816024817f00000000000000000000000000000000000000000000000000000000000000008c165afa9081156108535790849392918b9161081d575b509060249160075587519889938492835230908301527f0000000000000000000000000000000000000000000000000000000000000000165afa80156108135787906107c2575b7fbb757047c2b5f3974fe26b7c10f732e7bce710b0952a71082702781e62ae059595506008558351928352820152a280f35b508085813d831161080c575b6107d881836137f5565b81010312610808577fbb757047c2b5f3974fe26b7c10f732e7bce710b0952a71082702781e62ae05959451610790565b8680fd5b503d6107ce565b84513d89823e3d90fd5b8481939592503d831161084c575b61083581836137f5565b8101031261084857518392906024610749565b8980fd5b503d61082b565b87513d8c823e3d90fd5b610887917f000000000000000000000000000000000000000000000000000000000000000061517f565b38826106f4565b6108b984827f000000000000000000000000000000000000000000000000000000000000000061517f565b6106ed565b50835163d92e233d60e01b8152fd5b83516374bc651d60e11b8152fd5b83516282b42960e81b8152fd5b5084600554163314156106ce565b5084600d54163314156106c8565b50903461057b57602036600319011261057b5761091f613696565b600d546001600160a01b03919082163314158061099a575b61098b571691821561097e575050600e80546001600160a01b031916821790557fd74668a8c80a07cc56d7c3318a06439eaa815e740d97dcd83487e1fc75076b8b8280a280f35b5163d92e233d60e01b8152fd5b83516282b42960e81b81528390fd5b508160055416331415610937565b50903461057b57602036600319011261057b576109c3613696565b906109cc6144c9565b6001600160a01b03918216928315610a1d575050600554826001600160601b0360a01b821617600555167f8be0079c531659141344cd1fd0a4f28419497f9722a3daafe3b4186f6b6457e08380a380f35b51631e4fbdf760e01b8152908101849052602490fd5b508234610a5a576020366003190112610a5a5750610a5360209235614494565b9051908152f35b80fd5b83823461069b578160031936011261069b57602090610a536143e6565b83823461069b578160031936011261069b5760115490516001600160a01b039091168152602090f35b83823461069b578160031936011261069b57602090610a53601454610ac6614381565b9061397e565b503461057b57602036600319011261057b57600d5482359290336001600160a01b0391821614159081610b57575b5061055f576301e18558831161055157506013805463ffffffff60601b1916606084901b63ffffffff60601b16179055519081527ff361aed463da6fa20358e45c6209f1d3e16d4eca706e6eab0b0aeb338729c77a90602090a180f35b90506005541633141538610afa565b83823461069b578060031936011261069b5780602092610b84613696565b610b8c6136ac565b6001600160a01b0391821683526001865283832091168252845220549051908152f35b83823461069b578160031936011261069b57602090610a53614381565b83823461069b57602036600319011261069b57602090610a53610bed613696565b61435c565b50903461057b57602036600319011261057b5780359163ffffffff8316809303610c8e57610c1e6144c9565b82158015610c75575b15610c3f57505063ffffffff19601a541617601a5580f35b906020606492519162461bcd60e51b8352820152601060248201526f125b9d985b1a59081a5b9d195c9d985b60821b6044820152fd5b5061012c8310158015610c275750611c20831115610c27565b8380fd5b83823461069b578160031936011261069b57517f00000000000000000000000000000000000000000000000000000000000000006001600160a01b03168152602090f35b83823461069b57602036600319011261069b57602090610a53610cf7613696565b61432b565b5082903461069b578060031936011261069b57610d17613696565b600d54602435906001600160a01b0390811633141580610f34575b610f25578216928315610f16578385526020926009845260ff8287205416610f06576005600b541015610ef65782158015610eeb575b610edb57612710610d7b84600c54613843565b11610edb57815163392e53cd60e01b815284818981895afa908115610ed1578791610e9c575b5015610e595784865260098452818620600160ff19825416179055600a84528282872055600b5468010000000000000000811015610e46577f2f564a83158ad1831793ad3e69257b52f39ece5d49cb0d8746708ecb9ef964da94939291610e11826001610e2f9401600b55613773565b90919060018060a01b038084549260031b9316831b921b1916179055565b610e3b82600c54613843565b600c5551908152a280f35b634e487b7160e01b875260418852602487fd5b815162461bcd60e51b8152808801859052601860248201527f5374726174656779206e6f7420696e697469616c697a656400000000000000006044820152606490fd5b90508481813d8311610eca575b610eb381836137f5565b8101031261080857610ec49061431e565b88610da1565b503d610ea9565b83513d89823e3d90fd5b815163585b926360e01b81528790fd5b506127108311610d68565b8151631f62ca4f60e21b81528790fd5b815163c976754d60e01b81528790fd5b5163d92e233d60e01b81528590fd5b83516282b42960e81b81528690fd5b508060055416331415610d32565b50903461057b578260031936011261057b57600e546001600160a01b0381169290919033849003610fb05750506001600160601b0360a01b908282600d541617600d5516600e557fff54978127edd34aec0f9061fb3b155fbe0ededdfa881ee3e0d541d3a1eef4388280a280f35b516282b42960e81b8152fd5b83823461069b578160031936011261069b57517f00000000000000000000000000000000000000000000000000000000000000006001600160a01b03168152602090f35b508234610a5a576020366003190112610a5a576002546001810180911161105757611029613866565b9160018301809311611044575090610a53916020943561530a565b634e487b7160e01b815260118552602490fd5b634e487b7160e01b825260118452602482fd5b83823461069b57602036600319011261069b57602090610a5361108b613696565b6142b0565b83823461069b578160031936011261069b576020906001600160601b03601554169051908152f35b83823461069b578160031936011261069b5760209060ff6017541690519015158152f35b503461057b578260031936011261057b57601054336001600160a01b0391821614159081611154575b81611145575b50610fb05782600160ff1960175416176017557ffc1249757a7f27c510c8173c55d03ba442e0d33d9223e06ceb416feac8c7693f8180a180f35b9050600554163314153861110b565b809150600d541633141590611105565b83823461069b578160031936011261069b57602090516113888152f35b509134610a5a5750611192366137c0565b90939161119d6146a6565b8015611289576001600160a01b038581169190821561127957831692833303611269575b6111ca82613bad565b95861561125b5750856020976111e384611221946146c9565b6111ec82614ef0565b6111f88260075461397e565b6007557f000000000000000000000000000000000000000000000000000000000000000061517f565b835190858252868201527ffbde797d201c681b91056529119e0b02407c7bb96a4a2c75c01fc9667232c8db843392a4600160065551908152f35b855163162908e360e11b8152fd5b6112748233836144f5565b6111c1565b845163d92e233d60e01b81528690fd5b50505163162908e360e11b8152fd5b83823461069b57602036600319011261069b5760209160ff9082906001600160a01b036112c3613696565b16815284805220541690519015158152f35b83823461069b578160031936011261069b57600b54916112f483613bdd565b926112fe81613bdd565b91805b828110611334575050506113309061132283519484869586528501906136d8565b908382036020850152613715565b0390f35b80611340600192613773565b838060a01b03809254600392831b1c1661135a848b613c2c565b5261136483613773565b9054911b1c168352600a6020528583205461137f8287613c2c565b5201611301565b509134610a5a5750611397366137c0565b9093916113a26146a6565b8015611289576001600160a01b0385811691908215611279576113c4826139ab565b95861561125b5750816020976111e3886113e794881697883303611421576146c9565b835190815284868201527ffbde797d201c681b91056529119e0b02407c7bb96a4a2c75c01fc9667232c8db843392a4600160065551908152f35b61142c8233836144f5565b6146c9565b508234610a5a576020366003190112610a5a5750610a5360209235614278565b83823461069b578160031936011261069b57600f5490516001600160a01b039091168152602090f35b503461057b57602036600319011261057b57813561ffff81169283820361153857600d54336001600160a01b0391821614159081611529575b5061151c57611388841161150e57506010805461ffff60a01b191660a09290921b61ffff60a01b16919091179055519081527fdc843735e683348ec21c302ffff45462399c5c46f75f67b0a1a5395c5359975390602090a180f35b825163162908e360e11b8152fd5b82516282b42960e81b8152fd5b905060055416331415386114b3565b8480fd5b83823461069b578060031936011261069b5760209061156661155c613696565b60243590336145c8565b5160018152f35b503461057b578060031936011261057b5781359167ffffffffffffffff9081841161153857366023850112156115385783810135918211611538576024840193602436918460051b010111611538576115c793919361363e565b936115d06144c9565b84151592865b8281106115e1578780f35b6001600160a01b03806115fd6115f8848787614254565b614264565b16156116755790887ff93f9a76c1bf3444d22400a00cb9fe990e6abe9dbb333fda48859cfee864543d836001946116386115f8868a8a614254565b1683526116598b8b60209560188752209060ff801983541691151516179055565b6116676115f8858989614254565b16918951898152a2016115d6565b865163d92e233d60e01b81528590fd5b50903461057b57602036600319011261057b573591600b54831015610a5a57506116b0602092613773565b905491519160018060a01b039160031b1c168152f35b83823461069b578160031936011261069b57602090601c549051908152f35b83823461069b57602036600319011261069b5760209160ff9082906001600160a01b03611710613696565b1681526018855220541690519015158152f35b83823461069b578160031936011261069b57602090600c549051908152f35b83823461069b578160031936011261069b57517f00000000000000000000000000000000000000000000000000000000000000006001600160a01b03168152602090f35b508234610a5a57506117ab6117a561179d366136c2565b919091613c40565b90613843565b6117b481614494565b9082519182526020820152f35b5082903461069b578160031936011261069b5780519180938054916001908360011c92600185169485156118b9575b60209586861081146118a657858952908115611882575060011461182a575b6113308787611820828c03836137f5565b519182918261364d565b81529295507f8a35acfbc15ff81a39ae7d344fd709f28e8600b4aa8c65c6b64bfe7fe36bd19b5b82841061186f5750505082611330946118209282010194868061180f565b8054868501880152928601928101611851565b60ff19168887015250505050151560051b830101925061182082611330868061180f565b634e487b7160e01b845260228352602484fd5b93607f16936117f0565b503461057b578060031936011261057b5781356118de6136ac565b936118e76146a6565b60ff601f5416611a2d5760175460ff8116611a1d5760ff849160081c169182611a06575b50506119f95780156119eb576001600160a01b0384169081156119dc5761193181614278565b9384156119ce5761194482600254613843565b601954106119ce5750611994816020966119808730337f00000000000000000000000000000000000000000000000000000000000000006147c6565b61198c87600754613843565b600755614768565b825190848252858201527fdcbc1c05240f31ff3ad067ef1ee35ce4997762752e3a095284754544f4c709d7833392a3600160065551908152f35b835163162908e360e11b8152fd5b50505163d92e233d60e01b8152fd5b505163162908e360e11b8152fd5b50516282b42960e81b8152fd5b60ff9250338152601860205220541615823861190b565b5050505163634a713160e11b8152fd5b5050516313d0ff5960e31b8152fd5b83823461069b578160031936011261069b576020906016549051908152f35b83823461069b578160031936011261069b5760055490516001600160a01b039091168152602090f35b83823461069b578160031936011261069b57517f00000000000000000000000000000000000000000000000000000000000000006001600160a01b03168152602090f35b83823461069b578160031936011261069b57602090610a5361404e565b83823461069b578160031936011261069b57600d5490516001600160a01b039091168152602090f35b83823461069b578160031936011261069b5760209061ffff60105460a01c169051908152f35b508234610a5a5780600319360112610a5a5750611b4f6143e6565b611b5761404e565b82519182526020820152f35b83823461069b578160031936011261069b57602090610a53613ce1565b83823461069b578160031936011261069b576020906014549051908152f35b83823461069b578160031936011261069b57602090610a53613c5f565b83823461069b57602036600319011261069b5760209181906001600160a01b03611be4613696565b168152600a845220549051908152f35b508234610a5a576020366003190112610a5a5750610a5360209235613c40565b8334610a5a57611c23366136c2565b90611c2c6144c9565b601c55601d5580f35b83823461069b578160031936011261069b576020905160058152f35b50903461057b57602036600319011261057b57611c6c613696565b600d546001600160a01b039190821633141580611ccb575b61098b571691821561097e575050600f80546001600160a01b031916821790557fd7f49e282c36d417b290d4181a56943f6d670aaa2987c0d40e60d39919c688828280a280f35b508160055416331415611c84565b8334610a5a5780600319360112610a5a57611cf26144c9565b600580546001600160a01b0319811690915581906001600160a01b03167f8be0079c531659141344cd1fd0a4f28419497f9722a3daafe3b4186f6b6457e08280a380f35b83823461069b57602036600319011261069b5760209181906001600160a01b03611d5e613696565b16815280845220549051908152f35b83823461069b578160031936011261069b5760105490516001600160a01b039091168152602090f35b503461057b578060031936011261057b578135611db16136ac565b93611dba6146a6565b60ff601f5416611a2d5760175460ff8116611a1d5760ff849160081c169182611e99575b50506119f95780156119eb576001600160a01b0384169081156119dc57611e0481614494565b9384156119ce57611e1785600254613843565b601954106119ce5750611e5f84602096611e538430337f00000000000000000000000000000000000000000000000000000000000000006147c6565b61198c84600754613843565b825190815283858201527fdcbc1c05240f31ff3ad067ef1ee35ce4997762752e3a095284754544f4c709d7833392a3600160065551908152f35b60ff92503381526018602052205416158238611dde565b508234610a5a5780600319360112610a5a5750600754611330611ed4600854613c40565b92611edf8484613843565b9051938493846040919493926060820195825260208201520152565b50903461057b57602036600319011261057b57611f16613696565b600d546001600160a01b039190821633141580611f75575b61098b571691821561097e575050601180546001600160a01b031916821790557f9ebbf695dd251e855d9d15a146a72f5f654dc6f8630fbc11212f27e0c88ba11a8280a280f35b508160055416331415611f2e565b503461057b578260031936011261057b57600d54336001600160a01b0391821614159081612010575b50610fb057611fb96146a6565b600c5415611fdd5782611fd160075460085490614821565b42601e55600160065580f35b906020606492519162461bcd60e51b8352820152600d60248201526c4e6f207374726174656769657360981b6044820152fd5b90506005541633141538611fac565b83823461069b578160031936011261069b57517f00000000000000000000000000000000000000000000000000000000000000006001600160a01b03168152602090f35b83823461069b578160031936011261069b576020906120896007546117a5600854613c40565b601c5410908161209c575b519015158152f35b600c5415159150612094565b83823461069b578160031936011261069b5760209060ff601f541690519015158152f35b503461057b576120db36613749565b916120e79591956146a6565b60ff601f54166122ef5760175460ff81166122df5760081c60ff16806122c9575b6122ba5780159586806122b2575b6122a2576001600160a01b0384169384156122925782939715612252575b816121f9575b61214384614494565b9687156121eb5761215688600254613843565b601954106121eb5750967fa2be986aba663c910ca410d7160978882e4cbfa1903f7a366a335eef2972bc589161218e8860209a614768565b8651938452602084015260408301526060820183905260808201869052339160a090a2825190815283858201527fdcbc1c05240f31ff3ad067ef1ee35ce4997762752e3a095284754544f4c709d7833392a3600160065551908152f35b865163162908e360e11b8152fd5b925095506122298630337f00000000000000000000000000000000000000000000000000000000000000006147c6565b61223586600854613843565b60085561224186614ac3565b9561224c8783613843565b9261213a565b61227e8330337f00000000000000000000000000000000000000000000000000000000000000006147c6565b61228a83600754613843565b600755612134565b855163d92e233d60e01b81528790fd5b845163162908e360e11b81528690fd5b508015612116565b505050516282b42960e81b8152fd5b50338252601860205260ff848320541615612108565b845163634a713160e11b81528690fd5b505050516313d0ff5960e31b8152fd5b5082903461069b578160031936011261069b57600b5461231e81613bdd565b9261232882613bdd565b9161233281613bdd565b95825b8281106123775761235c87611330888b61236a8a83519687966060885260608801906136d8565b908682036020880152613715565b9184830390850152613715565b818661238283613773565b90546001600160a01b039160039190821b1c82166123a0868d613c2c565b52816123ab86613773565b905490831b1c168852600960205260ff83892054166123d1575b50505050600101612335565b6123da85613773565b9054911b1c16815192838092636253bb0f60e11b82525afa801561245757906001929186918791612428575b50612411838c613c2c565b5261241c8288613c2c565b52905081868a806123c5565b905061244a9150883d8a11612450575b61244281836137f5565b81019061382d565b8b612406565b503d612438565b87513d87823e3d90fd5b50903461057b57602036600319011261057b5780359161247f6144c9565b610e10831015806124c9575b15612498575050601b5580f35b906020606492519162461bcd60e51b8352820152600b60248201526a496e76616c69642061676560a81b6044820152fd5b506202a30083111561248b565b503461057b578060031936011261057b576124ef613696565b906124f861363e565b916125016144c9565b6001600160a01b031692831561256057507ff93f9a76c1bf3444d22400a00cb9fe990e6abe9dbb333fda48859cfee864543d9160209184865260188352612556828288209060ff801983541691151516179055565b519015158152a280f35b905163d92e233d60e01b8152fd5b83823461069b578160031936011261069b5760209060ff60175460081c1690519015158152f35b83823461069b578160031936011261069b576020906012549051908152f35b508234610a5a576020366003190112610a5a5750610a5360209235613bad565b83823461069b578160031936011261069b57602090601e549051908152f35b503461057b578260031936011261057b5761260c6146a6565b600f54336001600160a01b0391821614159081612676575b81612667575b50610fb05782600754600854811580159061265e575b61264e575b82600160065580f35b61265791614821565b8180612645565b50801515612640565b9050600554163314153861262a565b809150600d541633141590612624565b83823461069b57602036600319011261069b57602090610a536126a7613696565b613b14565b50903461057b57602036600319011261057b578035916126ca6144c9565b600254831061271b576a295be96e6406697200000083116126ed57505060195580f35b906020606492519162461bcd60e51b835282015260086024820152670a8dede40d0d2ced60c31b6044820152fd5b906020606492519162461bcd60e51b8352820152601460248201527342656c6f772063757272656e7420737570706c7960601b6044820152fd5b83823461069b578160031936011261069b5760209063ffffffff601a54169051908152f35b83823461069b578160031936011261069b57517f00000000000000000000000000000000000000000000000000000000000000006001600160a01b03168152602090f35b5082903461069b576127cf366136c2565b819291158080916128af575b61289f57907fbe3fa47138efc08c52a1c62d79a4f0f1834fcb990b2bdcd62e673c3622bdd33f92911561285f575b8061281f575b815193845260208401523392a280f35b61284b8130337f00000000000000000000000000000000000000000000000000000000000000006147c6565b61285781600854613843565b60085561280f565b61288b8430337f00000000000000000000000000000000000000000000000000000000000000006147c6565b61289784600754613843565b600755612809565b825163162908e360e11b81528690fd5b5081156127db565b50903461057b57602036600319011261057b576128d2613696565b600d546001600160a01b039190821633141580612931575b61098b571691821561097e575050601080546001600160a01b031916821790557f2bf242d027263e45fab022c28b4144255c97b30b8e54c30f1f5757906d487f098280a280f35b5081600554163314156128ea565b503461057b578260031936011261057b57600d546001600160a01b039290831633141580612acc575b61055f5781516370a0823160e01b80825230838301529160209081836024817f00000000000000000000000000000000000000000000000000000000000000008a165afa928315612ac2578793612a90575b50602482939486519788938492835230908301527f0000000000000000000000000000000000000000000000000000000000000000165afa908115612a86578591612a37575b7f487f028aa87e7799590a35c647d6ac8a426698abd9eeb6bc4b5f2f805b5f7ff7945082600755816008558351928352820152a180f35b80915084813d8311612a7f575b612a4e81836137f5565b81010312611538577f487f028aa87e7799590a35c647d6ac8a426698abd9eeb6bc4b5f2f805b5f7ff7935190612a00565b503d612a44565b83513d87823e3d90fd5b9180935082813d8311612abb575b612aa881836137f5565b81010312610808579051919060246129ba565b503d612a9e565b85513d89823e3d90fd5b508260055416331415612968565b5082903461069b578160031936011261069b5760ff7f0000000000000000000000000000000000000000000000000000000000000000169160ff8311612b24576020838351908152f35b634e487b7160e01b815260118452602490fd5b83823461069b578160031936011261069b576020906001600160601b03601354169051908152f35b83823461069b57602036600319011261069b5760209160ff9082906001600160a01b03612b8a613696565b1681526009855220541690519015158152f35b83823461069b578160031936011261069b576020906022549051908152f35b83823461069b578160031936011261069b576020906019549051908152f35b83823461069b578160031936011261069b576020906007549051908152f35b509134610a5a5780600319360112610a5a57612c146146a6565b600f546001600160a01b039190821633141580612f37575b80612f29575b61098b57808092612c41613866565b601654909381851115612e605750612c59908461397e565b94829161ffff60105460a01c1680151580612e57575b612dee575b5050612c80828761397e565b80151580612dda575b612cfb575b50507fecdd072e4d5bd913a75a37f02daedcea7e2dc0281f9942c0063cfd1cfe5c4c4f91608091875191878352602083015287820152836060820152a15b6001600160601b0342166001600160601b03196015541617601555601655600160065582519182526020820152f35b60025485908015612dd257612d1390612d189361396b565b61398b565b905b612d248230614768565b612d3082601454613843565b6014556013549063ffffffff916001600160601b03612d54848360601c1642613843565b16906001600160601b03191617908160135564e8d4a5100093848102948186041490151715612dbf57507fecdd072e4d5bd913a75a37f02daedcea7e2dc0281f9942c0063cfd1cfe5c4c4f949260809492612db39260601c169061398b565b60125591819350612c8e565b634e487b7160e01b865260119052602485fd5b505090612d1a565b5063ffffffff60135460601c161515612c89565b612710919350612dfe908861396b565b049182151580612e4a575b612e14575b80612c74565b600254612e3b9190868115612e4157612d13612e30928761396b565b905b60115416614768565b38612e0e565b50508390612e32565b5080601154161515612e09565b50871515612c6f565b95507fecdd072e4d5bd913a75a37f02daedcea7e2dc0281f9942c0063cfd1cfe5c4c4f9294506080915083612e949161397e565b9384151580612f1e575b612ebf575b86519080825285602083015287820152836060820152a1612ccc565b600254848115612f1657612d13612ed6928861396b565b6014549081811115612f0f57505b80612ef0575b50612ea3565b80612efe612f0692306146c9565b60145461397e565b60145538612eea565b9050612ee4565b505080612ed6565b506014541515612e9e565b508160055416331415612c32565b5081600d5416331415612c2c565b83823461069b57606036600319011261069b57602090611566612f66613696565b612f6e6136ac565b60443591612f7d8333836144f5565b6145c8565b508234610a5a5780600319360112610a5a575060075460085482519182526020820152f35b83823461069b578160031936011261069b57612fc16144c9565b81478015908115612fd0578280f35b82809291819260018060a01b0360055416908390613000575bf115612ff6578181808280f35b51903d90823e3d90fd5b506108fc612fe9565b83823461069b578160031936011261069b576020906002549051908152f35b50903461057b57602036600319011261057b57613043613696565b600d546001600160a01b039190821633141580613214575b61098b57811691828552600960205260ff84862054161561320657835193632e1a7d4d60e01b8552856000199182848801526024968181602481868b5af19081156131fa576130c591849182916131d8575b506130ba90600754613843565b600755600854613843565b600855858252600960205280822060ff198154169055600a6020526130ef81832054600c5461397e565b600c55858252600a602052812055600b91600b5495875b878110613137575b88877f09a1db4b80c32706328728508c941a6b954f31eb5affd32f236c1fd405f8fea48280a280f35b858761314283613773565b929054600393841b1c161461315a5750600101613106565b96978481979697019081116131c65790610e118661317a61318794613773565b9054908b1b1c1691613773565b84549182156131b5575050019261319d84613773565b81939154921b1b19169055558038808080808061310e565b634e487b7160e01b89526031905287fd5b634e487b7160e01b8a5260118452828afd5b6130ba92506131f49150843d86116124505761244281836137f5565b916130ad565b505051903d90823e3d90fd5b8351631b92e95360e31b8152fd5b50816005541633141561305b565b83823461069b57602036600319011261069b5760207fb80d1ae5628c2af91424c54c87acfd15016be4bebeef0425b328238702f348319161326161362a565b6132696144c9565b15159060ff19601f541660ff831617601f5551908152a180f35b83823461069b578160031936011261069b57602090601b549051908152f35b83823461069b578160031936011261069b576020906021549051908152f35b83823461069b57611330906132de6132d8366136c2565b90613a23565b9251918252602082015260408101919091529081906060820190565b83823461069b578160031936011261069b57602090610a536139ef565b83823461069b578160031936011261069b57600e5490516001600160a01b039091168152602090f35b508234610a5a576020366003190112610a5a5750610a53602092356139ab565b50903461057b578160031936011261057b5761337a613696565b6024359033156133f3576001600160a01b03169182156133dc57508083602095338152600187528181208582528752205582519081527f8c5be1e5ebec7d5bd14f71427d1e84f3dd0314c0f7b2291e5b200ac8c7c3b925843392a35160018152f35b8351634a1406b160e11b8152908101859052602490fd5b835163e602df0560e01b8152808401869052602490fd5b83823461069b578160031936011261069b5760209063ffffffff60135460601c169051908152f35b508234610a5a576020366003190112610a5a5761344d613866565b60018101809111611057576002549160018301809311611044575090610a53916020943561530a565b503461057b578260031936011261057b5780519183600354906001908260011c92600181168015613561575b602095868610821461354e575084885290811561352c57506001146134d3575b6113308686611820828b03836137f5565b929550600383527fc2575a0e9e593c00f959f8c92f12db2869c3395a3b0502d05e2516446f71f85b5b8284106135195750505082611330946118209282010194386134c2565b80548685018801529286019281016134fc565b60ff191687860152505050151560051b830101925061182082611330386134c2565b634e487b7160e01b845260229052602483fd5b93607f16936134a2565b83823461069b578160031936011261069b576020906008549051908152f35b83823461069b57602036600319011261069b5760207f9bea0dd3cae4438dc4c54c3110002aedc380f4075b6edae73ae0536105a2008a916135c961362a565b6135d16144c9565b15159060175461ff008360081b169061ff0019161760175551908152a180f35b83823461069b578160031936011261069b57602090610a53613866565b84903461069b578160031936011261069b57602090601d548152f35b60043590811515820361363957565b600080fd5b60243590811515820361363957565b6020808252825181830181905290939260005b82811061368257505060409293506000838284010152601f8019910116010190565b818101860151848201604001528501613660565b600435906001600160a01b038216820361363957565b602435906001600160a01b038216820361363957565b6040906003190112613639576004359060243590565b90815180825260208080930193019160005b8281106136f8575050505090565b83516001600160a01b0316855293810193928101926001016136ea565b90815180825260208080930193019160005b828110613735575050505090565b835185529381019392810192600101613727565b60609060031901126136395760043590602435906044356001600160a01b03811681036136395790565b600b548110156137aa57600b6000527f0175b7a638427703f0dbe7bb9bbf987a2551717b34e79f33b5b1008d1fa01db90190600090565b634e487b7160e01b600052603260045260246000fd5b606090600319011261363957600435906001600160a01b03906024358281168103613639579160443590811681036136395790565b90601f8019910116810190811067ffffffffffffffff82111761381757604052565b634e487b7160e01b600052604160045260246000fd5b9190826040910312613639576020825192015190565b9190820180921161385057565b634e487b7160e01b600052601160045260246000fd5b60075490613875600854613c40565b600b5460005b81811061389157505061388e9192613843565b90565b61389a81613773565b9060018060a01b03809154600393841b1c16600052600960205260409160ff8360002054166138cf575b50505060010161387b565b6004979183916138e0869896613773565b9054911b1c16815198898092636253bb0f60e11b82525afa96871561396057600092839861392d575b5050916117a561391e61392493600195613843565b97613c40565b929038806138c4565b60019492985061392493506139556117a5928261391e93903d106124505761244281836137f5565b999395509350613909565b82513d6000823e3d90fd5b8181029291811591840414171561385057565b9190820391821161385057565b8115613995570490565b634e487b7160e01b600052601260045260246000fd5b6002549081156139e8576139ca916139c29161396b565b6117a5613866565b60001981019081116138505761388e906139e2613866565b9061398b565b5050600090565b6139f76143e6565b6139ff61404e565b90670de0b6b3a7640000918281029281840414901517156138505761388e9161398b565b600254919260009283928115613b0957613a3b613866565b670de0b6b3a764000091828202828104841483151715613af557613a7b9291613a70613a6a87613a769461398b565b9a613c40565b92613843565b613843565b818102918183041490151715613ae15790613a959161398b565b93613aa0818661397e565b9381613aaa575050565b9091925061271090818502918583041485151715613acd57509061388e9161398b565b634e487b7160e01b81526011600452602490fd5b634e487b7160e01b85526011600452602485fd5b634e487b7160e01b88526011600452602488fd5b505092505080918190565b60ff601f54168015613ba1575b613b9b5760ff60175460081c169081613b77575b50613b7257600254601954808210156139e85781613b529161397e565b908015613b6e57612d1361388e92613b68613866565b9061396b565b5090565b600090565b6001600160a01b031660009081526018602052604090205460ff1615905038613b35565b50600090565b5060ff60175416613b21565b60025480156139e857612d1361388e92613b68613866565b67ffffffffffffffff81116138175760051b60200190565b90613be782613bc5565b613bf460405191826137f5565b8281528092613c05601f1991613bc5565b0190602036910137565b8051156137aa5760200190565b8051600110156137aa5760400190565b80518210156137aa5760209160051b010190565b8015613b9b57613c5b670de0b6b3a764000091613b686139ef565b0490565b613c676139ef565b613c6f614da6565b81156139e8578082039060009081811284841281169085851390151617613cb957612710808402938405149084141715613acd57600160ff1b8214600019841416613acd57500590565b634e487b7160e01b82526011600452602482fd5b51906001600160a01b038216820361363957565b604080519067ffffffffffffffff606083018181118482101761381757825260028352602080840193928036863763ffffffff9485601a54169283613d2587613c0f565b5260009485613d3388613c1c565b52858451809463883bdbfd60e01b825260049a8b60249b878d8601928601525180915260448401929185905b88838310614009575050509183900391508290507f00000000000000000000000000000000000000000000000000000000000000006001600160a01b03165afa938415614000578694613ef5575b50505050613dc4613dbd82613c1c565b5191613c0f565b5160060b9060060b0390667fffffffffffff1990667fffffffffffff831382841217613ee25760060b9160060b908215613ecf578114600019831416613ebd570560020b926103e719841380613eb2575b15613ea657655af3107a400093848102948186051490151715613e9657670de0b6b3a7640000848101948512600116613e855784159081613e7c5750613e6c575050506ec097ce7bc90715b34b9f10000000000490565b634e487b7160e01b825260129052fd5b94505050505090565b50634e487b7160e01b825260119052fd5b634e487b7160e01b825260119052fd5b5050505061388e614da6565b506103e88412613e15565b5050634e487b7160e01b815260118352fd5b5050634e487b7160e01b82525060128352fd5b5050634e487b7160e01b82525060118352fd5b90919293503d8087863e613f0981866137f5565b8401918185840312610808578451818111613fdb5785019483601f87011215613fdb57855195613f3887613bc5565b96613f45855198896137f5565b808852868089019160051b83010191868311613ffc578701905b828210613fdf5750505084810151918211613fdb570182601f82011215610808578380825193613f9a613f9186613bc5565b915191826137f5565b848152019260051b820101928311610808578301905b828210613fc4575050505038808080613dad565b838091613fd084613ccd565b815201910190613fb0565b8780fd5b81518060060b8103613ff8578152908701908701613f5f565b8b80fd5b8a80fd5b513d87823e3d90fd5b8451821686528d97508a9650948501949390930192600190910190613d5f565b519069ffffffffffffffffffff8216820361363957565b519060ff8216820361363957565b60408051633fabe5a360e21b81529091906004907f00000000000000000000000000000000000000000000000000000000000000006001600160a01b031660a0828481845afa9182156141b35760009283809281926141fd575b5060008513156141ee5782156141de5769ffffffffffffffffffff8091169116106141ce576140d7904261397e565b601b54106141be576020839186519283809263313ce56760e01b82525afa80156141b357600090614179575b60ff91501660120360ff81116141645760ff16604d8111614164579061412c91600a0a9061396b565b92670d2f13f7789f000084108015614153575b614147575050565b5162bfc92160e01b8152fd5b50670e92596fd6290000841161413f565b601183634e487b7160e01b6000525260246000fd5b506020813d6020116141ab575b81614193602093836137f5565b81010312613639576141a660ff91614040565b614103565b3d9150614186565b85513d6000823e3d90fd5b8451630cd5fa0760e11b81528390fd5b8551630cd5fa0760e11b81528490fd5b8751630cd5fa0760e11b81528690fd5b875162bfc92160e01b81528690fd5b945091505060a0833d60a01161424c575b8161421b60a093836137f5565b81010312610a5a575061422d82614029565b6020830151614243608060608601519501614029565b909391386140a8565b3d915061420e565b91908110156137aa5760051b0190565b356001600160a01b03811681036136395790565b600254908161428a5761271091500490565b81613a7661429a92613b68613866565b6000198101919082116138505761388e9161398b565b60ff601f54168015614312575b613b9b5760ff60175460081c1690816142ee575b50613b725760025460195490818110156139e85761388e9161397e565b6001600160a01b031660009081526018602052604090205460ff16159050386142d1565b5060ff601754166142bd565b5190811515820361363957565b60ff601f5416613b9b576001600160a01b03166000908152602081905260409020548015613b9b5761388e90613bad565b60ff601f5416613b9b576001600160a01b031660009081526020819052604090205490565b6001600160601b038060135416428111908115916143dd575b506143d6576143be6143b664e8d4a5100092601554164261397e565b60125461396b565b04601454908181116000146143d1575090565b905090565b5060145490565b9050153861439a565b6143ee61404e565b601a5463ffffffff161561447f576040516383189fa160e01b8152602081600481305afa60009181614441575b5091613c5b91670de0b6b3a7640000931560001461443c575061443c614da6565b61396b565b9150916020823d602011614477575b8161445d602093836137f5565b810103126136395790519091670de0b6b3a764000061441b565b3d9150614450565b613c5b670de0b6b3a76400009161443c614da6565b600254806144b45750612710908181029181830414901517156138505790565b6144c19061388e9261396b565b6139e2613866565b6005546001600160a01b031633036144dd57565b60405163118cdaa760e01b8152336004820152602490fd5b9160018060a01b038093169160009383855260016020526040938486209183169182875260205284862054926000198410614534575b50505050505050565b848410614598575080156145805781156145685785526001602052838520908552602052039120553880808080808061452b565b8451634a1406b160e11b815260048101879052602490fd5b845163e602df0560e01b815260048101879052602490fd5b8551637dc7a0d960e11b81526001600160a01b039190911660048201526024810184905260448101859052606490fd5b916001600160a01b0380841692831561468d57169283156146745760009083825281602052604082205490838210614642575091604082827fddf252ad1be2c89b69c2b068fc378daa952ba7f163c4a11628f55a4df523b3ef958760209652828652038282205586815220818154019055604051908152a3565b60405163391434e360e21b81526001600160a01b03919091166004820152602481019190915260448101839052606490fd5b60405163ec442f0560e01b815260006004820152602490fd5b604051634b637e8f60e11b815260006004820152602490fd5b6002600654146146b7576002600655565b604051633ee5aeb560e01b8152600490fd5b906001600160a01b03821690811561468d57600092828452836020526040842054908282106147365750817fddf252ad1be2c89b69c2b068fc378daa952ba7f163c4a11628f55a4df523b3ef926020928587528684520360408620558060025403600255604051908152a3565b60405163391434e360e21b81526001600160a01b03919091166004820152602481019190915260448101829052606490fd5b6001600160a01b0316908115614674577fddf252ad1be2c89b69c2b068fc378daa952ba7f163c4a11628f55a4df523b3ef6020826147aa600094600254613843565b60025584845283825260408420818154019055604051908152a3565b6040516323b872dd60e01b60208201526001600160a01b03928316602482015292909116604483015260648083019390935291815260a081019181831067ffffffffffffffff8411176138175761481f926040526151bb565b565b90600c91600c5415614abe5761483f61483983613c40565b82613843565b928315614ab857600b549260005b84811061485c57505050505050565b61486581613773565b60018060a01b0391549060031b1c16908160005260209160098352604060ff81600020541680614aa7575b6148a1575b5050600191500161484d565b600a84526148be6148b682600020548b61396b565b87549061398b565b60008815614aa157506148d58a612d13838b61396b565b945b85918b60008915614a985750612d136148f0928a61396b565b955b866007908154809311614a8f575b6008918254809211614a86575b85159384158095614a7d575b61492a575b50505050505050614895565b9084939291878c96614a6a575b5050508315159384614a57575b505050614a27575b6149f7575b8251631c57762b60e31b815282600482015286602482015281816044816000895af180156149ec576149bd575b509060019583927ffe21ae5405b014c3a0c011f9950992ccc080a66a6ea082b33d35fb760c11ebe79451928352820152a238808080808080808061491e565b9080939291813d83116149e5575b6149d581836137f5565b810103126136395790913861497e565b503d6149cb565b84513d6000823e3d90fd5b614a2286857f0000000000000000000000000000000000000000000000000000000000000000615217565b614951565b614a5283867f0000000000000000000000000000000000000000000000000000000000000000615217565b61494c565b614a609161397e565b9055388089614944565b614a739161397e565b9055388087614937565b508a1515614919565b9850809861490d565b93508193614900565b915050956148f2565b946148d7565b50600a845280600020541515614890565b50505050565b505050565b908115614d91576008548211614d7f57614adc82613c40565b9160225461271003612710811161385057614afa612710918561396b565b04907f000000000000000000000000000000000000000000000000000000000000000090614b52817f00000000000000000000000000000000000000000000000000000000000000006001600160a01b031684615217565b60405191610100830183811067ffffffffffffffff8211176138175760409081526001600160a01b0391821684527f000000000000000000000000000000000000000000000000000000000000000082166020808601918252610bb88684019081523060608801908152426080890190815260a0890188815260c08a018b8152600060e08c01818152985163414bf38960e01b81529b518a1660048d01529651891660248c0152935162ffffff1660448b01529151871660648a01525160848901525160a48801525160c48701529151831660e486015290918491610104918391907f0000000000000000000000000000000000000000000000000000000000000000165af1918215614d7357600092614d3f575b508194614c768260085461397e565b600855614c8583600754613843565b60075582811115614d1157614c9a838261397e565b906127108202918083046127101490151715613850577fcd3c928b065cd5556161d393f62bdf7dd29b6c174d1367901c14635af433f5d294614cdf82614d0c9461398b565b915b604051958695869192608093969594919660a084019784526020840152604083015260608201520152565b0390a1565b614d0c907fcd3c928b065cd5556161d393f62bdf7dd29b6c174d1367901c14635af433f5d294600091614ce1565b9091506020813d602011614d6b575b81614d5b602093836137f5565b8101031261363957519038614c67565b3d9150614d4e565b6040513d6000823e3d90fd5b604051631e9acf1760e31b8152600490fd5b60009150565b519061ffff8216820361363957565b604051633850c7bd60e01b8152906001600160a01b0360e0836004817f000000000000000000000000000000000000000000000000000000000000000085165afa8015614d7357600090614e61575b614e02929350168061396b565b670de0b6b3a7640000908181029181830414901517156138505760c01c801580614e5157613995576ec097ce7bc90715b34b9f100000000004905b8115614e4557565b66038d7ea4c680009150565b505066038d7ea4c6800090614e3d565b60e0843d60e011614ee8575b81614e7a60e093836137f5565b81010312610a5a57614e8b84613ccd565b9060208501518060020b03610a5a5750614edf60c085614eb16040614e02979801614d97565b50614ebe60608201614d97565b50614ecb60808201614d97565b50614ed860a08201614040565b500161431e565b50839250614df5565b3d9150614e6d565b906007916007548181101561517957614f09908261397e565b916000908392600b549460005b86811080615170575b156150d557614f2d81613773565b60018060a01b0391549060031b1c168060005260206009815260409060ff826000205416614f6a575b505050600019811461385057600101614f16565b8151636253bb0f60e11b815260049083818381885afa80156149ec5760009182916150b6575b5081158015906150ad575b614fa8575b505050614f56565b600a916117a5614fb792613c40565b928560005252614fd7614fce84600020548c61396b565b600c549061398b565b918083116150a5575b5081614fee575b8080614fa0565b90602483949993926000849c979c519b8c948593632e1a7d4d60e01b85528401525af1968715613960576000928398615076575b5050906117a561391e82615052948d61503c838254613843565b9055600861504b8c8254613843565b9055613843565b81811061506857505060005b9438808080614fe7565b6150719161397e565b61505e565b61391e92985061505293506117a5918161509b92903d106124505761244281836137f5565b9890935091615022565b915038614fe0565b50801515614f9b565b90506150cf9150843d86116124505761244281836137f5565b38614f90565b5091955093506000925081811115615169576150f1925061397e565b801580158061515e575b61510c575b505060075410614d7f57565b670de0b6b3a76400008083029283041417156138505761512e906139e26139ef565b600854808211615156575b5080615146575b80615100565b61514f90614ac3565b5038615140565b905038615139565b5060085415156150fb565b50506150f1565b50851515614f1f565b50509050565b60405163a9059cbb60e01b60208201526001600160a01b0392909216602483015260448083019390935291815261481f916151bb6064836137f5565b906000602091828151910182855af115614d73576000513d61520e57506001600160a01b0381163b155b6151ec5750565b604051635274afe760e01b81526001600160a01b039091166004820152602490fd5b600114156151e5565b60405163095ea7b360e01b602082018181526001600160a01b0385166024840152604480840196909652948252949390926152536064856137f5565b60206000809386519082875af182513d826152e5575b505015615279575b505050509050565b60405160208101969096526001600160a01b0316602486015260448086018290528552608085019067ffffffffffffffff8211868310176152d157506152c793946151bb91604052826151bb565b8038808080615271565b634e487b7160e01b81526041600452602490fd5b90915061530257506001600160a01b0383163b15155b3880615269565b6001146152fb565b9091600019838309928083029283808610950394808603951461539a5784831115615381579082910981600003821680920460028082600302188083028203028083028203028083028203028083028203028083028203028092029003029360018380600003040190848311900302920304170290565b82634e487b71600052156003026011186020526024601cfd5b50509061388e925061398b56fea2646970667358221220499e3078227d1b48c1bfb77d1f18c3b48f55d2ebfb0e575dd15ae49479cb82bf64736f6c63430008160033","linkReferences":{}},"methodIdentifiers":{"MAX_FEE()":"bc063e1a","MAX_STRATEGIES()":"767f06ae","UNISWAP_ROUTER()":"d8264920","USD1_PRICE_FEED()":"656a4b20","USD1_TOKEN()":"c6e831e8","WLFI_TOKEN()":"8ba17976","WLFI_USD1_POOL()":"96c1c433","_getTWAPPrice()":"83189fa1","acceptManagement()":"c8c2fe6c","activeStrategies(address)":"2c178bd0","addStrategy(address,uint256)":"c9411e22","allowance(address,address)":"dd62ed3e","approve(address,uint256)":"095ea7b3","asset()":"38d52e0f","authorized(address)":"b9181611","balanceOf(address)":"70a08231","convertToAssets(uint256)":"07a2d13a","convertToShares(uint256)":"c6e6f592","decimals()":"313ce567","deploymentThreshold()":"a0317bd6","deposit(uint256,address)":"6e553f65","depositDual(uint256,uint256,address)":"5c272ef6","emergencyAdmin()":"70905dce","emergencyWithdraw(uint256,uint256,address)":"f72b2a4c","forceDeployToStrategies()":"68e5ce84","fullProfitUnlockDate()":"2d632692","getCurrentPrices()":"852d0d6e","getOraclePoolPriceDelta()":"7ec142ca","getStrategies()":"b49a60bb","getStrategyAssets()":"57fce5b7","getUSD1Price()":"89b12716","getVaultBalances()":"22370685","getVaultBalancesWlfi()":"6ac169d2","getWLFIPrice()":"ed84c5f3","injectCapital(uint256,uint256)":"386db353","isShutdown()":"bf86d690","keeper()":"aced1661","lastDeployment()":"45650c07","lastRebalance()":"106b9ca1","lastReport()":"c3535b52","lockedShares()":"e95502fb","management()":"88a8d602","maxDeposit(address)":"402d267d","maxMint(address)":"c63d75b6","maxPriceAge()":"1584410a","maxRedeem(address)":"d905777e","maxTotalSupply()":"2ab4d052","maxWithdraw(address)":"ce96cb77","minDeploymentInterval()":"00cfdb09","mint(uint256,address)":"94bf804d","name()":"06fdde03","owner()":"8da5cb5b","paused()":"5c975abb","pendingManagement()":"0b68f46f","performanceFee()":"87788782","performanceFeeRecipient()":"ed27f7c9","previewCapitalInjection(uint256,uint256)":"0fd35745","previewDeposit(uint256)":"ef8b30f7","previewDepositDual(uint256,uint256)":"9699b63f","previewMint(uint256)":"b3d7f6b9","previewRedeem(uint256)":"4cdad506","previewWithdraw(uint256)":"0a28a477","profitMaxUnlockTime()":"0952864e","profitUnlockingRate()":"5141eebb","redeem(uint256,address,address)":"ba087652","removeStrategy(address)":"175188e8","renounceOwnership()":"715018a6","report()":"2606a10b","rescueETH()":"20800a00","rescueToken(address,uint256,address)":"f8a67a62","setDeploymentParams(uint256,uint256)":"79f06d21","setEmergencyAdmin(address)":"35da3394","setKeeper(address)":"748747e6","setMaxPriceAge(uint256)":"56447ce8","setMaxTotalSupply(uint256)":"3f3e4c11","setPaused(bool)":"16c38b3c","setPendingManagement(address)":"f629b790","setPerformanceFee(uint16)":"aa290e6d","setPerformanceFeeRecipient(address)":"6a5f1aa2","setProfitMaxUnlockTime(uint256)":"df69b22a","setSwapSlippage(uint256)":"fa88dd15","setTWAPInterval(uint32)":"d88c1517","setWhitelist(address,bool)":"53d6fd59","setWhitelistBatch(address[],bool)":"a58da0be","setWhitelistEnabled(bool)":"052d9e7e","shutdownStrategy()":"be8f1668","strategyList(uint256)":"a267526b","strategyWeights(address)":"7cd36844","swapSlippageBps()":"2ae1c8ef","symbol()":"95d89b41","syncBalances()":"336b78a0","tend()":"440368a3","tendTrigger()":"5d265d3f","totalAssets()":"01e1d114","totalAssetsAtLastReport()":"9161ccd0","totalLockedShares()":"81c39bec","totalStrategyWeight()":"98d3b209","totalSupply()":"18160ddd","transfer(address,uint256)":"a9059cbb","transferFrom(address,address,uint256)":"23b872dd","transferOwnership(address)":"f2fde38b","twapInterval()":"3c1d5df0","unlockedShares()":"d9a0e97a","usd1Balance()":"055a2b58","whitelist(address)":"9b19251a","whitelistEnabled()":"51fb012d","withdraw(uint256,address,address)":"b460af94","wlfiBalance()":"29ea1c0b","wlfiEquivalent(uint256)":"7b0a11e6","wlfiPerUsd1()":"0c595cec"},"id":0}