{"abi":[{"type":"constructor","inputs":[{"name":"_wlfiToken","type":"address","internalType":"address"},{"name":"_usd1Token","type":"address","internalType":"address"},{"name":"_usd1PriceFeed","type":"address","internalType":"address"},{"name":"_wlfiUsd1Pool","type":"address","internalType":"address"},{"name":"_uniswapRouter","type":"address","internalType":"address"},{"name":"_owner","type":"address","internalType":"address"}],"stateMutability":"nonpayable"},{"type":"receive","stateMutability":"payable"},{"type":"function","name":"MAX_FEE","inputs":[],"outputs":[{"name":"","type":"uint16","internalType":"uint16"}],"stateMutability":"view"},{"type":"function","name":"MAX_STRATEGIES","inputs":[],"outputs":[{"name":"","type":"uint256","internalType":"uint256"}],"stateMutability":"view"},{"type":"function","name":"UNISWAP_ROUTER","inputs":[],"outputs":[{"name":"","type":"address","internalType":"contract ISwapRouter"}],"stateMutability":"view"},{"type":"function","name":"USD1_PRICE_FEED","inputs":[],"outputs":[{"name":"","type":"address","internalType":"contract AggregatorV3Interface"}],"stateMutability":"view"},{"type":"function","name":"USD1_TOKEN","inputs":[],"outputs":[{"name":"","type":"address","internalType":"contract IERC20"}],"stateMutability":"view"},{"type":"function","name":"WLFI_TOKEN","inputs":[],"outputs":[{"name":"","type":"address","internalType":"contract IERC20"}],"stateMutability":"view"},{"type":"function","name":"WLFI_USD1_POOL","inputs":[],"outputs":[{"name":"","type":"address","internalType":"contract IUniswapV3Pool"}],"stateMutability":"view"},{"type":"function","name":"_getTWAPPrice","inputs":[],"outputs":[{"name":"","type":"uint256","internalType":"uint256"}],"stateMutability":"view"},{"type":"function","name":"acceptManagement","inputs":[],"outputs":[],"stateMutability":"nonpayable"},{"type":"function","name":"activeStrategies","inputs":[{"name":"","type":"address","internalType":"address"}],"outputs":[{"name":"","type":"bool","internalType":"bool"}],"stateMutability":"view"},{"type":"function","name":"addStrategy","inputs":[{"name":"strategy","type":"address","internalType":"address"},{"name":"weight","type":"uint256","internalType":"uint256"}],"outputs":[],"stateMutability":"nonpayable"},{"type":"function","name":"allowance","inputs":[{"name":"owner","type":"address","internalType":"address"},{"name":"spender","type":"address","internalType":"address"}],"outputs":[{"name":"","type":"uint256","internalType":"uint256"}],"stateMutability":"view"},{"type":"function","name":"approve","inputs":[{"name":"spender","type":"address","internalType":"address"},{"name":"value","type":"uint256","internalType":"uint256"}],"outputs":[{"name":"","type":"bool","internalType":"bool"}],"stateMutability":"nonpayable"},{"type":"function","name":"asset","inputs":[],"outputs":[{"name":"","type":"address","internalType":"address"}],"stateMutability":"view"},{"type":"function","name":"authorized","inputs":[{"name":"","type":"address","internalType":"address"}],"outputs":[{"name":"","type":"bool","internalType":"bool"}],"stateMutability":"view"},{"type":"function","name":"balanceOf","inputs":[{"name":"account","type":"address","internalType":"address"}],"outputs":[{"name":"","type":"uint256","internalType":"uint256"}],"stateMutability":"view"},{"type":"function","name":"calculateUSDValue","inputs":[{"name":"wlfiAmount","type":"uint256","internalType":"uint256"},{"name":"usd1Amount","type":"uint256","internalType":"uint256"}],"outputs":[{"name":"usdValue","type":"uint256","internalType":"uint256"}],"stateMutability":"view"},{"type":"function","name":"convertToAssets","inputs":[{"name":"shares","type":"uint256","internalType":"uint256"}],"outputs":[{"name":"","type":"uint256","internalType":"uint256"}],"stateMutability":"view"},{"type":"function","name":"convertToShares","inputs":[{"name":"assets","type":"uint256","internalType":"uint256"}],"outputs":[{"name":"","type":"uint256","internalType":"uint256"}],"stateMutability":"view"},{"type":"function","name":"decimals","inputs":[],"outputs":[{"name":"","type":"uint8","internalType":"uint8"}],"stateMutability":"view"},{"type":"function","name":"deploymentThreshold","inputs":[],"outputs":[{"name":"","type":"uint256","internalType":"uint256"}],"stateMutability":"view"},{"type":"function","name":"deposit","inputs":[{"name":"assets","type":"uint256","internalType":"uint256"},{"name":"receiver","type":"address","internalType":"address"}],"outputs":[{"name":"shares","type":"uint256","internalType":"uint256"}],"stateMutability":"nonpayable"},{"type":"function","name":"depositDual","inputs":[{"name":"wlfiAmount","type":"uint256","internalType":"uint256"},{"name":"usd1Amount","type":"uint256","internalType":"uint256"},{"name":"receiver","type":"address","internalType":"address"}],"outputs":[{"name":"shares","type":"uint256","internalType":"uint256"}],"stateMutability":"nonpayable"},{"type":"function","name":"emergencyAdmin","inputs":[],"outputs":[{"name":"","type":"address","internalType":"address"}],"stateMutability":"view"},{"type":"function","name":"emergencyWithdraw","inputs":[{"name":"wlfiAmount","type":"uint256","internalType":"uint256"},{"name":"usd1Amount","type":"uint256","internalType":"uint256"},{"name":"to","type":"address","internalType":"address"}],"outputs":[],"stateMutability":"nonpayable"},{"type":"function","name":"forceDeployToStrategies","inputs":[],"outputs":[],"stateMutability":"nonpayable"},{"type":"function","name":"fullProfitUnlockDate","inputs":[],"outputs":[{"name":"","type":"uint96","internalType":"uint96"}],"stateMutability":"view"},{"type":"function","name":"getCurrentPrices","inputs":[],"outputs":[{"name":"wlfiPriceUSD","type":"uint256","internalType":"uint256"},{"name":"usd1PriceUSD","type":"uint256","internalType":"uint256"}],"stateMutability":"view"},{"type":"function","name":"getStrategies","inputs":[],"outputs":[{"name":"strategies","type":"address[]","internalType":"address[]"},{"name":"weights","type":"uint256[]","internalType":"uint256[]"}],"stateMutability":"view"},{"type":"function","name":"getStrategyAssets","inputs":[],"outputs":[{"name":"strategies","type":"address[]","internalType":"address[]"},{"name":"wlfiAmounts","type":"uint256[]","internalType":"uint256[]"},{"name":"usd1Amounts","type":"uint256[]","internalType":"uint256[]"}],"stateMutability":"view"},{"type":"function","name":"getUSD1Price","inputs":[],"outputs":[{"name":"price","type":"uint256","internalType":"uint256"}],"stateMutability":"view"},{"type":"function","name":"getVaultBalances","inputs":[],"outputs":[{"name":"wlfi","type":"uint256","internalType":"uint256"},{"name":"usd1","type":"uint256","internalType":"uint256"}],"stateMutability":"view"},{"type":"function","name":"getVaultBalancesUSD","inputs":[],"outputs":[{"name":"wlfiValueUSD","type":"uint256","internalType":"uint256"},{"name":"usd1ValueUSD","type":"uint256","internalType":"uint256"},{"name":"totalValueUSD","type":"uint256","internalType":"uint256"}],"stateMutability":"view"},{"type":"function","name":"getWLFIPrice","inputs":[],"outputs":[{"name":"price","type":"uint256","internalType":"uint256"}],"stateMutability":"view"},{"type":"function","name":"injectCapital","inputs":[{"name":"wlfiAmount","type":"uint256","internalType":"uint256"},{"name":"usd1Amount","type":"uint256","internalType":"uint256"}],"outputs":[],"stateMutability":"nonpayable"},{"type":"function","name":"isShutdown","inputs":[],"outputs":[{"name":"","type":"bool","internalType":"bool"}],"stateMutability":"view"},{"type":"function","name":"keeper","inputs":[],"outputs":[{"name":"","type":"address","internalType":"address"}],"stateMutability":"view"},{"type":"function","name":"lastDeployment","inputs":[],"outputs":[{"name":"","type":"uint256","internalType":"uint256"}],"stateMutability":"view"},{"type":"function","name":"lastRebalance","inputs":[],"outputs":[{"name":"","type":"uint256","internalType":"uint256"}],"stateMutability":"view"},{"type":"function","name":"lastReport","inputs":[],"outputs":[{"name":"","type":"uint96","internalType":"uint96"}],"stateMutability":"view"},{"type":"function","name":"management","inputs":[],"outputs":[{"name":"","type":"address","internalType":"address"}],"stateMutability":"view"},{"type":"function","name":"maxDeposit","inputs":[{"name":"","type":"address","internalType":"address"}],"outputs":[{"name":"","type":"uint256","internalType":"uint256"}],"stateMutability":"view"},{"type":"function","name":"maxMint","inputs":[{"name":"","type":"address","internalType":"address"}],"outputs":[{"name":"","type":"uint256","internalType":"uint256"}],"stateMutability":"view"},{"type":"function","name":"maxPriceAge","inputs":[],"outputs":[{"name":"","type":"uint256","internalType":"uint256"}],"stateMutability":"view"},{"type":"function","name":"maxRedeem","inputs":[{"name":"owner","type":"address","internalType":"address"}],"outputs":[{"name":"","type":"uint256","internalType":"uint256"}],"stateMutability":"view"},{"type":"function","name":"maxTotalSupply","inputs":[],"outputs":[{"name":"","type":"uint256","internalType":"uint256"}],"stateMutability":"view"},{"type":"function","name":"maxWithdraw","inputs":[{"name":"owner","type":"address","internalType":"address"},{"name":"maxLoss","type":"uint256","internalType":"uint256"}],"outputs":[{"name":"","type":"uint256","internalType":"uint256"}],"stateMutability":"view"},{"type":"function","name":"maxWithdraw","inputs":[{"name":"owner","type":"address","internalType":"address"}],"outputs":[{"name":"","type":"uint256","internalType":"uint256"}],"stateMutability":"view"},{"type":"function","name":"minDeploymentInterval","inputs":[],"outputs":[{"name":"","type":"uint256","internalType":"uint256"}],"stateMutability":"view"},{"type":"function","name":"mint","inputs":[{"name":"shares","type":"uint256","internalType":"uint256"},{"name":"receiver","type":"address","internalType":"address"}],"outputs":[{"name":"","type":"uint256","internalType":"uint256"}],"stateMutability":"nonpayable"},{"type":"function","name":"name","inputs":[],"outputs":[{"name":"","type":"string","internalType":"string"}],"stateMutability":"view"},{"type":"function","name":"owner","inputs":[],"outputs":[{"name":"","type":"address","internalType":"address"}],"stateMutability":"view"},{"type":"function","name":"paused","inputs":[],"outputs":[{"name":"","type":"bool","internalType":"bool"}],"stateMutability":"view"},{"type":"function","name":"pendingManagement","inputs":[],"outputs":[{"name":"","type":"address","internalType":"address"}],"stateMutability":"view"},{"type":"function","name":"performanceFee","inputs":[],"outputs":[{"name":"","type":"uint16","internalType":"uint16"}],"stateMutability":"view"},{"type":"function","name":"performanceFeeRecipient","inputs":[],"outputs":[{"name":"","type":"address","internalType":"address"}],"stateMutability":"view"},{"type":"function","name":"previewDeposit","inputs":[{"name":"assets","type":"uint256","internalType":"uint256"}],"outputs":[{"name":"","type":"uint256","internalType":"uint256"}],"stateMutability":"view"},{"type":"function","name":"previewDepositDual","inputs":[{"name":"wlfiAmount","type":"uint256","internalType":"uint256"},{"name":"usd1Amount","type":"uint256","internalType":"uint256"}],"outputs":[{"name":"shares","type":"uint256","internalType":"uint256"},{"name":"usdValue","type":"uint256","internalType":"uint256"}],"stateMutability":"view"},{"type":"function","name":"previewMint","inputs":[{"name":"shares","type":"uint256","internalType":"uint256"}],"outputs":[{"name":"","type":"uint256","internalType":"uint256"}],"stateMutability":"view"},{"type":"function","name":"previewRedeem","inputs":[{"name":"shares","type":"uint256","internalType":"uint256"}],"outputs":[{"name":"","type":"uint256","internalType":"uint256"}],"stateMutability":"view"},{"type":"function","name":"previewWithdraw","inputs":[{"name":"assets","type":"uint256","internalType":"uint256"}],"outputs":[{"name":"","type":"uint256","internalType":"uint256"}],"stateMutability":"view"},{"type":"function","name":"profitMaxUnlockTime","inputs":[],"outputs":[{"name":"","type":"uint32","internalType":"uint32"}],"stateMutability":"view"},{"type":"function","name":"profitUnlockingRate","inputs":[],"outputs":[{"name":"","type":"uint256","internalType":"uint256"}],"stateMutability":"view"},{"type":"function","name":"redeem","inputs":[{"name":"shares","type":"uint256","internalType":"uint256"},{"name":"receiver","type":"address","internalType":"address"},{"name":"owner","type":"address","internalType":"address"}],"outputs":[{"name":"assets","type":"uint256","internalType":"uint256"}],"stateMutability":"nonpayable"},{"type":"function","name":"removeStrategy","inputs":[{"name":"strategy","type":"address","internalType":"address"}],"outputs":[],"stateMutability":"nonpayable"},{"type":"function","name":"renounceOwnership","inputs":[],"outputs":[],"stateMutability":"nonpayable"},{"type":"function","name":"report","inputs":[],"outputs":[{"name":"profit","type":"uint256","internalType":"uint256"},{"name":"loss","type":"uint256","internalType":"uint256"}],"stateMutability":"nonpayable"},{"type":"function","name":"rescueETH","inputs":[],"outputs":[],"stateMutability":"nonpayable"},{"type":"function","name":"rescueToken","inputs":[{"name":"token","type":"address","internalType":"address"},{"name":"amount","type":"uint256","internalType":"uint256"},{"name":"to","type":"address","internalType":"address"}],"outputs":[],"stateMutability":"nonpayable"},{"type":"function","name":"setDeploymentParams","inputs":[{"name":"_threshold","type":"uint256","internalType":"uint256"},{"name":"_interval","type":"uint256","internalType":"uint256"}],"outputs":[],"stateMutability":"nonpayable"},{"type":"function","name":"setEmergencyAdmin","inputs":[{"name":"_emergencyAdmin","type":"address","internalType":"address"}],"outputs":[],"stateMutability":"nonpayable"},{"type":"function","name":"setKeeper","inputs":[{"name":"_keeper","type":"address","internalType":"address"}],"outputs":[],"stateMutability":"nonpayable"},{"type":"function","name":"setMaxPriceAge","inputs":[{"name":"_maxPriceAge","type":"uint256","internalType":"uint256"}],"outputs":[],"stateMutability":"nonpayable"},{"type":"function","name":"setMaxTotalSupply","inputs":[{"name":"_maxTotalSupply","type":"uint256","internalType":"uint256"}],"outputs":[],"stateMutability":"nonpayable"},{"type":"function","name":"setPaused","inputs":[{"name":"_paused","type":"bool","internalType":"bool"}],"outputs":[],"stateMutability":"nonpayable"},{"type":"function","name":"setPendingManagement","inputs":[{"name":"_management","type":"address","internalType":"address"}],"outputs":[],"stateMutability":"nonpayable"},{"type":"function","name":"setPerformanceFee","inputs":[{"name":"_performanceFee","type":"uint16","internalType":"uint16"}],"outputs":[],"stateMutability":"nonpayable"},{"type":"function","name":"setPerformanceFeeRecipient","inputs":[{"name":"_performanceFeeRecipient","type":"address","internalType":"address"}],"outputs":[],"stateMutability":"nonpayable"},{"type":"function","name":"setProfitMaxUnlockTime","inputs":[{"name":"_profitMaxUnlockTime","type":"uint256","internalType":"uint256"}],"outputs":[],"stateMutability":"nonpayable"},{"type":"function","name":"setTWAPInterval","inputs":[{"name":"_interval","type":"uint32","internalType":"uint32"}],"outputs":[],"stateMutability":"nonpayable"},{"type":"function","name":"shutdownStrategy","inputs":[],"outputs":[],"stateMutability":"nonpayable"},{"type":"function","name":"strategyList","inputs":[{"name":"","type":"uint256","internalType":"uint256"}],"outputs":[{"name":"","type":"address","internalType":"address"}],"stateMutability":"view"},{"type":"function","name":"strategyWeights","inputs":[{"name":"","type":"address","internalType":"address"}],"outputs":[{"name":"","type":"uint256","internalType":"uint256"}],"stateMutability":"view"},{"type":"function","name":"symbol","inputs":[],"outputs":[{"name":"","type":"string","internalType":"string"}],"stateMutability":"view"},{"type":"function","name":"syncBalances","inputs":[],"outputs":[],"stateMutability":"nonpayable"},{"type":"function","name":"tend","inputs":[],"outputs":[],"stateMutability":"nonpayable"},{"type":"function","name":"tendTrigger","inputs":[],"outputs":[{"name":"","type":"bool","internalType":"bool"}],"stateMutability":"view"},{"type":"function","name":"totalAssets","inputs":[],"outputs":[{"name":"","type":"uint256","internalType":"uint256"}],"stateMutability":"view"},{"type":"function","name":"totalAssetsAtLastReport","inputs":[],"outputs":[{"name":"","type":"uint256","internalType":"uint256"}],"stateMutability":"view"},{"type":"function","name":"totalLockedShares","inputs":[],"outputs":[{"name":"","type":"uint256","internalType":"uint256"}],"stateMutability":"view"},{"type":"function","name":"totalStrategyWeight","inputs":[],"outputs":[{"name":"","type":"uint256","internalType":"uint256"}],"stateMutability":"view"},{"type":"function","name":"totalSupply","inputs":[],"outputs":[{"name":"","type":"uint256","internalType":"uint256"}],"stateMutability":"view"},{"type":"function","name":"transfer","inputs":[{"name":"to","type":"address","internalType":"address"},{"name":"value","type":"uint256","internalType":"uint256"}],"outputs":[{"name":"","type":"bool","internalType":"bool"}],"stateMutability":"nonpayable"},{"type":"function","name":"transferFrom","inputs":[{"name":"from","type":"address","internalType":"address"},{"name":"to","type":"address","internalType":"address"},{"name":"value","type":"uint256","internalType":"uint256"}],"outputs":[{"name":"","type":"bool","internalType":"bool"}],"stateMutability":"nonpayable"},{"type":"function","name":"transferOwnership","inputs":[{"name":"newOwner","type":"address","internalType":"address"}],"outputs":[],"stateMutability":"nonpayable"},{"type":"function","name":"twapInterval","inputs":[],"outputs":[{"name":"","type":"uint32","internalType":"uint32"}],"stateMutability":"view"},{"type":"function","name":"unlockedShares","inputs":[],"outputs":[{"name":"","type":"uint256","internalType":"uint256"}],"stateMutability":"view"},{"type":"function","name":"usd1Balance","inputs":[],"outputs":[{"name":"","type":"uint256","internalType":"uint256"}],"stateMutability":"view"},{"type":"function","name":"withdraw","inputs":[{"name":"assets","type":"uint256","internalType":"uint256"},{"name":"receiver","type":"address","internalType":"address"},{"name":"owner","type":"address","internalType":"address"}],"outputs":[{"name":"","type":"uint256","internalType":"uint256"}],"stateMutability":"nonpayable"},{"type":"function","name":"withdrawDual","inputs":[{"name":"shares","type":"uint256","internalType":"uint256"},{"name":"receiver","type":"address","internalType":"address"},{"name":"maxLoss","type":"uint256","internalType":"uint256"}],"outputs":[{"name":"wlfiAmount","type":"uint256","internalType":"uint256"},{"name":"usd1Amount","type":"uint256","internalType":"uint256"}],"stateMutability":"nonpayable"},{"type":"function","name":"withdrawDual","inputs":[{"name":"shares","type":"uint256","internalType":"uint256"},{"name":"receiver","type":"address","internalType":"address"}],"outputs":[{"name":"wlfiAmount","type":"uint256","internalType":"uint256"},{"name":"usd1Amount","type":"uint256","internalType":"uint256"}],"stateMutability":"nonpayable"},{"type":"function","name":"wlfiBalance","inputs":[],"outputs":[{"name":"","type":"uint256","internalType":"uint256"}],"stateMutability":"view"},{"type":"event","name":"Approval","inputs":[{"name":"owner","type":"address","indexed":true,"internalType":"address"},{"name":"spender","type":"address","indexed":true,"internalType":"address"},{"name":"value","type":"uint256","indexed":false,"internalType":"uint256"}],"anonymous":false},{"type":"event","name":"BalancesSynced","inputs":[{"name":"wlfiBalance","type":"uint256","indexed":false,"internalType":"uint256"},{"name":"usd1Balance","type":"uint256","indexed":false,"internalType":"uint256"}],"anonymous":false},{"type":"event","name":"CapitalInjected","inputs":[{"name":"from","type":"address","indexed":true,"internalType":"address"},{"name":"wlfiAmount","type":"uint256","indexed":false,"internalType":"uint256"},{"name":"usd1Amount","type":"uint256","indexed":false,"internalType":"uint256"}],"anonymous":false},{"type":"event","name":"Deposit","inputs":[{"name":"sender","type":"address","indexed":true,"internalType":"address"},{"name":"owner","type":"address","indexed":true,"internalType":"address"},{"name":"assets","type":"uint256","indexed":false,"internalType":"uint256"},{"name":"shares","type":"uint256","indexed":false,"internalType":"uint256"}],"anonymous":false},{"type":"event","name":"DualDeposit","inputs":[{"name":"user","type":"address","indexed":true,"internalType":"address"},{"name":"wlfiAmount","type":"uint256","indexed":false,"internalType":"uint256"},{"name":"usd1Amount","type":"uint256","indexed":false,"internalType":"uint256"},{"name":"wlfiPriceUSD","type":"uint256","indexed":false,"internalType":"uint256"},{"name":"usd1PriceUSD","type":"uint256","indexed":false,"internalType":"uint256"},{"name":"totalUSDValue","type":"uint256","indexed":false,"internalType":"uint256"},{"name":"shares","type":"uint256","indexed":false,"internalType":"uint256"}],"anonymous":false},{"type":"event","name":"DualWithdraw","inputs":[{"name":"user","type":"address","indexed":true,"internalType":"address"},{"name":"shares","type":"uint256","indexed":false,"internalType":"uint256"},{"name":"wlfiAmount","type":"uint256","indexed":false,"internalType":"uint256"},{"name":"usd1Amount","type":"uint256","indexed":false,"internalType":"uint256"},{"name":"loss","type":"uint256","indexed":false,"internalType":"uint256"}],"anonymous":false},{"type":"event","name":"EmergencyPause","inputs":[{"name":"paused","type":"bool","indexed":false,"internalType":"bool"}],"anonymous":false},{"type":"event","name":"EmergencyWithdraw","inputs":[{"name":"to","type":"address","indexed":true,"internalType":"address"},{"name":"wlfiAmount","type":"uint256","indexed":false,"internalType":"uint256"},{"name":"usd1Amount","type":"uint256","indexed":false,"internalType":"uint256"}],"anonymous":false},{"type":"event","name":"OwnershipTransferred","inputs":[{"name":"previousOwner","type":"address","indexed":true,"internalType":"address"},{"name":"newOwner","type":"address","indexed":true,"internalType":"address"}],"anonymous":false},{"type":"event","name":"Rebalanced","inputs":[{"name":"newWlfiBalance","type":"uint256","indexed":false,"internalType":"uint256"},{"name":"newUsd1Balance","type":"uint256","indexed":false,"internalType":"uint256"}],"anonymous":false},{"type":"event","name":"Reported","inputs":[{"name":"profit","type":"uint256","indexed":false,"internalType":"uint256"},{"name":"loss","type":"uint256","indexed":false,"internalType":"uint256"},{"name":"performanceFees","type":"uint256","indexed":false,"internalType":"uint256"},{"name":"totalAssets","type":"uint256","indexed":false,"internalType":"uint256"}],"anonymous":false},{"type":"event","name":"StrategyAdded","inputs":[{"name":"strategy","type":"address","indexed":true,"internalType":"address"},{"name":"weight","type":"uint256","indexed":false,"internalType":"uint256"}],"anonymous":false},{"type":"event","name":"StrategyDeployed","inputs":[{"name":"strategy","type":"address","indexed":true,"internalType":"address"},{"name":"wlfiDeployed","type":"uint256","indexed":false,"internalType":"uint256"},{"name":"usd1Deployed","type":"uint256","indexed":false,"internalType":"uint256"}],"anonymous":false},{"type":"event","name":"StrategyRemoved","inputs":[{"name":"strategy","type":"address","indexed":true,"internalType":"address"}],"anonymous":false},{"type":"event","name":"StrategyShutdown","inputs":[],"anonymous":false},{"type":"event","name":"Transfer","inputs":[{"name":"from","type":"address","indexed":true,"internalType":"address"},{"name":"to","type":"address","indexed":true,"internalType":"address"},{"name":"value","type":"uint256","indexed":false,"internalType":"uint256"}],"anonymous":false},{"type":"event","name":"UpdateEmergencyAdmin","inputs":[{"name":"newEmergencyAdmin","type":"address","indexed":true,"internalType":"address"}],"anonymous":false},{"type":"event","name":"UpdateKeeper","inputs":[{"name":"newKeeper","type":"address","indexed":true,"internalType":"address"}],"anonymous":false},{"type":"event","name":"UpdateManagement","inputs":[{"name":"newManagement","type":"address","indexed":true,"internalType":"address"}],"anonymous":false},{"type":"event","name":"UpdatePendingManagement","inputs":[{"name":"newPendingManagement","type":"address","indexed":true,"internalType":"address"}],"anonymous":false},{"type":"event","name":"UpdatePerformanceFee","inputs":[{"name":"newPerformanceFee","type":"uint16","indexed":false,"internalType":"uint16"}],"anonymous":false},{"type":"event","name":"UpdatePerformanceFeeRecipient","inputs":[{"name":"newRecipient","type":"address","indexed":true,"internalType":"address"}],"anonymous":false},{"type":"event","name":"UpdateProfitMaxUnlockTime","inputs":[{"name":"newProfitMaxUnlockTime","type":"uint256","indexed":false,"internalType":"uint256"}],"anonymous":false},{"type":"event","name":"Withdraw","inputs":[{"name":"sender","type":"address","indexed":true,"internalType":"address"},{"name":"receiver","type":"address","indexed":true,"internalType":"address"},{"name":"owner","type":"address","indexed":true,"internalType":"address"},{"name":"assets","type":"uint256","indexed":false,"internalType":"uint256"},{"name":"shares","type":"uint256","indexed":false,"internalType":"uint256"}],"anonymous":false},{"type":"error","name":"ERC20InsufficientAllowance","inputs":[{"name":"spender","type":"address","internalType":"address"},{"name":"allowance","type":"uint256","internalType":"uint256"},{"name":"needed","type":"uint256","internalType":"uint256"}]},{"type":"error","name":"ERC20InsufficientBalance","inputs":[{"name":"sender","type":"address","internalType":"address"},{"name":"balance","type":"uint256","internalType":"uint256"},{"name":"needed","type":"uint256","internalType":"uint256"}]},{"type":"error","name":"ERC20InvalidApprover","inputs":[{"name":"approver","type":"address","internalType":"address"}]},{"type":"error","name":"ERC20InvalidReceiver","inputs":[{"name":"receiver","type":"address","internalType":"address"}]},{"type":"error","name":"ERC20InvalidSender","inputs":[{"name":"sender","type":"address","internalType":"address"}]},{"type":"error","name":"ERC20InvalidSpender","inputs":[{"name":"spender","type":"address","internalType":"address"}]},{"type":"error","name":"ERC4626ExceededMaxDeposit","inputs":[{"name":"receiver","type":"address","internalType":"address"},{"name":"assets","type":"uint256","internalType":"uint256"},{"name":"max","type":"uint256","internalType":"uint256"}]},{"type":"error","name":"ERC4626ExceededMaxMint","inputs":[{"name":"receiver","type":"address","internalType":"address"},{"name":"shares","type":"uint256","internalType":"uint256"},{"name":"max","type":"uint256","internalType":"uint256"}]},{"type":"error","name":"ERC4626ExceededMaxRedeem","inputs":[{"name":"owner","type":"address","internalType":"address"},{"name":"shares","type":"uint256","internalType":"uint256"},{"name":"max","type":"uint256","internalType":"uint256"}]},{"type":"error","name":"ERC4626ExceededMaxWithdraw","inputs":[{"name":"owner","type":"address","internalType":"address"},{"name":"assets","type":"uint256","internalType":"uint256"},{"name":"max","type":"uint256","internalType":"uint256"}]},{"type":"error","name":"InsufficientBalance","inputs":[]},{"type":"error","name":"InvalidAmount","inputs":[]},{"type":"error","name":"InvalidPrice","inputs":[]},{"type":"error","name":"InvalidWeight","inputs":[]},{"type":"error","name":"LossExceeded","inputs":[]},{"type":"error","name":"MaxStrategiesReached","inputs":[]},{"type":"error","name":"OwnableInvalidOwner","inputs":[{"name":"owner","type":"address","internalType":"address"}]},{"type":"error","name":"OwnableUnauthorizedAccount","inputs":[{"name":"account","type":"address","internalType":"address"}]},{"type":"error","name":"Paused","inputs":[]},{"type":"error","name":"ReentrancyGuardReentrantCall","inputs":[]},{"type":"error","name":"SafeERC20FailedOperation","inputs":[{"name":"token","type":"address","internalType":"address"}]},{"type":"error","name":"SlippageExceeded","inputs":[]},{"type":"error","name":"StalePrice","inputs":[]},{"type":"error","name":"StrategyAlreadyActive","inputs":[]},{"type":"error","name":"StrategyNotActive","inputs":[]},{"type":"error","name":"Unauthorized","inputs":[]},{"type":"error","name":"VaultIsShutdown","inputs":[]},{"type":"error","name":"VaultNotShutdown","inputs":[]},{"type":"error","name":"ZeroAddress","inputs":[]}],"bytecode":{"object":"0x6101606040526a295be96e640669720000006018556019805463ffffffff191661070817905562015180601a5568056bc75e2d63100000601b5561012c601c553480156200004c57600080fd5b50604051620063e7380380620063e78339810160408190526200006f91620003f1565b8086604051806040016040528060128152602001714561676c65205661756c742053686172657360701b81525060405180604001604052806006815260200165764541474c4560d01b8152508160039081620000cc919062000519565b506004620000db828262000519565b505050600080620000f2836200029d60201b60201c565b91509150816200010457601262000106565b805b60ff1660a05250506001600160a01b0390811660805281166200014357604051631e4fbdf760e01b81526000600482015260240160405180910390fd5b6200014e8162000382565b5060016006556001600160a01b03861615806200017257506001600160a01b038516155b806200018557506001600160a01b038416155b806200019857506001600160a01b038316155b80620001ab57506001600160a01b038216155b15620001ca5760405163d92e233d60e01b815260040160405180910390fd5b6001600160a01b0395861660e05293851660c05291841661010052831661012052821661014052600d80546001600160a01b0319908116929093169182179055600f8054831682179055601080546011805490941683179093556001600160b01b03199092168117607d60a31b179091556013805463ffffffff60601b191661127560671b1790556000908152601f60209081526040909120805460ff1916600117905542601d81905590819055601580546001600160601b0319166001600160601b0390921691909117905562000630565b60408051600481526024810182526020810180516001600160e01b031663313ce56760e01b17905290516000918291829182916001600160a01b03871691620002e691620005e5565b600060405180830381855afa9150503d806000811462000323576040519150601f19603f3d011682016040523d82523d6000602084013e62000328565b606091505b50915091508180156200033d57506020815110155b1562000375576000818060200190518101906200035b919062000616565b905060ff811162000373576001969095509350505050565b505b5060009485945092505050565b600580546001600160a01b038381166001600160a01b0319831681179093556040519116919082907f8be0079c531659141344cd1fd0a4f28419497f9722a3daafe3b4186f6b6457e090600090a35050565b80516001600160a01b0381168114620003ec57600080fd5b919050565b60008060008060008060c087890312156200040b57600080fd5b6200041687620003d4565b95506200042660208801620003d4565b94506200043660408801620003d4565b93506200044660608801620003d4565b92506200045660808801620003d4565b91506200046660a08801620003d4565b90509295509295509295565b634e487b7160e01b600052604160045260246000fd5b600181811c908216806200049d57607f821691505b602082108103620004be57634e487b7160e01b600052602260045260246000fd5b50919050565b601f82111562000514576000816000526020600020601f850160051c81016020861015620004ef5750805b601f850160051c820191505b818110156200051057828155600101620004fb565b5050505b505050565b81516001600160401b0381111562000535576200053562000472565b6200054d8162000546845462000488565b84620004c4565b602080601f8311600181146200058557600084156200056c5750858301515b600019600386901b1c1916600185901b17855562000510565b600085815260208120601f198616915b82811015620005b65788860151825594840194600190910190840162000595565b5085821015620005d55787850151600019600388901b60f8161c191681555b5050505050600190811b01905550565b6000825160005b81811015620006085760208186018101518583015201620005ec565b506000920191825250919050565b6000602082840312156200062957600080fd5b5051919050565b60805160a05160c05160e051610100516101205161014051615cb46200073360003960006110a7015260008181610de601528181612d2d0152614c1a015260008181610ae9015281816130b201526131e5015260008181610d2901528181611c1d01528181611e5901528181612143015281816126d201528181612a910152818161383c01528181614172015281816141e80152818161433c0152614a6601526000818161101e01528181611cb301528181611eac0152818161217d01528181612725015281816141ac01528181614273015281816143770152614aa001526000611b9e01526000818161096001528181614d380152614df80152615cb46000f3fe6080604052600436106105c85760003560e01c80637cd36844116102f3578063b91816111161019b578063d88c1517116100e7578063ed84c5f3116100a0578063f2fde38b1161007a578063f2fde38b146111c3578063f629b790146111e3578063f72b2a4c14611203578063f8a67a621461122357600080fd5b8063ed84c5f31461117e578063ef8b30f714610fec578063f06772ee1461119357600080fd5b8063d88c1517146110c9578063d905777e146110e9578063d9a0e97a14611109578063dd62ed3e1461111e578063df69b22a1461113e578063ed27f7c91461115e57600080fd5b8063c63d75b611610154578063c8c2fe6c1161012e578063c8c2fe6c14611040578063c9411e2214611055578063ce96cb7714611075578063d82649201461109557600080fd5b8063c63d75b6146109e1578063c6e6f59214610fec578063c6e831e81461100c57600080fd5b8063b918161114610f37578063ba08765214610f67578063bc063e1a14610f87578063be8f166814610f9d578063bf86d69014610fb2578063c3535b5214610fcc57600080fd5b806395d89b411161025a578063a9059cbb11610213578063b09943c3116101ed578063b09943c314610eb4578063b3d7f6b914610ed4578063b460af9414610ef4578063b49a60bb14610f1457600080fd5b8063a9059cbb14610e54578063aa290e6d14610e74578063aced166114610e9457600080fd5b806395d89b4114610d9f5780639699b63f14610db457806396c1c43314610dd457806398d3b20914610e08578063a0317bd614610e1e578063a267526b14610e3457600080fd5b806388a8d602116102ac57806388a8d60214610ce257806389b1271614610d025780638ba1797614610d175780638da5cb5b14610d4b5780639161ccd014610d6957806394bf804d14610d7f57600080fd5b80637cd3684414610c2057806381c39bec14610c4d57806383189fa114610c63578063852d0d6e14610c7857806385b6875614610c8d5780638778878214610cad57600080fd5b806335da3394116104715780635c272ef6116103bd5780636e553f6511610376578063715018a611610350578063715018a614610bb6578063748747e614610bcb578063767f06ae14610beb57806379f06d2114610c0057600080fd5b80636e553f6514610b4057806370905dce14610b6057806370a0823114610b8057600080fd5b80635c272ef614610a885780635c975abb14610aa85780635d265d3f14610ac2578063656a4b2014610ad757806368e5ce8414610b0b5780636a5f1aa214610b2057600080fd5b8063402d267d1161042a5780634cdad506116104045780634cdad5061461064a5780635141eebb14610a2e57806356447ce814610a4457806357fce5b714610a6457600080fd5b8063402d267d146109e1578063440368a314610a0357806345650c0714610a1857600080fd5b806335da339414610911578063386db3531461093157806338d52e0f1461095157806339a2fe6a146109845780633c1d5df0146109a45780633f3e4c11146109c157600080fd5b806316c38b3c116105305780632606a10b116104e95780632c178bd0116104c35780632c178bd01461086d5780632d6326921461089d578063313ce567146108d5578063336b78a0146108fc57600080fd5b80632606a10b1461082c57806329ea1c0b146108415780632ab4d0521461085757600080fd5b806316c38b3c14610777578063175188e81461079957806318160ddd146107b957806320800a00146107ce57806322370685146107e357806323b872dd1461080c57600080fd5b8063095ea7b311610582578063095ea7b3146106a35780630a28a477146106d35780630b68f46f146106f3578063106b9ca11461072b578063119328d6146107415780631584410a1461076157600080fd5b8062cfdb09146105d457806301e1d114146105fd578063055a2b581461061257806306fdde031461062857806307a2d13a1461064a5780630952864e1461066a57600080fd5b366105cf57005b600080fd5b3480156105e057600080fd5b506105ea601c5481565b6040519081526020015b60405180910390f35b34801561060957600080fd5b506105ea611243565b34801561061e57600080fd5b506105ea60085481565b34801561063457600080fd5b5061063d61136a565b6040516105f4919061523d565b34801561065657600080fd5b506105ea61066536600461528c565b6113fc565b34801561067657600080fd5b5060135461068e90600160601b900463ffffffff1681565b60405163ffffffff90911681526020016105f4565b3480156106af57600080fd5b506106c36106be3660046152ba565b61140f565b60405190151581526020016105f4565b3480156106df57600080fd5b506105ea6106ee36600461528c565b611427565b3480156106ff57600080fd5b50600e54610713906001600160a01b031681565b6040516001600160a01b0390911681526020016105f4565b34801561073757600080fd5b506105ea60205481565b34801561074d57600080fd5b506105ea61075c3660046152e6565b611434565b34801561076d57600080fd5b506105ea601a5481565b34801561078357600080fd5b50610797610792366004615316565b6114a4565b005b3480156107a557600080fd5b506107976107b4366004615333565b6114f4565b3480156107c557600080fd5b506105ea6117a8565b3480156107da57600080fd5b506107976117d1565b3480156107ef57600080fd5b506007546008545b604080519283526020830191909152016105f4565b34801561081857600080fd5b506106c3610827366004615350565b61181f565b34801561083857600080fd5b506107f7611845565b34801561084d57600080fd5b506105ea60075481565b34801561086357600080fd5b506105ea60185481565b34801561087957600080fd5b506106c3610888366004615333565b60096020526000908152604090205460ff1681565b3480156108a957600080fd5b506013546108bd906001600160601b031681565b6040516001600160601b0390911681526020016105f4565b3480156108e157600080fd5b506108ea611b96565b60405160ff90911681526020016105f4565b34801561090857600080fd5b50610797611bc2565b34801561091d57600080fd5b5061079761092c366004615333565b611d68565b34801561093d57600080fd5b5061079761094c3660046152e6565b611e1c565b34801561095d57600080fd5b507f0000000000000000000000000000000000000000000000000000000000000000610713565b34801561099057600080fd5b506107f761099f366004615391565b611f2c565b3480156109b057600080fd5b5060195461068e9063ffffffff1681565b3480156109cd57600080fd5b506107976109dc36600461528c565b612208565b3480156109ed57600080fd5b506105ea6109fc366004615333565b5060001990565b348015610a0f57600080fd5b506107976122af565b348015610a2457600080fd5b506105ea601d5481565b348015610a3a57600080fd5b506105ea60125481565b348015610a5057600080fd5b50610797610a5f36600461528c565b612342565b348015610a7057600080fd5b50610a7961239e565b6040516105f49392919061542e565b348015610a9457600080fd5b506105ea610aa3366004615471565b612604565b348015610ab457600080fd5b50601e546106c39060ff1681565b348015610ace57600080fd5b506106c3612861565b348015610ae357600080fd5b506107137f000000000000000000000000000000000000000000000000000000000000000081565b348015610b1757600080fd5b5061079761288d565b348015610b2c57600080fd5b50610797610b3b366004615333565b612936565b348015610b4c57600080fd5b506105ea610b5b3660046154aa565b6129ea565b348015610b6c57600080fd5b50601054610713906001600160a01b031681565b348015610b8c57600080fd5b506105ea610b9b366004615333565b6001600160a01b031660009081526020819052604090205490565b348015610bc257600080fd5b50610797612bb4565b348015610bd757600080fd5b50610797610be6366004615333565b612bc6565b348015610bf757600080fd5b506105ea600581565b348015610c0c57600080fd5b50610797610c1b3660046152e6565b612c7a565b348015610c2c57600080fd5b506105ea610c3b366004615333565b600a6020526000908152604090205481565b348015610c5957600080fd5b506105ea60145481565b348015610c6f57600080fd5b506105ea612c8d565b348015610c8457600080fd5b506107f7612ea7565b348015610c9957600080fd5b506105ea610ca83660046152ba565b612ec2565b348015610cb957600080fd5b50601054610ccf90600160a01b900461ffff1681565b60405161ffff90911681526020016105f4565b348015610cee57600080fd5b50600d54610713906001600160a01b031681565b348015610d0e57600080fd5b506105ea6130a8565b348015610d2357600080fd5b506107137f000000000000000000000000000000000000000000000000000000000000000081565b348015610d5757600080fd5b506005546001600160a01b0316610713565b348015610d7557600080fd5b506105ea60165481565b348015610d8b57600080fd5b506105ea610d9a3660046154aa565b6132cb565b348015610dab57600080fd5b5061063d6132f1565b348015610dc057600080fd5b506107f7610dcf3660046152e6565b613300565b348015610de057600080fd5b506107137f000000000000000000000000000000000000000000000000000000000000000081565b348015610e1457600080fd5b506105ea600c5481565b348015610e2a57600080fd5b506105ea601b5481565b348015610e4057600080fd5b50610713610e4f36600461528c565b61335b565b348015610e6057600080fd5b506106c3610e6f3660046152ba565b613385565b348015610e8057600080fd5b50610797610e8f3660046154ea565b613393565b348015610ea057600080fd5b50600f54610713906001600160a01b031681565b348015610ec057600080fd5b506107f7610ecf3660046154aa565b61344d565b348015610ee057600080fd5b506105ea610eef36600461528c565b6134e5565b348015610f0057600080fd5b506105ea610f0f366004615507565b6134f2565b348015610f2057600080fd5b50610f2961355d565b6040516105f492919061553e565b348015610f4357600080fd5b506106c3610f52366004615333565b601f6020526000908152604090205460ff1681565b348015610f7357600080fd5b506105ea610f82366004615507565b6136c6565b348015610f9357600080fd5b50610ccf61138881565b348015610fa957600080fd5b506107976138bd565b348015610fbe57600080fd5b506017546106c39060ff1681565b348015610fd857600080fd5b506015546108bd906001600160601b031681565b348015610ff857600080fd5b506105ea61100736600461528c565b61394f565b34801561101857600080fd5b506107137f000000000000000000000000000000000000000000000000000000000000000081565b34801561104c57600080fd5b5061079761395c565b34801561106157600080fd5b506107976110703660046152ba565b6139da565b34801561108157600080fd5b506105ea611090366004615333565b613c6f565b3480156110a157600080fd5b506107137f000000000000000000000000000000000000000000000000000000000000000081565b3480156110d557600080fd5b506107976110e4366004615563565b613c93565b3480156110f557600080fd5b506105ea611104366004615333565b613d24565b34801561111557600080fd5b506105ea613d42565b34801561112a57600080fd5b506105ea611139366004615589565b613dcd565b34801561114a57600080fd5b5061079761115936600461528c565b613df8565b34801561116a57600080fd5b50601154610713906001600160a01b031681565b34801561118a57600080fd5b506105ea613eae565b34801561119f57600080fd5b506111a8613f62565b604080519384526020840192909252908201526060016105f4565b3480156111cf57600080fd5b506107976111de366004615333565b613fcc565b3480156111ef57600080fd5b506107976111fe366004615333565b614007565b34801561120f57600080fd5b5061079761121e366004615471565b6140bb565b34801561122f57600080fd5b5061079761123e3660046155b7565b614332565b600080611254600754600854611434565b600b5490915060005b818110156113625760096000600b838154811061127c5761127c6155ee565b60009182526020808320909101546001600160a01b0316835282019290925260400190205460ff161561135a57600080600b83815481106112bf576112bf6155ee565b9060005260206000200160009054906101000a90046001600160a01b03166001600160a01b031663c4a7761e6040518163ffffffff1660e01b81526004016040805180830381865afa158015611319573d6000803e3d6000fd5b505050506040513d601f19601f8201168201806040525081019061133d9190615604565b9150915061134b8282611434565b611355908661563e565b945050505b60010161125d565b509092915050565b60606003805461137990615651565b80601f01602080910402602001604051908101604052809291908181526020018280546113a590615651565b80156113f25780601f106113c7576101008083540402835291602001916113f2565b820191906000526020600020905b8154815290600101906020018083116113d557829003601f168201915b5050505050905090565b6000611409826000614442565b92915050565b60003361141d818585614481565b5060019392505050565b600061140982600161448e565b60008061143f613eae565b9050600061144b6130a8565b90506000670de0b6b3a7640000611462848861568b565b61146c91906156b8565b90506000670de0b6b3a7640000611483848861568b565b61148d91906156b8565b9050611499818361563e565b979650505050505050565b6114ac6144c3565b601e805460ff19168215159081179091556040519081527fb80d1ae5628c2af91424c54c87acfd15016be4bebeef0425b328238702f34831906020015b60405180910390a150565b600d546001600160a01b0316331480159061151a57506005546001600160a01b03163314155b15611537576040516282b42960e81b815260040160405180910390fd5b6001600160a01b03811660009081526009602052604090205460ff1661157057604051631b92e95360e31b815260040160405180910390fd5b604051632e1a7d4d60e01b8152600019600482015260009081906001600160a01b03841690632e1a7d4d9060240160408051808303816000875af11580156115bc573d6000803e3d6000fd5b505050506040513d601f19601f820116820180604052508101906115e09190615604565b9150915081600760008282546115f6919061563e565b92505081905550806008600082825461160f919061563e565b90915550506001600160a01b0383166000908152600960209081526040808320805460ff19169055600a909152812054600c8054919290916116529084906156cc565b90915550506001600160a01b0383166000908152600a60205260408120819055600b54905b8181101561176d57846001600160a01b0316600b828154811061169c5761169c6155ee565b6000918252602090912001546001600160a01b03160361176557600b6116c36001846156cc565b815481106116d3576116d36155ee565b600091825260209091200154600b80546001600160a01b0390921691839081106116ff576116ff6155ee565b9060005260206000200160006101000a8154816001600160a01b0302191690836001600160a01b03160217905550600b80548061173e5761173e6156df565b600082815260209020810160001990810180546001600160a01b031916905501905561176d565b600101611677565b506040516001600160a01b038516907f09a1db4b80c32706328728508c941a6b954f31eb5affd32f236c1fd405f8fea490600090a250505050565b60006117b2613d42565b6014546117bf91906156cc565b6002546117cc91906156cc565b905090565b6117d96144c3565b47801561181c576005546040516001600160a01b039091169082156108fc029083906000818181858888f1935050505015801561181a573d6000803e3d6000fd5b505b50565b60003361182d8582856144f0565b611838858585614557565b60019150505b9392505050565b6000806118506145b6565b600f546001600160a01b031633148015906118765750600d546001600160a01b03163314155b801561188d57506005546001600160a01b03163314155b156118aa576040516282b42960e81b815260040160405180910390fd5b60006118b4611243565b60165490915080821115611aa2576118cc81836156cc565b601054909450600090600160a01b900461ffff16158015906118ee5750600085115b15611974576010546127109061190f90600160a01b900461ffff168761568b565b61191991906156b8565b905060008111801561193557506011546001600160a01b031615155b15611974576000836119456117a8565b61194f908461568b565b61195991906156b8565b601154909150611972906001600160a01b0316826145e0565b505b600061198082876156cc565b90506000811180156119a05750601354600160601b900463ffffffff1615155b15611a53576000846119b06117a8565b6119ba908461568b565b6119c491906156b8565b90506119d030826145e0565b80601460008282546119e2919061563e565b9091555050601354611a0190600160601b900463ffffffff164261563e565b601380546bffffffffffffffffffffffff19166001600160601b03929092169190911790819055600160601b900463ffffffff16611a4464e8d4a510008361568b565b611a4e91906156b8565b601255505b6040805187815260006020820152908101839052606081018590527fecdd072e4d5bd913a75a37f02daedcea7e2dc0281f9942c0063cfd1cfe5c4c4f9060800160405180910390a15050611b69565b611aac82826156cc565b9250600083118015611ac057506000601454115b15611b2157600082611ad06117a8565b611ada908661568b565b611ae491906156b8565b905060006014548211611af75781611afb565b6014545b9050611b073082614616565b8060146000828254611b1991906156cc565b909155505050505b60408051600080825260208201869052818301526060810184905290517fecdd072e4d5bd913a75a37f02daedcea7e2dc0281f9942c0063cfd1cfe5c4c4f9181900360800190a15b50601580546bffffffffffffffffffffffff1916426001600160601b031617905560165560016006559091565b60006117cc817f00000000000000000000000000000000000000000000000000000000000000006156f5565b600d546001600160a01b03163314801590611be857506005546001600160a01b03163314155b15611c05576040516282b42960e81b815260040160405180910390fd5b6040516370a0823160e01b81523060048201526000907f00000000000000000000000000000000000000000000000000000000000000006001600160a01b0316906370a0823190602401602060405180830381865afa158015611c6c573d6000803e3d6000fd5b505050506040513d601f19601f82011682018060405250810190611c90919061570e565b6040516370a0823160e01b81523060048201529091506000906001600160a01b037f000000000000000000000000000000000000000000000000000000000000000016906370a0823190602401602060405180830381865afa158015611cfa573d6000803e3d6000fd5b505050506040513d601f19601f82011682018060405250810190611d1e919061570e565b6007839055600881905560408051848152602081018390529192507f487f028aa87e7799590a35c647d6ac8a426698abd9eeb6bc4b5f2f805b5f7ff7910160405180910390a15050565b600d546001600160a01b03163314801590611d8e57506005546001600160a01b03163314155b15611dab576040516282b42960e81b815260040160405180910390fd5b6001600160a01b038116611dd25760405163d92e233d60e01b815260040160405180910390fd5b601080546001600160a01b0319166001600160a01b0383169081179091556040517f2bf242d027263e45fab022c28b4144255c97b30b8e54c30f1f5757906d487f0990600090a250565b81158015611e28575080155b15611e465760405163162908e360e11b815260040160405180910390fd5b8115611e9957611e816001600160a01b037f00000000000000000000000000000000000000000000000000000000000000001633308561464c565b8160076000828254611e93919061563e565b90915550505b8015611eec57611ed46001600160a01b037f00000000000000000000000000000000000000000000000000000000000000001633308461464c565b8060086000828254611ee6919061563e565b90915550505b604080518381526020810183905233917fbe3fa47138efc08c52a1c62d79a4f0f1834fcb990b2bdcd62e673c3622bdd33f91015b60405180910390a25050565b600080611f376145b6565b84600003611f585760405163162908e360e11b815260040160405180910390fd5b6001600160a01b038416611f7f5760405163d92e233d60e01b815260040160405180910390fd5b33600090815260208190526040902054851115611faf57604051631e9acf1760e31b815260040160405180910390fd5b612710831115611fd25760405163162908e360e11b815260040160405180910390fd5b6000611fdc611243565b90506000611fe86117a8565b9050600081611ff7898561568b565b61200191906156b8565b905060008289600754612014919061568b565b61201e91906156b8565b90506000838a600854612031919061568b565b61203b91906156b8565b9050819650809550600061204f8383611434565b90508381101561209457600061206582866156cc565b9050600080612073836146b3565b9092509050612082828c61563e565b9a5061208e818b61563e565b99505050505b60006120a08989611434565b90506000858210156120f6576120b682876156cc565b90506000866120c76127108461568b565b6120d191906156b8565b90508b8111156120f45760405163354edec160e11b815260040160405180910390fd5b505b612100338e614616565b846007600082825461211291906156cc565b92505081905550836008600082825461212b91906156cc565b9091555050891561216a5761216a6001600160a01b037f0000000000000000000000000000000000000000000000000000000000000000168d8c6148cd565b88156121a4576121a46001600160a01b037f0000000000000000000000000000000000000000000000000000000000000000168d8b6148cd565b604080518e8152602081018c90529081018a90526060810182905233907f0230834285d4361b50a804bffbf04a92bff9673d3d2272dffad8bcb851ecd30f9060800160405180910390a250505050505050506122006001600655565b935093915050565b6122106144c3565b6122186117a8565b8110156122635760405162461bcd60e51b815260206004820152601460248201527342656c6f772063757272656e7420737570706c7960601b60448201526064015b60405180910390fd5b6b033b2e3c9fd0803ce80000008111156122aa5760405162461bcd60e51b81526020600482015260086024820152670a8dede40d0d2ced60c31b604482015260640161225a565b601855565b6122b76145b6565b600f546001600160a01b031633148015906122dd5750600d546001600160a01b03163314155b80156122f457506005546001600160a01b03163314155b15612311576040516282b42960e81b815260040160405180910390fd5b600754600854811515806123255750600081115b156123345761233482826148fe565b50506123406001600655565b565b61234a6144c3565b610e10811015801561235f57506202a3008111155b6123995760405162461bcd60e51b815260206004820152600b60248201526a496e76616c69642061676560a81b604482015260640161225a565b601a55565b600b54606090819081908067ffffffffffffffff8111156123c1576123c1615727565b6040519080825280602002602001820160405280156123ea578160200160208202803683370190505b5093508067ffffffffffffffff81111561240657612406615727565b60405190808252806020026020018201604052801561242f578160200160208202803683370190505b5092508067ffffffffffffffff81111561244b5761244b615727565b604051908082528060200260200182016040528015612474578160200160208202803683370190505b50915060005b818110156125fd57600b8181548110612495576124956155ee565b9060005260206000200160009054906101000a90046001600160a01b03168582815181106124c5576124c56155ee565b60200260200101906001600160a01b031690816001600160a01b03168152505060096000600b83815481106124fc576124fc6155ee565b60009182526020808320909101546001600160a01b0316835282019290925260400190205460ff16156125f557600b818154811061253c5761253c6155ee565b9060005260206000200160009054906101000a90046001600160a01b03166001600160a01b031663c4a7761e6040518163ffffffff1660e01b81526004016040805180830381865afa158015612596573d6000803e3d6000fd5b505050506040513d601f19601f820116820180604052508101906125ba9190615604565b8583815181106125cc576125cc6155ee565b602002602001018584815181106125e5576125e56155ee565b6020908102919091010191909152525b60010161247a565b5050909192565b600061260e6145b6565b601e5460ff1615612632576040516313d0ff5960e31b815260040160405180910390fd5b60175460ff16156126565760405163634a713160e11b815260040160405180910390fd5b83158015612662575082155b156126805760405163162908e360e11b815260040160405180910390fd5b6001600160a01b0382166126a75760405163d92e233d60e01b815260040160405180910390fd5b60006126b1613eae565b905060006126bd6130a8565b90508515612712576126fa6001600160a01b037f00000000000000000000000000000000000000000000000000000000000000001633308961464c565b856007600082825461270c919061563e565b90915550505b84156127655761274d6001600160a01b037f00000000000000000000000000000000000000000000000000000000000000001633308861464c565b846008600082825461275f919061563e565b90915550505b60006127718787611434565b905061277b6117a8565b6000036127965761278f816201388061568b565b93506127bd565b61279e611243565b6127a66117a8565b6127b0908361568b565b6127ba91906156b8565b93505b601854846127c96117a8565b6127d3919061563e565b11156127f25760405163162908e360e11b815260040160405180910390fd5b6127fc85856145e0565b6040805188815260208101889052908101849052606081018390526080810182905260a0810185905233907f527388e4dad6def65deffcf72e615ac5b8b230c9972b404d6f5f5d29a96954ea9060c00160405180910390a250505061183e6001600655565b600080612872600754600854611434565b9050601b548111801561288757506000600c54115b91505090565b600d546001600160a01b031633148015906128b357506005546001600160a01b03163314155b156128d0576040516282b42960e81b815260040160405180910390fd5b6128d86145b6565b600c5460000361291a5760405162461bcd60e51b815260206004820152600d60248201526c4e6f207374726174656769657360981b604482015260640161225a565b6129286007546008546148fe565b42601d556123406001600655565b600d546001600160a01b0316331480159061295c57506005546001600160a01b03163314155b15612979576040516282b42960e81b815260040160405180910390fd5b6001600160a01b0381166129a05760405163d92e233d60e01b815260040160405180910390fd5b601180546001600160a01b0319166001600160a01b0383169081179091556040517f9ebbf695dd251e855d9d15a146a72f5f654dc6f8630fbc11212f27e0c88ba11a90600090a250565b60006129f46145b6565b601e5460ff1615612a18576040516313d0ff5960e31b815260040160405180910390fd5b60175460ff1615612a3c5760405163634a713160e11b815260040160405180910390fd5b82600003612a5d5760405163162908e360e11b815260040160405180910390fd5b6001600160a01b038216612a845760405163d92e233d60e01b815260040160405180910390fd5b612ab96001600160a01b037f00000000000000000000000000000000000000000000000000000000000000001633308661464c565b8260076000828254612acb919061563e565b9091555060009050612add8482611434565b9050612ae76117a8565b15612b1557612af4611243565b612afc6117a8565b612b06908361568b565b612b1091906156b8565b612b22565b612b22816201388061568b565b915060185482612b306117a8565b612b3a919061563e565b1115612b595760405163162908e360e11b815260040160405180910390fd5b612b6383836145e0565b60408051858152602081018490526001600160a01b0385169133917fdcbc1c05240f31ff3ad067ef1ee35ce4997762752e3a095284754544f4c709d7910160405180910390a3506114096001600655565b612bbc6144c3565b6123406000614bc3565b600d546001600160a01b03163314801590612bec57506005546001600160a01b03163314155b15612c09576040516282b42960e81b815260040160405180910390fd5b6001600160a01b038116612c305760405163d92e233d60e01b815260040160405180910390fd5b600f80546001600160a01b0319166001600160a01b0383169081179091556040517fd7f49e282c36d417b290d4181a56943f6d670aaa2987c0d40e60d39919c6888290600090a250565b612c826144c3565b601b91909155601c55565b604080516002808252606082018352600092839291906020830190803683375050601954825192935063ffffffff1691839150600090612ccf57612ccf6155ee565b602002602001019063ffffffff16908163ffffffff1681525050600081600181518110612cfe57612cfe6155ee565b63ffffffff9092166020928302919091019091015260405163883bdbfd60e01b81526000906001600160a01b037f0000000000000000000000000000000000000000000000000000000000000000169063883bdbfd90612d6290859060040161573d565b600060405180830381865afa158015612d7f573d6000803e3d6000fd5b505050506040513d6000823e601f3d908101601f19168201604052612da79190810190615854565b509050600081600081518110612dbf57612dbf6155ee565b602002602001015182600181518110612dda57612dda6155ee565b6020026020010151612dec9190615920565b601954909150600090612e059063ffffffff168361594d565b90506103e7198160020b138015612e2057506103e88160020b125b15612e8f57670de0b6b3a76400006000612e44600284900b655af3107a400061598b565b90506000612e5282846159bb565b905060008111612e6a57670de0b6b3a7640000612e83565b612e83816ec097ce7bc90715b34b9f10000000006156b8565b97505050505050505090565b612e97614c15565b94505050505090565b5050505090565b600080612eb2613eae565b612eba6130a8565b915091509091565b6001600160a01b03821660009081526020819052604081205480600003612eed576000915050611409565b6000612ef76117a8565b82612f00611243565b612f0a919061568b565b612f1491906156b8565b90506000612f26600754600854611434565b600b5490915060005b818110156130345760096000600b8381548110612f4e57612f4e6155ee565b60009182526020808320909101546001600160a01b0316835282019290925260400190205460ff161561302c57600080600b8381548110612f9157612f916155ee565b9060005260206000200160009054906101000a90046001600160a01b03166001600160a01b031663c4a7761e6040518163ffffffff1660e01b81526004016040805180830381865afa158015612feb573d6000803e3d6000fd5b505050506040513d601f19601f8201168201806040525081019061300f9190615604565b9150915061301d8282611434565b613027908661563e565b945050505b600101612f2f565b508282106130485783945050505050611409565b6000612710613057888661568b565b61306191906156b8565b9050600061306f82866156cc565b90508084101561309b5784613084878661568b565b61308e91906156b8565b9650505050505050611409565b5093979650505050505050565b60008060008060007f00000000000000000000000000000000000000000000000000000000000000006001600160a01b031663feaf968c6040518163ffffffff1660e01b815260040160a060405180830381865afa15801561310e573d6000803e3d6000fd5b505050506040513d601f19601f820116820180604052508101906131329190615a02565b9450945050935093506000831361315b5760405162bfc92160e01b815260040160405180910390fd5b8160000361317c57604051630cd5fa0760e11b815260040160405180910390fd5b8369ffffffffffffffffffff168169ffffffffffffffffffff1610156131b557604051630cd5fa0760e11b815260040160405180910390fd5b601a546131c283426156cc565b11156131e157604051630cd5fa0760e11b815260040160405180910390fd5b60007f00000000000000000000000000000000000000000000000000000000000000006001600160a01b031663313ce5676040518163ffffffff1660e01b8152600401602060405180830381865afa158015613241573d6000803e3d6000fd5b505050506040513d601f19601f820116820180604052508101906132659190615a63565b9050613272816012615a7e565b61327d90600a615b7b565b613287908561568b565b9550670d2f13f7789f00008610806132a65750670e92596fd629000086115b156132c35760405162bfc92160e01b815260040160405180910390fd5b505050505090565b600060001960006132db856134e5565b90506132e933858388614d33565b949350505050565b60606004805461137990615651565b60008061330d8484611434565b90506133176117a8565b1561334557613324611243565b61332c6117a8565b613336908361568b565b61334091906156b8565b613352565b613352816201388061568b565b91509250929050565b600b818154811061336b57600080fd5b6000918252602090912001546001600160a01b0316905081565b60003361141d818585614557565b600d546001600160a01b031633148015906133b957506005546001600160a01b03163314155b156133d6576040516282b42960e81b815260040160405180910390fd5b61138861ffff821611156133fd5760405163162908e360e11b815260040160405180910390fd5b6010805461ffff60a01b1916600160a01b61ffff8416908102919091179091556040519081527fdc843735e683348ec21c302ffff45462399c5c46f75f67b0a1a5395c53599753906020016114e9565b6000806134586145b6565b604051631cd17f3560e11b8152600481018590526001600160a01b0384166024820152612710604482015230906339a2fe6a9060640160408051808303816000875af11580156134ac573d6000803e3d6000fd5b505050506040513d601f19601f820116820180604052508101906134d09190615604565b915091506134de6001600655565b9250929050565b6000611409826001614442565b6000806134fe83613c6f565b90508085111561353a57604051633fa733bb60e21b81526001600160a01b0384166004820152602481018690526044810182905260640161225a565b600061354586611427565b90506135543386868985614dc5565b95945050505050565b600b5460609081908067ffffffffffffffff81111561357e5761357e615727565b6040519080825280602002602001820160405280156135a7578160200160208202803683370190505b5092508067ffffffffffffffff8111156135c3576135c3615727565b6040519080825280602002602001820160405280156135ec578160200160208202803683370190505b50915060005b818110156136c057600b818154811061360d5761360d6155ee565b9060005260206000200160009054906101000a90046001600160a01b031684828151811061363d5761363d6155ee565b60200260200101906001600160a01b031690816001600160a01b031681525050600a6000600b8381548110613674576136746155ee565b60009182526020808320909101546001600160a01b0316835282019290925260400190205483518490839081106136ad576136ad6155ee565b60209081029190910101526001016135f2565b50509091565b60006136d06145b6565b836000036136f15760405163162908e360e11b815260040160405180910390fd5b6001600160a01b0383166137185760405163d92e233d60e01b815260040160405180910390fd5b336001600160a01b038316146137555760006137348333613dcd565b9050600019811461375357613753833361374e88856156cc565b614481565b505b600061375f611243565b9050600061376b6117a8565b905080613778878461568b565b61378291906156b8565b925060008187600754613795919061568b565b61379f91906156b8565b9050600082886008546137b2919061568b565b6137bc91906156b8565b905060006137ca8383611434565b9050858110156137ef5760006137e082886156cc565b90506137eb816146b3565b5050505b6137f9878a614616565b826007600082825461380b91906156cc565b92505081905550816008600082825461382491906156cc565b90915550508215613863576138636001600160a01b037f00000000000000000000000000000000000000000000000000000000000000001689856148cd565b60408051878152602081018b90526001600160a01b03808a1692908b169133917ffbde797d201c681b91056529119e0b02407c7bb96a4a2c75c01fc9667232c8db910160405180910390a4505050505061183e6001600655565b6010546001600160a01b031633148015906138e35750600d546001600160a01b03163314155b80156138fa57506005546001600160a01b03163314155b15613917576040516282b42960e81b815260040160405180910390fd5b6017805460ff191660011790556040517ffc1249757a7f27c510c8173c55d03ba442e0d33d9223e06ceb416feac8c7693f90600090a1565b600061140982600061448e565b600e546001600160a01b03163314613986576040516282b42960e81b815260040160405180910390fd5b600e8054600d80546001600160a01b0383166001600160a01b031991821681179092559091169091556040517fff54978127edd34aec0f9061fb3b155fbe0ededdfa881ee3e0d541d3a1eef43890600090a2565b600d546001600160a01b03163314801590613a0057506005546001600160a01b03163314155b15613a1d576040516282b42960e81b815260040160405180910390fd5b6001600160a01b038216613a445760405163d92e233d60e01b815260040160405180910390fd5b6001600160a01b03821660009081526009602052604090205460ff1615613a7e5760405163c976754d60e01b815260040160405180910390fd5b600b54600511613aa157604051631f62ca4f60e21b815260040160405180910390fd5b801580613aaf575061271081115b15613acd5760405163585b926360e01b815260040160405180910390fd5b61271081600c54613ade919061563e565b1115613afd5760405163585b926360e01b815260040160405180910390fd5b816001600160a01b031663392e53cd6040518163ffffffff1660e01b8152600401602060405180830381865afa158015613b3b573d6000803e3d6000fd5b505050506040513d601f19601f82011682018060405250810190613b5f9190615b8a565b613bab5760405162461bcd60e51b815260206004820152601860248201527f5374726174656779206e6f7420696e697469616c697a65640000000000000000604482015260640161225a565b6001600160a01b0382166000818152600960209081526040808320805460ff19166001908117909155600a9092528220849055600b8054918201815582527f0175b7a638427703f0dbe7bb9bbf987a2551717b34e79f33b5b1008d1fa01db90180546001600160a01b031916909217909155600c8054839290613c2f90849061563e565b90915550506040518181526001600160a01b038316907f2f564a83158ad1831793ad3e69257b52f39ece5d49cb0d8746708ecb9ef964da90602001611f20565b6001600160a01b038116600090815260208190526040812054611409906000614442565b613c9b6144c3565b63ffffffff81161580613cc9575061012c8163ffffffff1610158015613cc95750611c208163ffffffff1611155b613d085760405162461bcd60e51b815260206004820152601060248201526f125b9d985b1a59081a5b9d195c9d985b60821b604482015260640161225a565b6019805463ffffffff191663ffffffff92909216919091179055565b6001600160a01b038116600090815260208190526040812054611409565b601354600090426001600160601b03909116111580613d6a57506013546001600160601b0316155b15613d76575060145490565b601554600090613d8f906001600160601b0316426156cc565b9050600064e8d4a5100082601254613da7919061568b565b613db191906156b8565b90506014548111613dc25780613dc6565b6014545b9250505090565b6001600160a01b03918216600090815260016020908152604080832093909416825291909152205490565b600d546001600160a01b03163314801590613e1e57506005546001600160a01b03163314155b15613e3b576040516282b42960e81b815260040160405180910390fd5b6301e18558811115613e605760405163162908e360e11b815260040160405180910390fd5b6013805463ffffffff60601b1916600160601b63ffffffff8416021790556040518181527ff361aed463da6fa20358e45c6209f1d3e16d4eca706e6eab0b0aeb338729c77a906020016114e9565b600080613eb96130a8565b60195490915060009063ffffffff1615613f3a57306001600160a01b03166383189fa16040518163ffffffff1660e01b8152600401602060405180830381865afa925050508015613f27575060408051601f3d908101601f19168201909252613f249181019061570e565b60015b613f3357613f33614c15565b9050613f45565b613f42614c15565b90505b670de0b6b3a7640000613f58838361568b565b613dc691906156b8565b6000806000670de0b6b3a7640000613f78613eae565b600754613f85919061568b565b613f8f91906156b8565b9250670de0b6b3a7640000613fa26130a8565b600854613faf919061568b565b613fb991906156b8565b9150613fc5828461563e565b9050909192565b613fd46144c3565b6001600160a01b038116613ffe57604051631e4fbdf760e01b81526000600482015260240161225a565b61181c81614bc3565b600d546001600160a01b0316331480159061402d57506005546001600160a01b03163314155b1561404a576040516282b42960e81b815260040160405180910390fd5b6001600160a01b0381166140715760405163d92e233d60e01b815260040160405180910390fd5b600e80546001600160a01b0319166001600160a01b0383169081179091556040517fd74668a8c80a07cc56d7c3318a06439eaa815e740d97dcd83487e1fc75076b8b90600090a250565b6010546001600160a01b031633148015906140e15750600d546001600160a01b03163314155b80156140f857506005546001600160a01b03163314155b15614115576040516282b42960e81b815260040160405180910390fd5b60175460ff16614138576040516374bc651d60e11b815260040160405180910390fd5b6001600160a01b03811661415f5760405163d92e233d60e01b815260040160405180910390fd5b8215614199576141996001600160a01b037f00000000000000000000000000000000000000000000000000000000000000001682856148cd565b81156141d3576141d36001600160a01b037f00000000000000000000000000000000000000000000000000000000000000001682846148cd565b6040516370a0823160e01b81523060048201527f00000000000000000000000000000000000000000000000000000000000000006001600160a01b0316906370a0823190602401602060405180830381865afa158015614237573d6000803e3d6000fd5b505050506040513d601f19601f8201168201806040525081019061425b919061570e565b6007556040516370a0823160e01b81523060048201527f00000000000000000000000000000000000000000000000000000000000000006001600160a01b0316906370a0823190602401602060405180830381865afa1580156142c2573d6000803e3d6000fd5b505050506040513d601f19601f820116820180604052508101906142e6919061570e565b60085560408051848152602081018490526001600160a01b038316917fbb757047c2b5f3974fe26b7c10f732e7bce710b0952a71082702781e62ae0595910160405180910390a2505050565b61433a6144c3565b7f00000000000000000000000000000000000000000000000000000000000000006001600160a01b0316836001600160a01b031614806143ab57507f00000000000000000000000000000000000000000000000000000000000000006001600160a01b0316836001600160a01b0316145b156144025760405162461bcd60e51b815260206004820152602160248201527f5573652077697468647261774475616c20666f72207661756c7420746f6b656e6044820152607360f81b606482015260840161225a565b6001600160a01b0381166144295760405163d92e233d60e01b815260040160405180910390fd5b61443d6001600160a01b03841682846148cd565b505050565b600061183e61444f611243565b61445a90600161563e565b6144666000600a615b7b565b61446e6117a8565b614478919061563e565b85919085614e85565b61443d8383836001614ec9565b600061183e61449e82600a615b7b565b6144a66117a8565b6144b0919061563e565b6144b8611243565b61447890600161563e565b6005546001600160a01b031633146123405760405163118cdaa760e01b815233600482015260240161225a565b60006144fc8484613dcd565b9050600019811015614551578181101561454257604051637dc7a0d960e11b81526001600160a01b0384166004820152602481018290526044810183905260640161225a565b61455184848484036000614ec9565b50505050565b6001600160a01b03831661458157604051634b637e8f60e11b81526000600482015260240161225a565b6001600160a01b0382166145ab5760405163ec442f0560e01b81526000600482015260240161225a565b61443d838383614f90565b6002600654036145d957604051633ee5aeb560e01b815260040160405180910390fd5b6002600655565b6001600160a01b03821661460a5760405163ec442f0560e01b81526000600482015260240161225a565b61181a60008383614f90565b6001600160a01b03821661464057604051634b637e8f60e11b81526000600482015260240161225a565b61181a82600083614f90565b6040516001600160a01b0384811660248301528381166044830152606482018390526145519186918216906323b872dd906084015b604051602081830303815290604052915060e01b6020820180516001600160e01b0383818316178352505050506150ba565b600b546000908190815b818110156148c6576000600b82815481106146da576146da6155ee565b60009182526020808320909101546001600160a01b0316808352600990915260409091205490915060ff1680156147115750600086115b156148bd57600080826001600160a01b031663c4a7761e6040518163ffffffff1660e01b81526004016040805180830381865afa158015614756573d6000803e3d6000fd5b505050506040513d601f19601f8201168201806040525081019061477a9190615604565b91509150600061478a8383611434565b905080156148b957600c546001600160a01b0385166000908152600a60205260408120549091906147bb908c61568b565b6147c591906156b8565b905080156148b757604051632e1a7d4d60e01b81526004810182905260009081906001600160a01b03881690632e1a7d4d9060240160408051808303816000875af1158015614818573d6000803e3d6000fd5b505050506040513d601f19601f8201168201806040525081019061483c9190615604565b915091508160076000828254614852919061563e565b92505081905550806008600082825461486b919061563e565b9091555061487b9050828c61563e565b9a50614887818b61563e565b995060006148958383611434565b90508c8110156148ae576148a9818e6156cc565b6148b1565b60005b9c505050505b505b5050505b506001016146bd565b5050915091565b6040516001600160a01b0383811660248301526044820183905261443d91859182169063a9059cbb90606401614681565b600c5460000361490c575050565b60006149188383611434565b90508060000361492757505050565b600b5460005b81811015614bbc576000600b828154811061494a5761494a6155ee565b60009182526020808320909101546001600160a01b0316808352600990915260409091205490915060ff16801561499857506001600160a01b0381166000908152600a602052604090205415155b15614bb357600c546001600160a01b0382166000908152600a60205260408120549091906149c6908761568b565b6149d091906156b8565b905060008088116149e25760006149f7565b856149ed898461568b565b6149f791906156b8565b90506000808811614a09576000614a1e565b86614a14898561568b565b614a1e91906156b8565b9050600754821115614a305760075491505b600854811115614a3f57506008545b6000821180614a4e5750600081115b15614baf578115614a8d57614a8d6001600160a01b037f00000000000000000000000000000000000000000000000000000000000000001685846148cd565b8015614ac757614ac76001600160a01b037f00000000000000000000000000000000000000000000000000000000000000001685836148cd565b8160076000828254614ad991906156cc565b925050819055508060086000828254614af291906156cc565b9091555050604051631c57762b60e31b815260048101839052602481018290526001600160a01b0385169063e2bbb158906044016020604051808303816000875af1158015614b45573d6000803e3d6000fd5b505050506040513d601f19601f82011682018060405250810190614b69919061570e565b5060408051838152602081018390526001600160a01b038616917ffe21ae5405b014c3a0c011f9950992ccc080a66a6ea082b33d35fb760c11ebe7910160405180910390a25b5050505b5060010161492d565b5050505050565b600580546001600160a01b038381166001600160a01b0319831681179093556040519116919082907f8be0079c531659141344cd1fd0a4f28419497f9722a3daafe3b4186f6b6457e090600090a35050565b6000807f00000000000000000000000000000000000000000000000000000000000000006001600160a01b0316633850c7bd6040518163ffffffff1660e01b815260040160e060405180830381865afa158015614c76573d6000803e3d6000fd5b505050506040513d601f19601f82011682018060405250810190614c9a9190615ba7565b50505050505090506000816001600160a01b0316826001600160a01b0316614cc2919061568b565b9050600160c01b600081614cde84670de0b6b3a764000061568b565b614ce891906156b8565b905060008111614cff5766038d7ea4c68000614d18565b614d18816ec097ce7bc90715b34b9f10000000006156b8565b945084600003612ea05766038d7ea4c6800094505050505090565b614d5f7f000000000000000000000000000000000000000000000000000000000000000085308561464c565b614d6983826145e0565b826001600160a01b0316846001600160a01b03167fdcbc1c05240f31ff3ad067ef1ee35ce4997762752e3a095284754544f4c709d78484604051614db7929190918252602082015260400190565b60405180910390a350505050565b826001600160a01b0316856001600160a01b031614614de957614de98386836144f0565b614df38382614616565b614e1e7f000000000000000000000000000000000000000000000000000000000000000085846148cd565b826001600160a01b0316846001600160a01b0316866001600160a01b03167ffbde797d201c681b91056529119e0b02407c7bb96a4a2c75c01fc9667232c8db8585604051614e76929190918252602082015260400190565b60405180910390a45050505050565b6000614eb4614e938361512b565b8015614eaf575060008480614eaa57614eaa6156a2565b868809115b151590565b614ebf868686615158565b613554919061563e565b6001600160a01b038416614ef35760405163e602df0560e01b81526000600482015260240161225a565b6001600160a01b038316614f1d57604051634a1406b160e11b81526000600482015260240161225a565b6001600160a01b038085166000908152600160209081526040808320938716835292905220829055801561455157826001600160a01b0316846001600160a01b03167f8c5be1e5ebec7d5bd14f71427d1e84f3dd0314c0f7b2291e5b200ac8c7c3b92584604051614db791815260200190565b6001600160a01b038316614fbb578060026000828254614fb0919061563e565b9091555061502d9050565b6001600160a01b0383166000908152602081905260409020548181101561500e5760405163391434e360e21b81526001600160a01b0385166004820152602481018290526044810183905260640161225a565b6001600160a01b03841660009081526020819052604090209082900390555b6001600160a01b03821661504957600280548290039055615068565b6001600160a01b03821660009081526020819052604090208054820190555b816001600160a01b0316836001600160a01b03167fddf252ad1be2c89b69c2b068fc378daa952ba7f163c4a11628f55a4df523b3ef836040516150ad91815260200190565b60405180910390a3505050565b600080602060008451602086016000885af1806150dd576040513d6000823e3d81fd5b50506000513d915081156150f5578060011415615102565b6001600160a01b0384163b155b1561455157604051635274afe760e01b81526001600160a01b038516600482015260240161225a565b6000600282600381111561514157615141615c46565b61514b9190615c5c565b60ff166001149050919050565b6000806000615167868661520d565b915091508160000361518c57838181615182576151826156a2565b049250505061183e565b8184116151a3576151a3600385150260111861522b565b6000848688096000868103871696879004966002600389028118808a02820302808a02820302808a02820302808a02820302808a02820302808a02909103029181900381900460010185841190960395909502919093039390930492909217029150509392505050565b60008060001983850993909202808410938190039390930393915050565b634e487b71600052806020526024601cfd5b60006020808352835180602085015260005b8181101561526b5785810183015185820160400152820161524f565b506000604082860101526040601f19601f8301168501019250505092915050565b60006020828403121561529e57600080fd5b5035919050565b6001600160a01b038116811461181c57600080fd5b600080604083850312156152cd57600080fd5b82356152d8816152a5565b946020939093013593505050565b600080604083850312156152f957600080fd5b50508035926020909101359150565b801515811461181c57600080fd5b60006020828403121561532857600080fd5b813561183e81615308565b60006020828403121561534557600080fd5b813561183e816152a5565b60008060006060848603121561536557600080fd5b8335615370816152a5565b92506020840135615380816152a5565b929592945050506040919091013590565b6000806000606084860312156153a657600080fd5b833592506020840135615380816152a5565b60008151808452602080850194506020840160005b838110156153f25781516001600160a01b0316875295820195908201906001016153cd565b509495945050505050565b60008151808452602080850194506020840160005b838110156153f257815187529582019590820190600101615412565b60608152600061544160608301866153b8565b828103602084015261545381866153fd565b9050828103604084015261546781856153fd565b9695505050505050565b60008060006060848603121561548657600080fd5b8335925060208401359150604084013561549f816152a5565b809150509250925092565b600080604083850312156154bd57600080fd5b8235915060208301356154cf816152a5565b809150509250929050565b61ffff8116811461181c57600080fd5b6000602082840312156154fc57600080fd5b813561183e816154da565b60008060006060848603121561551c57600080fd5b83359250602084013561552e816152a5565b9150604084013561549f816152a5565b60408152600061555160408301856153b8565b828103602084015261355481856153fd565b60006020828403121561557557600080fd5b813563ffffffff8116811461183e57600080fd5b6000806040838503121561559c57600080fd5b82356155a7816152a5565b915060208301356154cf816152a5565b6000806000606084860312156155cc57600080fd5b83356155d7816152a5565b925060208401359150604084013561549f816152a5565b634e487b7160e01b600052603260045260246000fd5b6000806040838503121561561757600080fd5b505080516020909101519092909150565b634e487b7160e01b600052601160045260246000fd5b8082018082111561140957611409615628565b600181811c9082168061566557607f821691505b60208210810361568557634e487b7160e01b600052602260045260246000fd5b50919050565b808202811582820484141761140957611409615628565b634e487b7160e01b600052601260045260246000fd5b6000826156c7576156c76156a2565b500490565b8181038181111561140957611409615628565b634e487b7160e01b600052603160045260246000fd5b60ff818116838216019081111561140957611409615628565b60006020828403121561572057600080fd5b5051919050565b634e487b7160e01b600052604160045260246000fd5b6020808252825182820181905260009190848201906040850190845b8181101561577b57835163ffffffff1683529284019291840191600101615759565b50909695505050505050565b604051601f8201601f1916810167ffffffffffffffff811182821017156157b0576157b0615727565b604052919050565b600067ffffffffffffffff8211156157d2576157d2615727565b5060051b60200190565b600082601f8301126157ed57600080fd5b815160206158026157fd836157b8565b615787565b8083825260208201915060208460051b87010193508684111561582457600080fd5b602086015b8481101561584957805161583c816152a5565b8352918301918301615829565b509695505050505050565b6000806040838503121561586757600080fd5b825167ffffffffffffffff8082111561587f57600080fd5b818501915085601f83011261589357600080fd5b815160206158a36157fd836157b8565b82815260059290921b840181019181810190898411156158c257600080fd5b948201945b838610156158f05785518060060b81146158e15760008081fd5b825294820194908201906158c7565b9188015191965090935050508082111561590957600080fd5b50615916858286016157dc565b9150509250929050565b600682810b9082900b03667fffffffffffff198112667fffffffffffff8213171561140957611409615628565b60008160060b8360060b80615964576159646156a2565b667fffffffffffff1982146000198214161561598257615982615628565b90059392505050565b80820260008212600160ff1b841416156159a7576159a7615628565b818105831482151761140957611409615628565b80820182811260008312801582168215821617156159db576159db615628565b505092915050565b805169ffffffffffffffffffff811681146159fd57600080fd5b919050565b600080600080600060a08688031215615a1a57600080fd5b615a23866159e3565b9450602086015193506040860151925060608601519150615a46608087016159e3565b90509295509295909350565b805160ff811681146159fd57600080fd5b600060208284031215615a7557600080fd5b61183e82615a52565b60ff828116828216039081111561140957611409615628565b600181815b80851115615ad2578160001904821115615ab857615ab8615628565b80851615615ac557918102915b93841c9390800290615a9c565b509250929050565b600082615ae957506001611409565b81615af657506000611409565b8160018114615b0c5760028114615b1657615b32565b6001915050611409565b60ff841115615b2757615b27615628565b50506001821b611409565b5060208310610133831016604e8410600b8410161715615b55575081810a611409565b615b5f8383615a97565b8060001904821115615b7357615b73615628565b029392505050565b600061183e60ff841683615ada565b600060208284031215615b9c57600080fd5b815161183e81615308565b600080600080600080600060e0888a031215615bc257600080fd5b8751615bcd816152a5565b8097505060208801518060020b8114615be557600080fd5b6040890151909650615bf6816154da565b6060890151909550615c07816154da565b6080890151909450615c18816154da565b9250615c2660a08901615a52565b915060c0880151615c3681615308565b8091505092959891949750929550565b634e487b7160e01b600052602160045260246000fd5b600060ff831680615c6f57615c6f6156a2565b8060ff8416069150509291505056fea26469706673582212202bc2e89137621ec394a527b1cc67697742c7560728a44e8fa71f87da4de6681864736f6c63430008160033","linkReferences":{}},"methodIdentifiers":{"MAX_FEE()":"bc063e1a","MAX_STRATEGIES()":"767f06ae","UNISWAP_ROUTER()":"d8264920","USD1_PRICE_FEED()":"656a4b20","USD1_TOKEN()":"c6e831e8","WLFI_TOKEN()":"8ba17976","WLFI_USD1_POOL()":"96c1c433","_getTWAPPrice()":"83189fa1","acceptManagement()":"c8c2fe6c","activeStrategies(address)":"2c178bd0","addStrategy(address,uint256)":"c9411e22","allowance(address,address)":"dd62ed3e","approve(address,uint256)":"095ea7b3","asset()":"38d52e0f","authorized(address)":"b9181611","balanceOf(address)":"70a08231","calculateUSDValue(uint256,uint256)":"119328d6","convertToAssets(uint256)":"07a2d13a","convertToShares(uint256)":"c6e6f592","decimals()":"313ce567","deploymentThreshold()":"a0317bd6","deposit(uint256,address)":"6e553f65","depositDual(uint256,uint256,address)":"5c272ef6","emergencyAdmin()":"70905dce","emergencyWithdraw(uint256,uint256,address)":"f72b2a4c","forceDeployToStrategies()":"68e5ce84","fullProfitUnlockDate()":"2d632692","getCurrentPrices()":"852d0d6e","getStrategies()":"b49a60bb","getStrategyAssets()":"57fce5b7","getUSD1Price()":"89b12716","getVaultBalances()":"22370685","getVaultBalancesUSD()":"f06772ee","getWLFIPrice()":"ed84c5f3","injectCapital(uint256,uint256)":"386db353","isShutdown()":"bf86d690","keeper()":"aced1661","lastDeployment()":"45650c07","lastRebalance()":"106b9ca1","lastReport()":"c3535b52","management()":"88a8d602","maxDeposit(address)":"402d267d","maxMint(address)":"c63d75b6","maxPriceAge()":"1584410a","maxRedeem(address)":"d905777e","maxTotalSupply()":"2ab4d052","maxWithdraw(address)":"ce96cb77","maxWithdraw(address,uint256)":"85b68756","minDeploymentInterval()":"00cfdb09","mint(uint256,address)":"94bf804d","name()":"06fdde03","owner()":"8da5cb5b","paused()":"5c975abb","pendingManagement()":"0b68f46f","performanceFee()":"87788782","performanceFeeRecipient()":"ed27f7c9","previewDeposit(uint256)":"ef8b30f7","previewDepositDual(uint256,uint256)":"9699b63f","previewMint(uint256)":"b3d7f6b9","previewRedeem(uint256)":"4cdad506","previewWithdraw(uint256)":"0a28a477","profitMaxUnlockTime()":"0952864e","profitUnlockingRate()":"5141eebb","redeem(uint256,address,address)":"ba087652","removeStrategy(address)":"175188e8","renounceOwnership()":"715018a6","report()":"2606a10b","rescueETH()":"20800a00","rescueToken(address,uint256,address)":"f8a67a62","setDeploymentParams(uint256,uint256)":"79f06d21","setEmergencyAdmin(address)":"35da3394","setKeeper(address)":"748747e6","setMaxPriceAge(uint256)":"56447ce8","setMaxTotalSupply(uint256)":"3f3e4c11","setPaused(bool)":"16c38b3c","setPendingManagement(address)":"f629b790","setPerformanceFee(uint16)":"aa290e6d","setPerformanceFeeRecipient(address)":"6a5f1aa2","setProfitMaxUnlockTime(uint256)":"df69b22a","setTWAPInterval(uint32)":"d88c1517","shutdownStrategy()":"be8f1668","strategyList(uint256)":"a267526b","strategyWeights(address)":"7cd36844","symbol()":"95d89b41","syncBalances()":"336b78a0","tend()":"440368a3","tendTrigger()":"5d265d3f","totalAssets()":"01e1d114","totalAssetsAtLastReport()":"9161ccd0","totalLockedShares()":"81c39bec","totalStrategyWeight()":"98d3b209","totalSupply()":"18160ddd","transfer(address,uint256)":"a9059cbb","transferFrom(address,address,uint256)":"23b872dd","transferOwnership(address)":"f2fde38b","twapInterval()":"3c1d5df0","unlockedShares()":"d9a0e97a","usd1Balance()":"055a2b58","withdraw(uint256,address,address)":"b460af94","withdrawDual(uint256,address)":"b09943c3","withdrawDual(uint256,address,uint256)":"39a2fe6a","wlfiBalance()":"29ea1c0b"},"id":0}