{"abi":[{"type":"constructor","inputs":[{"name":"_wlfiToken","type":"address","internalType":"address"},{"name":"_usd1Token","type":"address","internalType":"address"},{"name":"_usd1PriceFeed","type":"address","internalType":"address"},{"name":"_wlfiUsd1Pool","type":"address","internalType":"address"},{"name":"_uniswapRouter","type":"address","internalType":"address"},{"name":"_owner","type":"address","internalType":"address"}],"stateMutability":"nonpayable"},{"type":"receive","stateMutability":"payable"},{"type":"function","name":"MAX_STRATEGIES","inputs":[],"outputs":[{"name":"","type":"uint256","internalType":"uint256"}],"stateMutability":"view"},{"type":"function","name":"UNISWAP_ROUTER","inputs":[],"outputs":[{"name":"","type":"address","internalType":"contract ISwapRouter"}],"stateMutability":"view"},{"type":"function","name":"USD1_PRICE_FEED","inputs":[],"outputs":[{"name":"","type":"address","internalType":"contract AggregatorV3Interface"}],"stateMutability":"view"},{"type":"function","name":"USD1_TOKEN","inputs":[],"outputs":[{"name":"","type":"address","internalType":"contract IERC20"}],"stateMutability":"view"},{"type":"function","name":"WLFI_TOKEN","inputs":[],"outputs":[{"name":"","type":"address","internalType":"contract IERC20"}],"stateMutability":"view"},{"type":"function","name":"WLFI_USD1_POOL","inputs":[],"outputs":[{"name":"","type":"address","internalType":"contract IUniswapV3Pool"}],"stateMutability":"view"},{"type":"function","name":"_getTWAPPrice","inputs":[],"outputs":[{"name":"","type":"uint256","internalType":"uint256"}],"stateMutability":"view"},{"type":"function","name":"acceptManager","inputs":[],"outputs":[],"stateMutability":"nonpayable"},{"type":"function","name":"activeStrategies","inputs":[{"name":"","type":"address","internalType":"address"}],"outputs":[{"name":"","type":"bool","internalType":"bool"}],"stateMutability":"view"},{"type":"function","name":"addStrategy","inputs":[{"name":"strategy","type":"address","internalType":"address"},{"name":"weight","type":"uint256","internalType":"uint256"}],"outputs":[],"stateMutability":"nonpayable"},{"type":"function","name":"allowance","inputs":[{"name":"owner","type":"address","internalType":"address"},{"name":"spender","type":"address","internalType":"address"}],"outputs":[{"name":"","type":"uint256","internalType":"uint256"}],"stateMutability":"view"},{"type":"function","name":"approve","inputs":[{"name":"spender","type":"address","internalType":"address"},{"name":"value","type":"uint256","internalType":"uint256"}],"outputs":[{"name":"","type":"bool","internalType":"bool"}],"stateMutability":"nonpayable"},{"type":"function","name":"approveTokensToStrategy","inputs":[{"name":"strategy","type":"address","internalType":"address"},{"name":"wlfiAmount","type":"uint256","internalType":"uint256"},{"name":"usd1Amount","type":"uint256","internalType":"uint256"}],"outputs":[],"stateMutability":"nonpayable"},{"type":"function","name":"asset","inputs":[],"outputs":[{"name":"","type":"address","internalType":"address"}],"stateMutability":"view"},{"type":"function","name":"authorized","inputs":[{"name":"","type":"address","internalType":"address"}],"outputs":[{"name":"","type":"bool","internalType":"bool"}],"stateMutability":"view"},{"type":"function","name":"balanceOf","inputs":[{"name":"account","type":"address","internalType":"address"}],"outputs":[{"name":"","type":"uint256","internalType":"uint256"}],"stateMutability":"view"},{"type":"function","name":"calculateUSDValue","inputs":[{"name":"wlfiAmount","type":"uint256","internalType":"uint256"},{"name":"usd1Amount","type":"uint256","internalType":"uint256"}],"outputs":[{"name":"usdValue","type":"uint256","internalType":"uint256"}],"stateMutability":"view"},{"type":"function","name":"convertToAssets","inputs":[{"name":"shares","type":"uint256","internalType":"uint256"}],"outputs":[{"name":"","type":"uint256","internalType":"uint256"}],"stateMutability":"view"},{"type":"function","name":"convertToShares","inputs":[{"name":"assets","type":"uint256","internalType":"uint256"}],"outputs":[{"name":"","type":"uint256","internalType":"uint256"}],"stateMutability":"view"},{"type":"function","name":"decimals","inputs":[],"outputs":[{"name":"","type":"uint8","internalType":"uint8"}],"stateMutability":"view"},{"type":"function","name":"deploymentThreshold","inputs":[],"outputs":[{"name":"","type":"uint256","internalType":"uint256"}],"stateMutability":"view"},{"type":"function","name":"deposit","inputs":[{"name":"assets","type":"uint256","internalType":"uint256"},{"name":"receiver","type":"address","internalType":"address"}],"outputs":[{"name":"shares","type":"uint256","internalType":"uint256"}],"stateMutability":"nonpayable"},{"type":"function","name":"depositDual","inputs":[{"name":"wlfiAmount","type":"uint256","internalType":"uint256"},{"name":"usd1Amount","type":"uint256","internalType":"uint256"},{"name":"receiver","type":"address","internalType":"address"}],"outputs":[{"name":"shares","type":"uint256","internalType":"uint256"}],"stateMutability":"nonpayable"},{"type":"function","name":"forceDeployToStrategies","inputs":[],"outputs":[],"stateMutability":"nonpayable"},{"type":"function","name":"getCurrentPrices","inputs":[],"outputs":[{"name":"wlfiPriceUSD","type":"uint256","internalType":"uint256"},{"name":"usd1PriceUSD","type":"uint256","internalType":"uint256"}],"stateMutability":"view"},{"type":"function","name":"getStrategies","inputs":[],"outputs":[{"name":"strategies","type":"address[]","internalType":"address[]"},{"name":"weights","type":"uint256[]","internalType":"uint256[]"}],"stateMutability":"view"},{"type":"function","name":"getStrategyAssets","inputs":[],"outputs":[{"name":"strategies","type":"address[]","internalType":"address[]"},{"name":"wlfiAmounts","type":"uint256[]","internalType":"uint256[]"},{"name":"usd1Amounts","type":"uint256[]","internalType":"uint256[]"}],"stateMutability":"view"},{"type":"function","name":"getUSD1Price","inputs":[],"outputs":[{"name":"price","type":"uint256","internalType":"uint256"}],"stateMutability":"view"},{"type":"function","name":"getVaultBalances","inputs":[],"outputs":[{"name":"wlfi","type":"uint256","internalType":"uint256"},{"name":"usd1","type":"uint256","internalType":"uint256"}],"stateMutability":"view"},{"type":"function","name":"getVaultBalancesUSD","inputs":[],"outputs":[{"name":"wlfiValueUSD","type":"uint256","internalType":"uint256"},{"name":"usd1ValueUSD","type":"uint256","internalType":"uint256"},{"name":"totalValueUSD","type":"uint256","internalType":"uint256"}],"stateMutability":"view"},{"type":"function","name":"getWLFIPrice","inputs":[],"outputs":[{"name":"price","type":"uint256","internalType":"uint256"}],"stateMutability":"view"},{"type":"function","name":"injectCapital","inputs":[{"name":"wlfiAmount","type":"uint256","internalType":"uint256"},{"name":"usd1Amount","type":"uint256","internalType":"uint256"}],"outputs":[],"stateMutability":"nonpayable"},{"type":"function","name":"lastDeployment","inputs":[],"outputs":[{"name":"","type":"uint256","internalType":"uint256"}],"stateMutability":"view"},{"type":"function","name":"lastRebalance","inputs":[],"outputs":[{"name":"","type":"uint256","internalType":"uint256"}],"stateMutability":"view"},{"type":"function","name":"manager","inputs":[],"outputs":[{"name":"","type":"address","internalType":"address"}],"stateMutability":"view"},{"type":"function","name":"maxDeposit","inputs":[{"name":"","type":"address","internalType":"address"}],"outputs":[{"name":"","type":"uint256","internalType":"uint256"}],"stateMutability":"view"},{"type":"function","name":"maxMint","inputs":[{"name":"","type":"address","internalType":"address"}],"outputs":[{"name":"","type":"uint256","internalType":"uint256"}],"stateMutability":"view"},{"type":"function","name":"maxPriceAge","inputs":[],"outputs":[{"name":"","type":"uint256","internalType":"uint256"}],"stateMutability":"view"},{"type":"function","name":"maxRedeem","inputs":[{"name":"owner","type":"address","internalType":"address"}],"outputs":[{"name":"","type":"uint256","internalType":"uint256"}],"stateMutability":"view"},{"type":"function","name":"maxTotalSupply","inputs":[],"outputs":[{"name":"","type":"uint256","internalType":"uint256"}],"stateMutability":"view"},{"type":"function","name":"maxWithdraw","inputs":[{"name":"owner","type":"address","internalType":"address"}],"outputs":[{"name":"","type":"uint256","internalType":"uint256"}],"stateMutability":"view"},{"type":"function","name":"minDeploymentInterval","inputs":[],"outputs":[{"name":"","type":"uint256","internalType":"uint256"}],"stateMutability":"view"},{"type":"function","name":"mint","inputs":[{"name":"shares","type":"uint256","internalType":"uint256"},{"name":"receiver","type":"address","internalType":"address"}],"outputs":[{"name":"","type":"uint256","internalType":"uint256"}],"stateMutability":"nonpayable"},{"type":"function","name":"name","inputs":[],"outputs":[{"name":"","type":"string","internalType":"string"}],"stateMutability":"view"},{"type":"function","name":"owner","inputs":[],"outputs":[{"name":"","type":"address","internalType":"address"}],"stateMutability":"view"},{"type":"function","name":"paused","inputs":[],"outputs":[{"name":"","type":"bool","internalType":"bool"}],"stateMutability":"view"},{"type":"function","name":"pendingManager","inputs":[],"outputs":[{"name":"","type":"address","internalType":"address"}],"stateMutability":"view"},{"type":"function","name":"previewDeposit","inputs":[{"name":"assets","type":"uint256","internalType":"uint256"}],"outputs":[{"name":"","type":"uint256","internalType":"uint256"}],"stateMutability":"view"},{"type":"function","name":"previewDepositDual","inputs":[{"name":"wlfiAmount","type":"uint256","internalType":"uint256"},{"name":"usd1Amount","type":"uint256","internalType":"uint256"}],"outputs":[{"name":"shares","type":"uint256","internalType":"uint256"},{"name":"usdValue","type":"uint256","internalType":"uint256"}],"stateMutability":"view"},{"type":"function","name":"previewMint","inputs":[{"name":"shares","type":"uint256","internalType":"uint256"}],"outputs":[{"name":"","type":"uint256","internalType":"uint256"}],"stateMutability":"view"},{"type":"function","name":"previewRedeem","inputs":[{"name":"shares","type":"uint256","internalType":"uint256"}],"outputs":[{"name":"","type":"uint256","internalType":"uint256"}],"stateMutability":"view"},{"type":"function","name":"previewWithdraw","inputs":[{"name":"assets","type":"uint256","internalType":"uint256"}],"outputs":[{"name":"","type":"uint256","internalType":"uint256"}],"stateMutability":"view"},{"type":"function","name":"redeem","inputs":[{"name":"shares","type":"uint256","internalType":"uint256"},{"name":"receiver","type":"address","internalType":"address"},{"name":"owner","type":"address","internalType":"address"}],"outputs":[{"name":"","type":"uint256","internalType":"uint256"}],"stateMutability":"nonpayable"},{"type":"function","name":"removeStrategy","inputs":[{"name":"strategy","type":"address","internalType":"address"}],"outputs":[],"stateMutability":"nonpayable"},{"type":"function","name":"renounceOwnership","inputs":[],"outputs":[],"stateMutability":"nonpayable"},{"type":"function","name":"rescueETH","inputs":[],"outputs":[],"stateMutability":"nonpayable"},{"type":"function","name":"rescueToken","inputs":[{"name":"token","type":"address","internalType":"address"},{"name":"amount","type":"uint256","internalType":"uint256"},{"name":"to","type":"address","internalType":"address"}],"outputs":[],"stateMutability":"nonpayable"},{"type":"function","name":"setDeploymentParams","inputs":[{"name":"_threshold","type":"uint256","internalType":"uint256"},{"name":"_interval","type":"uint256","internalType":"uint256"}],"outputs":[],"stateMutability":"nonpayable"},{"type":"function","name":"setManager","inputs":[{"name":"_newManager","type":"address","internalType":"address"}],"outputs":[],"stateMutability":"nonpayable"},{"type":"function","name":"setMaxPriceAge","inputs":[{"name":"_maxPriceAge","type":"uint256","internalType":"uint256"}],"outputs":[],"stateMutability":"nonpayable"},{"type":"function","name":"setMaxTotalSupply","inputs":[{"name":"_maxTotalSupply","type":"uint256","internalType":"uint256"}],"outputs":[],"stateMutability":"nonpayable"},{"type":"function","name":"setPaused","inputs":[{"name":"_paused","type":"bool","internalType":"bool"}],"outputs":[],"stateMutability":"nonpayable"},{"type":"function","name":"setTWAPInterval","inputs":[{"name":"_interval","type":"uint32","internalType":"uint32"}],"outputs":[],"stateMutability":"nonpayable"},{"type":"function","name":"strategyList","inputs":[{"name":"","type":"uint256","internalType":"uint256"}],"outputs":[{"name":"","type":"address","internalType":"address"}],"stateMutability":"view"},{"type":"function","name":"strategyWeights","inputs":[{"name":"","type":"address","internalType":"address"}],"outputs":[{"name":"","type":"uint256","internalType":"uint256"}],"stateMutability":"view"},{"type":"function","name":"symbol","inputs":[],"outputs":[{"name":"","type":"string","internalType":"string"}],"stateMutability":"view"},{"type":"function","name":"totalAssets","inputs":[],"outputs":[{"name":"","type":"uint256","internalType":"uint256"}],"stateMutability":"view"},{"type":"function","name":"totalStrategyWeight","inputs":[],"outputs":[{"name":"","type":"uint256","internalType":"uint256"}],"stateMutability":"view"},{"type":"function","name":"totalSupply","inputs":[],"outputs":[{"name":"","type":"uint256","internalType":"uint256"}],"stateMutability":"view"},{"type":"function","name":"transfer","inputs":[{"name":"to","type":"address","internalType":"address"},{"name":"value","type":"uint256","internalType":"uint256"}],"outputs":[{"name":"","type":"bool","internalType":"bool"}],"stateMutability":"nonpayable"},{"type":"function","name":"transferFrom","inputs":[{"name":"from","type":"address","internalType":"address"},{"name":"to","type":"address","internalType":"address"},{"name":"value","type":"uint256","internalType":"uint256"}],"outputs":[{"name":"","type":"bool","internalType":"bool"}],"stateMutability":"nonpayable"},{"type":"function","name":"transferOwnership","inputs":[{"name":"newOwner","type":"address","internalType":"address"}],"outputs":[],"stateMutability":"nonpayable"},{"type":"function","name":"twapInterval","inputs":[],"outputs":[{"name":"","type":"uint32","internalType":"uint32"}],"stateMutability":"view"},{"type":"function","name":"usd1Balance","inputs":[],"outputs":[{"name":"","type":"uint256","internalType":"uint256"}],"stateMutability":"view"},{"type":"function","name":"withdraw","inputs":[{"name":"assets","type":"uint256","internalType":"uint256"},{"name":"receiver","type":"address","internalType":"address"},{"name":"owner","type":"address","internalType":"address"}],"outputs":[{"name":"","type":"uint256","internalType":"uint256"}],"stateMutability":"nonpayable"},{"type":"function","name":"withdrawDual","inputs":[{"name":"shares","type":"uint256","internalType":"uint256"},{"name":"receiver","type":"address","internalType":"address"}],"outputs":[{"name":"wlfiAmount","type":"uint256","internalType":"uint256"},{"name":"usd1Amount","type":"uint256","internalType":"uint256"}],"stateMutability":"nonpayable"},{"type":"function","name":"wlfiBalance","inputs":[],"outputs":[{"name":"","type":"uint256","internalType":"uint256"}],"stateMutability":"view"},{"type":"event","name":"Approval","inputs":[{"name":"owner","type":"address","indexed":true,"internalType":"address"},{"name":"spender","type":"address","indexed":true,"internalType":"address"},{"name":"value","type":"uint256","indexed":false,"internalType":"uint256"}],"anonymous":false},{"type":"event","name":"CapitalInjected","inputs":[{"name":"from","type":"address","indexed":true,"internalType":"address"},{"name":"wlfiAmount","type":"uint256","indexed":false,"internalType":"uint256"},{"name":"usd1Amount","type":"uint256","indexed":false,"internalType":"uint256"}],"anonymous":false},{"type":"event","name":"Deposit","inputs":[{"name":"sender","type":"address","indexed":true,"internalType":"address"},{"name":"owner","type":"address","indexed":true,"internalType":"address"},{"name":"assets","type":"uint256","indexed":false,"internalType":"uint256"},{"name":"shares","type":"uint256","indexed":false,"internalType":"uint256"}],"anonymous":false},{"type":"event","name":"DualDeposit","inputs":[{"name":"user","type":"address","indexed":true,"internalType":"address"},{"name":"wlfiAmount","type":"uint256","indexed":false,"internalType":"uint256"},{"name":"usd1Amount","type":"uint256","indexed":false,"internalType":"uint256"},{"name":"wlfiPriceUSD","type":"uint256","indexed":false,"internalType":"uint256"},{"name":"usd1PriceUSD","type":"uint256","indexed":false,"internalType":"uint256"},{"name":"totalUSDValue","type":"uint256","indexed":false,"internalType":"uint256"},{"name":"shares","type":"uint256","indexed":false,"internalType":"uint256"}],"anonymous":false},{"type":"event","name":"DualWithdraw","inputs":[{"name":"user","type":"address","indexed":true,"internalType":"address"},{"name":"shares","type":"uint256","indexed":false,"internalType":"uint256"},{"name":"wlfiAmount","type":"uint256","indexed":false,"internalType":"uint256"},{"name":"usd1Amount","type":"uint256","indexed":false,"internalType":"uint256"}],"anonymous":false},{"type":"event","name":"EmergencyPause","inputs":[{"name":"paused","type":"bool","indexed":false,"internalType":"bool"}],"anonymous":false},{"type":"event","name":"ManagerSet","inputs":[{"name":"oldManager","type":"address","indexed":true,"internalType":"address"},{"name":"newManager","type":"address","indexed":true,"internalType":"address"}],"anonymous":false},{"type":"event","name":"OwnershipTransferred","inputs":[{"name":"previousOwner","type":"address","indexed":true,"internalType":"address"},{"name":"newOwner","type":"address","indexed":true,"internalType":"address"}],"anonymous":false},{"type":"event","name":"Rebalanced","inputs":[{"name":"newWlfiBalance","type":"uint256","indexed":false,"internalType":"uint256"},{"name":"newUsd1Balance","type":"uint256","indexed":false,"internalType":"uint256"}],"anonymous":false},{"type":"event","name":"StrategyAdded","inputs":[{"name":"strategy","type":"address","indexed":true,"internalType":"address"},{"name":"weight","type":"uint256","indexed":false,"internalType":"uint256"}],"anonymous":false},{"type":"event","name":"StrategyDeployed","inputs":[{"name":"strategy","type":"address","indexed":true,"internalType":"address"},{"name":"wlfiDeployed","type":"uint256","indexed":false,"internalType":"uint256"},{"name":"usd1Deployed","type":"uint256","indexed":false,"internalType":"uint256"}],"anonymous":false},{"type":"event","name":"StrategyRemoved","inputs":[{"name":"strategy","type":"address","indexed":true,"internalType":"address"}],"anonymous":false},{"type":"event","name":"Transfer","inputs":[{"name":"from","type":"address","indexed":true,"internalType":"address"},{"name":"to","type":"address","indexed":true,"internalType":"address"},{"name":"value","type":"uint256","indexed":false,"internalType":"uint256"}],"anonymous":false},{"type":"event","name":"Withdraw","inputs":[{"name":"sender","type":"address","indexed":true,"internalType":"address"},{"name":"receiver","type":"address","indexed":true,"internalType":"address"},{"name":"owner","type":"address","indexed":true,"internalType":"address"},{"name":"assets","type":"uint256","indexed":false,"internalType":"uint256"},{"name":"shares","type":"uint256","indexed":false,"internalType":"uint256"}],"anonymous":false},{"type":"error","name":"ERC20InsufficientAllowance","inputs":[{"name":"spender","type":"address","internalType":"address"},{"name":"allowance","type":"uint256","internalType":"uint256"},{"name":"needed","type":"uint256","internalType":"uint256"}]},{"type":"error","name":"ERC20InsufficientBalance","inputs":[{"name":"sender","type":"address","internalType":"address"},{"name":"balance","type":"uint256","internalType":"uint256"},{"name":"needed","type":"uint256","internalType":"uint256"}]},{"type":"error","name":"ERC20InvalidApprover","inputs":[{"name":"approver","type":"address","internalType":"address"}]},{"type":"error","name":"ERC20InvalidReceiver","inputs":[{"name":"receiver","type":"address","internalType":"address"}]},{"type":"error","name":"ERC20InvalidSender","inputs":[{"name":"sender","type":"address","internalType":"address"}]},{"type":"error","name":"ERC20InvalidSpender","inputs":[{"name":"spender","type":"address","internalType":"address"}]},{"type":"error","name":"ERC4626ExceededMaxDeposit","inputs":[{"name":"receiver","type":"address","internalType":"address"},{"name":"assets","type":"uint256","internalType":"uint256"},{"name":"max","type":"uint256","internalType":"uint256"}]},{"type":"error","name":"ERC4626ExceededMaxMint","inputs":[{"name":"receiver","type":"address","internalType":"address"},{"name":"shares","type":"uint256","internalType":"uint256"},{"name":"max","type":"uint256","internalType":"uint256"}]},{"type":"error","name":"ERC4626ExceededMaxRedeem","inputs":[{"name":"owner","type":"address","internalType":"address"},{"name":"shares","type":"uint256","internalType":"uint256"},{"name":"max","type":"uint256","internalType":"uint256"}]},{"type":"error","name":"ERC4626ExceededMaxWithdraw","inputs":[{"name":"owner","type":"address","internalType":"address"},{"name":"assets","type":"uint256","internalType":"uint256"},{"name":"max","type":"uint256","internalType":"uint256"}]},{"type":"error","name":"InsufficientBalance","inputs":[]},{"type":"error","name":"InvalidAmount","inputs":[]},{"type":"error","name":"InvalidPrice","inputs":[]},{"type":"error","name":"InvalidWeight","inputs":[]},{"type":"error","name":"MaxStrategiesReached","inputs":[]},{"type":"error","name":"OwnableInvalidOwner","inputs":[{"name":"owner","type":"address","internalType":"address"}]},{"type":"error","name":"OwnableUnauthorizedAccount","inputs":[{"name":"account","type":"address","internalType":"address"}]},{"type":"error","name":"Paused","inputs":[]},{"type":"error","name":"ReentrancyGuardReentrantCall","inputs":[]},{"type":"error","name":"SafeERC20FailedOperation","inputs":[{"name":"token","type":"address","internalType":"address"}]},{"type":"error","name":"SlippageExceeded","inputs":[]},{"type":"error","name":"StalePrice","inputs":[]},{"type":"error","name":"StrategyAlreadyActive","inputs":[]},{"type":"error","name":"StrategyNotActive","inputs":[]},{"type":"error","name":"Unauthorized","inputs":[]},{"type":"error","name":"ZeroAddress","inputs":[]}],"bytecode":{"object":"0x6101606040526a295be96e64066972000000600d55600e805463ffffffff191661070817905562015180600f5568056bc75e2d6310000060105561012c6011553480156200004c57600080fd5b5060405162004dc238038062004dc28339810160408190526200006f9162000385565b8086604051806040016040528060128152602001714561676c65205661756c742053686172657360701b81525060405180604001604052806006815260200165764541474c4560d01b8152508160039081620000cc9190620004ad565b506004620000db8282620004ad565b505050600080620000f2836200023160201b60201c565b91509150816200010457601262000106565b805b60ff1660a05250506001600160a01b0390811660805281166200014357604051631e4fbdf760e01b81526000600482015260240160405180910390fd5b6200014e8162000316565b5060016006556001600160a01b03861615806200017257506001600160a01b038516155b806200018557506001600160a01b038416155b806200019857506001600160a01b038316155b80620001ab57506001600160a01b038216155b15620001ca5760405163d92e233d60e01b815260040160405180910390fd5b6001600160a01b0395861660e05293851660c05291841661010052831661012052821661014052601380546001600160a01b031916919092169081179091556000908152601560205260409020805460ff19166001179055426012819055601655620005c4565b60408051600481526024810182526020810180516001600160e01b031663313ce56760e01b17905290516000918291829182916001600160a01b038716916200027a9162000579565b600060405180830381855afa9150503d8060008114620002b7576040519150601f19603f3d011682016040523d82523d6000602084013e620002bc565b606091505b5091509150818015620002d157506020815110155b156200030957600081806020019051810190620002ef9190620005aa565b905060ff811162000307576001969095509350505050565b505b5060009485945092505050565b600580546001600160a01b038381166001600160a01b0319831681179093556040519116919082907f8be0079c531659141344cd1fd0a4f28419497f9722a3daafe3b4186f6b6457e090600090a35050565b80516001600160a01b03811681146200038057600080fd5b919050565b60008060008060008060c087890312156200039f57600080fd5b620003aa8762000368565b9550620003ba6020880162000368565b9450620003ca6040880162000368565b9350620003da6060880162000368565b9250620003ea6080880162000368565b9150620003fa60a0880162000368565b90509295509295509295565b634e487b7160e01b600052604160045260246000fd5b600181811c908216806200043157607f821691505b6020821081036200045257634e487b7160e01b600052602260045260246000fd5b50919050565b601f821115620004a8576000816000526020600020601f850160051c81016020861015620004835750805b601f850160051c820191505b81811015620004a4578281556001016200048f565b5050505b505050565b81516001600160401b03811115620004c957620004c962000406565b620004e181620004da84546200041c565b8462000458565b602080601f831160018114620005195760008415620005005750858301515b600019600386901b1c1916600185901b178555620004a4565b600085815260208120601f198616915b828110156200054a5788860151825594840194600190910190840162000529565b5085821015620005695787850151600019600388901b60f8161c191681555b5050505050600190811b01905550565b6000825160005b818110156200059c576020818601810151858301520162000580565b506000920191825250919050565b600060208284031215620005bd57600080fd5b5051919050565b60805160a05160c05160e05161010051610120516101405161472c620006966000396000610ceb015260008181610aa40152818161202901526134190152600081816108a8015281816121c801526122fb0152600081816109fd01528181610f73015281816115fa01528181611b8301528181611e44015281816126380152612e40015260008181610c570152818161100e0152818161164d01528181611bd6015281816126720152612e7b0152600061154c01526000818161071a015281816135370152613878015261472c6000f3fe6080604052600436106104555760003560e01c8063715018a61161023f578063b3d7f6b911610139578063d0ebdbe7116100b6578063ed84c5f31161007a578063ed84c5f314610d93578063ef8b30f714610c25578063f06772ee14610da8578063f2fde38b14610dd8578063f8a67a6214610df857600080fd5b8063d0ebdbe714610cb9578063d826492014610cd9578063d88c151714610d0d578063d905777e14610d2d578063dd62ed3e14610d4d57600080fd5b8063c63d75b6116100fd578063c63d75b6146107a4578063c6e6f59214610c25578063c6e831e814610c45578063c9411e2214610c79578063ce96cb7714610c9957600080fd5b8063b3d7f6b914610b72578063b460af9414610b92578063b49a60bb14610bb2578063b918161114610bd5578063ba08765214610c0557600080fd5b806394bf804d116101c7578063a00fff6f1161018b578063a00fff6f14610adc578063a0317bd614610afc578063a267526b14610b12578063a9059cbb14610b32578063b09943c314610b5257600080fd5b806394bf804d14610a3d57806395d89b4114610a5d5780639699b63f14610a7257806396c1c43314610a9257806398d3b20914610ac657600080fd5b806383189fa11161020e57806383189fa1146109ac578063852d0d6e146109c157806389b12716146109d65780638ba17976146109eb5780638da5cb5b14610a1f57600080fd5b8063715018a614610935578063767f06ae1461094a57806379f06d211461095f5780637cd368441461097f57600080fd5b80632c178bd01161035057806348ff15b3116102d85780635c975abb1161029c5780635c975abb14610875578063656a4b201461089657806368e5ce84146108ca5780636e553f65146108df57806370a08231146108ff57600080fd5b806348ff15b3146107fc5780634cdad506146104f957806356447ce81461081157806357fce5b7146108315780635c272ef61461085557600080fd5b80633c1d5df01161031f5780633c1d5df0146107525780633f3e4c1114610784578063402d267d146107a457806345650c07146107c6578063481c6a75146107dc57600080fd5b80632c178bd014610694578063313ce567146106c4578063386db353146106eb57806338d52e0f1461070b57600080fd5b8063119328d6116103de57806320800a00116103a257806320800a001461060a578063223706851461061f57806323b872dd1461064857806329ea1c0b146106685780632ab4d0521461067e57600080fd5b8063119328d61461057f5780631584410a1461059f57806316c38b3c146105b5578063175188e8146105d557806318160ddd146105f557600080fd5b806306fdde031161042557806306fdde03146104d757806307a2d13a146104f9578063095ea7b3146105195780630a28a47714610549578063106b9ca11461056957600080fd5b8062cfdb091461046157806301e1d1141461048a578063055a2b581461049f57806305a4b97a146104b557600080fd5b3661045c57005b600080fd5b34801561046d57600080fd5b5061047760115481565b6040519081526020015b60405180910390f35b34801561049657600080fd5b50610477610e18565b3480156104ab57600080fd5b5061047760085481565b3480156104c157600080fd5b506104d56104d0366004613cbf565b610f3f565b005b3480156104e357600080fd5b506104ec611082565b6040516104819190613cf4565b34801561050557600080fd5b50610477610514366004613d43565b611114565b34801561052557600080fd5b50610539610534366004613d5c565b611127565b6040519015158152602001610481565b34801561055557600080fd5b50610477610564366004613d43565b61113f565b34801561057557600080fd5b5061047760165481565b34801561058b57600080fd5b5061047761059a366004613d88565b61114c565b3480156105ab57600080fd5b50610477600f5481565b3480156105c157600080fd5b506104d56105d0366004613db8565b6111bc565b3480156105e157600080fd5b506104d56105f0366004613dd5565b61121c565b34801561060157600080fd5b50600254610477565b34801561061657600080fd5b506104d56114d0565b34801561062b57600080fd5b506007546008545b60408051928352602083019190915201610481565b34801561065457600080fd5b50610539610663366004613df2565b61151e565b34801561067457600080fd5b5061047760075481565b34801561068a57600080fd5b50610477600d5481565b3480156106a057600080fd5b506105396106af366004613dd5565b60096020526000908152604090205460ff1681565b3480156106d057600080fd5b506106d9611544565b60405160ff9091168152602001610481565b3480156106f757600080fd5b506104d5610706366004613d88565b611575565b34801561071757600080fd5b507f00000000000000000000000000000000000000000000000000000000000000005b6040516001600160a01b039091168152602001610481565b34801561075e57600080fd5b50600e5461076f9063ffffffff1681565b60405163ffffffff9091168152602001610481565b34801561079057600080fd5b506104d561079f366004613d43565b6116cd565b3480156107b057600080fd5b506104776107bf366004613dd5565b5060001990565b3480156107d257600080fd5b5061047760125481565b3480156107e857600080fd5b5060135461073a906001600160a01b031681565b34801561080857600080fd5b506104d561176f565b34801561081d57600080fd5b506104d561082c366004613d43565b611810565b34801561083d57600080fd5b5061084661186c565b60405161048193929190613ea9565b34801561086157600080fd5b50610477610870366004613eec565b611ad2565b34801561088157600080fd5b5060145461053990600160a01b900460ff1681565b3480156108a257600080fd5b5061073a7f000000000000000000000000000000000000000000000000000000000000000081565b3480156108d657600080fd5b506104d5611d0f565b3480156108eb57600080fd5b506104776108fa366004613f25565b611dba565b34801561090b57600080fd5b5061047761091a366004613dd5565b6001600160a01b031660009081526020819052604090205490565b34801561094157600080fd5b506104d5611f64565b34801561095657600080fd5b50610477600581565b34801561096b57600080fd5b506104d561097a366004613d88565b611f76565b34801561098b57600080fd5b5061047761099a366004613dd5565b600a6020526000908152604090205481565b3480156109b857600080fd5b50610477611f89565b3480156109cd57600080fd5b506106336121a3565b3480156109e257600080fd5b506104776121be565b3480156109f757600080fd5b5061073a7f000000000000000000000000000000000000000000000000000000000000000081565b348015610a2b57600080fd5b506005546001600160a01b031661073a565b348015610a4957600080fd5b50610477610a58366004613f25565b6123e1565b348015610a6957600080fd5b506104ec612407565b348015610a7e57600080fd5b50610633610a8d366004613d88565b612416565b348015610a9e57600080fd5b5061073a7f000000000000000000000000000000000000000000000000000000000000000081565b348015610ad257600080fd5b50610477600c5481565b348015610ae857600080fd5b5060145461073a906001600160a01b031681565b348015610b0857600080fd5b5061047760105481565b348015610b1e57600080fd5b5061073a610b2d366004613d43565b61246d565b348015610b3e57600080fd5b50610539610b4d366004613d5c565b612497565b348015610b5e57600080fd5b50610633610b6d366004613f25565b6124a5565b348015610b7e57600080fd5b50610477610b8d366004613d43565b6126f3565b348015610b9e57600080fd5b50610477610bad366004613f55565b612700565b348015610bbe57600080fd5b50610bc7612758565b604051610481929190613f8c565b348015610be157600080fd5b50610539610bf0366004613dd5565b60156020526000908152604090205460ff1681565b348015610c1157600080fd5b50610477610c20366004613f55565b6128c1565b348015610c3157600080fd5b50610477610c40366004613d43565b612910565b348015610c5157600080fd5b5061073a7f000000000000000000000000000000000000000000000000000000000000000081565b348015610c8557600080fd5b506104d5610c94366004613d5c565b61291d565b348015610ca557600080fd5b50610477610cb4366004613dd5565b612bb2565b348015610cc557600080fd5b506104d5610cd4366004613dd5565b612bd6565b348015610ce557600080fd5b5061073a7f000000000000000000000000000000000000000000000000000000000000000081565b348015610d1957600080fd5b506104d5610d28366004613fb1565b612c27565b348015610d3957600080fd5b50610477610d48366004613dd5565b612cb8565b348015610d5957600080fd5b50610477610d68366004613fd7565b6001600160a01b03918216600090815260016020908152604080832093909416825291909152205490565b348015610d9f57600080fd5b50610477612cd6565b348015610db457600080fd5b50610dbd612d91565b60408051938452602084019290925290820152606001610481565b348015610de457600080fd5b506104d5610df3366004613dd5565b612dfb565b348015610e0457600080fd5b506104d5610e13366004614005565b612e36565b600080610e2960075460085461114c565b600b5490915060005b81811015610f375760096000600b8381548110610e5157610e5161403c565b60009182526020808320909101546001600160a01b0316835282019290925260400190205460ff1615610f2f57600080600b8381548110610e9457610e9461403c565b9060005260206000200160009054906101000a90046001600160a01b03166001600160a01b031663c4a7761e6040518163ffffffff1660e01b81526004016040805180830381865afa158015610eee573d6000803e3d6000fd5b505050506040513d601f19601f82011682018060405250810190610f129190614052565b91509150610f20828261114c565b610f2a908661408c565b945050505b600101610e32565b509092915050565b610f47612f41565b8115610fe25760405163095ea7b360e01b81526001600160a01b038481166004830152602482018490527f0000000000000000000000000000000000000000000000000000000000000000169063095ea7b3906044016020604051808303816000875af1158015610fbc573d6000803e3d6000fd5b505050506040513d601f19601f82011682018060405250810190610fe0919061409f565b505b801561107d5760405163095ea7b360e01b81526001600160a01b038481166004830152602482018390527f0000000000000000000000000000000000000000000000000000000000000000169063095ea7b3906044016020604051808303816000875af1158015611057573d6000803e3d6000fd5b505050506040513d601f19601f8201168201806040525081019061107b919061409f565b505b505050565b606060038054611091906140bc565b80601f01602080910402602001604051908101604052809291908181526020018280546110bd906140bc565b801561110a5780601f106110df5761010080835404028352916020019161110a565b820191906000526020600020905b8154815290600101906020018083116110ed57829003601f168201915b5050505050905090565b6000611121826000612f6e565b92915050565b600033611135818585612fa8565b5060019392505050565b6000611121826001612fb5565b600080611157612cd6565b905060006111636121be565b90506000670de0b6b3a764000061117a84886140f6565b6111849190614123565b90506000670de0b6b3a764000061119b84886140f6565b6111a59190614123565b90506111b1818361408c565b979650505050505050565b6111c4612f41565b60148054821515600160a01b0260ff60a01b199091161790556040517fb80d1ae5628c2af91424c54c87acfd15016be4bebeef0425b328238702f348319061121190831515815260200190565b60405180910390a150565b6013546001600160a01b0316331480159061124257506005546001600160a01b03163314155b1561125f576040516282b42960e81b815260040160405180910390fd5b6001600160a01b03811660009081526009602052604090205460ff1661129857604051631b92e95360e31b815260040160405180910390fd5b604051632e1a7d4d60e01b8152600019600482015260009081906001600160a01b03841690632e1a7d4d9060240160408051808303816000875af11580156112e4573d6000803e3d6000fd5b505050506040513d601f19601f820116820180604052508101906113089190614052565b91509150816007600082825461131e919061408c565b925050819055508060086000828254611337919061408c565b90915550506001600160a01b0383166000908152600960209081526040808320805460ff19169055600a909152812054600c80549192909161137a908490614137565b90915550506001600160a01b0383166000908152600a60205260408120819055600b54905b8181101561149557846001600160a01b0316600b82815481106113c4576113c461403c565b6000918252602090912001546001600160a01b03160361148d57600b6113eb600184614137565b815481106113fb576113fb61403c565b600091825260209091200154600b80546001600160a01b0390921691839081106114275761142761403c565b9060005260206000200160006101000a8154816001600160a01b0302191690836001600160a01b03160217905550600b8054806114665761146661414a565b600082815260209020810160001990810180546001600160a01b0319169055019055611495565b60010161139f565b506040516001600160a01b038516907f09a1db4b80c32706328728508c941a6b954f31eb5affd32f236c1fd405f8fea490600090a250505050565b6114d8612f41565b47801561151b576005546040516001600160a01b039091169082156108fc029083906000818181858888f19350505050158015611519573d6000803e3d6000fd5b505b50565b60003361152c858285612fe5565b61153785858561304b565b60019150505b9392505050565b6000611570817f0000000000000000000000000000000000000000000000000000000000000000614160565b905090565b3360009081526015602052604090205460ff161580156115a057506005546001600160a01b03163314155b156115bd576040516282b42960e81b815260040160405180910390fd5b811580156115c9575080155b156115e75760405163162908e360e11b815260040160405180910390fd5b811561163a576116226001600160a01b037f0000000000000000000000000000000000000000000000000000000000000000163330856130aa565b8160076000828254611634919061408c565b90915550505b801561168d576116756001600160a01b037f0000000000000000000000000000000000000000000000000000000000000000163330846130aa565b8060086000828254611687919061408c565b90915550505b604080518381526020810183905233917fbe3fa47138efc08c52a1c62d79a4f0f1834fcb990b2bdcd62e673c3622bdd33f91015b60405180910390a25050565b6116d5612f41565b6002548110156117235760405162461bcd60e51b815260206004820152601460248201527342656c6f772063757272656e7420737570706c7960601b60448201526064015b60405180910390fd5b6b033b2e3c9fd0803ce800000081111561176a5760405162461bcd60e51b81526020600482015260086024820152670a8dede40d0d2ced60c31b604482015260640161171a565b600d55565b6014546001600160a01b03163314611799576040516282b42960e81b815260040160405180910390fd5b60138054601480546001600160a01b038082166001600160a01b031980861682178755909216909255600090815260156020526040808220805460ff1916600117905593549351928216939091169183917fc64707e618a83637fc41ad1e3aa4242bd5fdd353f3d60bc0faf40db0d7d8607891a350565b611818612f41565b610e10811015801561182d57506202a3008111155b6118675760405162461bcd60e51b815260206004820152600b60248201526a496e76616c69642061676560a81b604482015260640161171a565b600f55565b600b54606090819081908067ffffffffffffffff81111561188f5761188f614179565b6040519080825280602002602001820160405280156118b8578160200160208202803683370190505b5093508067ffffffffffffffff8111156118d4576118d4614179565b6040519080825280602002602001820160405280156118fd578160200160208202803683370190505b5092508067ffffffffffffffff81111561191957611919614179565b604051908082528060200260200182016040528015611942578160200160208202803683370190505b50915060005b81811015611acb57600b81815481106119635761196361403c565b9060005260206000200160009054906101000a90046001600160a01b03168582815181106119935761199361403c565b60200260200101906001600160a01b031690816001600160a01b03168152505060096000600b83815481106119ca576119ca61403c565b60009182526020808320909101546001600160a01b0316835282019290925260400190205460ff1615611ac357600b8181548110611a0a57611a0a61403c565b9060005260206000200160009054906101000a90046001600160a01b03166001600160a01b031663c4a7761e6040518163ffffffff1660e01b81526004016040805180830381865afa158015611a64573d6000803e3d6000fd5b505050506040513d601f19601f82011682018060405250810190611a889190614052565b858381518110611a9a57611a9a61403c565b60200260200101858481518110611ab357611ab361403c565b6020908102919091010191909152525b600101611948565b5050909192565b6000611adc613111565b601454600160a01b900460ff1615611b07576040516313d0ff5960e31b815260040160405180910390fd5b83158015611b13575082155b15611b315760405163162908e360e11b815260040160405180910390fd5b6001600160a01b038216611b585760405163d92e233d60e01b815260040160405180910390fd5b6000611b62612cd6565b90506000611b6e6121be565b90508515611bc357611bab6001600160a01b037f0000000000000000000000000000000000000000000000000000000000000000163330896130aa565b8560076000828254611bbd919061408c565b90915550505b8415611c1657611bfe6001600160a01b037f0000000000000000000000000000000000000000000000000000000000000000163330886130aa565b8460086000828254611c10919061408c565b90915550505b6000611c22878761114c565b9050611c2d60025490565b600003611c4857611c4181620138806140f6565b9350611c6a565b611c50610e18565b600254611c5d90836140f6565b611c679190614123565b93505b600d5484611c7760025490565b611c81919061408c565b1115611ca05760405163162908e360e11b815260040160405180910390fd5b611caa858561313b565b6040805188815260208101889052908101849052606081018390526080810182905260a0810185905233907f527388e4dad6def65deffcf72e615ac5b8b230c9972b404d6f5f5d29a96954ea9060c00160405180910390a250505061153d6001600655565b6013546001600160a01b03163314801590611d3557506005546001600160a01b03163314155b15611d52576040516282b42960e81b815260040160405180910390fd5b611d5a613111565b600c54600003611d9c5760405162461bcd60e51b815260206004820152600d60248201526c4e6f207374726174656769657360981b604482015260640161171a565b611daa600754600854613171565b42601255611db86001600655565b565b6000611dc4613111565b601454600160a01b900460ff1615611def576040516313d0ff5960e31b815260040160405180910390fd5b82600003611e105760405163162908e360e11b815260040160405180910390fd5b6001600160a01b038216611e375760405163d92e233d60e01b815260040160405180910390fd5b611e6c6001600160a01b037f0000000000000000000000000000000000000000000000000000000000000000163330866130aa565b8260076000828254611e7e919061408c565b9091555060009050611e90848261114c565b9050611e9b60025490565b15611ec457611ea8610e18565b600254611eb590836140f6565b611ebf9190614123565b611ed1565b611ed181620138806140f6565b9150600d5482611ee060025490565b611eea919061408c565b1115611f095760405163162908e360e11b815260040160405180910390fd5b611f13838361313b565b60408051858152602081018490526001600160a01b0385169133917fdcbc1c05240f31ff3ad067ef1ee35ce4997762752e3a095284754544f4c709d7910160405180910390a3506111216001600655565b611f6c612f41565b611db860006133c2565b611f7e612f41565b601091909155601155565b604080516002808252606082018352600092839291906020830190803683375050600e54825192935063ffffffff1691839150600090611fcb57611fcb61403c565b602002602001019063ffffffff16908163ffffffff1681525050600081600181518110611ffa57611ffa61403c565b63ffffffff9092166020928302919091019091015260405163883bdbfd60e01b81526000906001600160a01b037f0000000000000000000000000000000000000000000000000000000000000000169063883bdbfd9061205e90859060040161418f565b600060405180830381865afa15801561207b573d6000803e3d6000fd5b505050506040513d6000823e601f3d908101601f191682016040526120a391908101906142a6565b5090506000816000815181106120bb576120bb61403c565b6020026020010151826001815181106120d6576120d661403c565b60200260200101516120e89190614372565b600e549091506000906121019063ffffffff168361439f565b90506103e7198160020b13801561211c57506103e88160020b125b1561218b57670de0b6b3a76400006000612140600284900b655af3107a40006143dd565b9050600061214e828461440d565b90506000811161216657670de0b6b3a764000061217f565b61217f816ec097ce7bc90715b34b9f1000000000614123565b97505050505050505090565b612193613414565b94505050505090565b5050505090565b6000806121ae612cd6565b6121b66121be565b915091509091565b60008060008060007f00000000000000000000000000000000000000000000000000000000000000006001600160a01b031663feaf968c6040518163ffffffff1660e01b815260040160a060405180830381865afa158015612224573d6000803e3d6000fd5b505050506040513d601f19601f820116820180604052508101906122489190614454565b945094505093509350600083136122715760405162bfc92160e01b815260040160405180910390fd5b8160000361229257604051630cd5fa0760e11b815260040160405180910390fd5b8369ffffffffffffffffffff168169ffffffffffffffffffff1610156122cb57604051630cd5fa0760e11b815260040160405180910390fd5b600f546122d88342614137565b11156122f757604051630cd5fa0760e11b815260040160405180910390fd5b60007f00000000000000000000000000000000000000000000000000000000000000006001600160a01b031663313ce5676040518163ffffffff1660e01b8152600401602060405180830381865afa158015612357573d6000803e3d6000fd5b505050506040513d601f19601f8201168201806040525081019061237b91906144b5565b90506123888160126144d0565b61239390600a6145cd565b61239d90856140f6565b9550670d2f13f7789f00008610806123bc5750670e92596fd629000086115b156123d95760405162bfc92160e01b815260040160405180910390fd5b505050505090565b600060001960006123f1856126f3565b90506123ff33858388613532565b949350505050565b606060048054611091906140bc565b600080612423848461114c565b905061242e60025490565b156124575761243b610e18565b60025461244890836140f6565b6124529190614123565b612464565b61246481620138806140f6565b91509250929050565b600b818154811061247d57600080fd5b6000918252602090912001546001600160a01b0316905081565b60003361113581858561304b565b6000806124b0613111565b836000036124d15760405163162908e360e11b815260040160405180910390fd5b6001600160a01b0383166124f85760405163d92e233d60e01b815260040160405180910390fd5b3360009081526020819052604090205484111561252857604051631e9acf1760e31b815260040160405180910390fd5b6000612532610e18565b9050600061253f60025490565b905060008161254e88856140f6565b6125589190614123565b90506000828860075461256b91906140f6565b6125759190614123565b90506000838960085461258891906140f6565b6125929190614123565b905081965080955060006125a6838361114c565b9050838110156125eb5760006125bc8286614137565b90506000806125ca836135c4565b90925090506125d9828c61408c565b9a506125e5818b61408c565b99505050505b6125f5338b6137de565b82600760008282546126079190614137565b9250508190555081600860008282546126209190614137565b9091555050871561265f5761265f6001600160a01b037f0000000000000000000000000000000000000000000000000000000000000000168a8a613814565b8615612699576126996001600160a01b037f0000000000000000000000000000000000000000000000000000000000000000168a89613814565b604080518b8152602081018a905290810188905233907fd9c54d301d6668689a527e28d9849021b9227514f8ce8c57b95ca5dee5e60a2d9060600160405180910390a25050505050506126ec6001600655565b9250929050565b6000611121826001612f6e565b60008061270c83612bb2565b90508085111561273557828582604051633fa733bb60e21b815260040161171a939291906145dc565b60006127408661113f565b905061274f3386868985613845565b95945050505050565b600b5460609081908067ffffffffffffffff81111561277957612779614179565b6040519080825280602002602001820160405280156127a2578160200160208202803683370190505b5092508067ffffffffffffffff8111156127be576127be614179565b6040519080825280602002602001820160405280156127e7578160200160208202803683370190505b50915060005b818110156128bb57600b81815481106128085761280861403c565b9060005260206000200160009054906101000a90046001600160a01b03168482815181106128385761283861403c565b60200260200101906001600160a01b031690816001600160a01b031681525050600a6000600b838154811061286f5761286f61403c565b60009182526020808320909101546001600160a01b0316835282019290925260400190205483518490839081106128a8576128a861403c565b60209081029190910101526001016127ed565b50509091565b6000806128cd83612cb8565b9050808511156128f657828582604051632e52afbb60e21b815260040161171a939291906145dc565b600061290186611114565b905061274f338686848a613845565b6000611121826000612fb5565b6013546001600160a01b0316331480159061294357506005546001600160a01b03163314155b15612960576040516282b42960e81b815260040160405180910390fd5b6001600160a01b0382166129875760405163d92e233d60e01b815260040160405180910390fd5b6001600160a01b03821660009081526009602052604090205460ff16156129c15760405163c976754d60e01b815260040160405180910390fd5b600b546005116129e457604051631f62ca4f60e21b815260040160405180910390fd5b8015806129f2575061271081115b15612a105760405163585b926360e01b815260040160405180910390fd5b61271081600c54612a21919061408c565b1115612a405760405163585b926360e01b815260040160405180910390fd5b816001600160a01b031663392e53cd6040518163ffffffff1660e01b8152600401602060405180830381865afa158015612a7e573d6000803e3d6000fd5b505050506040513d601f19601f82011682018060405250810190612aa2919061409f565b612aee5760405162461bcd60e51b815260206004820152601860248201527f5374726174656779206e6f7420696e697469616c697a65640000000000000000604482015260640161171a565b6001600160a01b0382166000818152600960209081526040808320805460ff19166001908117909155600a9092528220849055600b8054918201815582527f0175b7a638427703f0dbe7bb9bbf987a2551717b34e79f33b5b1008d1fa01db90180546001600160a01b031916909217909155600c8054839290612b7290849061408c565b90915550506040518181526001600160a01b038316907f2f564a83158ad1831793ad3e69257b52f39ece5d49cb0d8746708ecb9ef964da906020016116c1565b6001600160a01b038116600090815260208190526040812054611121906000612f6e565b612bde612f41565b6001600160a01b038116612c055760405163d92e233d60e01b815260040160405180910390fd5b601480546001600160a01b0319166001600160a01b0392909216919091179055565b612c2f612f41565b63ffffffff81161580612c5d575061012c8163ffffffff1610158015612c5d5750611c208163ffffffff1611155b612c9c5760405162461bcd60e51b815260206004820152601060248201526f125b9d985b1a59081a5b9d195c9d985b60821b604482015260640161171a565b600e805463ffffffff191663ffffffff92909216919091179055565b6001600160a01b038116600090815260208190526040812054611121565b600080612ce16121be565b600e5490915060009063ffffffff1615612d6257306001600160a01b03166383189fa16040518163ffffffff1660e01b8152600401602060405180830381865afa925050508015612d4f575060408051601f3d908101601f19168201909252612d4c918101906145fd565b60015b612d5b57612d5b613414565b9050612d6d565b612d6a613414565b90505b670de0b6b3a7640000612d8083836140f6565b612d8a9190614123565b9250505090565b6000806000670de0b6b3a7640000612da7612cd6565b600754612db491906140f6565b612dbe9190614123565b9250670de0b6b3a7640000612dd16121be565b600854612dde91906140f6565b612de89190614123565b9150612df4828461408c565b9050909192565b612e03612f41565b6001600160a01b038116612e2d57604051631e4fbdf760e01b81526000600482015260240161171a565b61151b816133c2565b612e3e612f41565b7f00000000000000000000000000000000000000000000000000000000000000006001600160a01b0316836001600160a01b03161480612eaf57507f00000000000000000000000000000000000000000000000000000000000000006001600160a01b0316836001600160a01b0316145b15612f065760405162461bcd60e51b815260206004820152602160248201527f5573652077697468647261774475616c20666f72207661756c7420746f6b656e6044820152607360f81b606482015260840161171a565b6001600160a01b038116612f2d5760405163d92e233d60e01b815260040160405180910390fd5b61107d6001600160a01b0384168284613814565b6005546001600160a01b03163314611db85760405163118cdaa760e01b815233600482015260240161171a565b600061153d612f7b610e18565b612f8690600161408c565b612f926000600a6145cd565b600254612f9f919061408c565b85919085613905565b61107d8383836001613949565b600061153d612fc582600a6145cd565b600254612fd2919061408c565b612fda610e18565b612f9f90600161408c565b6001600160a01b0383811660009081526001602090815260408083209386168352929052205460001981101561107b578181101561303c57828183604051637dc7a0d960e11b815260040161171a939291906145dc565b61107b84848484036000613949565b6001600160a01b03831661307557604051634b637e8f60e11b81526000600482015260240161171a565b6001600160a01b03821661309f5760405163ec442f0560e01b81526000600482015260240161171a565b61107d838383613a10565b6040516001600160a01b03848116602483015283811660448301526064820183905261107b9186918216906323b872dd906084015b604051602081830303815290604052915060e01b6020820180516001600160e01b038381831617835250505050613b27565b60026006540361313457604051633ee5aeb560e01b815260040160405180910390fd5b6002600655565b6001600160a01b0382166131655760405163ec442f0560e01b81526000600482015260240161171a565b61151960008383613a10565b600c5460000361317f575050565b600061318b838361114c565b90508060000361319a57505050565b600b5460005b818110156133bb576000600b82815481106131bd576131bd61403c565b60009182526020808320909101546001600160a01b0316808352600990915260409091205490915060ff16801561320b57506001600160a01b0381166000908152600a602052604090205415155b156133b257600c546001600160a01b0382166000908152600a602052604081205490919061323990876140f6565b6132439190614123565b9050600080881161325557600061326a565b8561326089846140f6565b61326a9190614123565b9050600080881161327c576000613291565b8661328789856140f6565b6132919190614123565b90506007548211156132a35760075491505b6008548111156132b257506008545b60008211806132c15750600081115b156133ae57604051631c57762b60e31b815260048101839052602481018290526001600160a01b0385169063e2bbb158906044016020604051808303816000875af1158015613314573d6000803e3d6000fd5b505050506040513d601f19601f8201168201806040525081019061333891906145fd565b50816007600082825461334b9190614137565b9250508190555080600860008282546133649190614137565b909155505060408051838152602081018390526001600160a01b038616917ffe21ae5405b014c3a0c011f9950992ccc080a66a6ea082b33d35fb760c11ebe7910160405180910390a25b5050505b506001016131a0565b5050505050565b600580546001600160a01b038381166001600160a01b0319831681179093556040519116919082907f8be0079c531659141344cd1fd0a4f28419497f9722a3daafe3b4186f6b6457e090600090a35050565b6000807f00000000000000000000000000000000000000000000000000000000000000006001600160a01b0316633850c7bd6040518163ffffffff1660e01b815260040160e060405180830381865afa158015613475573d6000803e3d6000fd5b505050506040513d601f19601f820116820180604052508101906134999190614628565b50505050505090506000816001600160a01b0316826001600160a01b03166134c191906140f6565b9050600160c01b6000816134dd84670de0b6b3a76400006140f6565b6134e79190614123565b9050600081116134fe5766038d7ea4c68000613517565b613517816ec097ce7bc90715b34b9f1000000000614123565b94508460000361219c5766038d7ea4c6800094505050505090565b61355e7f00000000000000000000000000000000000000000000000000000000000000008530856130aa565b613568838261313b565b826001600160a01b0316846001600160a01b03167fdcbc1c05240f31ff3ad067ef1ee35ce4997762752e3a095284754544f4c709d784846040516135b6929190918252602082015260400190565b60405180910390a350505050565b600b546000908190815b818110156137d7576000600b82815481106135eb576135eb61403c565b60009182526020808320909101546001600160a01b0316808352600990915260409091205490915060ff1680156136225750600086115b156137ce57600080826001600160a01b031663c4a7761e6040518163ffffffff1660e01b81526004016040805180830381865afa158015613667573d6000803e3d6000fd5b505050506040513d601f19601f8201168201806040525081019061368b9190614052565b91509150600061369b838361114c565b905080156137ca57600c546001600160a01b0385166000908152600a60205260408120549091906136cc908c6140f6565b6136d69190614123565b905080156137c857604051632e1a7d4d60e01b81526004810182905260009081906001600160a01b03881690632e1a7d4d9060240160408051808303816000875af1158015613729573d6000803e3d6000fd5b505050506040513d601f19601f8201168201806040525081019061374d9190614052565b915091508160076000828254613763919061408c565b92505081905550806008600082825461377c919061408c565b9091555061378c9050828c61408c565b9a50613798818b61408c565b995060006137a6838361114c565b90508c8110156137bf576137ba818e614137565b6137c2565b60005b9c505050505b505b5050505b506001016135ce565b5050915091565b6001600160a01b03821661380857604051634b637e8f60e11b81526000600482015260240161171a565b61151982600083613a10565b6040516001600160a01b0383811660248301526044820183905261107d91859182169063a9059cbb906064016130df565b826001600160a01b0316856001600160a01b03161461386957613869838683612fe5565b61387383826137de565b61389e7f00000000000000000000000000000000000000000000000000000000000000008584613814565b826001600160a01b0316846001600160a01b0316866001600160a01b03167ffbde797d201c681b91056529119e0b02407c7bb96a4a2c75c01fc9667232c8db85856040516138f6929190918252602082015260400190565b60405180910390a45050505050565b600061393461391383613b98565b801561392f57506000848061392a5761392a61410d565b868809115b151590565b61393f868686613bc5565b61274f919061408c565b6001600160a01b0384166139735760405163e602df0560e01b81526000600482015260240161171a565b6001600160a01b03831661399d57604051634a1406b160e11b81526000600482015260240161171a565b6001600160a01b038085166000908152600160209081526040808320938716835292905220829055801561107b57826001600160a01b0316846001600160a01b03167f8c5be1e5ebec7d5bd14f71427d1e84f3dd0314c0f7b2291e5b200ac8c7c3b925846040516135b691815260200190565b6001600160a01b038316613a3b578060026000828254613a30919061408c565b90915550613a9a9050565b6001600160a01b03831660009081526020819052604090205481811015613a7b5783818360405163391434e360e21b815260040161171a939291906145dc565b6001600160a01b03841660009081526020819052604090209082900390555b6001600160a01b038216613ab657600280548290039055613ad5565b6001600160a01b03821660009081526020819052604090208054820190555b816001600160a01b0316836001600160a01b03167fddf252ad1be2c89b69c2b068fc378daa952ba7f163c4a11628f55a4df523b3ef83604051613b1a91815260200190565b60405180910390a3505050565b600080602060008451602086016000885af180613b4a576040513d6000823e3d81fd5b50506000513d91508115613b62578060011415613b6f565b6001600160a01b0384163b155b1561107b57604051635274afe760e01b81526001600160a01b038516600482015260240161171a565b60006002826003811115613bae57613bae6146be565b613bb891906146d4565b60ff166001149050919050565b6000806000613bd48686613c7a565b9150915081600003613bf957838181613bef57613bef61410d565b049250505061153d565b818411613c1057613c106003851502601118613c98565b6000848688096000868103871696879004966002600389028118808a02820302808a02820302808a02820302808a02820302808a02820302808a02909103029181900381900460010185841190960395909502919093039390930492909217029150509392505050565b60008060001983850993909202808410938190039390930393915050565b634e487b71600052806020526024601cfd5b6001600160a01b038116811461151b57600080fd5b600080600060608486031215613cd457600080fd5b8335613cdf81613caa565b95602085013595506040909401359392505050565b60006020808352835180602085015260005b81811015613d2257858101830151858201604001528201613d06565b506000604082860101526040601f19601f8301168501019250505092915050565b600060208284031215613d5557600080fd5b5035919050565b60008060408385031215613d6f57600080fd5b8235613d7a81613caa565b946020939093013593505050565b60008060408385031215613d9b57600080fd5b50508035926020909101359150565b801515811461151b57600080fd5b600060208284031215613dca57600080fd5b813561153d81613daa565b600060208284031215613de757600080fd5b813561153d81613caa565b600080600060608486031215613e0757600080fd5b8335613e1281613caa565b92506020840135613e2281613caa565b929592945050506040919091013590565b60008151808452602080850194506020840160005b83811015613e6d5781516001600160a01b031687529582019590820190600101613e48565b509495945050505050565b60008151808452602080850194506020840160005b83811015613e6d57815187529582019590820190600101613e8d565b606081526000613ebc6060830186613e33565b8281036020840152613ece8186613e78565b90508281036040840152613ee28185613e78565b9695505050505050565b600080600060608486031215613f0157600080fd5b83359250602084013591506040840135613f1a81613caa565b809150509250925092565b60008060408385031215613f3857600080fd5b823591506020830135613f4a81613caa565b809150509250929050565b600080600060608486031215613f6a57600080fd5b833592506020840135613f7c81613caa565b91506040840135613f1a81613caa565b604081526000613f9f6040830185613e33565b828103602084015261274f8185613e78565b600060208284031215613fc357600080fd5b813563ffffffff8116811461153d57600080fd5b60008060408385031215613fea57600080fd5b8235613ff581613caa565b91506020830135613f4a81613caa565b60008060006060848603121561401a57600080fd5b833561402581613caa565b9250602084013591506040840135613f1a81613caa565b634e487b7160e01b600052603260045260246000fd5b6000806040838503121561406557600080fd5b505080516020909101519092909150565b634e487b7160e01b600052601160045260246000fd5b8082018082111561112157611121614076565b6000602082840312156140b157600080fd5b815161153d81613daa565b600181811c908216806140d057607f821691505b6020821081036140f057634e487b7160e01b600052602260045260246000fd5b50919050565b808202811582820484141761112157611121614076565b634e487b7160e01b600052601260045260246000fd5b6000826141325761413261410d565b500490565b8181038181111561112157611121614076565b634e487b7160e01b600052603160045260246000fd5b60ff818116838216019081111561112157611121614076565b634e487b7160e01b600052604160045260246000fd5b6020808252825182820181905260009190848201906040850190845b818110156141cd57835163ffffffff16835292840192918401916001016141ab565b50909695505050505050565b604051601f8201601f1916810167ffffffffffffffff8111828210171561420257614202614179565b604052919050565b600067ffffffffffffffff82111561422457614224614179565b5060051b60200190565b600082601f83011261423f57600080fd5b8151602061425461424f8361420a565b6141d9565b8083825260208201915060208460051b87010193508684111561427657600080fd5b602086015b8481101561429b57805161428e81613caa565b835291830191830161427b565b509695505050505050565b600080604083850312156142b957600080fd5b825167ffffffffffffffff808211156142d157600080fd5b818501915085601f8301126142e557600080fd5b815160206142f561424f8361420a565b82815260059290921b8401810191818101908984111561431457600080fd5b948201945b838610156143425785518060060b81146143335760008081fd5b82529482019490820190614319565b9188015191965090935050508082111561435b57600080fd5b506143688582860161422e565b9150509250929050565b600682810b9082900b03667fffffffffffff198112667fffffffffffff8213171561112157611121614076565b60008160060b8360060b806143b6576143b661410d565b667fffffffffffff198214600019821416156143d4576143d4614076565b90059392505050565b80820260008212600160ff1b841416156143f9576143f9614076565b818105831482151761112157611121614076565b808201828112600083128015821682158216171561442d5761442d614076565b505092915050565b805169ffffffffffffffffffff8116811461444f57600080fd5b919050565b600080600080600060a0868803121561446c57600080fd5b61447586614435565b945060208601519350604086015192506060860151915061449860808701614435565b90509295509295909350565b805160ff8116811461444f57600080fd5b6000602082840312156144c757600080fd5b61153d826144a4565b60ff828116828216039081111561112157611121614076565b600181815b8085111561452457816000190482111561450a5761450a614076565b8085161561451757918102915b93841c93908002906144ee565b509250929050565b60008261453b57506001611121565b8161454857506000611121565b816001811461455e576002811461456857614584565b6001915050611121565b60ff84111561457957614579614076565b50506001821b611121565b5060208310610133831016604e8410600b84101617156145a7575081810a611121565b6145b183836144e9565b80600019048211156145c5576145c5614076565b029392505050565b600061153d60ff84168361452c565b6001600160a01b039390931683526020830191909152604082015260600190565b60006020828403121561460f57600080fd5b5051919050565b805161ffff8116811461444f57600080fd5b600080600080600080600060e0888a03121561464357600080fd5b875161464e81613caa565b8097505060208801518060020b811461466657600080fd5b955061467460408901614616565b945061468260608901614616565b935061469060808901614616565b925061469e60a089016144a4565b915060c08801516146ae81613daa565b8091505092959891949750929550565b634e487b7160e01b600052602160045260246000fd5b600060ff8316806146e7576146e761410d565b8060ff8416069150509291505056fea26469706673582212207a07a828e5c455169761e22b1831115f512e31a8a2cb46e6d52d608097a1f54164736f6c63430008160033","linkReferences":{}},"methodIdentifiers":{"MAX_STRATEGIES()":"767f06ae","UNISWAP_ROUTER()":"d8264920","USD1_PRICE_FEED()":"656a4b20","USD1_TOKEN()":"c6e831e8","WLFI_TOKEN()":"8ba17976","WLFI_USD1_POOL()":"96c1c433","_getTWAPPrice()":"83189fa1","acceptManager()":"48ff15b3","activeStrategies(address)":"2c178bd0","addStrategy(address,uint256)":"c9411e22","allowance(address,address)":"dd62ed3e","approve(address,uint256)":"095ea7b3","approveTokensToStrategy(address,uint256,uint256)":"05a4b97a","asset()":"38d52e0f","authorized(address)":"b9181611","balanceOf(address)":"70a08231","calculateUSDValue(uint256,uint256)":"119328d6","convertToAssets(uint256)":"07a2d13a","convertToShares(uint256)":"c6e6f592","decimals()":"313ce567","deploymentThreshold()":"a0317bd6","deposit(uint256,address)":"6e553f65","depositDual(uint256,uint256,address)":"5c272ef6","forceDeployToStrategies()":"68e5ce84","getCurrentPrices()":"852d0d6e","getStrategies()":"b49a60bb","getStrategyAssets()":"57fce5b7","getUSD1Price()":"89b12716","getVaultBalances()":"22370685","getVaultBalancesUSD()":"f06772ee","getWLFIPrice()":"ed84c5f3","injectCapital(uint256,uint256)":"386db353","lastDeployment()":"45650c07","lastRebalance()":"106b9ca1","manager()":"481c6a75","maxDeposit(address)":"402d267d","maxMint(address)":"c63d75b6","maxPriceAge()":"1584410a","maxRedeem(address)":"d905777e","maxTotalSupply()":"2ab4d052","maxWithdraw(address)":"ce96cb77","minDeploymentInterval()":"00cfdb09","mint(uint256,address)":"94bf804d","name()":"06fdde03","owner()":"8da5cb5b","paused()":"5c975abb","pendingManager()":"a00fff6f","previewDeposit(uint256)":"ef8b30f7","previewDepositDual(uint256,uint256)":"9699b63f","previewMint(uint256)":"b3d7f6b9","previewRedeem(uint256)":"4cdad506","previewWithdraw(uint256)":"0a28a477","redeem(uint256,address,address)":"ba087652","removeStrategy(address)":"175188e8","renounceOwnership()":"715018a6","rescueETH()":"20800a00","rescueToken(address,uint256,address)":"f8a67a62","setDeploymentParams(uint256,uint256)":"79f06d21","setManager(address)":"d0ebdbe7","setMaxPriceAge(uint256)":"56447ce8","setMaxTotalSupply(uint256)":"3f3e4c11","setPaused(bool)":"16c38b3c","setTWAPInterval(uint32)":"d88c1517","strategyList(uint256)":"a267526b","strategyWeights(address)":"7cd36844","symbol()":"95d89b41","totalAssets()":"01e1d114","totalStrategyWeight()":"98d3b209","totalSupply()":"18160ddd","transfer(address,uint256)":"a9059cbb","transferFrom(address,address,uint256)":"23b872dd","transferOwnership(address)":"f2fde38b","twapInterval()":"3c1d5df0","usd1Balance()":"055a2b58","withdraw(uint256,address,address)":"b460af94","withdrawDual(uint256,address)":"b09943c3","wlfiBalance()":"29ea1c0b"},"id":0}