{"abi":[{"type":"constructor","inputs":[{"name":"_token0","type":"address","internalType":"address"},{"name":"_token1","type":"address","internalType":"address"}],"stateMutability":"nonpayable"},{"type":"function","name":"fee","inputs":[],"outputs":[{"name":"","type":"uint24","internalType":"uint24"}],"stateMutability":"view"},{"type":"function","name":"increaseObservationCardinalityNext","inputs":[{"name":"observationCardinalityNext","type":"uint16","internalType":"uint16"}],"outputs":[],"stateMutability":"nonpayable"},{"type":"function","name":"observe","inputs":[{"name":"secondsAgos","type":"uint32[]","internalType":"uint32[]"}],"outputs":[{"name":"tickCumulatives","type":"int56[]","internalType":"int56[]"},{"name":"secondsPerLiquidityCumulativeX128s","type":"uint160[]","internalType":"uint160[]"}],"stateMutability":"view"},{"type":"function","name":"setSqrtPriceX96","inputs":[{"name":"newPrice","type":"uint160","internalType":"uint160"}],"outputs":[],"stateMutability":"nonpayable"},{"type":"function","name":"setTick","inputs":[{"name":"newTick","type":"int24","internalType":"int24"}],"outputs":[],"stateMutability":"nonpayable"},{"type":"function","name":"slot0","inputs":[],"outputs":[{"name":"sqrtPriceX96","type":"uint160","internalType":"uint160"},{"name":"tick","type":"int24","internalType":"int24"},{"name":"observationIndex","type":"uint16","internalType":"uint16"},{"name":"observationCardinality","type":"uint16","internalType":"uint16"},{"name":"observationCardinalityNext","type":"uint16","internalType":"uint16"},{"name":"feeProtocol","type":"uint8","internalType":"uint8"},{"name":"unlocked","type":"bool","internalType":"bool"}],"stateMutability":"view"},{"type":"function","name":"token0","inputs":[],"outputs":[{"name":"","type":"address","internalType":"address"}],"stateMutability":"view"},{"type":"function","name":"token1","inputs":[],"outputs":[{"name":"","type":"address","internalType":"address"}],"stateMutability":"view"}],"bytecode":{"object":"0x6080346100b557601f61052d38819003918201601f19168301916001600160401b038311848410176100ba5780849260409485528339810103126100b557610052602061004b836100d0565b92016100d0565b60018054600280546001600160b81b03199081166c0100000000000000000000000017909155600080546001600160a01b0319166001600160a01b0396871617905516929091169190911761027160a41b17905560405161044890816100e58239f35b600080fd5b634e487b7160e01b600052604160045260246000fd5b51906001600160a01b03821682036100b55756fe608060408181526004918236101561001657600080fd5b600092833560e01c9182630dfe1681146103705750816332148f671461034f5781633850c7bd146102fd578163883bdbfd1461014d578163c80b42901461010f578163c9c32f2a146100ce57508063d21220a7146100a65763ddca3f431461007d57600080fd5b346100a257816003193601126100a25760209062ffffff60015460a01c169051908152f35b5080fd5b50346100a257816003193601126100a25760015490516001600160a01b039091168152602090f35b8390346100a25760203660031901126100a257356001600160a01b038116908190036100a2576bffffffffffffffffffffffff60a01b600254161760025580f35b8390346100a25760203660031901126100a257358060020b81036100a2576002549060a01b62ffffff60a01b169062ffffff60a01b19161760025580f35b8284346102fa576020806003193601126100a25767ffffffffffffffff9184358381116100a257366023820112156100a257808601359384116100a25760249460053660248760051b850101116102f657929391909695946101b66101b1826103d0565b610394565b968188526101c3826103d0565b9684890195601f198099013688376101dd6101b1856103d0565b948486526101ea856103d0565b8688019a01368b37889160025460a01c60020b925b8681106102885750505050505050865196879681880191885251809152606087019390855b81811061026e57505050858303868301525180835291810193925b82811061024e57505050500390f35b83516001600160a01b03168552869550938101939281019260010161023f565b825160060b86528998509484019491840191600101610224565b84819d9e98999b9a9c9d831b8401013563ffffffff81168091036102f25760030b84028060060b9081036102e057906001918f826102c5916103e8565b528a6102d1828c6103e8565b52019c9b9a989997969c6101ff565b634e487b7160e01b8b5260118752858bfd5b8a80fd5b8380fd5b80fd5b5050346100a257816003193601126100a2578160e0926002549280519360018060a01b038116855260a01c60020b6020850152830152606460608301526064608083015260a0820152600160c0820152f35b8390346100a25760203660031901126100a2573561ffff8116036102fa5780f35b8490346100a257816003193601126100a25790546001600160a01b03168152602090f35b6040519190601f01601f1916820167ffffffffffffffff8111838210176103ba57604052565b634e487b7160e01b600052604160045260246000fd5b67ffffffffffffffff81116103ba5760051b60200190565b80518210156103fc5760209160051b010190565b634e487b7160e01b600052603260045260246000fdfea2646970667358221220caa71447a9cc0eb82f74541394f7c73c3f2d18cf3ad87239043d10d619f3b61264736f6c63430008160033","linkReferences":{}},"methodIdentifiers":{"fee()":"ddca3f43","increaseObservationCardinalityNext(uint16)":"32148f67","observe(uint32[])":"883bdbfd","setSqrtPriceX96(uint160)":"c9c32f2a","setTick(int24)":"c80b4290","slot0()":"3850c7bd","token0()":"0dfe1681","token1()":"d21220a7"},"id":26}