{"abi":[{"type":"constructor","inputs":[{"name":"_vault","type":"address","internalType":"address"},{"name":"_poolFactory","type":"address","internalType":"address"},{"name":"_wlfi","type":"address","internalType":"address"},{"name":"_usd1","type":"address","internalType":"address"},{"name":"_eagle","type":"address","internalType":"address"},{"name":"_owner","type":"address","internalType":"address"}],"stateMutability":"nonpayable"},{"type":"function","name":"addBasePoolLiquidity","inputs":[{"name":"wlfiAmount","type":"uint256","internalType":"uint256"},{"name":"usd1Amount","type":"uint256","internalType":"uint256"}],"outputs":[{"name":"bptOut","type":"uint256","internalType":"uint256"}],"stateMutability":"nonpayable"},{"type":"function","name":"addVaultPoolLiquidity","inputs":[{"name":"bpt1Amount","type":"uint256","internalType":"uint256"},{"name":"eagleAmount","type":"uint256","internalType":"uint256"}],"outputs":[{"name":"bptOut","type":"uint256","internalType":"uint256"}],"stateMutability":"nonpayable"},{"type":"function","name":"basePool","inputs":[],"outputs":[{"name":"","type":"address","internalType":"address"}],"stateMutability":"view"},{"type":"function","name":"basePoolId","inputs":[],"outputs":[{"name":"","type":"bytes32","internalType":"bytes32"}],"stateMutability":"view"},{"type":"function","name":"createBasePool","inputs":[{"name":"swapFee","type":"uint256","internalType":"uint256"}],"outputs":[{"name":"","type":"address","internalType":"address"},{"name":"","type":"bytes32","internalType":"bytes32"}],"stateMutability":"nonpayable"},{"type":"function","name":"createVaultPool","inputs":[{"name":"swapFee","type":"uint256","internalType":"uint256"}],"outputs":[{"name":"","type":"address","internalType":"address"},{"name":"","type":"bytes32","internalType":"bytes32"}],"stateMutability":"nonpayable"},{"type":"function","name":"eagle","inputs":[],"outputs":[{"name":"","type":"address","internalType":"address"}],"stateMutability":"view"},{"type":"function","name":"getBasePoolInfo","inputs":[],"outputs":[{"name":"pool","type":"address","internalType":"address"},{"name":"poolId","type":"bytes32","internalType":"bytes32"},{"name":"token0","type":"address","internalType":"address"},{"name":"token1","type":"address","internalType":"address"}],"stateMutability":"view"},{"type":"function","name":"getVaultPoolInfo","inputs":[],"outputs":[{"name":"pool","type":"address","internalType":"address"},{"name":"poolId","type":"bytes32","internalType":"bytes32"},{"name":"token0","type":"address","internalType":"address"},{"name":"token1","type":"address","internalType":"address"}],"stateMutability":"view"},{"type":"function","name":"owner","inputs":[],"outputs":[{"name":"","type":"address","internalType":"address"}],"stateMutability":"view"},{"type":"function","name":"poolFactory","inputs":[],"outputs":[{"name":"","type":"address","internalType":"contract IWeightedPoolFactory"}],"stateMutability":"view"},{"type":"function","name":"poolsCreated","inputs":[],"outputs":[{"name":"base","type":"bool","internalType":"bool"},{"name":"vaultPoolCreated","type":"bool","internalType":"bool"}],"stateMutability":"view"},{"type":"function","name":"renounceOwnership","inputs":[],"outputs":[],"stateMutability":"nonpayable"},{"type":"function","name":"transferOwnership","inputs":[{"name":"newOwner","type":"address","internalType":"address"}],"outputs":[],"stateMutability":"nonpayable"},{"type":"function","name":"usd1","inputs":[],"outputs":[{"name":"","type":"address","internalType":"address"}],"stateMutability":"view"},{"type":"function","name":"vault","inputs":[],"outputs":[{"name":"","type":"address","internalType":"contract IBalancerVault"}],"stateMutability":"view"},{"type":"function","name":"vaultPool","inputs":[],"outputs":[{"name":"","type":"address","internalType":"address"}],"stateMutability":"view"},{"type":"function","name":"vaultPoolId","inputs":[],"outputs":[{"name":"","type":"bytes32","internalType":"bytes32"}],"stateMutability":"view"},{"type":"function","name":"wlfi","inputs":[],"outputs":[{"name":"","type":"address","internalType":"address"}],"stateMutability":"view"},{"type":"event","name":"BasePoolCreated","inputs":[{"name":"pool","type":"address","indexed":true,"internalType":"address"},{"name":"poolId","type":"bytes32","indexed":true,"internalType":"bytes32"}],"anonymous":false},{"type":"event","name":"LiquidityAdded","inputs":[{"name":"poolId","type":"bytes32","indexed":true,"internalType":"bytes32"},{"name":"provider","type":"address","indexed":true,"internalType":"address"},{"name":"bptOut","type":"uint256","indexed":false,"internalType":"uint256"}],"anonymous":false},{"type":"event","name":"OwnershipTransferred","inputs":[{"name":"previousOwner","type":"address","indexed":true,"internalType":"address"},{"name":"newOwner","type":"address","indexed":true,"internalType":"address"}],"anonymous":false},{"type":"event","name":"VaultPoolCreated","inputs":[{"name":"pool","type":"address","indexed":true,"internalType":"address"},{"name":"poolId","type":"bytes32","indexed":true,"internalType":"bytes32"}],"anonymous":false},{"type":"error","name":"InsufficientBPT","inputs":[]},{"type":"error","name":"InvalidWeights","inputs":[]},{"type":"error","name":"OwnableInvalidOwner","inputs":[{"name":"owner","type":"address","internalType":"address"}]},{"type":"error","name":"OwnableUnauthorizedAccount","inputs":[{"name":"account","type":"address","internalType":"address"}]},{"type":"error","name":"PoolAlreadyCreated","inputs":[]},{"type":"error","name":"PoolNotCreated","inputs":[]},{"type":"error","name":"ZeroAddress","inputs":[]}],"bytecode":{"object":"0x610120346200020a57601f62001a7138819003918201601f1916830191906001600160401b038311848410176200020f578160c092859260409586528339810103126200020a57620000518262000225565b6200005f6020840162000225565b9060a06200006f84860162000225565b916200007e6060870162000225565b936200008d6080880162000225565b96620000a2600180861b039485920162000225565b16918215620001f257600080546001600160a01b031981168517825588519486939290918416907f8be0079c531659141344cd1fd0a4f28419497f9722a3daafe3b4186f6b6457e09080a316918215620001e357508216918215620001d25780841615620001d25780851615620001d257861615620001c15760805260a05260c05260e0526101009182525161183691826200023b83396080518281816101070152818161063c0152610dc2015260a0518281816104ca01528181610b6b0152611253015260c05182818161040b0152818161050e01528181610a430152610d19015260e0518281816103e90152818161048601528181610a220152610d7501525181818161021001528181610345015281816105ec01526111220152f35b845163d92e233d60e01b8152600490fd5b855163d92e233d60e01b8152600490fd5b63d92e233d60e01b8152600490fd5b8651631e4fbdf760e01b815260006004820152602490fd5b600080fd5b634e487b7160e01b600052604160045260246000fd5b51906001600160a01b03821682036200020a5756fe6040608081526004908136101561001557600080fd5b600091823560e01c9081630268ca82146110e25781630660cd3714610ccd5781630c19c4d1146109ea5781630f63cf0a146109c1578163154899991461055c578163329d91c31461053d5781633ebd5b2d146104f95781634219dc40146104b55781634504ffb1146104715781635211863f146103be5781636098356b14610317578163715018a6146102bd578163779756fa1461029f5781638da5cb5b14610277578163945164e71461023f578163c51fc0c0146101fb578163c531e24f146101d2578163f2fde38b1461013a575063fbfa77cf146100f457600080fd5b34610136578160031936011261013657517f00000000000000000000000000000000000000000000000000000000000000006001600160a01b03168152602090f35b5080fd5b919050346101ce5760203660031901126101ce576001600160a01b038235818116939192908490036101ca5761016e611769565b83156101b4575050600054826001600160601b0360a01b821617600055167f8be0079c531659141344cd1fd0a4f28419497f9722a3daafe3b4186f6b6457e0600080a380f35b51631e4fbdf760e01b8152908101849052602490fd5b8480fd5b8280fd5b50503461013657816003193601126101365760015490516001600160a01b039091168152602090f35b505034610136578160031936011261013657517f00000000000000000000000000000000000000000000000000000000000000006001600160a01b03168152602090f35b8284346102745780600319360112610274575060015460035482516001600160a01b0392831615158152911615156020820152f35b80fd5b505034610136578160031936011261013657905490516001600160a01b039091168152602090f35b9050346101ce57826003193601126101ce5760209250549051908152f35b83346102745780600319360112610274576102d6611769565b600080546001600160a01b0319811682556001600160a01b03167f8be0079c531659141344cd1fd0a4f28419497f9722a3daafe3b4186f6b6457e08280a380f35b919050346101ce57826003193601126101ce576103ab9060018060a01b0393846003541693549480600154167f00000000000000000000000000000000000000000000000000000000000000009182168110806000146103b75781935b50156103af5750915b516001600160a01b039485168152602081019590955283166040850152909116606083015281906080820190565b0390f35b90509161037d565b8293610374565b828434610274578060031936011261027457600154600254926001600160a01b03918216926103ab927f0000000000000000000000000000000000000000000000000000000000000000907f0000000000000000000000000000000000000000000000000000000000000000908281169082161080156103b757819350156103af575091516001600160a01b03948516815260208101959095528316604085015291909116606083015281906080820190565b505034610136578160031936011261013657517f00000000000000000000000000000000000000000000000000000000000000006001600160a01b03168152602090f35b505034610136578160031936011261013657517f00000000000000000000000000000000000000000000000000000000000000006001600160a01b03168152602090f35b505034610136578160031936011261013657517f00000000000000000000000000000000000000000000000000000000000000006001600160a01b03168152602090f35b5050346101365781600319360112610136576020906002549051908152f35b919050346101ce5761056d366113a4565b60035491946001600160a01b03928316156109b15760015484516323b872dd60e01b8082523388830190815230602082810191909152604082018b9052999196939192918a91839186169082908890829060600103925af1801561091457610994575b50855194855233878601908152306020820152604081018590527f0000000000000000000000000000000000000000000000000000000000000000831695908990829081906060010381878a5af1801561091457610977575b50600154865163095ea7b360e01b8082527f000000000000000000000000000000000000000000000000000000000000000085166001600160a01b0381168b8401908152602081018690529098939192918c91839188169082908a90829060400103925af1801561096d5788928c928c92610950575b508a519081526001600160a01b039093169083019081526020810188905282908190604001038188865af180156108e657610923575b506001548316101561091e57925b8551936106ef85611400565b6002855286368a87013761070285611456565b5261070c84611479565b528554928551631f29a8cd60e31b815284888201528381602481895afa90811561091457906107429185916108f0575b50611795565b9086519061076482610756838d8301611640565b03601f19810184528361141c565b875192610770846113ba565b8352898301528682015282606082015281600354169486519489866024816370a0823160e01b9a8b82528d33908301525afa9586156108e65785966108b7575b50813b156101ca579184916107df93838b8b519687958694859363172b958560e31b8552339130918601611663565b03925af180156108ad578892918491610894575b5050600354169360248651809681938252338a8301525afa9081156108895790610855575b6108229250611746565b91548151908382527f683099446c7fbe19cc3f41dfb6598bc59360e7ba13b94615ad8ebfc6600a7118853393a351908152f35b508482813d8311610882575b61086b818361141c565b8101031261087d576108229151610818565b600080fd5b503d610861565b8451903d90823e3d90fd5b6108a0919293506113ec565b61013657869082386107f3565b86513d85823e3d90fd5b9095508981813d83116108df575b6108cf818361141c565b8101031261087d575194386107b0565b503d6108c5565b88513d87823e3d90fd5b61090c91503d8087833e610904818361141c565b810190611545565b50503861073c565b87513d86823e3d90fd5b6106e3565b610942908a3d8c11610949575b61093a818361141c565b81019061152d565b50386106d5565b503d610930565b61096690843d86116109495761093a818361141c565b503861069f565b89513d88823e3d90fd5b61098d90893d8b116109495761093a818361141c565b5038610629565b6109aa90893d8b116109495761093a818361141c565b50386105d0565b50505051635ee4417160e01b8152fd5b50503461013657816003193601126101365760035490516001600160a01b039091168152602090f35b83915034610136576020906003198281360112610cc957610a09611769565b6001546001600160a01b0391908216610cb95783610b497f00000000000000000000000000000000000000000000000000000000000000007f00000000000000000000000000000000000000000000000000000000000000008582168682161015610cb457905b895191610a7c83611400565b600283528a368685013786610a9084611456565b9116905285610a9e83611479565b91169052885193610aae85611400565b600285528936858701376706f05b59d3b2000080610acb87611456565b52610ad586611479565b52610b58868a5416918b51968795869563fbce039360e01b875260c08c880152600f60c48801526e115859db194810985cd948141bdbdb608a1b60e488015261010060248801526008610104880152674250542d4241534560c01b61012488015261014060448801526101448701906114bc565b918583030160648601526114f9565b908735608484015260a4830152038188867f0000000000000000000000000000000000000000000000000000000000000000165af1908115610caa578591610c7d575b501683600154826001600160601b0360a01b821617600155161790828551809263038fff2d60e41b825281855afa928315610c73578493610c21575b60028490558551806103ab868681817f30c5a74d5e7d9d62554d40843c3aea83cb4874d90ce31178814096785a79b2c38c80a36001600160a01b0316835260208301526040820190565b9080959350813d8311610c6c575b610c39818361141c565b8101031261087d5792519092807f30c5a74d5e7d9d62554d40843c3aea83cb4874d90ce31178814096785a79b2c3610bd7565b503d610c2f565b85513d86823e3d90fd5b610c9d9150843d8611610ca3575b610c95818361141c565b81019061149d565b86610b9b565b503d610c8b565b86513d87823e3d90fd5b610a70565b8551630149ba8b60e11b81528390fd5b8380fd5b9050346101ce57610cdd366113a4565b909360018060a01b03928360015416156110d45784516323b872dd60e01b8082523383830190815230602082810191909152604082018a9052987f0000000000000000000000000000000000000000000000000000000000000000881697939092918a90829081906060010381898c5af1801561096d576110b7575b50875190815233848201908152306020820152604081018790527f0000000000000000000000000000000000000000000000000000000000000000841691908a9082908190606001038189865af1801561096d5761109a575b50875163095ea7b360e01b8082527f000000000000000000000000000000000000000000000000000000000000000085166001600160a01b03811687840190815260208101869052909992908c908290819060400103818b875af1801561109057611073575b5089519081526001600160a01b038916868201908152602081018990528b908290819060400103818a875af180156110695761104c575b50101561104757935b865194610e6486611400565b6002865287368a880137610e7786611456565b52610e8185611479565b52600254938651631f29a8cd60e31b8152858482015284816024818a5afa9081156108e65790610eb79186916110335750611795565b90875190610ecb82610756838d8301611640565b885192610ed7846113ba565b8352898301528782015283606082015281600154169587519589876024816370a0823160e01b9b8c8252338a8301525afa96871561096d578697611004575b50813b1561100057918591610f4493838b5180968195829463172b958560e31b8452339030908d8601611663565b03925af18015610914579088939291610fec575b50602490600154169587519687938492835233908301525afa9081156108895790610fbd575b610f889250611746565b906002548151908382527f683099446c7fbe19cc3f41dfb6598bc59360e7ba13b94615ad8ebfc6600a7118853393a351908152f35b508382813d8311610fe5575b610fd3818361141c565b8101031261087d57610f889151610f7e565b503d610fc9565b93610ff9602492956113ec565b9390610f58565b8580fd5b9096508981813d831161102c575b61101c818361141c565b8101031261100057519538610f16565b503d611012565b61090c91503d8088833e610904818361141c565b610e58565b611062908b3d8d116109495761093a818361141c565b5038610e4f565b8a513d89823e3d90fd5b611089908c8d3d106109495761093a818361141c565b5038610e18565b8b513d8a823e3d90fd5b6110b0908a3d8c116109495761093a818361141c565b5038610db2565b6110cd908a3d8c116109495761093a818361141c565b5038610d59565b8451635ee4417160e01b8152fd5b9050346101ce5760209160031983813601126101ca57611100611769565b6001546001600160a01b039190821680156109b15782600354166113945785907f0000000000000000000000000000000000000000000000000000000000000000928484168210600014611389579092610b4991845b87519261116284611400565b600284528836878601378761117685611456565b97168097528761118585611479565b9116905287519561119587611400565b600287528836878901370361135e57670853a0d2313c00006111b686611456565b5267058d15e1762800006111c986611479565b525b611240868b5416918851968795869563fbce039360e01b875260c08d880152601060c48801526f115859db194815985d5b1d08141bdbdb60821b60e488015261010060248801526009610104880152681094150b559055531560ba1b61012488015261014060448801526101448701906114bc565b908835608484015260a4830152038189867f0000000000000000000000000000000000000000000000000000000000000000165af1908115611337578691611341575b501691826001600160601b0360a01b6003541617600355815163038fff2d60e41b815284818381875afa948515611337578695611303575b8583558351806103ab888881817f9352b129f9b6d973233f41a53884213041fb0fb85e9052e75b14418c5c30a5068e80a36001600160a01b0316835260208301526040820190565b908092939550813d8311611330575b61131c818361141c565b810103126101ca57519290806103ab6112bb565b503d611312565b83513d88823e3d90fd5b6113589150853d8711610ca357610c95818361141c565b38611283565b67058d15e17628000061137086611456565b52670853a0d2313c000061138386611479565b526111cb565b610b49919081611156565b50505051630149ba8b60e11b8152fd5b604090600319011261087d576004359060243590565b6080810190811067ffffffffffffffff8211176113d657604052565b634e487b7160e01b600052604160045260246000fd5b67ffffffffffffffff81116113d657604052565b6060810190811067ffffffffffffffff8211176113d657604052565b90601f8019910116810190811067ffffffffffffffff8211176113d657604052565b67ffffffffffffffff81116113d65760051b60200190565b8051156114635760200190565b634e487b7160e01b600052603260045260246000fd5b8051600110156114635760400190565b80518210156114635760209160051b010190565b9081602091031261087d57516001600160a01b038116810361087d5790565b90815180825260208080930193019160005b8281106114dc575050505090565b83516001600160a01b0316855293810193928101926001016114ce565b90815180825260208080930193019160005b828110611519575050505090565b83518552938101939281019260010161150b565b9081602091031261087d5751801515810361087d5790565b909160608284031261087d5781519267ffffffffffffffff9384811161087d57830181601f8201121561087d5780516020916115808261143e565b9161158e604051938461141c565b808352838084019160051b8301019185831161087d578401905b82821061162157505050948185015190811161087d5784019180601f8401121561087d5782516115d78161143e565b936115e5604051958661141c565b818552838086019260051b82010192831161087d578301905b828210611612575050505060409092015190565b815181529083019083016115fe565b81516001600160a01b038116810361087d5781529084019084016115a8565b9190604061165e6000928386526060602087015260608601906114f9565b930152565b9093929193815260209360018060a01b039283809216868401521660408201526080606082015261010081019183519260808084015283518091528561012084019401916000905b8783831061172c57925050506116d3915084015192607f1993848483030160a08501526114f9565b926040810151928285030160c08301528251928385528560005b85811061171857506000868601909101525060600151151560e09190910152601f01601f1916010190565b8181840101518282890101520186906116ed565b8451821687529586019590930192600191909101906116ab565b9190820391821161175357565b634e487b7160e01b600052601160045260246000fd5b6000546001600160a01b0316330361177d57565b60405163118cdaa760e01b8152336004820152602490fd5b9081516117a18161143e565b906117af604051928361141c565b8082526117be601f199161143e565b013660208301378060005b84518110156117fa576001906001600160a01b036117e78288611489565b51166117f38286611489565b52016117c9565b5092505056fea264697066735822122075158d9d3c672ae6ba8f0e5e14e2daf3fd91ef72001824e40ac00b83f94918f764736f6c63430008160033","linkReferences":{}},"methodIdentifiers":{"addBasePoolLiquidity(uint256,uint256)":"0660cd37","addVaultPoolLiquidity(uint256,uint256)":"15489999","basePool()":"c531e24f","basePoolId()":"329d91c3","createBasePool(uint256)":"0c19c4d1","createVaultPool(uint256)":"0268ca82","eagle()":"c51fc0c0","getBasePoolInfo()":"5211863f","getVaultPoolInfo()":"6098356b","owner()":"8da5cb5b","poolFactory()":"4219dc40","poolsCreated()":"945164e7","renounceOwnership()":"715018a6","transferOwnership(address)":"f2fde38b","usd1()":"4504ffb1","vault()":"fbfa77cf","vaultPool()":"0f63cf0a","vaultPoolId()":"779756fa","wlfi()":"3ebd5b2d"},"id":4}