{"abi":[{"type":"constructor","inputs":[{"name":"_vault","type":"address","internalType":"address"},{"name":"_assetOFT","type":"address","internalType":"address"},{"name":"_shareOFT","type":"address","internalType":"address"}],"stateMutability":"nonpayable"},{"type":"receive","stateMutability":"payable"},{"type":"function","name":"ASSET_ERC20","inputs":[],"outputs":[{"name":"","type":"address","internalType":"address"}],"stateMutability":"view"},{"type":"function","name":"ASSET_OFT","inputs":[],"outputs":[{"name":"","type":"address","internalType":"address"}],"stateMutability":"view"},{"type":"function","name":"ENDPOINT","inputs":[],"outputs":[{"name":"","type":"address","internalType":"address"}],"stateMutability":"view"},{"type":"function","name":"SHARE_ERC20","inputs":[],"outputs":[{"name":"","type":"address","internalType":"address"}],"stateMutability":"view"},{"type":"function","name":"SHARE_OFT","inputs":[],"outputs":[{"name":"","type":"address","internalType":"address"}],"stateMutability":"view"},{"type":"function","name":"VAULT","inputs":[],"outputs":[{"name":"","type":"address","internalType":"contract IERC4626"}],"stateMutability":"view"},{"type":"function","name":"VAULT_EID","inputs":[],"outputs":[{"name":"","type":"uint32","internalType":"uint32"}],"stateMutability":"view"},{"type":"function","name":"depositAndSend","inputs":[{"name":"_assetAmount","type":"uint256","internalType":"uint256"},{"name":"_sendParam","type":"tuple","internalType":"struct SendParam","components":[{"name":"dstEid","type":"uint32","internalType":"uint32"},{"name":"to","type":"bytes32","internalType":"bytes32"},{"name":"amountLD","type":"uint256","internalType":"uint256"},{"name":"minAmountLD","type":"uint256","internalType":"uint256"},{"name":"extraOptions","type":"bytes","internalType":"bytes"},{"name":"composeMsg","type":"bytes","internalType":"bytes"},{"name":"oftCmd","type":"bytes","internalType":"bytes"}]},{"name":"_refundAddress","type":"address","internalType":"address"}],"outputs":[],"stateMutability":"payable"},{"type":"function","name":"handleCompose","inputs":[{"name":"_oftIn","type":"address","internalType":"address"},{"name":"_composeFrom","type":"bytes32","internalType":"bytes32"},{"name":"_composeMsg","type":"bytes","internalType":"bytes"},{"name":"_amount","type":"uint256","internalType":"uint256"}],"outputs":[],"stateMutability":"payable"},{"type":"function","name":"lzCompose","inputs":[{"name":"_composeSender","type":"address","internalType":"address"},{"name":"_guid","type":"bytes32","internalType":"bytes32"},{"name":"_message","type":"bytes","internalType":"bytes"},{"name":"","type":"address","internalType":"address"},{"name":"","type":"bytes","internalType":"bytes"}],"outputs":[],"stateMutability":"payable"},{"type":"function","name":"quoteSend","inputs":[{"name":"_from","type":"address","internalType":"address"},{"name":"_targetOFT","type":"address","internalType":"address"},{"name":"_vaultInAmount","type":"uint256","internalType":"uint256"},{"name":"_sendParam","type":"tuple","internalType":"struct SendParam","components":[{"name":"dstEid","type":"uint32","internalType":"uint32"},{"name":"to","type":"bytes32","internalType":"bytes32"},{"name":"amountLD","type":"uint256","internalType":"uint256"},{"name":"minAmountLD","type":"uint256","internalType":"uint256"},{"name":"extraOptions","type":"bytes","internalType":"bytes"},{"name":"composeMsg","type":"bytes","internalType":"bytes"},{"name":"oftCmd","type":"bytes","internalType":"bytes"}]}],"outputs":[{"name":"","type":"tuple","internalType":"struct MessagingFee","components":[{"name":"nativeFee","type":"uint256","internalType":"uint256"},{"name":"lzTokenFee","type":"uint256","internalType":"uint256"}]}],"stateMutability":"view"},{"type":"function","name":"redeemAndSend","inputs":[{"name":"_shareAmount","type":"uint256","internalType":"uint256"},{"name":"_sendParam","type":"tuple","internalType":"struct SendParam","components":[{"name":"dstEid","type":"uint32","internalType":"uint32"},{"name":"to","type":"bytes32","internalType":"bytes32"},{"name":"amountLD","type":"uint256","internalType":"uint256"},{"name":"minAmountLD","type":"uint256","internalType":"uint256"},{"name":"extraOptions","type":"bytes","internalType":"bytes"},{"name":"composeMsg","type":"bytes","internalType":"bytes"},{"name":"oftCmd","type":"bytes","internalType":"bytes"}]},{"name":"_refundAddress","type":"address","internalType":"address"}],"outputs":[],"stateMutability":"payable"},{"type":"event","name":"Deposited","inputs":[{"name":"sender","type":"bytes32","indexed":false,"internalType":"bytes32"},{"name":"recipient","type":"bytes32","indexed":false,"internalType":"bytes32"},{"name":"dstEid","type":"uint32","indexed":false,"internalType":"uint32"},{"name":"assetAmt","type":"uint256","indexed":false,"internalType":"uint256"},{"name":"shareAmt","type":"uint256","indexed":false,"internalType":"uint256"}],"anonymous":false},{"type":"event","name":"Redeemed","inputs":[{"name":"sender","type":"bytes32","indexed":false,"internalType":"bytes32"},{"name":"recipient","type":"bytes32","indexed":false,"internalType":"bytes32"},{"name":"dstEid","type":"uint32","indexed":false,"internalType":"uint32"},{"name":"shareAmt","type":"uint256","indexed":false,"internalType":"uint256"},{"name":"assetAmt","type":"uint256","indexed":false,"internalType":"uint256"}],"anonymous":false},{"type":"event","name":"Refunded","inputs":[{"name":"guid","type":"bytes32","indexed":true,"internalType":"bytes32"}],"anonymous":false},{"type":"event","name":"Sent","inputs":[{"name":"guid","type":"bytes32","indexed":true,"internalType":"bytes32"}],"anonymous":false},{"type":"error","name":"AssetTokenNotVaultAsset","inputs":[{"name":"assetERC20","type":"address","internalType":"address"},{"name":"vaultAsset","type":"address","internalType":"address"}]},{"type":"error","name":"ERC4626ExceededMaxDeposit","inputs":[{"name":"receiver","type":"address","internalType":"address"},{"name":"assets","type":"uint256","internalType":"uint256"},{"name":"max","type":"uint256","internalType":"uint256"}]},{"type":"error","name":"ERC4626ExceededMaxRedeem","inputs":[{"name":"owner","type":"address","internalType":"address"},{"name":"shares","type":"uint256","internalType":"uint256"},{"name":"max","type":"uint256","internalType":"uint256"}]},{"type":"error","name":"InsufficientMsgValue","inputs":[{"name":"expectedMsgValue","type":"uint256","internalType":"uint256"},{"name":"actualMsgValue","type":"uint256","internalType":"uint256"}]},{"type":"error","name":"NoMsgValueExpected","inputs":[]},{"type":"error","name":"OnlyEndpoint","inputs":[{"name":"caller","type":"address","internalType":"address"}]},{"type":"error","name":"OnlySelf","inputs":[{"name":"caller","type":"address","internalType":"address"}]},{"type":"error","name":"OnlyValidComposeCaller","inputs":[{"name":"caller","type":"address","internalType":"address"}]},{"type":"error","name":"ReentrancyGuardReentrantCall","inputs":[]},{"type":"error","name":"SafeERC20FailedOperation","inputs":[{"name":"token","type":"address","internalType":"address"}]},{"type":"error","name":"ShareOFTNotAdapter","inputs":[{"name":"shareOFT","type":"address","internalType":"address"}]},{"type":"error","name":"ShareTokenNotVault","inputs":[{"name":"shareERC20","type":"address","internalType":"address"},{"name":"vault","type":"address","internalType":"address"}]},{"type":"error","name":"SlippageExceeded","inputs":[{"name":"amountLD","type":"uint256","internalType":"uint256"},{"name":"minAmountLD","type":"uint256","internalType":"uint256"}]}],"bytecode":{"object":"0x6101606040523480156200001257600080fd5b506040516200216838038062002168833981016040819052620000359162000630565b60016000556001600160a01b03808416608052821660a081905260408051637e062a3560e11b8152905185928592859263fc0c546a916004808201926020929091908290030181865afa15801562000091573d6000803e3d6000fd5b505050506040513d601f19601f82011682018060405250810190620000b7919062000684565b6001600160a01b0390811660c052811660e081905260408051637e062a3560e11b8152905163fc0c546a916004808201926020929091908290030181865afa15801562000108573d6000803e3d6000fd5b505050506040513d601f19601f820116820180604052508101906200012e919062000684565b6001600160a01b0316610100816001600160a01b03168152505060a0516001600160a01b0316635e280f116040518163ffffffff1660e01b8152600401602060405180830381865afa15801562000189573d6000803e3d6000fd5b505050506040513d601f19601f82011682018060405250810190620001af919062000684565b6001600160a01b03166101208190526040805163416ecebf60e01b8152905163416ecebf916004808201926020929091908290030181865afa158015620001fa573d6000803e3d6000fd5b505050506040513d601f19601f82011682018060405250810190620002209190620006ab565b63ffffffff1661014052608051610100516001600160a01b039081169116146200027c576101005160805160405163070bc55b60e11b81526001600160a01b039283166004820152911660248201526044015b60405180910390fd5b6080516001600160a01b03166338d52e0f6040518163ffffffff1660e01b8152600401602060405180830381865afa158015620002bd573d6000803e3d6000fd5b505050506040513d601f19601f82011682018060405250810190620002e3919062000684565b6001600160a01b031660c0516001600160a01b031614620003955760c0516080516001600160a01b03166338d52e0f6040518163ffffffff1660e01b8152600401602060405180830381865afa15801562000342573d6000803e3d6000fd5b505050506040513d601f19601f8201168201806040525081019062000368919062000684565b60405163ba9d665f60e01b81526001600160a01b0392831660048201529116602482015260440162000273565b60e0516001600160a01b0316639f68b9646040518163ffffffff1660e01b8152600401602060405180830381865afa158015620003d6573d6000803e3d6000fd5b505050506040513d601f19601f82011682018060405250810190620003fc9190620006d3565b6200042a5760e051604051637e0a8a5760e11b81526001600160a01b03909116600482015260240162000273565b60c05160405163095ea7b360e01b81526001600160a01b03858116600483015260001960248301529091169063095ea7b3906044016020604051808303816000875af11580156200047f573d6000803e3d6000fd5b505050506040513d601f19601f82011682018060405250810190620004a59190620006d3565b506101005160405163095ea7b360e01b81526001600160a01b03838116600483015260001960248301529091169063095ea7b3906044016020604051808303816000875af1158015620004fc573d6000803e3d6000fd5b505050506040513d601f19601f82011682018060405250810190620005229190620006d3565b50816001600160a01b0316639f68b9646040518163ffffffff1660e01b8152600401602060405180830381865afa15801562000562573d6000803e3d6000fd5b505050506040513d601f19601f82011682018060405250810190620005889190620006d3565b156200060b5760c05160405163095ea7b360e01b81526001600160a01b03848116600483015260001960248301529091169063095ea7b3906044016020604051808303816000875af1158015620005e3573d6000803e3d6000fd5b505050506040513d601f19601f82011682018060405250810190620006099190620006d3565b505b505050505050620006f7565b6001600160a01b03811681146200062d57600080fd5b50565b6000806000606084860312156200064657600080fd5b8351620006538162000617565b6020850151909350620006668162000617565b6040850151909250620006798162000617565b809150509250925092565b6000602082840312156200069757600080fd5b8151620006a48162000617565b9392505050565b600060208284031215620006be57600080fd5b815163ffffffff81168114620006a457600080fd5b600060208284031215620006e657600080fd5b81518015158114620006a457600080fd5b60805160a05160c05160e051610100516101205161014051611992620007d6600039600081816102860152610eb10152600081816101de01526107c40152600081816102520152818161033d0152610f16015260008181610163015281816108430152610aba01526000818161012f015281816102e50152610f3c01526000818160c9015281816103870152818161075d0152818161080601528181610b720152610edd015260008181610197015281816103e0015281816104a4015281816105440152818161060301528181610e03015261105401526119926000f3fe6080604052600436106100ab5760003560e01c80636fad06f5116100645780636fad06f5146101cc5780637e6e1e10146102005780639a6b198c1461022d578063a99ecc5414610240578063aa72fe3f14610274578063d0a10260146102bd57600080fd5b80630bfec755146100b757806319197ec6146101085780631df34fa31461011d578063369caf8314610151578063411557d11461018557806353174fa4146101b957600080fd5b366100b257005b600080fd5b3480156100c357600080fd5b506100eb7f000000000000000000000000000000000000000000000000000000000000000081565b6040516001600160a01b0390911681526020015b60405180910390f35b61011b6101163660046112cc565b6102d0565b005b34801561012957600080fd5b506100eb7f000000000000000000000000000000000000000000000000000000000000000081565b34801561015d57600080fd5b506100eb7f000000000000000000000000000000000000000000000000000000000000000081565b34801561019157600080fd5b506100eb7f000000000000000000000000000000000000000000000000000000000000000081565b61011b6101c73660046112cc565b610328565b3480156101d857600080fd5b506100eb7f000000000000000000000000000000000000000000000000000000000000000081565b34801561020c57600080fd5b5061022061021b366004611323565b610371565b6040516100ff919061138b565b61011b61023b3660046113a2565b6106f5565b34801561024c57600080fd5b506100eb7f000000000000000000000000000000000000000000000000000000000000000081565b34801561028057600080fd5b506102a87f000000000000000000000000000000000000000000000000000000000000000081565b60405163ffffffff90911681526020016100ff565b61011b6102cb36600461144a565b6107b9565b6102d86109f4565b61030d6001600160a01b037f000000000000000000000000000000000000000000000000000000000000000016333086610a1e565b61031933848484610a8b565b6103236001600055565b505050565b6103306109f4565b6103656001600160a01b037f000000000000000000000000000000000000000000000000000000000000000016333086610a1e565b61031933848484610b43565b60408051808201909152600080825260208201527f00000000000000000000000000000000000000000000000000000000000000006001600160a01b0316846001600160a01b03160361052257604051636c82bbbf60e11b81526001600160a01b0386811660048301526000917f00000000000000000000000000000000000000000000000000000000000000009091169063d905777e90602401602060405180830381865afa158015610429573d6000803e3d6000fd5b505050506040513d601f19601f8201168201806040525081019061044d91906114e8565b90508084111561048e57604051632e52afbb60e21b81526001600160a01b038716600482015260248101859052604481018290526064015b60405180910390fd5b60405163266d6a8360e11b8152600481018590527f00000000000000000000000000000000000000000000000000000000000000006001600160a01b031690634cdad50690602401602060405180830381865afa1580156104f3573d6000803e3d6000fd5b505050506040513d601f19601f8201168201806040525081019061051791906114e8565b60408401525061067d565b60405163402d267d60e01b81526001600160a01b0386811660048301526000917f00000000000000000000000000000000000000000000000000000000000000009091169063402d267d90602401602060405180830381865afa15801561058d573d6000803e3d6000fd5b505050506040513d601f19601f820116820180604052508101906105b191906114e8565b9050808411156105ed57604051633c8097d960e11b81526001600160a01b03871660048201526024810185905260448101829052606401610485565b60405163ef8b30f760e01b8152600481018590527f00000000000000000000000000000000000000000000000000000000000000006001600160a01b03169063ef8b30f790602401602060405180830381865afa158015610652573d6000803e3d6000fd5b505050506040513d601f19601f8201168201806040525081019061067691906114e8565b6040840152505b604051633b6f743b60e01b81526001600160a01b03851690633b6f743b906106ac9085906000906004016115c7565b6040805180830381865afa1580156106c8573d6000803e3d6000fd5b505050506040513d601f19601f820116820180604052508101906106ec919061163a565b95945050505050565b3330146107165760405162a19dbf60e81b8152336004820152602401610485565b6000808380602001905181019061072d91906116ae565b915091508034101561075b57604051631f2dda7760e21b815260048101829052346024820152604401610485565b7f00000000000000000000000000000000000000000000000000000000000000006001600160a01b0316866001600160a01b0316036107a5576107a085848432610a8b565b6107b1565b6107b185848432610b43565b505050505050565b336001600160a01b037f00000000000000000000000000000000000000000000000000000000000000001614610804576040516391ac5e4f60e01b8152336004820152602401610485565b7f00000000000000000000000000000000000000000000000000000000000000006001600160a01b0316876001600160a01b03161415801561087857507f00000000000000000000000000000000000000000000000000000000000000006001600160a01b0316876001600160a01b031614155b156108a1576040516384fb3f0d60e01b81526001600160a01b0388166004820152602401610485565b60006108ad8686610bf0565b905060006108bb8787610c12565b905060006108c98888610c22565b60405163269ac66360e21b81529091503090639a6b198c9034906108f7908e9088908790899060040161179c565b6000604051808303818588803b15801561091057600080fd5b505af193505050508015610922575060015b6109bc573d808015610950576040519150601f19603f3d011682016040523d82523d6000602084013e610955565b606091505b50631f2dda7760e21b610967826117d4565b6001600160e01b0319160361097e57805181602001fd5b61098b8b8a8a8632610c6d565b6040518a907ffe509803c09416b28ff3d8f690c8b0c61462a892c46d5430c8fb20abe472daf090600090a2506109e8565b60405189907f27b5aea9f5736c02241d8a0272e9ec988ea44cf85c4b4760329431aa1967839490600090a25b50505050505050505050565b600260005403610a1757604051633ee5aeb560e01b815260040160405180910390fd5b6002600055565b6040516001600160a01b038481166024830152838116604483015260648201839052610a859186918216906323b872dd906084015b604051602081830303815290604052915060e01b6020820180516001600160e01b038381831617835250505050610d73565b50505050565b6000610a978585610de4565b9050610aa7818460600151610e79565b6040830181905260006060840152610ae07f00000000000000000000000000000000000000000000000000000000000000008484610ea8565b6020838101518451604080518981529384019290925263ffffffff169082015260608101859052608081018290527fa53b96f27930f89fac6e5802f6b77fcad303dde855a10e5ef076e730d1f43afa9060a0015b60405180910390a15050505050565b6000610b4f858561102e565b9050610b5f818460600151610e79565b6040830181905260006060840152610b987f00000000000000000000000000000000000000000000000000000000000000008484610ea8565b6020838101518451604080518981529384019290925263ffffffff169082015260608101859052608081018290527f57e232f18448926c8d7554dfd1851d4a4cd10d6b804aabcd714b1f1c067e50ee9060a001610b34565b6000610c00604c602c848661180b565b610c0991611835565b90505b92915050565b6000610c00602c600c848661180b565b6060610c3182604c818661180b565b8080601f016020809104026020016040519081016040528093929190818152602001838380828437600092019190915250929695505050505050565b610cb66040518060e00160405280600063ffffffff1681526020016000801916815260200160008152602001600081526020016060815260200160608152602001606081525090565b610cc0858561108b565b63ffffffff168152610cd28585610bf0565b60208083019190915260408083018590528051808201825234808252600093820193909352905163c7c7f5b360e01b81526001600160a01b0389169263c7c7f5b3929091610d269186918890600401611853565b60c06040518083038185885af1158015610d44573d6000803e3d6000fd5b50505050506040513d601f19601f82011682018060405250810190610d699190611898565b5050505050505050565b600080602060008451602086016000885af180610d96576040513d6000823e3d81fd5b50506000513d91508115610dae578060011415610dbb565b6001600160a01b0384163b155b15610a8557604051635274afe760e01b81526001600160a01b0385166004820152602401610485565b604051636e553f6560e01b8152600481018290523060248201526000907f00000000000000000000000000000000000000000000000000000000000000006001600160a01b031690636e553f65906044015b6020604051808303816000875af1158015610e55573d6000803e3d6000fd5b505050506040513d601f19601f82011682018060405250810190610c0991906114e8565b80821015610ea4576040516371c4efed60e01b81526004810183905260248101829052604401610485565b5050565b815163ffffffff7f00000000000000000000000000000000000000000000000000000000000000008116911603610fa15760007f00000000000000000000000000000000000000000000000000000000000000006001600160a01b0316846001600160a01b031614610f3a577f0000000000000000000000000000000000000000000000000000000000000000610f5c565b7f00000000000000000000000000000000000000000000000000000000000000005b90503415610f7d57604051637578d2bd60e01b815260040160405180910390fd5b610a85610f8b846020015190565b60408501516001600160a01b03841691906110ae565b6040805180820182523480825260006020830152915163c7c7f5b360e01b81526001600160a01b0386169263c7c7f5b3929091610fe49187918790600401611853565b60c06040518083038185885af1158015611002573d6000803e3d6000fd5b50505050506040513d601f19601f820116820180604052508101906110279190611898565b5050505050565b604051635d043b2960e11b815260048101829052306024820181905260448201526000907f00000000000000000000000000000000000000000000000000000000000000006001600160a01b03169063ba08765290606401610e36565b600061109b600c6008848661180b565b6110a49161192c565b60e01c9392505050565b6040516001600160a01b0383811660248301526044820183905261032391859182169063a9059cbb90606401610a53565b634e487b7160e01b600052604160045260246000fd5b60405160e0810167ffffffffffffffff81118282101715611118576111186110df565b60405290565b604051601f8201601f1916810167ffffffffffffffff81118282101715611147576111476110df565b604052919050565b63ffffffff8116811461116157600080fd5b50565b803561116f8161114f565b919050565b600067ffffffffffffffff82111561118e5761118e6110df565b50601f01601f191660200190565b600082601f8301126111ad57600080fd5b81356111c06111bb82611174565b61111e565b8181528460208386010111156111d557600080fd5b816020850160208301376000918101602001919091529392505050565b600060e0828403121561120457600080fd5b61120c6110f5565b905061121782611164565b8152602082013560208201526040820135604082015260608201356060820152608082013567ffffffffffffffff8082111561125257600080fd5b61125e8583860161119c565b608084015260a084013591508082111561127757600080fd5b6112838583860161119c565b60a084015260c084013591508082111561129c57600080fd5b506112a98482850161119c565b60c08301525092915050565b80356001600160a01b038116811461116f57600080fd5b6000806000606084860312156112e157600080fd5b83359250602084013567ffffffffffffffff8111156112ff57600080fd5b61130b868287016111f2565b92505061131a604085016112b5565b90509250925092565b6000806000806080858703121561133957600080fd5b611342856112b5565b9350611350602086016112b5565b925060408501359150606085013567ffffffffffffffff81111561137357600080fd5b61137f878288016111f2565b91505092959194509250565b815181526020808301519082015260408101610c0c565b600080600080608085870312156113b857600080fd5b6113c1856112b5565b935060208501359250604085013567ffffffffffffffff8111156113e457600080fd5b6113f08782880161119c565b949793965093946060013593505050565b60008083601f84011261141357600080fd5b50813567ffffffffffffffff81111561142b57600080fd5b60208301915083602082850101111561144357600080fd5b9250929050565b600080600080600080600060a0888a03121561146557600080fd5b61146e886112b5565b965060208801359550604088013567ffffffffffffffff8082111561149257600080fd5b61149e8b838c01611401565b90975095508591506114b260608b016112b5565b945060808a01359150808211156114c857600080fd5b506114d58a828b01611401565b989b979a50959850939692959293505050565b6000602082840312156114fa57600080fd5b5051919050565b60005b8381101561151c578181015183820152602001611504565b50506000910152565b6000815180845261153d816020860160208601611501565b601f01601f19169290920160200192915050565b63ffffffff81511682526020810151602083015260408101516040830152606081015160608301526000608082015160e0608085015261159460e0850182611525565b905060a083015184820360a08601526115ad8282611525565b91505060c083015184820360c08601526106ec8282611525565b6040815260006115da6040830185611551565b905082151560208301529392505050565b6000604082840312156115fd57600080fd5b6040516040810181811067ffffffffffffffff82111715611620576116206110df565b604052825181526020928301519281019290925250919050565b60006040828403121561164c57600080fd5b610c0983836115eb565b805161116f8161114f565b600082601f83011261167257600080fd5b81516116806111bb82611174565b81815284602083860101111561169557600080fd5b6116a6826020830160208701611501565b949350505050565b600080604083850312156116c157600080fd5b825167ffffffffffffffff808211156116d957600080fd5b9084019060e082870312156116ed57600080fd5b6116f56110f5565b6116fe83611656565b815260208301516020820152604083015160408201526060830151606082015260808301518281111561173057600080fd5b61173c88828601611661565b60808301525060a08301518281111561175457600080fd5b61176088828601611661565b60a08301525060c08301518281111561177857600080fd5b61178488828601611661565b60c08301525060209590950151949694955050505050565b60018060a01b03851681528360208201526080604082015260006117c36080830185611525565b905082606083015295945050505050565b805160208201516001600160e01b031980821692919060048310156118035780818460040360031b1b83161693505b505050919050565b6000808585111561181b57600080fd5b8386111561182857600080fd5b5050820193919092039150565b80356020831015610c0c57600019602084900360031b1b1692915050565b6080815260006118666080830186611551565b905061187f602083018580518252602090810151910152565b6001600160a01b03929092166060919091015292915050565b60008082840360c08112156118ac57600080fd5b60808112156118ba57600080fd5b506040516060810167ffffffffffffffff82821081831117156118df576118df6110df565b81604052855183526020860151915080821682146118fc57600080fd5b50602082015261190f85604086016115eb565b6040820152915061192384608085016115eb565b90509250929050565b6001600160e01b031981358181169160048510156119545780818660040360031b1b83161692505b50509291505056fea264697066735822122069f4b2d917d96d863313ac91cd41829e7875f9bc765132842c1bf5deb34b3da464736f6c63430008160033","linkReferences":{}},"methodIdentifiers":{"ASSET_ERC20()":"1df34fa3","ASSET_OFT()":"0bfec755","ENDPOINT()":"6fad06f5","SHARE_ERC20()":"a99ecc54","SHARE_OFT()":"369caf83","VAULT()":"411557d1","VAULT_EID()":"aa72fe3f","depositAndSend(uint256,(uint32,bytes32,uint256,uint256,bytes,bytes,bytes),address)":"19197ec6","handleCompose(address,bytes32,bytes,uint256)":"9a6b198c","lzCompose(address,bytes32,bytes,address,bytes)":"d0a10260","quoteSend(address,address,uint256,(uint32,bytes32,uint256,uint256,bytes,bytes,bytes))":"7e6e1e10","redeemAndSend(uint256,(uint32,bytes32,uint256,uint256,bytes,bytes,bytes),address)":"53174fa4"},"id":3}