{"abi":[{"type":"constructor","inputs":[{"name":"_vault","type":"address","internalType":"address"},{"name":"_assetOFT","type":"address","internalType":"address"},{"name":"_shareOFT","type":"address","internalType":"address"},{"name":"_wrapper","type":"address","internalType":"address"},{"name":"_registry","type":"address","internalType":"address"},{"name":"_delegate","type":"address","internalType":"address"}],"stateMutability":"nonpayable"},{"type":"function","name":"ASSET_ERC20","inputs":[],"outputs":[{"name":"","type":"address","internalType":"contract IERC20"}],"stateMutability":"view"},{"type":"function","name":"ASSET_OFT","inputs":[],"outputs":[{"name":"","type":"address","internalType":"address"}],"stateMutability":"view"},{"type":"function","name":"REGISTRY","inputs":[],"outputs":[{"name":"","type":"address","internalType":"contract IEagleRegistry"}],"stateMutability":"view"},{"type":"function","name":"SHARE_ERC20","inputs":[],"outputs":[{"name":"","type":"address","internalType":"contract IERC20"}],"stateMutability":"view"},{"type":"function","name":"SHARE_OFT","inputs":[],"outputs":[{"name":"","type":"address","internalType":"address"}],"stateMutability":"view"},{"type":"function","name":"VAULT","inputs":[],"outputs":[{"name":"","type":"address","internalType":"contract IERC4626"}],"stateMutability":"view"},{"type":"function","name":"VAULT_EID","inputs":[],"outputs":[{"name":"","type":"uint32","internalType":"uint32"}],"stateMutability":"view"},{"type":"function","name":"WRAPPER","inputs":[],"outputs":[{"name":"","type":"address","internalType":"contract IEagleVaultWrapper"}],"stateMutability":"view"},{"type":"function","name":"allowInitializePath","inputs":[{"name":"","type":"tuple","internalType":"struct Origin","components":[{"name":"srcEid","type":"uint32","internalType":"uint32"},{"name":"sender","type":"bytes32","internalType":"bytes32"},{"name":"nonce","type":"uint64","internalType":"uint64"}]}],"outputs":[{"name":"","type":"bool","internalType":"bool"}],"stateMutability":"pure"},{"type":"function","name":"depositAndSend","inputs":[{"name":"_assetAmount","type":"uint256","internalType":"uint256"},{"name":"_sendParam","type":"tuple","internalType":"struct SendParam","components":[{"name":"dstEid","type":"uint32","internalType":"uint32"},{"name":"to","type":"bytes32","internalType":"bytes32"},{"name":"amountLD","type":"uint256","internalType":"uint256"},{"name":"minAmountLD","type":"uint256","internalType":"uint256"},{"name":"extraOptions","type":"bytes","internalType":"bytes"},{"name":"composeMsg","type":"bytes","internalType":"bytes"},{"name":"oftCmd","type":"bytes","internalType":"bytes"}]},{"name":"_refundAddress","type":"address","internalType":"address"}],"outputs":[{"name":"receipt","type":"tuple","internalType":"struct MessagingReceipt","components":[{"name":"guid","type":"bytes32","internalType":"bytes32"},{"name":"nonce","type":"uint64","internalType":"uint64"},{"name":"fee","type":"tuple","internalType":"struct MessagingFee","components":[{"name":"nativeFee","type":"uint256","internalType":"uint256"},{"name":"lzTokenFee","type":"uint256","internalType":"uint256"}]}]},{"name":"oftReceipt","type":"bytes","internalType":"bytes"}],"stateMutability":"payable"},{"type":"function","name":"depositAndWrap","inputs":[{"name":"assets","type":"uint256","internalType":"uint256"},{"name":"receiver","type":"address","internalType":"address"}],"outputs":[{"name":"eagleAmount","type":"uint256","internalType":"uint256"}],"stateMutability":"nonpayable"},{"type":"function","name":"emergencyWithdraw","inputs":[{"name":"token","type":"address","internalType":"address"},{"name":"to","type":"address","internalType":"address"},{"name":"amount","type":"uint256","internalType":"uint256"}],"outputs":[],"stateMutability":"nonpayable"},{"type":"function","name":"endpoint","inputs":[],"outputs":[{"name":"","type":"address","internalType":"contract ILayerZeroEndpointV2"}],"stateMutability":"view"},{"type":"function","name":"getContracts","inputs":[],"outputs":[{"name":"vault","type":"address","internalType":"address"},{"name":"wrapper","type":"address","internalType":"address"},{"name":"eagle","type":"address","internalType":"address"},{"name":"asset","type":"address","internalType":"address"},{"name":"registry","type":"address","internalType":"address"}],"stateMutability":"view"},{"type":"function","name":"handleCompose","inputs":[{"name":"_oftIn","type":"address","internalType":"address"},{"name":"_composeFrom","type":"bytes32","internalType":"bytes32"},{"name":"_composeMsg","type":"bytes","internalType":"bytes"},{"name":"_amount","type":"uint256","internalType":"uint256"}],"outputs":[],"stateMutability":"payable"},{"type":"function","name":"lzCompose","inputs":[{"name":"_oapp","type":"address","internalType":"address"},{"name":"_guid","type":"bytes32","internalType":"bytes32"},{"name":"_message","type":"bytes","internalType":"bytes"},{"name":"_executor","type":"address","internalType":"address"},{"name":"_extraData","type":"bytes","internalType":"bytes"}],"outputs":[],"stateMutability":"payable"},{"type":"function","name":"nextNonce","inputs":[{"name":"","type":"uint32","internalType":"uint32"},{"name":"","type":"bytes32","internalType":"bytes32"}],"outputs":[{"name":"","type":"uint64","internalType":"uint64"}],"stateMutability":"pure"},{"type":"function","name":"oAppVersion","inputs":[],"outputs":[{"name":"senderVersion","type":"uint64","internalType":"uint64"},{"name":"receiverVersion","type":"uint64","internalType":"uint64"}],"stateMutability":"pure"},{"type":"function","name":"owner","inputs":[],"outputs":[{"name":"","type":"address","internalType":"address"}],"stateMutability":"view"},{"type":"function","name":"peers","inputs":[{"name":"eid","type":"uint32","internalType":"uint32"}],"outputs":[{"name":"peer","type":"bytes32","internalType":"bytes32"}],"stateMutability":"view"},{"type":"function","name":"previewDepositAndWrap","inputs":[{"name":"assets","type":"uint256","internalType":"uint256"}],"outputs":[{"name":"eagleAmount","type":"uint256","internalType":"uint256"}],"stateMutability":"view"},{"type":"function","name":"previewUnwrapAndRedeem","inputs":[{"name":"eagleAmount","type":"uint256","internalType":"uint256"}],"outputs":[{"name":"assets","type":"uint256","internalType":"uint256"}],"stateMutability":"view"},{"type":"function","name":"redeemAndSend","inputs":[{"name":"_eagleAmount","type":"uint256","internalType":"uint256"},{"name":"_sendParam","type":"tuple","internalType":"struct SendParam","components":[{"name":"dstEid","type":"uint32","internalType":"uint32"},{"name":"to","type":"bytes32","internalType":"bytes32"},{"name":"amountLD","type":"uint256","internalType":"uint256"},{"name":"minAmountLD","type":"uint256","internalType":"uint256"},{"name":"extraOptions","type":"bytes","internalType":"bytes"},{"name":"composeMsg","type":"bytes","internalType":"bytes"},{"name":"oftCmd","type":"bytes","internalType":"bytes"}]},{"name":"_refundAddress","type":"address","internalType":"address"}],"outputs":[{"name":"receipt","type":"tuple","internalType":"struct MessagingReceipt","components":[{"name":"guid","type":"bytes32","internalType":"bytes32"},{"name":"nonce","type":"uint64","internalType":"uint64"},{"name":"fee","type":"tuple","internalType":"struct MessagingFee","components":[{"name":"nativeFee","type":"uint256","internalType":"uint256"},{"name":"lzTokenFee","type":"uint256","internalType":"uint256"}]}]},{"name":"oftReceipt","type":"bytes","internalType":"bytes"}],"stateMutability":"payable"},{"type":"function","name":"renounceOwnership","inputs":[],"outputs":[],"stateMutability":"nonpayable"},{"type":"function","name":"setDelegate","inputs":[{"name":"_delegate","type":"address","internalType":"address"}],"outputs":[],"stateMutability":"nonpayable"},{"type":"function","name":"setPeer","inputs":[{"name":"_eid","type":"uint32","internalType":"uint32"},{"name":"_peer","type":"bytes32","internalType":"bytes32"}],"outputs":[],"stateMutability":"nonpayable"},{"type":"function","name":"transferOwnership","inputs":[{"name":"newOwner","type":"address","internalType":"address"}],"outputs":[],"stateMutability":"nonpayable"},{"type":"function","name":"unwrapAndRedeem","inputs":[{"name":"eagleAmount","type":"uint256","internalType":"uint256"},{"name":"receiver","type":"address","internalType":"address"}],"outputs":[{"name":"assets","type":"uint256","internalType":"uint256"}],"stateMutability":"nonpayable"},{"type":"event","name":"ComposerInitialized","inputs":[{"name":"vault","type":"address","indexed":false,"internalType":"address"},{"name":"assetOFT","type":"address","indexed":false,"internalType":"address"},{"name":"shareOFT","type":"address","indexed":false,"internalType":"address"},{"name":"wrapper","type":"address","indexed":false,"internalType":"address"},{"name":"registry","type":"address","indexed":false,"internalType":"address"}],"anonymous":false},{"type":"event","name":"Deposited","inputs":[{"name":"sender","type":"bytes32","indexed":false,"internalType":"bytes32"},{"name":"recipient","type":"bytes32","indexed":false,"internalType":"bytes32"},{"name":"dstEid","type":"uint32","indexed":false,"internalType":"uint32"},{"name":"assetAmt","type":"uint256","indexed":false,"internalType":"uint256"},{"name":"shareAmt","type":"uint256","indexed":false,"internalType":"uint256"}],"anonymous":false},{"type":"event","name":"DepositedAndWrapped","inputs":[{"name":"user","type":"address","indexed":true,"internalType":"address"},{"name":"assetsIn","type":"uint256","indexed":false,"internalType":"uint256"},{"name":"eagleOut","type":"uint256","indexed":false,"internalType":"uint256"}],"anonymous":false},{"type":"event","name":"OwnershipTransferred","inputs":[{"name":"previousOwner","type":"address","indexed":true,"internalType":"address"},{"name":"newOwner","type":"address","indexed":true,"internalType":"address"}],"anonymous":false},{"type":"event","name":"PeerSet","inputs":[{"name":"eid","type":"uint32","indexed":false,"internalType":"uint32"},{"name":"peer","type":"bytes32","indexed":false,"internalType":"bytes32"}],"anonymous":false},{"type":"event","name":"Redeemed","inputs":[{"name":"sender","type":"bytes32","indexed":false,"internalType":"bytes32"},{"name":"recipient","type":"bytes32","indexed":false,"internalType":"bytes32"},{"name":"dstEid","type":"uint32","indexed":false,"internalType":"uint32"},{"name":"shareAmt","type":"uint256","indexed":false,"internalType":"uint256"},{"name":"assetAmt","type":"uint256","indexed":false,"internalType":"uint256"}],"anonymous":false},{"type":"event","name":"Refunded","inputs":[{"name":"guid","type":"bytes32","indexed":true,"internalType":"bytes32"}],"anonymous":false},{"type":"event","name":"Sent","inputs":[{"name":"guid","type":"bytes32","indexed":true,"internalType":"bytes32"}],"anonymous":false},{"type":"event","name":"UnwrappedAndRedeemed","inputs":[{"name":"user","type":"address","indexed":true,"internalType":"address"},{"name":"eagleIn","type":"uint256","indexed":false,"internalType":"uint256"},{"name":"assetsOut","type":"uint256","indexed":false,"internalType":"uint256"}],"anonymous":false},{"type":"error","name":"InsufficientMsgValue","inputs":[{"name":"expectedMsgValue","type":"uint256","internalType":"uint256"},{"name":"actualMsgValue","type":"uint256","internalType":"uint256"}]},{"type":"error","name":"InvalidDelegate","inputs":[]},{"type":"error","name":"InvalidEndpointCall","inputs":[]},{"type":"error","name":"NoPeer","inputs":[{"name":"eid","type":"uint32","internalType":"uint32"}]},{"type":"error","name":"OnlyEndpoint","inputs":[{"name":"caller","type":"address","internalType":"address"}]},{"type":"error","name":"OnlyPeer","inputs":[{"name":"eid","type":"uint32","internalType":"uint32"},{"name":"sender","type":"bytes32","internalType":"bytes32"}]},{"type":"error","name":"OnlySelf","inputs":[{"name":"caller","type":"address","internalType":"address"}]},{"type":"error","name":"OnlyValidComposeCaller","inputs":[{"name":"caller","type":"address","internalType":"address"}]},{"type":"error","name":"OwnableInvalidOwner","inputs":[{"name":"owner","type":"address","internalType":"address"}]},{"type":"error","name":"OwnableUnauthorizedAccount","inputs":[{"name":"account","type":"address","internalType":"address"}]},{"type":"error","name":"ReentrancyGuardReentrantCall","inputs":[]},{"type":"error","name":"SafeERC20FailedOperation","inputs":[{"name":"token","type":"address","internalType":"address"}]},{"type":"error","name":"SlippageExceeded","inputs":[{"name":"amountLD","type":"uint256","internalType":"uint256"},{"name":"minAmountLD","type":"uint256","internalType":"uint256"}]},{"type":"error","name":"ZeroAddress","inputs":[]},{"type":"error","name":"ZeroAmount","inputs":[]}],"bytecode":{"object":"0x6101a08060405234620007315760009060c08162003033803803809162000027828562000736565b833981010312620005c8576200003d8162000770565b906200004c6020820162000770565b6200005a6040830162000770565b620000686060840162000770565b916200008560a06200007d6080870162000770565b950162000770565b60405163173c3a2960e21b8152906020826004816001600160a01b038a165afa918215620007005788926200070b575b5060405163b87f29e160e01b815261ffff9290921660048301526020826024816001600160a01b038a165afa91821562000700578892620006b8575b506001600160a01b03169081156200069f5787546001600160a01b03198116831789558892919082906001600160a01b03167f8be0079c531659141344cd1fd0a4f28419497f9722a3daafe3b4186f6b6457e08580a36001600160a01b03166080819052803b156200069b5760248392604051948593849263ca5eb5e160e01b845260048401525af1801562000690576200065f575b5060016002556001600160a01b038516156200064d576001600160a01b038116156200064d576001600160a01b038216156200064d576001600160a01b038316156200064d576001600160a01b038416156200064d576001600160a01b0385811660a081905260c083905260e0849052848216610100908152918616610120526040516338d52e0f60e01b815291979190602090829060049082905afa908115620005805782916200060b575b506001600160a01b039081166101605260a0518116610180526101205160405163173c3a2960e21b81529160209183916004918391165afa90811562000580578291620005d5575b506101205160405163eba8cf8d60e01b815261ffff929092166004830152602090829060249082906001600160a01b03165afa908115620005805782916200058b575b50610140526101605160405163095ea7b360e01b81526001600160a01b03888116600483015260001960248301529091602091839160449183918791165af1801562000580576200055c575b506101805160405163095ea7b360e01b81526001600160a01b0386811660048301526000196024830152909291602091849160449183918691165af19081156200055057509160a09593917f0416e8fd4dd08183848b8724c277ced3790c6bffa94c7461dd216506c05de0b09795936200051a575b50604080516000196001891b019687168152918616602083015291851691810191909152908316606082015291166080820152a16040516128779182620007bc83396080518281816103040152818161060901526117b9015260a05182818161069c0152818161082a01528181610bb801528181610f5e0152818161118f01528181611411015281816116c30152818161195001528181611bb90152611d5d015260c051828181610b61015281816119df0152611fff015260e0518281816106e90152818161085e01528181610beb01528181610e2b015281816111670152818161181901528181611bfd0152611d91015251818181610269015281816106c1015281816108ac01528181610c3c01528181610ea6015281816111de015281816114450152818161162d015281816118950152611de00152610120518181816107370152612042015261014051818181610a750152612746015261016051818181610710015281816107d601528181610fca01528181611cab0152611d03015261018051818181610aae01528181610e5801526118580152f35b620005409060203d60201162000548575b62000537818362000736565b810190620007a1565b503862000380565b503d6200052b565b604051903d90823e3d90fd5b620005789060203d602011620005485762000537818362000736565b50386200030b565b6040513d84823e3d90fd5b90506020813d602011620005cc575b81620005a96020938362000736565b81010312620005c8575163ffffffff81168103620005c85738620002bf565b5080fd5b3d91506200059a565b620005fc915060203d60201162000603575b620005f3818362000736565b81019062000785565b386200027c565b503d620005e7565b90506020813d60201162000644575b81620006296020938362000736565b81010312620005c8576200063d9062000770565b3862000234565b3d91506200061a565b60405163d92e233d60e01b8152600490fd5b9095906001600160401b0381116200067c57604052943862000187565b634e487b7160e01b82526041600452602482fd5b6040513d89823e3d90fd5b8280fd5b604051631e4fbdf760e01b815260048101899052602490fd5b9091506020813d602011620006f7575b81620006d76020938362000736565b81010312620006f357620006eb9062000770565b9038620000f1565b8780fd5b3d9150620006c8565b6040513d8a823e3d90fd5b6200072991925060203d6020116200060357620005f3818362000736565b9038620000b5565b600080fd5b601f909101601f19168101906001600160401b038211908210176200075a57604052565b634e487b7160e01b600052604160045260246000fd5b51906001600160a01b03821682036200073157565b9081602091031262000731575161ffff81168103620007315790565b90816020910312620007315751801515810362000731579056fe608060408181526004918236101561001657600080fd5b600092833560e01c91826306433b1b1461202e575081630bfec75514611fea57816317442b7014611fc857816319197ec614611cda5781631df34fa314611c965781633400288b14611c2c578163369caf8314611be8578163411557d114611ba457816353174fa4146117e85781635e280f11146117a457816366215063146115fd578163715018a6146115a35781637d25a05e1461157e57816387b7641d146113da5781638da5cb5b146113b257816393ab4051146111235781639a6b198c14610add578163a99ecc5414610a99578163aa72fe3f14610a58578163aaa97a0814610792578163bb0b6a531461075e578163c3a2a93a1461067b57838263ca5eb5e1146105db57508163d0a1026014610298578163e1eb13c114610254578163e63ea4081461020f578163f2fde38b1461017a575063ff7bd03d1461015b57600080fd5b34610176576060366003190112610176576020905160018152f35b5080fd5b90503461020b57602036600319011261020b57610195612087565b9061019e612622565b6001600160a01b039182169283156101f5575050600054826bffffffffffffffffffffffff60a01b821617600055167f8be0079c531659141344cd1fd0a4f28419497f9722a3daafe3b4186f6b6457e0600080a380f35b51631e4fbdf760e01b8152908101849052602490fd5b8280fd5b83346102515760603660031901126102515761024e61022c612087565b610234612071565b61023c612622565b604435916001600160a01b031661264e565b80f35b80fd5b505034610176578160031936011261017657517f00000000000000000000000000000000000000000000000000000000000000006001600160a01b03168152602090f35b905060a036600319011261020b576102ae612087565b50602435916001600160401b036044358181116105b0576102d290369085016121ca565b90916001600160a01b0391606435838116036105d6576084358281116105d2576102ff90369088016121ca565b5050827f00000000000000000000000000000000000000000000000000000000000000001633036105bc57879084019160a08584031261017657843581811603610176576020946103518682016121b9565b508681013594851680950361020b5760608101358281116105b45784610378918301612321565b9360808201358381116105b85761038f9201612321565b5082518301908582019187858203126105b457868501518281116105b85760e0908601809203126105b4578751916103c68361223b565b8782015163ffffffff811681036105b057835288820151888401526060820151938984019485526080830151606085015260a08301518281116105ac57818a6104119286010161268c565b608085015260c08301518281116105ac57818a6104309286010161268c565b60a085015260e08301519182116105b057886104509260c094010161268c565b9101525192303b156101765761048e9282918751948592839263269ac66360e21b8452858c8501526024840152608060448401526084830190612109565b866064830152038134305af19182610598575b505061056d576000903d15610568573d6104ba81612306565b906104c78651928361228c565b815287843d92013e5b83518381019163a9059cbb60e01b83523260248301526044820152604481526104f881612271565b519082805af11561055e576000513d610555575060003b155b61053e5750507ffe509803c09416b28ff3d8f690c8b0c61462a892c46d5430c8fb20abe472daf08280a280f35b9060006024925191635274afe760e01b8352820152fd5b60011415610511565b513d6000823e3d90fd5b6104d0565b505050507f27b5aea9f5736c02241d8a0272e9ec988ea44cf85c4b4760329431aa196783948280a280f35b6105a1906121f7565b6105ac5786386104a1565b8680fd5b8580fd5b8380fd5b8480fd5b84516391ac5e4f60e01b81523381880152602490fd5b8880fd5b600080fd5b80918434610677576020366003190112610677576105f7612087565b6105ff612622565b6001600160a01b037f00000000000000000000000000000000000000000000000000000000000000008116803b156105b0578592836024928651978895869463ca5eb5e160e01b865216908401525af190811561066e575061065e5750f35b610667906121f7565b6102515780f35b513d84823e3d90fd5b5050fd5b50503461017657816003193601126101765760a090600180831b03815191817f0000000000000000000000000000000000000000000000000000000000000000168352817f0000000000000000000000000000000000000000000000000000000000000000166020840152817f00000000000000000000000000000000000000000000000000000000000000001690830152807f00000000000000000000000000000000000000000000000000000000000000001660608301527f0000000000000000000000000000000000000000000000000000000000000000166080820152f35b505034610176576020366003190112610176578060209263ffffffff6107826121a6565b1681526001845220549051908152f35b83833461017657806003193601126101765782356107ae612071565b926107b761257d565b8115610a48576001600160a01b039484861615610a3a576107fa8330337f000000000000000000000000000000000000000000000000000000000000000061259e565b8351636e553f6560e01b8152818101848152306020828101919091529791939190889085908190604001038185857f0000000000000000000000000000000000000000000000000000000000000000165af1938415610a30578294610a01575b50807f000000000000000000000000000000000000000000000000000000000000000016928651946370a0823160e01b9283875230838801528a87602481895afa9687156109f75785976109c8575b507f00000000000000000000000000000000000000000000000000000000000000001690813b156105b8578491602483928b519485938492630ea598cb60e41b8452888401525af180156109be579084916109aa575b5050865191825230908201528781602481865afa91821561099f5791610970575b506109369261092e916122e3565b94859161264e565b815190815282848201527f454e165ca674eb6173be3191374e39833551c5732a6bcf1d6b05dbae1373c4e6823392a2600160025551908152f35b90508681813d8311610998575b610987818361228c565b810103126105d65751610936610920565b503d61097d565b8651903d90823e3d90fd5b6109b3906121f7565b61020b57828a6108ff565b88513d86823e3d90fd5b9096508a81813d83116109f0575b6109e0818361228c565b810103126105d65751958b6108a9565b503d6109d6565b89513d87823e3d90fd5b9093508781813d8311610a29575b610a19818361228c565b810103126105d65751928861085a565b503d610a0f565b86513d84823e3d90fd5b835163d92e233d60e01b8152fd5b8251631f2a200560e01b81528590fd5b5050346101765781600319360112610176576020905163ffffffff7f0000000000000000000000000000000000000000000000000000000000000000168152f35b505034610176578160031936011261017657517f00000000000000000000000000000000000000000000000000000000000000006001600160a01b03168152602090f35b9050608036600319011261020b57610af3612087565b906024803591604435946001600160401b039586811161111f57610b1a90369084016121ca565b92909660643593303303611109578801838982031261110557883591821161110557610b47918901612368565b956020809801358034106110e957506001600160a01b03907f00000000000000000000000000000000000000000000000000000000000000009082168282168103610e255750508251636e553f6560e01b815282810185815230602082015290929089908490819060400103818d867f0000000000000000000000000000000000000000000000000000000000000000165af1928315610e1b578a93610dec575b507f000000000000000000000000000000000000000000000000000000000000000095828716928b8651956370a0823160e01b9283885230868901528d8886818a5afa978815610de2578398610daf575b507f00000000000000000000000000000000000000000000000000000000000000001690813b1561020b5782918583928b519485938492630ea598cb60e41b84528b8401525af18015610da557908d9594939291610d88575b505086519485938492835230908301525afa908115610d7e578991610d37575b5060008051602061282283398151915297610cfb610cdb610d319796959463ffffffff946122e3565b958b60608b01610cec81518a6125f8565b88878d01525289329180612736565b8701519651169051958695869160809363ffffffff91979695929760a08501988552602085015216604083015260608201520152565b0390a180f35b905087818196959493963d8311610d77575b610d53818361228c565b810103126105d6575192939192909190600080516020612822833981519152610cb2565b503d610d49565b83513d8b823e3d90fd5b610d94919295506121f7565b610da1578a928c38610c92565b8b80fd5b88513d84823e3d90fd5b8e809299508194503d8311610ddb575b610dc9818361228c565b810103126105d6578d91519638610c39565b503d610dbf565b89513d85823e3d90fd5b9092508881813d8311610e14575b610e04818361228c565b810103126105d657519138610be8565b503d610dfa565b84513d8c823e3d90fd5b829391927f00000000000000000000000000000000000000000000000000000000000000001681146000146110d45750827f0000000000000000000000000000000000000000000000000000000000000000168451966370a0823160e01b9081895230848a01528b898281865afa9889156110ca578d9961109b575b508c867f000000000000000000000000000000000000000000000000000000000000000016803b1561017657818091848c8c519485938492636f074d1f60e11b84528c8401525af1801561109157908e94939291611074575b5050875180948193825230878301525afa90811561106a57908a92918c91611035575b50610f5897610f2b916122e3565b8551635d043b2960e11b815291820190815230602082018190526040820152909687918291606090910190565b03818c867f0000000000000000000000000000000000000000000000000000000000000000165af1948515610d7e578995610ff0575b5060008051602061280283398151915297610cfb610d31969594938963ffffffff948d60608301610fc081518c6125f8565b8a898501525232927f00000000000000000000000000000000000000000000000000000000000000001690612736565b94509291908785813d831161102e575b61100a818361228c565b810103126105d6579351939192909190600080516020612802833981519152610f8e565b503d611000565b8381999492503d8311611063575b61104d818361228c565b810103126105d657955190958991610f58610f1d565b503d611043565b85513d8d823e3d90fd5b611080919294506121f7565b61108d578b918d38610efa565b8c80fd5b89513d84823e3d90fd5b9098508b81813d83116110c3575b6110b3818361228c565b810103126105d657519738610ea1565b503d6110a9565b87513d8f823e3d90fd5b84516384fb3f0d60e01b815291820152859150fd5b8591506044935192631f2dda7760e21b84528301523490820152fd5b8980fd5b50509150519062a19dbf60e81b82523390820152fd5b8780fd5b838334610176578060031936011261017657823561113f612071565b61114761257d565b8115610a48576001600160a01b039481861615610a3a5761118c833033897f00000000000000000000000000000000000000000000000000000000000000001661259e565b857f0000000000000000000000000000000000000000000000000000000000000000168451926370a0823160e01b80855230848601526020988986602481875afa958615611379578996611383575b507f000000000000000000000000000000000000000000000000000000000000000016803b156105d25788809160248a5180948193636f074d1f60e11b83528c8b8401525af1801561137957908991611365575b5050865190815230848201528881602481865afa90811561135b57899493929189918291611324575b5061129e96611266916122e3565b8851635d043b2960e11b81529485019081526001600160a01b0390921660208301523060408301529294859384929091839160600190565b03925af193841561131957936112ea575b50815190815282848201527fcdf5ef377076b16893a81e93d592ed3c07b938053aaa8450baa5a2f407035407823392a2600160025551908152f35b9092508381813d8311611312575b611302818361228c565b810103126105d6575191846112af565b503d6112f8565b8351903d90823e3d90fd5b958092508691503d8311611354575b61133d818361228c565b810103126105d6579251889390889061129e611258565b503d611333565b87513d8a823e3d90fd5b61136e906121f7565b61111f57878a61122f565b88513d8b823e3d90fd5b9095508981813d83116113ab575b61139b818361228c565b810103126105d65751948a6111db565b503d611391565b505034610176578160031936011261017657905490516001600160a01b039091168152602090f35b90503461020b576020928360031936011261025157825163ef8b30f760e01b8152823583820152906001600160a01b0385836024817f000000000000000000000000000000000000000000000000000000000000000085165afa928315611574578293611545575b507f0000000000000000000000000000000000000000000000000000000000000000169284516367a5279360e01b815286818381885afa90811561153b57908791849161150a575b50611495908561254a565b9486519283809263e1f1c4a760e01b82525afa9182156114ff57916114d0575b506114c3906114c99361255d565b906122e3565b9051908152f35b90508481813d83116114f8575b6114e7818361228c565b810103126105d657516114c96114b5565b503d6114dd565b8551903d90823e3d90fd5b82819392503d8311611534575b611521818361228c565b810103126105d65751869061149561148a565b503d611517565b86513d85823e3d90fd5b9092508581813d831161156d575b61155d818361228c565b810103126105d657519138611442565b503d611553565b85513d84823e3d90fd5b5050346101765780600319360112610176579060209161159c6121a6565b5051908152f35b83346102515780600319360112610251576115bc612622565b600080546001600160a01b0319811682556001600160a01b03167f8be0079c531659141344cd1fd0a4f28419497f9722a3daafe3b4186f6b6457e08280a380f35b838334610176576020928360031936011261020b578151631d283f4f60e31b81526001600160a01b0391908135907f000000000000000000000000000000000000000000000000000000000000000084169087818581855afa9081156117675784929189918991611771575b50611674908561254a565b9187519384809263e1f1c4a760e01b82525afa918215611767579088949392918892611732575b50916114c36116ac9260249461255d565b918551948593849263266d6a8360e11b84528301527f0000000000000000000000000000000000000000000000000000000000000000165afa92831561172757926116f8575051908152f35b9091508281813d8311611720575b611710818361228c565b810103126105d65751908361159c565b503d611706565b8251903d90823e3d90fd5b858194969293503d8311611760575b61174b818361228c565b810103126105d65790518793916114c361169b565b503d611741565b86513d89823e3d90fd5b93505082813d831161179d575b611788818361228c565b810103126105d6578761167485935190611669565b503d61177e565b505034610176578160031936011261017657517f00000000000000000000000000000000000000000000000000000000000000006001600160a01b03168152602090f35b9190506117f43661209d565b929193906118006122ad565b5061180961257d565b6001600160a01b0361183f8630337f0000000000000000000000000000000000000000000000000000000000000000851661259e565b83516370a0823160e01b808252308286015260209491907f00000000000000000000000000000000000000000000000000000000000000008416908683602481855afa928315611b9a578b93611b6b575b508a857f000000000000000000000000000000000000000000000000000000000000000016803b156101765781809160248e8d519485938492636f074d1f60e11b84528c8401525af18015611b61579089939291611b44575b50506024895180948193825230888301525afa908115611b3a5790869392918b91611b07575b5061194a939161191e916122e3565b8751635d043b2960e11b8152838101918252306020830181905260408301529384918291606090910190565b03818c877f0000000000000000000000000000000000000000000000000000000000000000165af1918215611afd578992611acd575b5060c091926119936060860135856125f8565b61199d3686612368565b84888201528a60608201528751926119b484612220565b3484528b888501526119d989519a8b958694859463c7c7f5b360e01b86528501612498565b039134907f0000000000000000000000000000000000000000000000000000000000000000165af1948515611ac357611a779795611a7b575b50611a6590600080516020612802833981519152949596611a3284612539565b8751958695013533869160809363ffffffff91979695929760a08501988552602085015216604083015260608201520152565b0390a16001600255519182918261212e565b0390f35b60008051602061280283398151915294955090611ab2611a659260c03d60c011611abc575b611aaa818361228c565b810190612436565b5095945090611a12565b503d611aa0565b84513d89823e3d90fd5b91508482813d8311611af6575b611ae4818361228c565b810103126105d65760c0915191611980565b503d611ada565b86513d8b823e3d90fd5b84819592503d8311611b33575b611b1e818361228c565b810103126105d657915185929061194a61190f565b503d611b14565b87513d8c823e3d90fd5b611b50919293506121f7565b611b5d5786908b386118e9565b8a80fd5b8a513d84823e3d90fd5b9092508681813d8311611b93575b611b83818361228c565b810103126105d657519138611890565b503d611b79565b88513d8d823e3d90fd5b505034610176578160031936011261017657517f00000000000000000000000000000000000000000000000000000000000000006001600160a01b03168152602090f35b505034610176578160031936011261017657517f00000000000000000000000000000000000000000000000000000000000000006001600160a01b03168152602090f35b5050346101765780600319360112610176577f238399d427b947898edb290f5ff0f9109849b1c3ba196a42e35f00c50a54b98b90611c686121a6565b63ffffffff60243591611c79612622565b16908185526001602052808386205582519182526020820152a180f35b505034610176578160031936011261017657517f00000000000000000000000000000000000000000000000000000000000000006001600160a01b03168152602090f35b919050611ce63661209d565b92919390611cf26122ad565b50611cfb61257d565b611d278530337f000000000000000000000000000000000000000000000000000000000000000061259e565b8251636e553f6560e01b815282810186815230602082810191909152936001600160a01b03929185908390819060400103818c877f0000000000000000000000000000000000000000000000000000000000000000165af1918215611afd578992611f99575b50827f00000000000000000000000000000000000000000000000000000000000000001692898751936370a0823160e01b92838652308587015288866024818a5afa958615611f8f578396611f60575b507f000000000000000000000000000000000000000000000000000000000000000016803b1561020b57602483928b519485938492630ea598cb60e41b8452898401525af18015611b9a57611f4d575b50865190815230828201528581602481875afa908115611b3a578a91611f1f575b5060c092611e5b916122e3565b92611e6a6060860135856125f8565b611e743686612368565b84888201528a6060820152875192611e8b84612220565b3484528b88850152611eb089519a8b958694859463c7c7f5b360e01b86528501612498565b039134905af1948515611ac357611a779795611ee7575b50611a6590600080516020612822833981519152949596611a3284612539565b60008051602061282283398151915294955090611f15611a659260c03d60c011611abc57611aaa818361228c565b5095945090611ec7565b90508581813d8311611f46575b611f36818361228c565b810103126105d6575160c0611e4e565b503d611f2c565b611f59909a919a6121f7565b9838611e2d565b9095508881813d8311611f88575b611f78818361228c565b8101031261020b57519438611ddd565b503d611f6e565b8a513d85823e3d90fd5b9091508481813d8311611fc1575b611fb1818361228c565b810103126105d257519038611d8d565b503d611fa7565b8284346102515780600319360112610251575080516001815260016020820152f35b505034610176578160031936011261017657517f00000000000000000000000000000000000000000000000000000000000000006001600160a01b03168152602090f35b8490346101765781600319360112610176577f00000000000000000000000000000000000000000000000000000000000000006001600160a01b03168152602090f35b602435906001600160a01b03821682036105d657565b600435906001600160a01b03821682036105d657565b906003196060818401126105d65760043592602435916001600160401b0383116105d6578260e0920301126105d657600401906044356001600160a01b03811681036105d65790565b60005b8381106120f95750506000910152565b81810151838201526020016120e9565b90602091612122815180928185528580860191016120e6565b601f01601f1916010190565b919091825181526020604081946001600160401b0383820151168385015201518051604084015201516060820152608060a06080830152606051908160a084015260005b82811061219457505060c09293506000838284010152601f8019910116010190565b8181015184820160c001528501612172565b6004359063ffffffff821682036105d657565b359063ffffffff821682036105d657565b9181601f840112156105d6578235916001600160401b0383116105d657602083818601950101116105d657565b6001600160401b03811161220a57604052565b634e487b7160e01b600052604160045260246000fd5b604081019081106001600160401b0382111761220a57604052565b60e081019081106001600160401b0382111761220a57604052565b606081019081106001600160401b0382111761220a57604052565b608081019081106001600160401b0382111761220a57604052565b90601f801991011681019081106001600160401b0382111761220a57604052565b604051906122ba82612256565b81600081526000602082015260408051916122d483612220565b60008352600060208401520152565b919082039182116122f057565b634e487b7160e01b600052601160045260246000fd5b6001600160401b03811161220a57601f01601f191660200190565b81601f820112156105d65780359061233882612306565b92612346604051948561228c565b828452602083830101116105d657816000926020809301838601378301015290565b919060e0838203126105d657604051906123818261223b565b819361238c816121b9565b83526020810135602084015260408101356040840152606081013560608401526080810135916001600160401b03928381116105d657816123ce918401612321565b608085015260a08201358381116105d657816123eb918401612321565b60a085015260c08201359283116105d65760c0926124099201612321565b910152565b91908260409103126105d65760405161242681612220565b6020808294805184520151910152565b919082810360c081126105d6576080136105d6576040519061245782612256565b8351825260208401516001600160401b03811681036105d657826080916020612495950152612489836040880161240e565b6040820152940161240e565b90565b919392602061251d6060936080865263ffffffff81511660808701528281015160a0870152604081015160c08701528481015160e08701526124eb608082015160e0610100890152610160880190612109565b60c061250a60a084015192607f1993848b8303016101208c0152612109565b9201519087830301610140880152612109565b86518583015295015160408401526001600160a01b0316910152565b3563ffffffff811681036105d65790565b818102929181159184041417156122f057565b8115612567570490565b634e487b7160e01b600052601260045260246000fd5b600280541461258c5760028055565b604051633ee5aeb560e01b8152600490fd5b6040516323b872dd60e01b60208201526001600160a01b03928316602482015292909116604483015260648083019390935291815260a08101918183106001600160401b0384111761220a576125f6926040526126ce565b565b90808210612604575050565b60449250604051916371c4efed60e01b835260048301526024820152fd5b6000546001600160a01b0316330361263657565b60405163118cdaa760e01b8152336004820152602490fd5b60405163a9059cbb60e01b60208201526001600160a01b0390921660248301526044808301939093529181526125f69161268782612271565b6126ce565b81601f820112156105d65780516126a281612306565b926126b0604051948561228c565b818452602082840101116105d65761249591602080850191016120e6565b906000602091828151910182855af11561272a576000513d61272157506001600160a01b0381163b155b6126ff5750565b604051635274afe760e01b81526001600160a01b039091166004820152602490fd5b600114156126f8565b6040513d6000823e3d90fd5b9290919263ffffffff80855116907f0000000000000000000000000000000000000000000000000000000000000000161460001461278e5750506125f69160018060a01b03604081602084015116920151921661264e565b6040516127c99460c094506127a282612220565b3482526000602083015260405163c7c7f5b360e01b81529586948593849360048501612498565b039134906001600160a01b03165af1801561272a576127e55750565b6127fd9060c03d60c011611abc57611aaa818361228c565b505056fe57e232f18448926c8d7554dfd1851d4a4cd10d6b804aabcd714b1f1c067e50eea53b96f27930f89fac6e5802f6b77fcad303dde855a10e5ef076e730d1f43afaa2646970667358221220ce678a9caa8b54b9e90b28b3289bd369b487647aa82a4366ce9326d9a414c95464736f6c63430008160033","linkReferences":{}},"methodIdentifiers":{"ASSET_ERC20()":"1df34fa3","ASSET_OFT()":"0bfec755","REGISTRY()":"06433b1b","SHARE_ERC20()":"a99ecc54","SHARE_OFT()":"369caf83","VAULT()":"411557d1","VAULT_EID()":"aa72fe3f","WRAPPER()":"e1eb13c1","allowInitializePath((uint32,bytes32,uint64))":"ff7bd03d","depositAndSend(uint256,(uint32,bytes32,uint256,uint256,bytes,bytes,bytes),address)":"19197ec6","depositAndWrap(uint256,address)":"aaa97a08","emergencyWithdraw(address,address,uint256)":"e63ea408","endpoint()":"5e280f11","getContracts()":"c3a2a93a","handleCompose(address,bytes32,bytes,uint256)":"9a6b198c","lzCompose(address,bytes32,bytes,address,bytes)":"d0a10260","nextNonce(uint32,bytes32)":"7d25a05e","oAppVersion()":"17442b70","owner()":"8da5cb5b","peers(uint32)":"bb0b6a53","previewDepositAndWrap(uint256)":"87b7641d","previewUnwrapAndRedeem(uint256)":"66215063","redeemAndSend(uint256,(uint32,bytes32,uint256,uint256,bytes,bytes,bytes),address)":"53174fa4","renounceOwnership()":"715018a6","setDelegate(address)":"ca5eb5e1","setPeer(uint32,bytes32)":"3400288b","transferOwnership(address)":"f2fde38b","unwrapAndRedeem(uint256,address)":"93ab4051"},"id":18}