{"abi":[{"type":"constructor","inputs":[{"name":"_vaultAddress","type":"address","internalType":"address"},{"name":"_charmVault","type":"address","internalType":"address"},{"name":"_wlfi","type":"address","internalType":"address"},{"name":"_usd1","type":"address","internalType":"address"},{"name":"_uniswapRouter","type":"address","internalType":"address"},{"name":"_owner","type":"address","internalType":"address"}],"stateMutability":"nonpayable"},{"type":"function","name":"CHARM_VAULT_ADDRESS","inputs":[],"outputs":[{"name":"","type":"address","internalType":"address"}],"stateMutability":"view"},{"type":"function","name":"EAGLE_VAULT","inputs":[],"outputs":[{"name":"","type":"address","internalType":"address"}],"stateMutability":"view"},{"type":"function","name":"POOL_DESCRIPTION","inputs":[],"outputs":[{"name":"","type":"string","internalType":"string"}],"stateMutability":"view"},{"type":"function","name":"POOL_FEE","inputs":[],"outputs":[{"name":"","type":"uint24","internalType":"uint24"}],"stateMutability":"view"},{"type":"function","name":"UNISWAP_ROUTER","inputs":[],"outputs":[{"name":"","type":"address","internalType":"contract ISwapRouter"}],"stateMutability":"view"},{"type":"function","name":"USD1","inputs":[],"outputs":[{"name":"","type":"address","internalType":"contract IERC20"}],"stateMutability":"view"},{"type":"function","name":"WLFI","inputs":[],"outputs":[{"name":"","type":"address","internalType":"contract IERC20"}],"stateMutability":"view"},{"type":"function","name":"active","inputs":[],"outputs":[{"name":"","type":"bool","internalType":"bool"}],"stateMutability":"view"},{"type":"function","name":"charmVault","inputs":[],"outputs":[{"name":"","type":"address","internalType":"contract ICharmVault"}],"stateMutability":"view"},{"type":"function","name":"deposit","inputs":[{"name":"wlfiAmount","type":"uint256","internalType":"uint256"},{"name":"usd1Amount","type":"uint256","internalType":"uint256"}],"outputs":[{"name":"shares","type":"uint256","internalType":"uint256"}],"stateMutability":"nonpayable"},{"type":"function","name":"getShareBalance","inputs":[],"outputs":[{"name":"","type":"uint256","internalType":"uint256"}],"stateMutability":"view"},{"type":"function","name":"getTotalAmounts","inputs":[],"outputs":[{"name":"wlfiAmount","type":"uint256","internalType":"uint256"},{"name":"usd1Amount","type":"uint256","internalType":"uint256"}],"stateMutability":"view"},{"type":"function","name":"initializeApprovals","inputs":[],"outputs":[],"stateMutability":"nonpayable"},{"type":"function","name":"isInitialized","inputs":[],"outputs":[{"name":"","type":"bool","internalType":"bool"}],"stateMutability":"view"},{"type":"function","name":"lastRebalance","inputs":[],"outputs":[{"name":"","type":"uint256","internalType":"uint256"}],"stateMutability":"view"},{"type":"function","name":"maxSlippage","inputs":[],"outputs":[{"name":"","type":"uint256","internalType":"uint256"}],"stateMutability":"view"},{"type":"function","name":"owner","inputs":[],"outputs":[{"name":"","type":"address","internalType":"address"}],"stateMutability":"view"},{"type":"function","name":"pause","inputs":[],"outputs":[],"stateMutability":"nonpayable"},{"type":"function","name":"rebalance","inputs":[],"outputs":[],"stateMutability":"nonpayable"},{"type":"function","name":"renounceOwnership","inputs":[],"outputs":[],"stateMutability":"nonpayable"},{"type":"function","name":"rescueIdleTokens","inputs":[],"outputs":[],"stateMutability":"nonpayable"},{"type":"function","name":"rescueToken","inputs":[{"name":"token","type":"address","internalType":"address"},{"name":"amount","type":"uint256","internalType":"uint256"},{"name":"to","type":"address","internalType":"address"}],"outputs":[],"stateMutability":"nonpayable"},{"type":"function","name":"resume","inputs":[],"outputs":[],"stateMutability":"nonpayable"},{"type":"function","name":"setCharmVault","inputs":[{"name":"_charmVault","type":"address","internalType":"address"}],"outputs":[],"stateMutability":"nonpayable"},{"type":"function","name":"setTokenApproval","inputs":[{"name":"token","type":"address","internalType":"address"},{"name":"spender","type":"address","internalType":"address"},{"name":"amount","type":"uint256","internalType":"uint256"}],"outputs":[],"stateMutability":"nonpayable"},{"type":"function","name":"transferOwnership","inputs":[{"name":"newOwner","type":"address","internalType":"address"}],"outputs":[],"stateMutability":"nonpayable"},{"type":"function","name":"updateParameters","inputs":[{"name":"_maxSlippage","type":"uint256","internalType":"uint256"}],"outputs":[],"stateMutability":"nonpayable"},{"type":"function","name":"withdraw","inputs":[{"name":"value","type":"uint256","internalType":"uint256"}],"outputs":[{"name":"wlfiAmount","type":"uint256","internalType":"uint256"},{"name":"usd1Amount","type":"uint256","internalType":"uint256"}],"stateMutability":"nonpayable"},{"type":"event","name":"CharmVaultSet","inputs":[{"name":"charmVault","type":"address","indexed":true,"internalType":"address"}],"anonymous":false},{"type":"event","name":"OwnershipTransferred","inputs":[{"name":"previousOwner","type":"address","indexed":true,"internalType":"address"},{"name":"newOwner","type":"address","indexed":true,"internalType":"address"}],"anonymous":false},{"type":"event","name":"StrategyDeposit","inputs":[{"name":"wlfiAmount","type":"uint256","indexed":false,"internalType":"uint256"},{"name":"usd1Amount","type":"uint256","indexed":false,"internalType":"uint256"},{"name":"shares","type":"uint256","indexed":false,"internalType":"uint256"}],"anonymous":false},{"type":"event","name":"StrategyRebalanced","inputs":[{"name":"newTotal0","type":"uint256","indexed":false,"internalType":"uint256"},{"name":"newTotal1","type":"uint256","indexed":false,"internalType":"uint256"}],"anonymous":false},{"type":"event","name":"StrategyWithdraw","inputs":[{"name":"shares","type":"uint256","indexed":false,"internalType":"uint256"},{"name":"wlfiAmount","type":"uint256","indexed":false,"internalType":"uint256"},{"name":"usd1Amount","type":"uint256","indexed":false,"internalType":"uint256"}],"anonymous":false},{"type":"event","name":"TokensSwapped","inputs":[{"name":"tokenIn","type":"address","indexed":true,"internalType":"address"},{"name":"tokenOut","type":"address","indexed":true,"internalType":"address"},{"name":"amountIn","type":"uint256","indexed":false,"internalType":"uint256"},{"name":"amountOut","type":"uint256","indexed":false,"internalType":"uint256"}],"anonymous":false},{"type":"event","name":"UnusedTokensReturned","inputs":[{"name":"usd1Amount","type":"uint256","indexed":false,"internalType":"uint256"},{"name":"wlfiAmount","type":"uint256","indexed":false,"internalType":"uint256"}],"anonymous":false},{"type":"error","name":"InsufficientBalance","inputs":[]},{"type":"error","name":"NotInitialized","inputs":[]},{"type":"error","name":"OnlyVault","inputs":[]},{"type":"error","name":"OwnableInvalidOwner","inputs":[{"name":"owner","type":"address","internalType":"address"}]},{"type":"error","name":"OwnableUnauthorizedAccount","inputs":[{"name":"account","type":"address","internalType":"address"}]},{"type":"error","name":"ReentrancyGuardReentrantCall","inputs":[]},{"type":"error","name":"SafeERC20FailedOperation","inputs":[{"name":"token","type":"address","internalType":"address"}]},{"type":"error","name":"SlippageExceeded","inputs":[]},{"type":"error","name":"StrategyPaused","inputs":[]},{"type":"error","name":"ZeroAddress","inputs":[]}],"bytecode":{"object":"0x61010034620002a057601f62001ff038819003918201601f19168301916001600160401b03831184841017620002a55780849260c094604052833981010312620002a0576200004e81620002bb565b906200005d60208201620002bb565b6200006b60408301620002bb565b916200007a60608201620002bb565b6200009660a06200008e60808501620002bb565b9301620002bb565b60016000908155956001600160a01b039591861680156200028757600180546001600160a01b031981168317909155604051919088167f8be0079c531659141344cd1fd0a4f28419497f9722a3daafe3b4186f6b6457e08a80a36101f46003558682161580156200027c575b801562000271575b801562000266575b620002575750608052841660c052831660a052821660e05216908162000213575b42600455604051611d1f9081620002d182396080518181816101df01528181610485015281816106c5015281816107a60152818161098a01528181610ec40152818161148c015281816114be01528181611641015281816117ba0152611865015260a05181818161025e0152818161089e01528181610a5f0152818161127f015281816117ff01528181611a1b0152611c24015260c0518181816102090152818161085b01528181610a0501528181611224015281816118aa01528181611a3f0152611c00015260e05181818161053101528181610a2e0152611b260152f35b600280546001600160a81b0319168317600160a01b1790557f5ed0587a2d4eba645c1cb06b4918a10e8bc79013f1cf3b66394ddf27eba2f5d39080a2388062000133565b63d92e233d60e01b8152600490fd5b508685161562000112565b50868416156200010a565b508683161562000102565b604051631e4fbdf760e01b815260048101899052602490fd5b600080fd5b634e487b7160e01b600052604160045260246000fd5b51906001600160a01b0382168203620002a05756fe60806040908082526004918236101561001757600080fd5b600091823560e01c90816302fb0c5e14610c3157508063046f7da214610be2578063106b9ca114610bc4578063175fadbe14610ad65780631de2885714610ab357806327f8eaac146109ea5780632e1a7d4d14610975578063392e53cd146109335780633ec66202146108cd578063443863211461088a5780635e787f1914610847578063715018a6146107ea5780637d7c2a1c146107915780638390a650146107635780638456cb591461073a5780638c04166f1461071c5780638da5cb5b146106f4578063a0b660b5146106b1578063bc6840f914610630578063bf214acd1461058a578063c4a7761e14610560578063d82649201461051d578063dd1b9c4a14610501578063e2bbb15814610472578063e6ff0a2f1461044a578063f2fde38b146103ba578063f88163a3146101c25763f8a67a621461015957600080fd5b346101be5760603660031901126101be57610172610c55565b90604435906001600160a01b03908183168084036101ba57610192611903565b156101ab57506101a89394506024359216611c51565b80f35b5163d92e233d60e01b81528590fd5b8580fd5b5080fd5b508290346103b657826003193601126103b6576001600160a01b037f000000000000000000000000000000000000000000000000000000000000000081811633036103a7577f00000000000000000000000000000000000000000000000000000000000000008351916370a0823160e01b808452308785015260209687856024818988165afa94851561039d579088918a96610368575b5060247f000000000000000000000000000000000000000000000000000000000000000093895198899384928352309083015285165afa94851561035e57889561032b575b508190841593858515938461031a575b505050858015159384610309575b50505091610301575b506102ce578480f35b7f4f3aef3cf11fd9405846420fd580666c49868d4f5c814b48ec46092b91a1b9cb938351928352820152a1818080808480f35b9050866102c5565b61031292611c51565b8885816102bc565b61032392611c51565b8985846102ae565b9094508681813d8311610357575b6103438183610cbf565b810103126103535751938161029e565b8780fd5b503d610339565b86513d8a823e3d90fd5b8281939297503d8311610396575b6103808183610cbf565b8101031261039257879051948a610259565b8880fd5b503d610376565b87513d8b823e3d90fd5b505051638d1af8bd60e01b8152fd5b8280fd5b5082346103b65760203660031901126103b6576103d5610c55565b906103de611903565b6001600160a01b03918216928315610434575050600154826bffffffffffffffffffffffff60a01b821617600155167f8be0079c531659141344cd1fd0a4f28419497f9722a3daafe3b4186f6b6457e08380a380f35b51631e4fbdf760e01b8152908101849052602490fd5b50346101be57816003193601126101be5760025490516001600160a01b039091168152602090f35b50346101be57806003193601126101be577f00000000000000000000000000000000000000000000000000000000000000006001600160a01b031633036104f25760ff60025460a01c16156104e35760016104db6020946104d16119e2565b60243590356111ff565b925551908152f35b5163e628b94960e01b81529050fd5b51638d1af8bd60e01b81529050fd5b50346101be57816003193601126101be57602090516127108152f35b50346101be57816003193601126101be57517f00000000000000000000000000000000000000000000000000000000000000006001600160a01b03168152602090f35b5090346105875780600319360112610587575061057b611064565b82519182526020820152f35b80fd5b5082346103b657826003193601126103b6578151908282019082821067ffffffffffffffff83111761061d57508252600c81526020906b555344312f574c464920312560a01b6020820152825193849260208452825192836020860152825b84811061060757505050828201840152601f01601f19168101030190f35b81810183015188820188015287955082016105e9565b634e487b7160e01b855260419052602484fd5b5082346103b65760203660031901126103b65761064b610c55565b610653611903565b6001600160a01b03169182156106a4575050600280546001600160a81b0319168217600160a01b1790557f5ed0587a2d4eba645c1cb06b4918a10e8bc79013f1cf3b66394ddf27eba2f5d38280a280f35b5163d92e233d60e01b8152fd5b50346101be57816003193601126101be57517f00000000000000000000000000000000000000000000000000000000000000006001600160a01b03168152602090f35b50346101be57816003193601126101be5760015490516001600160a01b039091168152602090f35b50346101be57816003193601126101be576020906003549051908152f35b8234610587578060031936011261058757610753611903565b6002805460ff60a01b1916905580f35b50346101be57816003193601126101be57602090517322828dbf15f5fba2394ba7cf8fa9a96bdb444b718152f35b508290346103b657826003193601126103b6577f00000000000000000000000000000000000000000000000000000000000000006001600160a01b031633036107dd57826101a8611015565b51638d1af8bd60e01b8152fd5b8234610587578060031936011261058757610803611903565b600180546001600160a01b0319811690915581906001600160a01b03167f8be0079c531659141344cd1fd0a4f28419497f9722a3daafe3b4186f6b6457e08280a380f35b50346101be57816003193601126101be57517f00000000000000000000000000000000000000000000000000000000000000006001600160a01b03168152602090f35b50346101be57816003193601126101be57517f00000000000000000000000000000000000000000000000000000000000000006001600160a01b03168152602090f35b5082346103b65760203660031901126103b6578035916108eb611903565b6103e883116108fc57505060035580f35b906020606492519162461bcd60e51b835282015260116024820152700a6d8d2e0e0c2ceca40e8dede40d0d2ced607b1b6044820152fd5b50346101be57816003193601126101be576020906002549060ff8260a01c169182610962575b50519015158152f35b6001600160a01b03161515915083610959565b5091346101be5760203660031901126101be577f00000000000000000000000000000000000000000000000000000000000000006001600160a01b031633036109dc576109cc6001916109c66119e2565b35610ddd565b9190925582519182526020820152f35b8251638d1af8bd60e01b8152fd5b8234610587578060031936011261058757610a03611903565b7f00000000000000000000000000000000000000000000000000000000000000006001600160a01b037f0000000000000000000000000000000000000000000000000000000000000000811690610a5a828461192f565b610a857f0000000000000000000000000000000000000000000000000000000000000000928361192f565b80600254169283610a94578480f35b610aab93610aa19161192f565b600254169061192f565b818080808480f35b50346101be57816003193601126101be57602090610acf610ce1565b9051908152f35b50346101be5760603660031901126101be57610af0610c55565b6024356001600160a01b038181169391928484036101ba57610b10611903565b825163095ea7b360e01b60208083018281526001600160a01b039790971660248401526044803581850152835291959390921693928790610b52606488610cbf565b86519082875af186513d82610ba8575b505015610b6d578580f35b610b9f94610b9a9251916020830152602482015285604482015260448152610b9481610ca3565b82611c8d565b611c8d565b81808080808580f35b909150610bbc5750823b15155b8780610b62565b600114610bb5565b5082346103b657826003193601126103b65760209250549051908152f35b5082346103b657826003193601126103b657610bfc611903565b600254916001600160a01b03831615610c2457505060ff60a01b1916600160a01b1760025580f35b516321c4e35760e21b8152fd5b8390346101be57816003193601126101be5760209060ff60025460a01c1615158152f35b600435906001600160a01b0382168203610c6b57565b600080fd5b610100810190811067ffffffffffffffff821117610c8d57604052565b634e487b7160e01b600052604160045260246000fd5b6080810190811067ffffffffffffffff821117610c8d57604052565b90601f8019910116810190811067ffffffffffffffff821117610c8d57604052565b6002546001600160a01b03168015610d5e576020602491604051928380926370a0823160e01b82523060048301525afa908115610d5257600091610d23575090565b90506020813d602011610d4a575b81610d3e60209383610cbf565b81010312610c6b575190565b3d9150610d31565b6040513d6000823e3d90fd5b50600090565b91908201809211610d7157565b634e487b7160e01b600052601160045260246000fd5b81810292918115918404141715610d7157565b8115610da4570490565b634e487b7160e01b600052601260045260246000fd5b91908203918211610d7157565b9190826040910312610c6b576020825192015190565b801561100c576002546001600160a01b03929083169182156110025760409283516370a0823160e01b8152306004820152602081602481855afa908115610ff757600091610fc5575b508015610fb95790610e71610e669392610e66610e41611064565b909583610e4e8389610d64565b91828110610f9f5750610e6b91508098898094610d87565b610d9a565b95610d87565b9160035492612710938403848111610d715784610e9f828a97610e98600095608498610d87565b0494610d87565b04938551998a95869463d331bef760e01b8652896004870152602486015260448501527f00000000000000000000000000000000000000000000000000000000000000001660648401525af1908115610f9457600094600092610f40575b509251928352602083018190526040830184905292917f9b4015fbfa21a538378486da76932c7362cc536aa85cc6d6ddbe3a41fec4f6da9080606081015b0390a1565b610f849195507f9b4015fbfa21a538378486da76932c7362cc536aa85cc6d6ddbe3a41fec4f6da9250843d8611610f8d575b610f7c8183610cbf565b810190610dc7565b94909491610efd565b503d610f72565b83513d6000823e3d90fd5b610e6b92610e66610fb09284610d87565b98898094610d87565b50600094508493505050565b906020823d602011610fef575b81610fdf60209383610cbf565b8101031261058757505138610e26565b3d9150610fd2565b85513d6000823e3d90fd5b5060009250829150565b50600090600090565b6002546001600160a01b031615611062577fea234a6aeb16b402d7b401a7a7acf39d7871be5134e4392193eccfda0be6201e6040611051611064565b4260045582519182526020820152a1565b565b60025460ff8160a01c161580156111d6575b61100c57604080516370a0823160e01b8152306004820152602093926001600160a01b03168482602481845afa918215610f94576000926111a7575b508115611129578251636253bb0f60e11b8152948386600481855afa91821561119c57600096600093611171575b5090806004928651938480926318160ddd60e01b82525afa9485156111675750600094611136575b505082156111295781610e6b84610e666111269695610e6695610d87565b90565b5050509050600090600090565b8181959293953d8311611160575b61114e8183610cbf565b81010312610587575051913880611108565b503d611144565b513d6000823e3d90fd5b82975060049291935061119090863d8811610f8d57610f7c8183610cbf565b979097939192506110e0565b84513d6000823e3d90fd5b90918582813d83116111cf575b6111be8183610cbf565b8101031261058757505190386110b2565b503d6111b4565b506001600160a01b03811615611076565b90816020910312610c6b57518015158103610c6b5790565b6002546001600160a01b039291908316156118f15780611856575b50806117ab575b507f000000000000000000000000000000000000000000000000000000000000000091818316916040938451936370a0823160e01b9586865260049130838801526020908188602481845afa978815610f945760009861177c575b507f0000000000000000000000000000000000000000000000000000000000000000868116988997848c60248851809c81938252308c8301525afa9889156116165760009961174d575b50811580611745575b6117345786868260025416815192838092636253bb0f60e11b82525afa90811561154b578c916000918291611714575b508015158061170b575b156116fd5790610e6661131c9286610d87565b92838b10611621576113308194809c610dba565b8061159f575b5050509060a46060925b6002541699600088519b8c94859363365d0ed760e01b85528c85015260248401528160448401528160648401523060848401525af195861561119c5760009586988798611556575b5060249b85889c88519e8f809285825230878301525afa9c8d1561154b5760009d61151b575b50906024869288519687938492835230908301525afa928315610ff7576000936114ea575b50998285949392610f3b979693837fe92d6d2dfb3946d2655ac9a4ed7e724c4bcf0d2d993c5ab9b70e9a4785bd20559c9d9e811593841592836114b8575b50508215159283611486575b50509161147e575b5061144a575b5050505051938493846040919493926060820195825260208201520152565b7f4f3aef3cf11fd9405846420fd580666c49868d4f5c814b48ec46092b91a1b9cb938351928352820152a13881818061142b565b905038611425565b6114b1917f000000000000000000000000000000000000000000000000000000000000000090611c51565b388461141d565b6114e3917f000000000000000000000000000000000000000000000000000000000000000090611c51565b3886611411565b9091928482813d8311611514575b6115028183610cbf565b8101031261058757505191908a6113d3565b503d6114f8565b909c8682813d8311611544575b6115328183610cbf565b810103126105875750519b60246113ae565b503d611528565b87513d6000823e3d90fd5b969b975097506060863d606011611597575b8161157560609383610cbf565b810103126115935785518487015196860151979b5095976024611388565b8a80fd5b3d9150611568565b6115b7939b506115b191929450611bea565b90610d64565b848c60248851809581938252308c8301525afa918215611616576000926115e6575b5090978a606060a4611336565b91508482813d831161160f575b6115fd8183610cbf565b81010312610c6b5790519060a46115d9565b503d6115f3565b86513d6000823e3d90fd5b9961162e91508093610dba565b8651630316573b60e21b81529086828a817f000000000000000000000000000000000000000000000000000000000000000087165afa9182156116f2576000926116b9575b5092670de0b6b3a764000061168c60a493606096610d87565b048b8110156116b1576116a56116ab926115b183611a05565b9b610dba565b91611340565b509991611340565b9150928682813d83116116eb575b6116d18183610cbf565b81010312610c6b5790519092670de0b6b3a7640000611673565b503d6116c7565b88513d6000823e3d90fd5b50505060a460609291611340565b50811515611309565b905061172d9150883d8a11610f8d57610f7c8183610cbf565b90386112ff565b505050505050505050915050600090565b5088156112cf565b90988582813d8311611775575b6117648183610cbf565b8101031261058757505197386112c6565b503d61175a565b90978282813d83116117a4575b6117938183610cbf565b81010312610587575051963861127c565b503d611789565b6040516323b872dd60e01b81527f00000000000000000000000000000000000000000000000000000000000000006001600160a01b03166004820152306024820152604481019190915260208160648160007f000000000000000000000000000000000000000000000000000000000000000087165af115611221576118489060203d60201161184f575b6118408183610cbf565b8101906111e7565b5038611221565b503d611836565b6040516323b872dd60e01b81527f00000000000000000000000000000000000000000000000000000000000000006001600160a01b03166004820152306024820152604481019190915260208160648160007f000000000000000000000000000000000000000000000000000000000000000088165af11561121a576118ea9060203d60201161184f576118408183610cbf565b503861121a565b6040516321c4e35760e21b8152600490fd5b6001546001600160a01b0316330361191757565b60405163118cdaa760e01b8152336004820152602490fd5b604051906020820163095ea7b360e01b938482526020600060018060a01b0380931693846024880152811960448801526044875261196c87610ca3565b86519082875af1903d60005190836119c1575b5050501561198e575b50505050565b6119b893610b9a9160405191602083015260248201526000604482015260448152610b9481610ca3565b38808080611988565b919250906119d8575082163b15155b38808061197f565b60019150146119d0565b6002600054146119f3576002600055565b604051633ee5aeb560e01b8152600490fd5b908115611be45760408051926001600160a01b037f00000000000000000000000000000000000000000000000000000000000000008116927f00000000000000000000000000000000000000000000000000000000000000008216929091611a6c87610c70565b8387526020968588820152612710848201523060608201524260808201528260a082015287611b22600093838560c0819601528460e0820152875194858094819363414bf38960e01b83526004830191909160e06101008201938160018060a01b039182815116855282602082015116602086015262ffffff60408201511660408601528260608201511660608601526080810151608086015260a081015160a086015260c081015160c0860152015116910152565b03927f0000000000000000000000000000000000000000000000000000000000000000165af1918215611bd9578092611b89575b505090817f25f1d03755df23c30e25db2dbd3891e31ce084bdfbfc46f9fe5e446ee5f9b2d49392978351928352820152a3565b9091508782813d8311611bd2575b611ba18183610cbf565b810103126105875750517f25f1d03755df23c30e25db2dbd3891e31ce084bdfbfc46f9fe5e446ee5f9b2d438611b56565b503d611b97565b8451903d90823e3d90fd5b60009150565b908115611be45760408051926001600160a01b037f00000000000000000000000000000000000000000000000000000000000000008116927f00000000000000000000000000000000000000000000000000000000000000008216929091611a6c87610c70565b60405163a9059cbb60e01b60208201526001600160a01b0392909216602483015260448083019390935291815261106291610b9a606483610cbf565b906000602091828151910182855af115610d52576000513d611ce057506001600160a01b0381163b155b611cbe5750565b604051635274afe760e01b81526001600160a01b039091166004820152602490fd5b60011415611cb756fea2646970667358221220d3521f6a778a16ca299775a5c81788b0dbea9086e9ac817c3d4da8abc5863ed964736f6c63430008160033","linkReferences":{}},"methodIdentifiers":{"CHARM_VAULT_ADDRESS()":"8390a650","EAGLE_VAULT()":"a0b660b5","POOL_DESCRIPTION()":"bf214acd","POOL_FEE()":"dd1b9c4a","UNISWAP_ROUTER()":"d8264920","USD1()":"44386321","WLFI()":"5e787f19","active()":"02fb0c5e","charmVault()":"e6ff0a2f","deposit(uint256,uint256)":"e2bbb158","getShareBalance()":"1de28857","getTotalAmounts()":"c4a7761e","initializeApprovals()":"27f8eaac","isInitialized()":"392e53cd","lastRebalance()":"106b9ca1","maxSlippage()":"8c04166f","owner()":"8da5cb5b","pause()":"8456cb59","rebalance()":"7d7c2a1c","renounceOwnership()":"715018a6","rescueIdleTokens()":"f88163a3","rescueToken(address,uint256,address)":"f8a67a62","resume()":"046f7da2","setCharmVault(address)":"bc6840f9","setTokenApproval(address,address,uint256)":"175fadbe","transferOwnership(address)":"f2fde38b","updateParameters(uint256)":"3ec66202","withdraw(uint256)":"2e1a7d4d"},"id":28}