{"abi":[{"type":"constructor","inputs":[{"name":"_token","type":"address","internalType":"address"},{"name":"_registry","type":"address","internalType":"address"},{"name":"_delegate","type":"address","internalType":"address"}],"stateMutability":"nonpayable"},{"type":"function","name":"SEND","inputs":[],"outputs":[{"name":"","type":"uint16","internalType":"uint16"}],"stateMutability":"view"},{"type":"function","name":"SEND_AND_CALL","inputs":[],"outputs":[{"name":"","type":"uint16","internalType":"uint16"}],"stateMutability":"view"},{"type":"function","name":"adapterName","inputs":[],"outputs":[{"name":"","type":"string","internalType":"string"}],"stateMutability":"pure"},{"type":"function","name":"adapterVersion","inputs":[],"outputs":[{"name":"","type":"string","internalType":"string"}],"stateMutability":"pure"},{"type":"function","name":"allowInitializePath","inputs":[{"name":"origin","type":"tuple","internalType":"struct Origin","components":[{"name":"srcEid","type":"uint32","internalType":"uint32"},{"name":"sender","type":"bytes32","internalType":"bytes32"},{"name":"nonce","type":"uint64","internalType":"uint64"}]}],"outputs":[{"name":"","type":"bool","internalType":"bool"}],"stateMutability":"view"},{"type":"function","name":"approvalRequired","inputs":[],"outputs":[{"name":"","type":"bool","internalType":"bool"}],"stateMutability":"pure"},{"type":"function","name":"combineOptions","inputs":[{"name":"_eid","type":"uint32","internalType":"uint32"},{"name":"_msgType","type":"uint16","internalType":"uint16"},{"name":"_extraOptions","type":"bytes","internalType":"bytes"}],"outputs":[{"name":"","type":"bytes","internalType":"bytes"}],"stateMutability":"view"},{"type":"function","name":"decimalConversionRate","inputs":[],"outputs":[{"name":"","type":"uint256","internalType":"uint256"}],"stateMutability":"view"},{"type":"function","name":"endpoint","inputs":[],"outputs":[{"name":"","type":"address","internalType":"contract ILayerZeroEndpointV2"}],"stateMutability":"view"},{"type":"function","name":"enforcedOptions","inputs":[{"name":"eid","type":"uint32","internalType":"uint32"},{"name":"msgType","type":"uint16","internalType":"uint16"}],"outputs":[{"name":"enforcedOption","type":"bytes","internalType":"bytes"}],"stateMutability":"view"},{"type":"function","name":"getEndpoint","inputs":[],"outputs":[{"name":"","type":"address","internalType":"address"}],"stateMutability":"view"},{"type":"function","name":"isComposeMsgSender","inputs":[{"name":"","type":"tuple","internalType":"struct Origin","components":[{"name":"srcEid","type":"uint32","internalType":"uint32"},{"name":"sender","type":"bytes32","internalType":"bytes32"},{"name":"nonce","type":"uint64","internalType":"uint64"}]},{"name":"","type":"bytes","internalType":"bytes"},{"name":"_sender","type":"address","internalType":"address"}],"outputs":[{"name":"","type":"bool","internalType":"bool"}],"stateMutability":"view"},{"type":"function","name":"isPeer","inputs":[{"name":"_eid","type":"uint32","internalType":"uint32"},{"name":"_peer","type":"bytes32","internalType":"bytes32"}],"outputs":[{"name":"","type":"bool","internalType":"bool"}],"stateMutability":"view"},{"type":"function","name":"lzReceive","inputs":[{"name":"_origin","type":"tuple","internalType":"struct Origin","components":[{"name":"srcEid","type":"uint32","internalType":"uint32"},{"name":"sender","type":"bytes32","internalType":"bytes32"},{"name":"nonce","type":"uint64","internalType":"uint64"}]},{"name":"_guid","type":"bytes32","internalType":"bytes32"},{"name":"_message","type":"bytes","internalType":"bytes"},{"name":"_executor","type":"address","internalType":"address"},{"name":"_extraData","type":"bytes","internalType":"bytes"}],"outputs":[],"stateMutability":"payable"},{"type":"function","name":"lzReceiveAndRevert","inputs":[{"name":"_packets","type":"tuple[]","internalType":"struct InboundPacket[]","components":[{"name":"origin","type":"tuple","internalType":"struct Origin","components":[{"name":"srcEid","type":"uint32","internalType":"uint32"},{"name":"sender","type":"bytes32","internalType":"bytes32"},{"name":"nonce","type":"uint64","internalType":"uint64"}]},{"name":"dstEid","type":"uint32","internalType":"uint32"},{"name":"receiver","type":"address","internalType":"address"},{"name":"guid","type":"bytes32","internalType":"bytes32"},{"name":"value","type":"uint256","internalType":"uint256"},{"name":"executor","type":"address","internalType":"address"},{"name":"message","type":"bytes","internalType":"bytes"},{"name":"extraData","type":"bytes","internalType":"bytes"}]}],"outputs":[],"stateMutability":"payable"},{"type":"function","name":"lzReceiveSimulate","inputs":[{"name":"_origin","type":"tuple","internalType":"struct Origin","components":[{"name":"srcEid","type":"uint32","internalType":"uint32"},{"name":"sender","type":"bytes32","internalType":"bytes32"},{"name":"nonce","type":"uint64","internalType":"uint64"}]},{"name":"_guid","type":"bytes32","internalType":"bytes32"},{"name":"_message","type":"bytes","internalType":"bytes"},{"name":"_executor","type":"address","internalType":"address"},{"name":"_extraData","type":"bytes","internalType":"bytes"}],"outputs":[],"stateMutability":"payable"},{"type":"function","name":"msgInspector","inputs":[],"outputs":[{"name":"","type":"address","internalType":"address"}],"stateMutability":"view"},{"type":"function","name":"nextNonce","inputs":[{"name":"","type":"uint32","internalType":"uint32"},{"name":"","type":"bytes32","internalType":"bytes32"}],"outputs":[{"name":"nonce","type":"uint64","internalType":"uint64"}],"stateMutability":"view"},{"type":"function","name":"oApp","inputs":[],"outputs":[{"name":"","type":"address","internalType":"address"}],"stateMutability":"view"},{"type":"function","name":"oAppVersion","inputs":[],"outputs":[{"name":"senderVersion","type":"uint64","internalType":"uint64"},{"name":"receiverVersion","type":"uint64","internalType":"uint64"}],"stateMutability":"pure"},{"type":"function","name":"oftVersion","inputs":[],"outputs":[{"name":"interfaceId","type":"bytes4","internalType":"bytes4"},{"name":"version","type":"uint64","internalType":"uint64"}],"stateMutability":"pure"},{"type":"function","name":"owner","inputs":[],"outputs":[{"name":"","type":"address","internalType":"address"}],"stateMutability":"view"},{"type":"function","name":"peers","inputs":[{"name":"eid","type":"uint32","internalType":"uint32"}],"outputs":[{"name":"peer","type":"bytes32","internalType":"bytes32"}],"stateMutability":"view"},{"type":"function","name":"preCrime","inputs":[],"outputs":[{"name":"","type":"address","internalType":"address"}],"stateMutability":"view"},{"type":"function","name":"quoteOFT","inputs":[{"name":"_sendParam","type":"tuple","internalType":"struct SendParam","components":[{"name":"dstEid","type":"uint32","internalType":"uint32"},{"name":"to","type":"bytes32","internalType":"bytes32"},{"name":"amountLD","type":"uint256","internalType":"uint256"},{"name":"minAmountLD","type":"uint256","internalType":"uint256"},{"name":"extraOptions","type":"bytes","internalType":"bytes"},{"name":"composeMsg","type":"bytes","internalType":"bytes"},{"name":"oftCmd","type":"bytes","internalType":"bytes"}]}],"outputs":[{"name":"oftLimit","type":"tuple","internalType":"struct OFTLimit","components":[{"name":"minAmountLD","type":"uint256","internalType":"uint256"},{"name":"maxAmountLD","type":"uint256","internalType":"uint256"}]},{"name":"oftFeeDetails","type":"tuple[]","internalType":"struct OFTFeeDetail[]","components":[{"name":"feeAmountLD","type":"int256","internalType":"int256"},{"name":"description","type":"string","internalType":"string"}]},{"name":"oftReceipt","type":"tuple","internalType":"struct OFTReceipt","components":[{"name":"amountSentLD","type":"uint256","internalType":"uint256"},{"name":"amountReceivedLD","type":"uint256","internalType":"uint256"}]}],"stateMutability":"view"},{"type":"function","name":"quoteSend","inputs":[{"name":"_sendParam","type":"tuple","internalType":"struct SendParam","components":[{"name":"dstEid","type":"uint32","internalType":"uint32"},{"name":"to","type":"bytes32","internalType":"bytes32"},{"name":"amountLD","type":"uint256","internalType":"uint256"},{"name":"minAmountLD","type":"uint256","internalType":"uint256"},{"name":"extraOptions","type":"bytes","internalType":"bytes"},{"name":"composeMsg","type":"bytes","internalType":"bytes"},{"name":"oftCmd","type":"bytes","internalType":"bytes"}]},{"name":"_payInLzToken","type":"bool","internalType":"bool"}],"outputs":[{"name":"msgFee","type":"tuple","internalType":"struct MessagingFee","components":[{"name":"nativeFee","type":"uint256","internalType":"uint256"},{"name":"lzTokenFee","type":"uint256","internalType":"uint256"}]}],"stateMutability":"view"},{"type":"function","name":"registry","inputs":[],"outputs":[{"name":"","type":"address","internalType":"contract IChainRegistry"}],"stateMutability":"view"},{"type":"function","name":"renounceOwnership","inputs":[],"outputs":[],"stateMutability":"nonpayable"},{"type":"function","name":"send","inputs":[{"name":"_sendParam","type":"tuple","internalType":"struct SendParam","components":[{"name":"dstEid","type":"uint32","internalType":"uint32"},{"name":"to","type":"bytes32","internalType":"bytes32"},{"name":"amountLD","type":"uint256","internalType":"uint256"},{"name":"minAmountLD","type":"uint256","internalType":"uint256"},{"name":"extraOptions","type":"bytes","internalType":"bytes"},{"name":"composeMsg","type":"bytes","internalType":"bytes"},{"name":"oftCmd","type":"bytes","internalType":"bytes"}]},{"name":"_fee","type":"tuple","internalType":"struct MessagingFee","components":[{"name":"nativeFee","type":"uint256","internalType":"uint256"},{"name":"lzTokenFee","type":"uint256","internalType":"uint256"}]},{"name":"_refundAddress","type":"address","internalType":"address"}],"outputs":[{"name":"msgReceipt","type":"tuple","internalType":"struct MessagingReceipt","components":[{"name":"guid","type":"bytes32","internalType":"bytes32"},{"name":"nonce","type":"uint64","internalType":"uint64"},{"name":"fee","type":"tuple","internalType":"struct MessagingFee","components":[{"name":"nativeFee","type":"uint256","internalType":"uint256"},{"name":"lzTokenFee","type":"uint256","internalType":"uint256"}]}]},{"name":"oftReceipt","type":"tuple","internalType":"struct OFTReceipt","components":[{"name":"amountSentLD","type":"uint256","internalType":"uint256"},{"name":"amountReceivedLD","type":"uint256","internalType":"uint256"}]}],"stateMutability":"payable"},{"type":"function","name":"setDelegate","inputs":[{"name":"_delegate","type":"address","internalType":"address"}],"outputs":[],"stateMutability":"nonpayable"},{"type":"function","name":"setEnforcedOptions","inputs":[{"name":"_enforcedOptions","type":"tuple[]","internalType":"struct EnforcedOptionParam[]","components":[{"name":"eid","type":"uint32","internalType":"uint32"},{"name":"msgType","type":"uint16","internalType":"uint16"},{"name":"options","type":"bytes","internalType":"bytes"}]}],"outputs":[],"stateMutability":"nonpayable"},{"type":"function","name":"setMsgInspector","inputs":[{"name":"_msgInspector","type":"address","internalType":"address"}],"outputs":[],"stateMutability":"nonpayable"},{"type":"function","name":"setPeer","inputs":[{"name":"_eid","type":"uint32","internalType":"uint32"},{"name":"_peer","type":"bytes32","internalType":"bytes32"}],"outputs":[],"stateMutability":"nonpayable"},{"type":"function","name":"setPreCrime","inputs":[{"name":"_preCrime","type":"address","internalType":"address"}],"outputs":[],"stateMutability":"nonpayable"},{"type":"function","name":"sharedDecimals","inputs":[],"outputs":[{"name":"","type":"uint8","internalType":"uint8"}],"stateMutability":"view"},{"type":"function","name":"token","inputs":[],"outputs":[{"name":"","type":"address","internalType":"address"}],"stateMutability":"view"},{"type":"function","name":"transferOwnership","inputs":[{"name":"newOwner","type":"address","internalType":"address"}],"outputs":[],"stateMutability":"nonpayable"},{"type":"event","name":"EnforcedOptionSet","inputs":[{"name":"_enforcedOptions","type":"tuple[]","indexed":false,"internalType":"struct EnforcedOptionParam[]","components":[{"name":"eid","type":"uint32","internalType":"uint32"},{"name":"msgType","type":"uint16","internalType":"uint16"},{"name":"options","type":"bytes","internalType":"bytes"}]}],"anonymous":false},{"type":"event","name":"MsgInspectorSet","inputs":[{"name":"inspector","type":"address","indexed":false,"internalType":"address"}],"anonymous":false},{"type":"event","name":"OFTReceived","inputs":[{"name":"guid","type":"bytes32","indexed":true,"internalType":"bytes32"},{"name":"srcEid","type":"uint32","indexed":false,"internalType":"uint32"},{"name":"toAddress","type":"address","indexed":true,"internalType":"address"},{"name":"amountReceivedLD","type":"uint256","indexed":false,"internalType":"uint256"}],"anonymous":false},{"type":"event","name":"OFTSent","inputs":[{"name":"guid","type":"bytes32","indexed":true,"internalType":"bytes32"},{"name":"dstEid","type":"uint32","indexed":false,"internalType":"uint32"},{"name":"fromAddress","type":"address","indexed":true,"internalType":"address"},{"name":"amountSentLD","type":"uint256","indexed":false,"internalType":"uint256"},{"name":"amountReceivedLD","type":"uint256","indexed":false,"internalType":"uint256"}],"anonymous":false},{"type":"event","name":"OwnershipTransferred","inputs":[{"name":"previousOwner","type":"address","indexed":true,"internalType":"address"},{"name":"newOwner","type":"address","indexed":true,"internalType":"address"}],"anonymous":false},{"type":"event","name":"PeerSet","inputs":[{"name":"eid","type":"uint32","indexed":false,"internalType":"uint32"},{"name":"peer","type":"bytes32","indexed":false,"internalType":"bytes32"}],"anonymous":false},{"type":"event","name":"PreCrimeSet","inputs":[{"name":"preCrimeAddress","type":"address","indexed":false,"internalType":"address"}],"anonymous":false},{"type":"error","name":"InvalidDelegate","inputs":[]},{"type":"error","name":"InvalidEndpointCall","inputs":[]},{"type":"error","name":"InvalidLocalDecimals","inputs":[]},{"type":"error","name":"InvalidOptions","inputs":[{"name":"options","type":"bytes","internalType":"bytes"}]},{"type":"error","name":"LzTokenUnavailable","inputs":[]},{"type":"error","name":"NoPeer","inputs":[{"name":"eid","type":"uint32","internalType":"uint32"}]},{"type":"error","name":"NotEnoughNative","inputs":[{"name":"msgValue","type":"uint256","internalType":"uint256"}]},{"type":"error","name":"OnlyEndpoint","inputs":[{"name":"addr","type":"address","internalType":"address"}]},{"type":"error","name":"OnlyPeer","inputs":[{"name":"eid","type":"uint32","internalType":"uint32"},{"name":"sender","type":"bytes32","internalType":"bytes32"}]},{"type":"error","name":"OnlySelf","inputs":[]},{"type":"error","name":"OwnableInvalidOwner","inputs":[{"name":"owner","type":"address","internalType":"address"}]},{"type":"error","name":"OwnableUnauthorizedAccount","inputs":[{"name":"account","type":"address","internalType":"address"}]},{"type":"error","name":"SafeERC20FailedOperation","inputs":[{"name":"token","type":"address","internalType":"address"}]},{"type":"error","name":"SimulationResult","inputs":[{"name":"result","type":"bytes","internalType":"bytes"}]},{"type":"error","name":"SlippageExceeded","inputs":[{"name":"amountLD","type":"uint256","internalType":"uint256"},{"name":"minAmountLD","type":"uint256","internalType":"uint256"}]}],"bytecode":{"object":"0x610100604090808252346200049d57600060608262002c3d8038038091620000288285620004a2565b8339810103126200049a576200003e82620004dc565b9060206200005b8562000053838701620004dc565b9501620004dc565b855163173c3a2960e21b81526001600160a01b03958616956004959194909291848688818b5afa9586156200033e57829662000455575b5061ffff89519663b87f29e160e01b88521687870152602495858188818c5afa9081156200044b5790859184916200040b575b5016908115620003b05784169389519363313ce56760e01b855286858a81895afa948515620003a657849562000362575b5081169081156200034c5783546001600160a01b03198116831785558291167f8be0079c531659141344cd1fd0a4f28419497f9722a3daafe3b4186f6b6457e08580a381608052813b15620003485782918783928c51948593849263ca5eb5e160e01b84528d8401525af180156200033e5762000313575b509060ff166006811062000303576005190160ff8111620002f15760ff1690604d8211620002df5750600a0a60a0528060c0521562000294578315620002485750505060e0525161274b9081620004f2823960805181818161051a0152818161091e01528181610c67015281816115c3015281816116e0015281816125250152612619015260a05181818161086801528181610e8b0152818161147001528181611c8c01528181611dc101526122ce015260c0518181816114b201528181611899015261233e015260e051818181610d7a0152610f170152f35b845162461bcd60e51b815292830152808201527f574c4649416461707465723a2072656769737472792063616e6e6f74206265206044820152637a65726f60e01b606482015260849150fd5b6021929350608494519362461bcd60e51b85528401528201527f574c4649416461707465723a20746f6b656e2063616e6e6f74206265207a65726044820152606f60f81b6064820152fd5b634e487b7160e01b8152601186528490fd5b634e487b7160e01b8252601186528482fd5b87516301e9714b60e41b81528690fd5b6001600160401b0381116200032c57885260ff6200016e565b634e487b7160e01b8252604187528582fd5b89513d84823e3d90fd5b8280fd5b8a51631e4fbdf760e01b8152808a018590528890fd5b9094508681813d83116200039e575b6200037d8183620004a2565b810103126200039a575160ff811681036200039a579381620000f6565b8380fd5b503d62000371565b8b513d86823e3d90fd5b895162461bcd60e51b81528089018790526030818901527f574c4649416461707465723a20656e64706f696e74206e6f7420636f6e66696760448201526f7572656420696e20726567697374727960801b6064820152608490fd5b809250878092503d831162000443575b620004278183620004a2565b8101031262000348576200043c8591620004dc565b38620000c5565b503d6200041b565b8a513d85823e3d90fd5b9095508481813d831162000492575b620004708183620004a2565b810103126200048e575161ffff811681036200048e57943862000092565b5080fd5b503d62000464565b80fd5b600080fd5b601f909101601f19168101906001600160401b03821190821017620004c657604052565b634e487b7160e01b600052604160045260246000fd5b51906001600160a01b03821682036200049d5756fe6080604052600436101561001257600080fd5b60003560e01c80630d35b41514610262578063111ecdad1461025d57806313137d6514610258578063134d4f2514610253578063156a0d0f1461024e57806317442b70146102495780631f5e1334146101fe5780633400288b146102445780633b6f743b1461023f57806352ae28791461023a5780635535d461146102355780635a0dfe4d146102305780635e280f111461022b5780636fc1b31e14610226578063715018a6146102215780637b1039991461021c5780637d25a05e1461021757806382413eac14610212578063857749b01461020d5780638da5cb5b14610208578063963efcaa146102035780639f68b964146101fe578063a77ec9e0146101f9578063aed8e967146101f4578063b731ea0a146101ef578063b98bd070146101ea578063ba286578146101e5578063bb0b6a53146101e0578063bc70b354146101db578063bd815db0146101d6578063c7c7f5b3146101d1578063ca5eb5e1146101cc578063d045a0dc146101c7578063d4243885146101c2578063f2fde38b146101bd578063fc0c546a146101b85763ff7bd03d146101b357600080fd5b6118c8565b611883565b6117f7565b611787565b61162b565b611592565b6113f4565b611250565b6111f8565b6111bd565b611166565b611087565b611012565b610ef4565b610eae565b610750565b610e73565b610e4a565b610e2e565b610dd0565b610da9565b610d64565b610d06565b610c96565b610c51565b610c09565b610b97565b6109c4565b61080b565b61077a565b61072e565b610707565b6106eb565b6104ff565b610421565b61036c565b908160e09103126102755790565b600080fd5b60005b83811061028d5750506000910152565b818101518382015260200161027d565b906020916102b68151809281855285808601910161027a565b601f01601f1916010190565b9392916102dd8560a081019360208091805184520151910152565b60409160a06040870152815180915260c086019160c08260051b880101936020809201936000915b84831061032d5750505050505090606061032b9294019060208091805184520151910152565b565b909192939495848061035c6001938d60bf1990820301875285838c51805184520151918185820152019061029d565b9801930193019194939290610305565b34610275576020366003190112610275576001600160401b036004358181116102755761039d903690600401610267565b906103a6611928565b506103af611928565b50604051906103bd82610a3b565b6000825260208201526104126103f6604051936103d985610a89565b600085526103e681611958565b5060406060820135910135611c83565b6103fe61190e565b9182526020820152604051938493846102c2565b0390f35b600091031261027557565b34610275576000366003190112610275576004546040516001600160a01b039091168152602090f35b606090600319011261027557600490565b9181601f84011215610275578235916001600160401b038311610275576020838186019501011161027557565b6001600160a01b0381160361027557565b600319810160e081126102755760601361027557600491606435916001600160401b039060843582811161027557816104d49160040161045b565b9390939260a4356104e481610488565b9260c435918211610275576104fb9160040161045b565b9091565b61050836610499565b50929492506001600160a01b039190507f000000000000000000000000000000000000000000000000000000000000000082163381036106d357833561054d8161076c565b61055681611cdd565b90602086013580920361069e57505061057e61057283886122a2565b6001600160a01b031690565b916105a461059461058f838a6122ae565b6122c0565b61059d87611958565b50846122f4565b8097602883116105f5575b505050506105f06105ce6000805160206126f683398151915294611958565b956040519384931696836020909392919363ffffffff60408201951681520152565b0390a3005b90610620929161061a61060a60408a01611d15565b936106148a611958565b92612362565b9261237e565b90803b1561027557604051633e5ac80960e11b8152916000918391829084908290610650908c8a60048501611d1f565b03925af18015610699576000805160206126f6833981519152946105f0926105ce92610680575b889196506105af565b8061068d61069392610a76565b80610416565b38610677565b611992565b6106a78161076c565b60405163309afaf360e21b815263ffffffff9190911660048201526024810191909152604490fd5b0390fd5b6040516391ac5e4f60e01b8152336004820152602490fd5b3461027557600036600319011261027557602060405160028152f35b34610275576000366003190112610275576040805162b9270b60e21b815260016020820152f35b3461027557600036600319011261027557604080516001815260026020820152f35b3461027557600036600319011261027557602060405160018152f35b63ffffffff81160361027557565b34610275576040366003190112610275577f238399d427b947898edb290f5ff0f9109849b1c3ba196a42e35f00c50a54b98b6004356107b88161076c565b602435906107c4611d4a565b63ffffffff81166000526001602052816040600020556107fc604051928392836020909392919363ffffffff60408201951681520152565b0390a1005b8015150361027557565b3461027557604080600319360112610275576004356001600160401b0381116102755761083c903690600401610267565b9060243561084981610801565b610851611928565b5060608301358335936108638561076c565b6108997f00000000000000000000000000000000000000000000000000000000000000006108948187850135612259565b612279565b918083106109a7575083926108b561091a96936108ff93611db0565b906108bf8561076c565b6108c7611928565b506108d185611cdd565b6108e86108dc61191b565b63ffffffff9097168752565b602086015285850152606084015215156080830152565b815180948192631bb8518b60e31b8352309060048401611efb565b03817f00000000000000000000000000000000000000000000000000000000000000006001600160a01b03165afa9081156106995761041292600092610978575b505191829182815181526020918201519181019190915260400190565b816109999293503d84116109a0575b6109918183610abf565b810190611ee7565b903861095b565b503d610987565b826044918651916371c4efed60e01b835260048301526024820152fd5b34610275576000366003190112610275576020604051308152f35b61ffff81160361027557565b90600182811c92168015610a1b575b6020831014610a0557565b634e487b7160e01b600052602260045260246000fd5b91607f16916109fa565b634e487b7160e01b600052604160045260246000fd5b604081019081106001600160401b03821117610a5657604052565b610a25565b606081019081106001600160401b03821117610a5657604052565b6001600160401b038111610a5657604052565b602081019081106001600160401b03821117610a5657604052565b60a081019081106001600160401b03821117610a5657604052565b90601f801991011681019081106001600160401b03821117610a5657604052565b90604051918260008254610af3816109eb565b90818452602094600191600181169081600014610b615750600114610b22575b50505061032b92500383610abf565b600090815285812095935091905b818310610b4957505061032b9350820101388080610b13565b85548884018501529485019487945091830191610b30565b9250505061032b94925060ff191682840152151560051b820101388080610b13565b906020610b9492818152019061029d565b90565b3461027557604036600319011261027557610412610bf5610bf0600435610bbd8161076c565b63ffffffff60243591610bcf836109df565b16600052600360205260406000209061ffff16600052602052604060002090565b610ae0565b60405191829160208352602083019061029d565b34610275576040366003190112610275576020610c47600435610c2b8161076c565b6024359063ffffffff1660005260016020526040600020541490565b6040519015158152f35b34610275576000366003190112610275576040517f00000000000000000000000000000000000000000000000000000000000000006001600160a01b03168152602090f35b34610275576020366003190112610275577ff0be4f1e87349231d80c36b33f9e8639658eeaf474014dee15a3e6a4d44141976020600435610cd681610488565b610cde611d4a565b600480546001600160a01b0319166001600160a01b03929092169182179055604051908152a1005b3461027557600080600319360112610d6157610d20611d4a565b80546001600160a01b03198116825581906001600160a01b03167f8be0079c531659141344cd1fd0a4f28419497f9722a3daafe3b4186f6b6457e08280a380f35b80fd5b34610275576000366003190112610275576040517f00000000000000000000000000000000000000000000000000000000000000006001600160a01b03168152602090f35b3461027557604036600319011261027557610dc560043561076c565b602060405160008152f35b346102755760a036600319011261027557610dea3661044a565b506064356001600160401b03811161027557610e0a90369060040161045b565b50506020608435610e1a81610488565b6040516001600160a01b0390911630148152f35b3461027557600036600319011261027557602060405160068152f35b34610275576000366003190112610275576000546040516001600160a01b039091168152602090f35b346102755760003660031901126102755760206040517f00000000000000000000000000000000000000000000000000000000000000008152f35b3461027557600036600319011261027557610412604051610ece81610a3b565b60058152640312e312e360dc1b602082015260405191829160208352602083019061029d565b346102755760003660031901126102755760405163173c3a2960e21b81526020907f00000000000000000000000000000000000000000000000000000000000000006001600160a01b0316908281600481855afa801561069957610f83928492600092610fe3575b50604051808095819463b87f29e160e01b83526004830191909161ffff6020820193169052565b03915afa9081156106995761041292600092610fb6575b50506040516001600160a01b0390911681529081906020820190565b610fd59250803d10610fdc575b610fcd8183610abf565b81019061199e565b3880610f9a565b503d610fc3565b611004919250833d851161100b575b610ffc8183610abf565b81019061197d565b9038610f5c565b503d610ff2565b34610275576000366003190112610275576002546040516001600160a01b039091168152602090f35b906020600319830112610275576004356001600160401b039283821161027557806023830112156102755781600401359384116102755760248460051b83010111610275576024019190565b34610275576110953661103b565b9061109e611d4a565b6110a782611941565b9060406110b76040519384610abf565b8383526020938484019060051b8301923684116102755780915b8483106110e3576110e186612133565b005b6001600160401b03908335828111610275578301916060833603126102755785519261110e84610a5b565b80356111198161076c565b845289810135611128816109df565b8a8501528681013591821161027557019036601f830112156102755788926111578493369085813591016119b3565b878201528152019201916110d1565b346102755760003660031901126102755761041260405161118681610a3b565b60168152752ba62324902630bcb2b92d32b9379020b230b83a32b960511b602082015260405191829160208352602083019061029d565b346102755760203660031901126102755763ffffffff6004356111df8161076c565b1660005260016020526020604060002054604051908152f35b34610275576060366003190112610275576004356112158161076c565b602435611221816109df565b604435906001600160401b0382116102755761041292611248610bf593369060040161045b565b929091611a58565b6112593661103b565b60005b8181106112c857604051638e9e709960e01b8152600081600481335afa8015610699576106cf916000916112a5575b50604051638351eea760e01b815291829160048301610b83565b6112c291503d806000833e6112ba8183610abf565b810190611bfd565b8261128b565b6112d3818385611b0e565b906113056113016112e384611958565b60208501359063ffffffff1660005260016020526040600020541490565b1590565b61139a57611317610100830183611b36565b9261132460e08201611b68565b90611333610120820182611b36565b959095303b156102755760009461136960c092604051998a9788968795633411683760e21b875260a08a01358a60048901611b83565b03920135305af191821561069957600192611387575b505b0161125c565b8061068d61139492610a76565b3861137f565b60019150611381565b91608061032b9294936113e3604060c0830197805184526001600160401b0360208201511660208501520151604083019060208091805184520151910152565b019060208091805184520151910152565b6080366003190112610275576004356001600160401b0381116102755761141f903690600401610267565b60403660231901126102755760643561143781610488565b61143f611c5b565b50611448611928565b50611451611c5b565b5061145a611928565b5060608201359061146b833561076c565b61149d7f0000000000000000000000000000000000000000000000000000000000000000610894816040870135612259565b9180831061157457506114f9906114d68330337f0000000000000000000000000000000000000000000000000000000000000000612599565b6114e08385611db0565b6114e986611958565b916114f336612231565b926124a8565b9061150261190e565b928184528160208501527f85496b760a4b7f8d66384b9df21b381f5d1b1e79f229a47aaf4c232edc2fe59a61156261153b855193611958565b936040519181839233978460409194939263ffffffff606083019616825260208201520152565b0390a3610412604051928392836113a3565b82604491604051916371c4efed60e01b835260048301526024820152fd5b346102755760006020366003190112610d61576004356115b181610488565b6115b9611d4a565b6001600160a01b037f0000000000000000000000000000000000000000000000000000000000000000811691839190833b156116275760249083604051958694859363ca5eb5e160e01b85521660048401525af180156106995761161b575080f35b61162490610a76565b80f35b8280fd5b61163436610499565b50505092903033036117755761164d61057285836122a2565b9361166e61165e61058f83856122ae565b61166785611958565b50866122f4565b91602882116116be575b50506116926000805160206126f683398151915292611958565b6040805163ffffffff909216825260208201929092526001600160a01b039094169390819081016105f0565b90826116dd9261061a6116d360408801611d15565b9361061488611958565b917f00000000000000000000000000000000000000000000000000000000000000006001600160a01b0316803b1561027557604051633e5ac80960e11b8152936000918591829084908290611737908b8d60048501611d1f565b03925af1908115610699576000805160206126f68339815191529361169292611762575b5092611678565b8061068d61176f92610a76565b3861175b565b60405163029a949d60e31b8152600490fd5b34610275576020366003190112610275577fd48d879cef83a1c0bdda516f27b13ddb1b3f8bbac1c9e1511bb2a659c242776060206004356117c781610488565b6117cf611d4a565b600280546001600160a01b0319166001600160a01b03929092169182179055604051908152a1005b346102755760203660031901126102755760043561181481610488565b61181c611d4a565b6001600160a01b03908116801561186a57600080546001600160a01b03198116831782559092167f8be0079c531659141344cd1fd0a4f28419497f9722a3daafe3b4186f6b6457e08380a380f35b604051631e4fbdf760e01b815260006004820152602490fd5b34610275576000366003190112610275576040517f00000000000000000000000000000000000000000000000000000000000000006001600160a01b03168152602090f35b346102755760603660031901126102755760206118e43661044a565b63ffffffff81356118f48161076c565b166000526001825260406000205482604051920135148152f35b6040519061032b82610a3b565b6040519061032b82610aa4565b6040519061193582610a3b565b60006020838281520152565b6001600160401b038111610a565760051b60200190565b35610b948161076c565b6001600160401b038111610a5657601f01601f191660200190565b908160209103126102755751610b94816109df565b6040513d6000823e3d90fd5b908160209103126102755751610b9481610488565b9291926119bf82611962565b916119cd6040519384610abf565b829481845281830111610275578281602093846000960137010152565b6020908361032b939594956040519683611a0d899551809288808901910161027a565b8401918583013701600083820152038085520183610abf565b908060209392818452848401376000828201840152601f01601f1916010190565b916020610b94938181520191611a26565b611a869163ffffffff610bf09216600052600360205260406000209061ffff16600052602052604060002090565b805115611aec578215611ae6576002831015611ab957506106cf604051928392639a6d49cd60e01b845260048401611a47565b611acc611ac73685856119b3565b6121f9565b8260021161027557610b94926001190191600201906119ea565b91505090565b50610b949136916119b3565b634e487b7160e01b600052603260045260246000fd5b9190811015611b315760051b8101359061013e1981360301821215610275570190565b611af8565b903590601e198136030182121561027557018035906001600160401b0382116102755760200191813603831361027557565b35610b9481610488565b6001600160401b0381160361027557565b929093611bdf926001600160401b036040610b949a98999763ffffffff8135611bab8161076c565b168852602081013560208901520135611bc381611b72565b166040860152606085015260e0608085015260e0840191611a26565b6001600160a01b0390941660a082015280840360c090910152611a26565b602081830312610275578051906001600160401b038211610275570181601f82011215610275578051611c2f81611962565b92611c3d6040519485610abf565b8184526020828401011161027557610b94916020808501910161027a565b60405190611c6882610a5b565b8160008152600060208201526040611c7e611928565b910152565b611cb2906108947f00000000000000000000000000000000000000000000000000000000000000008092612259565b918291808410611cbf5750565b83604491604051916371c4efed60e01b835260048301526024820152fd5b63ffffffff16806000526001602052604060002054908115611cfd575090565b6024906040519063f6ff4fb760e01b82526004820152fd5b35610b9481611b72565b610b94939260809260018060a01b03168252602082015260006040820152816060820152019061029d565b6000546001600160a01b03163303611d5e57565b60405163118cdaa760e01b8152336004820152602490fd5b908160209103126102755751610b9481610801565b9091611da2610b949360408452604084019061029d565b91602081840391015261029d565b9091611e14611df2611de6611e3b957f000000000000000000000000000000000000000000000000000000000000000090612259565b6001600160401b031690565b611e09611e0260a0860186611b36565b36916119b3565b9060208501356123db565b9390928394600014611eb7576002905b611248611e3082611958565b916080810190611b36565b60045490926001600160a01b03909116908382611e5757505050565b60405163043a78eb60e01b815292602092849283918291611e7b9160048401611d8b565b03915afa801561069957611e8c5750565b611ead9060203d602011611eb0575b611ea58183610abf565b810190611d76565b50565b503d611e9b565b600190611e24565b919082604091031261027557604051611ed781610a3b565b6020808294805184520151910152565b9060408282031261027557610b9491611ebf565b906020909392936040835263ffffffff81511660408401528181015160608401526080611f4f611f39604084015160a08488015260e087019061029d565b6060840151868203603f190160a088015261029d565b910151151560c08401526001600160a01b03909416910152565b8051821015611b315760209160051b010190565b90601f8111611f8b57505050565b6000916000526020600020906020601f850160051c83019410611fc9575b601f0160051c01915b828110611fbe57505050565b818155600101611fb2565b9092508290611fa9565b91909182516001600160401b038111610a5657611ffa81611ff484546109eb565b84611f7d565b602080601f831160011461203d5750819061202e939495600092612032575b50508160011b916000199060031b1c19161790565b9055565b015190503880612019565b90601f1983169561205385600052602060002090565b926000905b88821061209057505083600195969710612077575b505050811b019055565b015160001960f88460031b161c1916905538808061206d565b80600185968294968601518155019501930190612058565b6020808201908083528351809252604092604081018260408560051b8401019601946000925b8584106120df575050505050505090565b909192939495968580612122600193603f198682030188528b518760609163ffffffff815116845261ffff8682015116868501520151918189820152019061029d565b9901940194019295949391906120ce565b9060009160005b81518110156121bf576001906121b96040612161816121598588611f69565b5101516121f9565b6121b48161216f8588611f69565b5101519163ffffffff6121828689611f69565b515116895261ffff602091600383528a209161219e878a611f69565b5101511661ffff16600052602052604060002090565b611fd3565b0161213a565b507fbe4864a8e820971c0247f5992e2da559595f7bf076a21cb5928d443d2a13b6749192506121f490604051918291826120a8565b0390a1565b600361ffff6002830151160361220c5750565b604051639a6d49cd60e01b8152602060048201529081906106cf90602483019061029d565b6040906023190112610275576040519061224a82610a3b565b60243582526044356020830152565b8115612263570490565b634e487b7160e01b600052601260045260246000fd5b8181029291811591840414171561228c57565b634e487b7160e01b600052601160045260246000fd5b90602011610275573590565b90602811610275576020013560c01c90565b610b94906001600160401b037f00000000000000000000000000000000000000000000000000000000000000009116612279565b60405163a9059cbb60e01b60208201526001600160a01b0390911660248201526044808201839052815260808101906001600160401b03821181831017610a5657610b94916040527f0000000000000000000000000000000000000000000000000000000000000000612699565b908060281161027557610b9491369160271901906028016119b3565b604c9193610b94936040519586936001600160401b0360c01b9060c01b16602085015263ffffffff60e01b9060e01b166028840152602c8301526123cb815180926020868601910161027a565b810103602c810184520182610abf565b82511580159390612439576124369160689160405194859260208401526001600160401b0360c01b9060c01b166040830152336048830152612426815180926020868601910161027a565b8101036048810184520182610abf565b91565b50906040519160208301526001600160401b0360c01b9060c01b1660408201526028815261243681610a5b565b90608082820312610275576124a090604080519361248385610a5b565b80518552602081015161249581611b72565b602086015201611ebf565b604082015290565b6125056080949261252196946124bc611c5b565b5060206124c986516125e0565b95019182518061258a575b506124de85611cdd565b92511515926124ee6108dc61191b565b602086015260408501526060840152151585830152565b6040518095819482936302637a4560e41b845260048401611efb565b03917f00000000000000000000000000000000000000000000000000000000000000006001600160a01b03165af190811561069957600091612561575090565b610b94915060803d608011612583575b61257b8183610abf565b810190612466565b503d612571565b61259390612602565b386124d4565b6040516323b872dd60e01b60208201526001600160a01b03928316602482015292909116604483015260648083019390935291815261032b916125db82610aa4565b612699565b8034036125ea5790565b6040516304fb820960e51b8152346004820152602490fd5b60405163393f876560e21b81526001600160a01b037f000000000000000000000000000000000000000000000000000000000000000081169291602081600481875afa9081156106995760009161267a575b50169182156126685761032b923390612599565b6040516329b99a9560e11b8152600490fd5b612693915060203d602011610fdc57610fcd8183610abf565b38612654565b906000602091828151910182855af115611992576000513d6126ec57506001600160a01b0381163b155b6126ca5750565b604051635274afe760e01b81526001600160a01b039091166004820152602490fd5b600114156126c356feefed6d3500546b29533b128a29e3a94d70788727f0507505ac12eaf2e578fd9ca2646970667358221220637e9aee8266ca8495b209c50f234561bda23fd8f207ec2d7d02ade4b606af7a64736f6c63430008160033","linkReferences":{}},"methodIdentifiers":{"SEND()":"1f5e1334","SEND_AND_CALL()":"134d4f25","adapterName()":"ba286578","adapterVersion()":"a77ec9e0","allowInitializePath((uint32,bytes32,uint64))":"ff7bd03d","approvalRequired()":"9f68b964","combineOptions(uint32,uint16,bytes)":"bc70b354","decimalConversionRate()":"963efcaa","endpoint()":"5e280f11","enforcedOptions(uint32,uint16)":"5535d461","getEndpoint()":"aed8e967","isComposeMsgSender((uint32,bytes32,uint64),bytes,address)":"82413eac","isPeer(uint32,bytes32)":"5a0dfe4d","lzReceive((uint32,bytes32,uint64),bytes32,bytes,address,bytes)":"13137d65","lzReceiveAndRevert(((uint32,bytes32,uint64),uint32,address,bytes32,uint256,address,bytes,bytes)[])":"bd815db0","lzReceiveSimulate((uint32,bytes32,uint64),bytes32,bytes,address,bytes)":"d045a0dc","msgInspector()":"111ecdad","nextNonce(uint32,bytes32)":"7d25a05e","oApp()":"52ae2879","oAppVersion()":"17442b70","oftVersion()":"156a0d0f","owner()":"8da5cb5b","peers(uint32)":"bb0b6a53","preCrime()":"b731ea0a","quoteOFT((uint32,bytes32,uint256,uint256,bytes,bytes,bytes))":"0d35b415","quoteSend((uint32,bytes32,uint256,uint256,bytes,bytes,bytes),bool)":"3b6f743b","registry()":"7b103999","renounceOwnership()":"715018a6","send((uint32,bytes32,uint256,uint256,bytes,bytes,bytes),(uint256,uint256),address)":"c7c7f5b3","setDelegate(address)":"ca5eb5e1","setEnforcedOptions((uint32,uint16,bytes)[])":"b98bd070","setMsgInspector(address)":"6fc1b31e","setPeer(uint32,bytes32)":"3400288b","setPreCrime(address)":"d4243885","sharedDecimals()":"857749b0","token()":"fc0c546a","transferOwnership(address)":"f2fde38b"},"id":15}