{"abi":[{"type":"constructor","inputs":[{"name":"_vaultEagle","type":"address","internalType":"address"},{"name":"_oftEagle","type":"address","internalType":"address"},{"name":"_feeRecipient","type":"address","internalType":"address"},{"name":"_owner","type":"address","internalType":"address"}],"stateMutability":"nonpayable"},{"type":"function","name":"BASIS_POINTS","inputs":[],"outputs":[{"name":"","type":"uint256","internalType":"uint256"}],"stateMutability":"view"},{"type":"function","name":"MAX_FEE","inputs":[],"outputs":[{"name":"","type":"uint256","internalType":"uint256"}],"stateMutability":"view"},{"type":"function","name":"OFT_EAGLE","inputs":[],"outputs":[{"name":"","type":"address","internalType":"contract IMintableBurnableOFT"}],"stateMutability":"view"},{"type":"function","name":"VAULT_EAGLE","inputs":[],"outputs":[{"name":"","type":"address","internalType":"contract IERC20"}],"stateMutability":"view"},{"type":"function","name":"batchWhitelist","inputs":[{"name":"users","type":"address[]","internalType":"address[]"}],"outputs":[],"stateMutability":"nonpayable"},{"type":"function","name":"checkWhitelist","inputs":[{"name":"user","type":"address","internalType":"address"}],"outputs":[{"name":"","type":"bool","internalType":"bool"}],"stateMutability":"view"},{"type":"function","name":"depositFee","inputs":[],"outputs":[{"name":"","type":"uint256","internalType":"uint256"}],"stateMutability":"view"},{"type":"function","name":"feeRecipient","inputs":[],"outputs":[{"name":"","type":"address","internalType":"address"}],"stateMutability":"view"},{"type":"function","name":"getFeeStats","inputs":[],"outputs":[{"name":"totalDeposit","type":"uint256","internalType":"uint256"},{"name":"totalWithdraw","type":"uint256","internalType":"uint256"}],"stateMutability":"view"},{"type":"function","name":"getFees","inputs":[],"outputs":[{"name":"deposit","type":"uint256","internalType":"uint256"},{"name":"withdraw","type":"uint256","internalType":"uint256"}],"stateMutability":"view"},{"type":"function","name":"getReserves","inputs":[],"outputs":[{"name":"locked","type":"uint256","internalType":"uint256"},{"name":"minted","type":"uint256","internalType":"uint256"}],"stateMutability":"view"},{"type":"function","name":"isBalanced","inputs":[],"outputs":[{"name":"","type":"bool","internalType":"bool"}],"stateMutability":"view"},{"type":"function","name":"isWhitelisted","inputs":[{"name":"","type":"address","internalType":"address"}],"outputs":[{"name":"","type":"bool","internalType":"bool"}],"stateMutability":"view"},{"type":"function","name":"oftToken","inputs":[],"outputs":[{"name":"","type":"address","internalType":"address"}],"stateMutability":"view"},{"type":"function","name":"owner","inputs":[],"outputs":[{"name":"","type":"address","internalType":"address"}],"stateMutability":"view"},{"type":"function","name":"renounceOwnership","inputs":[],"outputs":[],"stateMutability":"nonpayable"},{"type":"function","name":"setFeeRecipient","inputs":[{"name":"_feeRecipient","type":"address","internalType":"address"}],"outputs":[],"stateMutability":"nonpayable"},{"type":"function","name":"setFees","inputs":[{"name":"_depositFee","type":"uint256","internalType":"uint256"},{"name":"_withdrawFee","type":"uint256","internalType":"uint256"}],"outputs":[],"stateMutability":"nonpayable"},{"type":"function","name":"setWhitelist","inputs":[{"name":"user","type":"address","internalType":"address"},{"name":"whitelisted","type":"bool","internalType":"bool"}],"outputs":[],"stateMutability":"nonpayable"},{"type":"function","name":"totalDepositFees","inputs":[],"outputs":[{"name":"","type":"uint256","internalType":"uint256"}],"stateMutability":"view"},{"type":"function","name":"totalLocked","inputs":[],"outputs":[{"name":"","type":"uint256","internalType":"uint256"}],"stateMutability":"view"},{"type":"function","name":"totalMinted","inputs":[],"outputs":[{"name":"","type":"uint256","internalType":"uint256"}],"stateMutability":"view"},{"type":"function","name":"totalWithdrawFees","inputs":[],"outputs":[{"name":"","type":"uint256","internalType":"uint256"}],"stateMutability":"view"},{"type":"function","name":"transferOwnership","inputs":[{"name":"newOwner","type":"address","internalType":"address"}],"outputs":[],"stateMutability":"nonpayable"},{"type":"function","name":"unwrap","inputs":[{"name":"amount","type":"uint256","internalType":"uint256"}],"outputs":[],"stateMutability":"nonpayable"},{"type":"function","name":"vaultToken","inputs":[],"outputs":[{"name":"","type":"address","internalType":"address"}],"stateMutability":"view"},{"type":"function","name":"verify","inputs":[],"outputs":[{"name":"","type":"bool","internalType":"bool"}],"stateMutability":"view"},{"type":"function","name":"withdrawFee","inputs":[],"outputs":[{"name":"","type":"uint256","internalType":"uint256"}],"stateMutability":"view"},{"type":"function","name":"wrap","inputs":[{"name":"amount","type":"uint256","internalType":"uint256"}],"outputs":[],"stateMutability":"nonpayable"},{"type":"event","name":"FeeCollected","inputs":[{"name":"user","type":"address","indexed":true,"internalType":"address"},{"name":"amount","type":"uint256","indexed":false,"internalType":"uint256"},{"name":"feeType","type":"string","indexed":false,"internalType":"string"}],"anonymous":false},{"type":"event","name":"FeeRecipientUpdated","inputs":[{"name":"newRecipient","type":"address","indexed":true,"internalType":"address"}],"anonymous":false},{"type":"event","name":"FeesUpdated","inputs":[{"name":"depositFee","type":"uint256","indexed":false,"internalType":"uint256"},{"name":"withdrawFee","type":"uint256","indexed":false,"internalType":"uint256"}],"anonymous":false},{"type":"event","name":"OwnershipTransferred","inputs":[{"name":"previousOwner","type":"address","indexed":true,"internalType":"address"},{"name":"newOwner","type":"address","indexed":true,"internalType":"address"}],"anonymous":false},{"type":"event","name":"Unwrapped","inputs":[{"name":"user","type":"address","indexed":true,"internalType":"address"},{"name":"amount","type":"uint256","indexed":false,"internalType":"uint256"},{"name":"fee","type":"uint256","indexed":false,"internalType":"uint256"}],"anonymous":false},{"type":"event","name":"WhitelistUpdated","inputs":[{"name":"user","type":"address","indexed":true,"internalType":"address"},{"name":"isWhitelisted","type":"bool","indexed":false,"internalType":"bool"}],"anonymous":false},{"type":"event","name":"Wrapped","inputs":[{"name":"user","type":"address","indexed":true,"internalType":"address"},{"name":"amount","type":"uint256","indexed":false,"internalType":"uint256"},{"name":"fee","type":"uint256","indexed":false,"internalType":"uint256"}],"anonymous":false},{"type":"error","name":"BridgeImbalance","inputs":[]},{"type":"error","name":"FeeExceedsLimit","inputs":[]},{"type":"error","name":"InsufficientLockedShares","inputs":[]},{"type":"error","name":"OwnableInvalidOwner","inputs":[{"name":"owner","type":"address","internalType":"address"}]},{"type":"error","name":"OwnableUnauthorizedAccount","inputs":[{"name":"account","type":"address","internalType":"address"}]},{"type":"error","name":"ReentrancyGuardReentrantCall","inputs":[]},{"type":"error","name":"SafeERC20FailedOperation","inputs":[{"name":"token","type":"address","internalType":"address"}]},{"type":"error","name":"ZeroAmount","inputs":[]},{"type":"error","name":"ZeroFeeRecipient","inputs":[]}],"bytecode":{"object":"0x60c0346200020757601f6200110138819003918201601f191683019291906001600160401b038411838510176200020c5781608092849260409687528339810103126200020757620000518162000222565b6060620000616020840162000222565b916200006f85850162000222565b936001600160a01b0392839162000087910162000222565b16918215620001ef576000938454958260018060a01b03199486868a1617885586828b519a167f8be0079c531659141344cd1fd0a4f28419497f9722a3daafe3b4186f6b6457e08a80a360018055606460045560c8600555169687151580620001e3575b15620001b2575082169586156200017957928794928792600197956080521660a0526006541617600655815260076020528181209360ff199484868254161790558152209182541617905551610ec9908162000238823960805181818161018f0152818161032b015281816106f301526109dc015260a0518181816103b10152818161065c015261089c0152f35b875162461bcd60e51b815260206004820152601260248201527116995c9bc8199959481c9958da5c1a595b9d60721b6044820152606490fd5b62461bcd60e51b815260206004820152600c60248201526b5a65726f206164647265737360a01b6044820152606490fd5b508383161515620000eb565b8551631e4fbdf760e01b815260006004820152602490fd5b600080fd5b634e487b7160e01b600052604160045260246000fd5b51906001600160a01b0382168203620002075756fe608060408181526004908136101561001657600080fd5b600092833560e01c9081630902f1ac14610c91575080630b78f9c014610c0d5780631950c21814610aef57806339ee066114610b2d5780633af32abf14610aef5780634690484014610ac657806353349557146109c757806353d6fd5914610a485780635689141214610a2957806367a5279314610a0b578063703bafd5146109c7578063715018a61461096d5780638da5cb5b1461094557806398537250146109265780639d4273e114610907578063a2309ff8146108e8578063b2abb70f14610887578063bc063e1a146108cb578063c556537e14610887578063cb03a46414610864578063db8d55f114610841578063de0e9a3e1461060b578063e1f1c4a7146105ee578063e74b981b14610573578063e941fa7814610550578063ea598cb0146102ed578063f28ab2be146102c5578063f2fde38b146102345763fc735e991461016357600080fd5b3461021e578260031936011261021e5780516370a0823160e01b815230928101929092526020826024817f00000000000000000000000000000000000000000000000000000000000000006001600160a01b03165afa91821561022a5783926101ee575b506020925060025480921491826101e2575b50519015158152f35b600354149150386101d9565b9091506020813d602011610222575b8161020a60209383610d77565b8101031261021e57602092505190386101c7565b8280fd5b3d91506101fd565b81513d85823e3d90fd5b50903461021e57602036600319011261021e5761024f610cb5565b90610258610d99565b6001600160a01b039182169283156102af575050600054826bffffffffffffffffffffffff60a01b821617600055167f8be0079c531659141344cd1fd0a4f28419497f9722a3daafe3b4186f6b6457e0600080a380f35b51631e4fbdf760e01b8152908101849052602490fd5b5082346102ea57806003193601126102ea575060085460095482519182526020820152f35b80fd5b50903461021e57602036600319011261021e5780359161030b610dc5565b821561054357839183338652600760205260ff8387205416156104c3575b7f00000000000000000000000000000000000000000000000000000000000000009083516323b872dd60e01b60208201523360248201523060448201528160648201526064815260a0810181811067ffffffffffffffff8211176104ae579161039b6103a3928a969594885284610e2b565b600254610d40565b6002558480610480575b50507f00000000000000000000000000000000000000000000000000000000000000006001600160a01b0316803b1561021e5783516340c10f1960e01b81523392810192835260208301879052918391839182908490829060400103925af180156104765761045e575b50507f727200b48f3c812bfb404b578574e1c03694edb122d80fa6dcb352a9e4f8a9389161044784600354610d40565b600355815193845260208401523392a26001805580f35b61046790610d4d565b610472578338610417565b8380fd5b83513d84823e3d90fd5b600654610498926001600160a01b0390911690610de8565b6104a484600254610d33565b60025538846103ad565b604185634e487b7160e01b6000525260246000fd5b935091506127106104d5835485610d0a565b04916104e18385610d33565b938315610329576104f484600854610d40565b60085582518481528360208201526007848201526619195c1bdcda5d60ca1b60608201527fbde344b6f67c3bf7e0ecbbf22b04267d5d3ae0aa1909c0000b812f6b14ce45b960803392a2610329565b51631f2a200560e01b8152fd5b83823461056f578160031936011261056f576020906005549051908152f35b5080fd5b50903461021e57602036600319011261021e5761058e610cb5565b610596610d99565b6001600160a01b03169182156105e1575050600680546001600160a01b031916821790557f7a7b5a0a132f9e0581eb8527f66eae9ee89c2a3e79d4ac7e41a1f1f4d48a7fc28280a280f35b516333fe7c6560e21b8152fd5b83823461056f578160031936011261056f57602090516127108152f35b5091903461056f57602036600319011261056f5780359261062a610dc5565b831561054357828492338552600760205260ff8386205416156107c1575b83600254106107b3576001600160a01b03907f0000000000000000000000000000000000000000000000000000000000000000821690813b156107af578451632770a7eb60e21b8152339181019182526020820189905291879183919082908490829060400103925af180156107a55761076e575b506106ed7ff64ae1cc3e0e07da9c895b3225439175cab5838aca24c4e74852704858c96a7b949596600354610d33565b600355817f000000000000000000000000000000000000000000000000000000000000000061071d873383610de8565b61072987600254610d33565b60025581610749575b505050815193845260208401523392a26001805580f35b610757926006541690610de8565b61076381600254610d33565b600255388181610732565b7ff64ae1cc3e0e07da9c895b3225439175cab5838aca24c4e74852704858c96a7b949561079d6106ed92610d4d565b9594506106bd565b84513d88823e3d90fd5b8680fd5b82516389206fd560e01b8152fd5b9250506127106107d360055486610d0a565b046107de8186610d33565b928115610648576107f182600954610d40565b600955825182815283602082015260088482015267776974686472617760c01b60608201527fbde344b6f67c3bf7e0ecbbf22b04267d5d3ae0aa1909c0000b812f6b14ce45b960803392a2610648565b5091346102ea57806003193601126102ea57505460055482519182526020820152f35b83823461056f578160031936011261056f57602090600254600354149051908152f35b83823461056f578160031936011261056f57517f00000000000000000000000000000000000000000000000000000000000000006001600160a01b03168152602090f35b83823461056f578160031936011261056f57602090516103e88152f35b83823461056f578160031936011261056f576020906003549051908152f35b83823461056f578160031936011261056f576020906008549051908152f35b83823461056f578160031936011261056f576020906009549051908152f35b83823461056f578160031936011261056f57905490516001600160a01b039091168152602090f35b83346102ea57806003193601126102ea57610986610d99565b80546001600160a01b03198116825581906001600160a01b03167f8be0079c531659141344cd1fd0a4f28419497f9722a3daafe3b4186f6b6457e08280a380f35b83823461056f578160031936011261056f57517f00000000000000000000000000000000000000000000000000000000000000006001600160a01b03168152602090f35b50903461021e578260031936011261021e5760209250549051908152f35b83823461056f578160031936011261056f576020906002549051908152f35b83823461056f578060031936011261056f57610a62610cb5565b60243590811515809203610472577ff93f9a76c1bf3444d22400a00cb9fe990e6abe9dbb333fda48859cfee864543d91602091610a9d610d99565b6001600160a01b031680865260078352848620805460ff191660ff84161790559351908152a280f35b83823461056f578160031936011261056f5760065490516001600160a01b039091168152602090f35b83823461056f57602036600319011261056f5760209160ff9082906001600160a01b03610b1a610cb5565b1681526007855220541690519015158152f35b503461021e5760208060031936011261047257823567ffffffffffffffff93848211610c095736602383011215610c0957810135938411610c05576024810190602436918660051b010111610c0557610b84610d99565b845b848110610b91578580f35b6001906001600160a01b0380610bb0610bab848a88610cd0565b610cf6565b168852600785527ff93f9a76c1bf3444d22400a00cb9fe990e6abe9dbb333fda48859cfee864543d85878a209285938460ff19825416179055610bf7610bab868c8a610cd0565b16928851908152a201610b86565b8480fd5b8580fd5b5082903461056f578060031936011261056f578235602435610c2d610d99565b6103e8808311908115610c87575b50610c7757817f5c6323bf1c2d7aaea2c091a4751c1c87af7f2864650c336507a77d0557af37a19495558060055582519182526020820152a180f35b82516312f7b37560e11b81528590fd5b9050811186610c3b565b905083346102ea57806003193601126102ea57506002546003549082526020820152f35b600435906001600160a01b0382168203610ccb57565b600080fd5b9190811015610ce05760051b0190565b634e487b7160e01b600052603260045260246000fd5b356001600160a01b0381168103610ccb5790565b81810292918115918404141715610d1d57565b634e487b7160e01b600052601160045260246000fd5b91908203918211610d1d57565b91908201809211610d1d57565b67ffffffffffffffff8111610d6157604052565b634e487b7160e01b600052604160045260246000fd5b90601f8019910116810190811067ffffffffffffffff821117610d6157604052565b6000546001600160a01b03163303610dad57565b60405163118cdaa760e01b8152336004820152602490fd5b600260015414610dd6576002600155565b604051633ee5aeb560e01b8152600490fd5b60405163a9059cbb60e01b60208201526001600160a01b03929092166024830152604480830193909352918152610e2991610e24606483610d77565b610e2b565b565b906000602091828151910182855af115610e87576000513d610e7e57506001600160a01b0381163b155b610e5c5750565b604051635274afe760e01b81526001600160a01b039091166004820152602490fd5b60011415610e55565b6040513d6000823e3d90fdfea26469706673582212209475e97cb5eb44a6a6a1d65a890fdc40104b5904c542e9750b2827391cc2716b64736f6c63430008160033","linkReferences":{}},"methodIdentifiers":{"BASIS_POINTS()":"e1f1c4a7","MAX_FEE()":"bc063e1a","OFT_EAGLE()":"c556537e","VAULT_EAGLE()":"53349557","batchWhitelist(address[])":"39ee0661","checkWhitelist(address)":"1950c218","depositFee()":"67a52793","feeRecipient()":"46904840","getFeeStats()":"f28ab2be","getFees()":"db8d55f1","getReserves()":"0902f1ac","isBalanced()":"cb03a464","isWhitelisted(address)":"3af32abf","oftToken()":"b2abb70f","owner()":"8da5cb5b","renounceOwnership()":"715018a6","setFeeRecipient(address)":"e74b981b","setFees(uint256,uint256)":"0b78f9c0","setWhitelist(address,bool)":"53d6fd59","totalDepositFees()":"9d4273e1","totalLocked()":"56891412","totalMinted()":"a2309ff8","totalWithdrawFees()":"98537250","transferOwnership(address)":"f2fde38b","unwrap(uint256)":"de0e9a3e","vaultToken()":"703bafd5","verify()":"fc735e99","withdrawFee()":"e941fa78","wrap(uint256)":"ea598cb0"},"id":2}