{"abi":[{"type":"constructor","inputs":[{"name":"_initialOwner","type":"address","internalType":"address"}],"stateMutability":"nonpayable"},{"type":"function","name":"MAX_SUPPORTED_CHAINS","inputs":[],"outputs":[{"name":"","type":"uint256","internalType":"uint256"}],"stateMutability":"view"},{"type":"function","name":"chainIdToEid","inputs":[{"name":"","type":"uint256","internalType":"uint256"}],"outputs":[{"name":"","type":"uint32","internalType":"uint32"}],"stateMutability":"view"},{"type":"function","name":"eidToChainId","inputs":[{"name":"","type":"uint32","internalType":"uint32"}],"outputs":[{"name":"","type":"uint256","internalType":"uint256"}],"stateMutability":"view"},{"type":"function","name":"getChainConfig","inputs":[{"name":"_chainId","type":"uint16","internalType":"uint16"}],"outputs":[{"name":"","type":"tuple","internalType":"struct IChainRegistry.ChainConfig","components":[{"name":"chainId","type":"uint16","internalType":"uint16"},{"name":"chainName","type":"string","internalType":"string"},{"name":"wrappedNativeToken","type":"address","internalType":"address"},{"name":"wrappedNativeSymbol","type":"string","internalType":"string"},{"name":"isActive","type":"bool","internalType":"bool"}]}],"stateMutability":"view"},{"type":"function","name":"getCurrentChainId","inputs":[],"outputs":[{"name":"","type":"uint16","internalType":"uint16"}],"stateMutability":"view"},{"type":"function","name":"getEidForChainId","inputs":[{"name":"_chainId","type":"uint256","internalType":"uint256"}],"outputs":[{"name":"","type":"uint32","internalType":"uint32"}],"stateMutability":"view"},{"type":"function","name":"getLayerZeroEndpoint","inputs":[{"name":"_chainId","type":"uint16","internalType":"uint16"}],"outputs":[{"name":"","type":"address","internalType":"address"}],"stateMutability":"view"},{"type":"function","name":"getSupportedChainCount","inputs":[],"outputs":[{"name":"","type":"uint256","internalType":"uint256"}],"stateMutability":"view"},{"type":"function","name":"getSupportedChains","inputs":[],"outputs":[{"name":"","type":"uint16[]","internalType":"uint16[]"}],"stateMutability":"view"},{"type":"function","name":"isChainSupported","inputs":[{"name":"_chainId","type":"uint16","internalType":"uint16"}],"outputs":[{"name":"","type":"bool","internalType":"bool"}],"stateMutability":"view"},{"type":"function","name":"layerZeroEndpoints","inputs":[{"name":"","type":"uint16","internalType":"uint16"}],"outputs":[{"name":"","type":"address","internalType":"address"}],"stateMutability":"view"},{"type":"function","name":"owner","inputs":[],"outputs":[{"name":"","type":"address","internalType":"address"}],"stateMutability":"view"},{"type":"function","name":"registerChain","inputs":[{"name":"_chainId","type":"uint16","internalType":"uint16"},{"name":"_chainName","type":"string","internalType":"string"},{"name":"_wrappedNativeToken","type":"address","internalType":"address"},{"name":"_wrappedNativeSymbol","type":"string","internalType":"string"},{"name":"_isActive","type":"bool","internalType":"bool"}],"outputs":[],"stateMutability":"nonpayable"},{"type":"function","name":"renounceOwnership","inputs":[],"outputs":[],"stateMutability":"nonpayable"},{"type":"function","name":"setChainIdToEid","inputs":[{"name":"_chainId","type":"uint256","internalType":"uint256"},{"name":"_eid","type":"uint32","internalType":"uint32"}],"outputs":[],"stateMutability":"nonpayable"},{"type":"function","name":"setChainStatus","inputs":[{"name":"_chainId","type":"uint16","internalType":"uint16"},{"name":"_isActive","type":"bool","internalType":"bool"}],"outputs":[],"stateMutability":"nonpayable"},{"type":"function","name":"setLayerZeroEndpoint","inputs":[{"name":"_chainId","type":"uint16","internalType":"uint16"},{"name":"_endpoint","type":"address","internalType":"address"}],"outputs":[],"stateMutability":"nonpayable"},{"type":"function","name":"transferOwnership","inputs":[{"name":"newOwner","type":"address","internalType":"address"}],"outputs":[],"stateMutability":"nonpayable"},{"type":"event","name":"ChainIdToEidUpdated","inputs":[{"name":"chainId","type":"uint256","indexed":false,"internalType":"uint256"},{"name":"eid","type":"uint32","indexed":false,"internalType":"uint32"}],"anonymous":false},{"type":"event","name":"ChainRegistered","inputs":[{"name":"chainId","type":"uint16","indexed":true,"internalType":"uint16"},{"name":"chainName","type":"string","indexed":false,"internalType":"string"}],"anonymous":false},{"type":"event","name":"ChainStatusChanged","inputs":[{"name":"chainId","type":"uint16","indexed":true,"internalType":"uint16"},{"name":"isActive","type":"bool","indexed":false,"internalType":"bool"}],"anonymous":false},{"type":"event","name":"ChainUpdated","inputs":[{"name":"chainId","type":"uint16","indexed":true,"internalType":"uint16"}],"anonymous":false},{"type":"event","name":"CurrentChainSet","inputs":[{"name":"chainId","type":"uint16","indexed":true,"internalType":"uint16"}],"anonymous":false},{"type":"event","name":"LayerZeroEndpointUpdated","inputs":[{"name":"chainId","type":"uint16","indexed":true,"internalType":"uint16"},{"name":"endpoint","type":"address","indexed":false,"internalType":"address"}],"anonymous":false},{"type":"event","name":"OwnershipTransferred","inputs":[{"name":"previousOwner","type":"address","indexed":true,"internalType":"address"},{"name":"newOwner","type":"address","indexed":true,"internalType":"address"}],"anonymous":false},{"type":"error","name":"ChainAlreadyRegistered","inputs":[{"name":"chainId","type":"uint16","internalType":"uint16"}]},{"type":"error","name":"ChainNotRegistered","inputs":[{"name":"chainId","type":"uint16","internalType":"uint16"}]},{"type":"error","name":"OwnableInvalidOwner","inputs":[{"name":"owner","type":"address","internalType":"address"}]},{"type":"error","name":"OwnableUnauthorizedAccount","inputs":[{"name":"account","type":"address","internalType":"address"}]},{"type":"error","name":"TooManyChains","inputs":[]},{"type":"error","name":"ZeroAddress","inputs":[]}],"bytecode":{"object":"0x608034620001cd57601f620012c438819003918201601f19168301916001600160401b03831184841017620001d257808492602094604052833981010312620001cd57516001600160a01b039081811690819003620001cd578015620001b457600080546001600160a01b03198116831782559092167f8be0079c531659141344cd1fd0a4f28419497f9722a3daafe3b4186f6b6457e08380a346600103620000ec57600161ffff1960035416176003555b61ffff600354167ff6549dcfe73f8bc1cc6508ff53d144c3df78d7b2a4f3d670dd1cd6bb1752d3be6040519280a26110db9081620001e98239f35b466038036200010957603861ffff196003541617600355620000b1565b466089036200012657608961ffff196003541617600355620000b1565b61a4b1468103620001435761ffff196003541617600355620000b1565b50612105468103620001615761ffff196003541617600355620000b1565b5061a86a4681036200017f5761ffff196003541617600355620000b1565b50466092036200019d57609261ffff196003541617600355620000b1565b61ffff461661ffff196003541617600355620000b1565b604051631e4fbdf760e01b815260006004820152602490fd5b600080fd5b634e487b7160e01b600052604160045260246000fdfe6080604090808252600436101561001557600080fd5b60e060003560e01c91826328f41de314610e63575081633fb0a191146109be5781635cf0e8a41461099b578163715018a6146109425781637da670a0146109265781638b42babd146108ec5781638cb3aaa3146108655781638da5cb5b1461083c578163b87f29e11461081c578163c17786a0146106f1578163c4bffe2b1461038457508063cf236627146102d0578063decb1d9a14610206578063eba8cf8d1461017a578063eced3dfb146101e7578063f0a594a9146101ab578063f151e4971461017a5763f2fde38b146100ea57600080fd5b34610175576020366003190112610175576001600160a01b0360043581811692908390036101755761011a611079565b821561015e5750600054826001600160601b0360a01b821617600055167f8be0079c531659141344cd1fd0a4f28419497f9722a3daafe3b4186f6b6457e0600080a3005b51631e4fbdf760e01b815260006004820152602490fd5b600080fd5b5034610175576020366003190112610175576020906004356000526005825263ffffffff8160002054169051908152f35b50346101755760203660031901126101755760209061ffff6101cb610eb4565b166000526004825260018060a01b038160002054169051908152f35b5034610175576000366003190112610175576020906002549051908152f35b503461017557806003193601126101755761021f610eb4565b906024356001600160a01b03811691908290036101755761023e611079565b81156102c05761ffff80931692836000526001602052816000205416156102a9577f8efcbf71ab784f8ebb6bf61d2ae0526705fc7fb1c1ce8b4320688b03c218501491602091846000526004835280600020826001600160601b0360a01b82541617905551908152a2005b51635112327760e01b815260048101839052602490fd5b5163d92e233d60e01b8152600490fd5b50346101755780600319360112610175576102e9610eb4565b90602435908115159182810361017557610301611079565b61ffff809416938460005260016020528260002054161561036c57916020916103657f8a2e7bc3935fd57632299c1b85c1f2a2ca6b83577ced6c12e0516eb9d809c9d2948660005260018552600483600020019060ff801983541691151516179055565b51908152a2005b8151635112327760e01b815260048101859052602490fd5b9050346101755760003660031901126101755781518060025480825282602080809401809660026000527f405787fa12a823e0f2b7631cc41b3ba8828b3321ca811111fa75cd3aa3bb5ace946000915b81600f840110610618575061047595549184828210610604575b8282106105ed575b8282106105d7575b8282106105c0575b8b8383106105a9575b50828210610592575b82821061057b575b828210610564575b82821061054d575b828210610536575b82821061051f575b828210610508575b8282106104f1575b8282106104da575b8282106104c3575b50106104b5575b509050959493950385610ee1565b8251818152935181850181905284938401929160005b82811061049a57505050500390f35b835161ffff168552869550938101939281019260010161048b565b60f01c815201839038610467565b6001919461ffff8560e01c16815201930184610460565b6001919461ffff8560d01c16815201930184610458565b6001919461ffff8560c01c16815201930184610450565b6001919461ffff8560b01c16815201930184610448565b6001919461ffff8560a01c16815201930184610440565b6001919461ffff8560901c16815201930184610438565b6001919461ffff8560801c16815201930184610430565b6001919461ffff8560701c16815201930184610428565b6001919461ffff8560601c16815201930184610420565b6001919461ffff8560501c16815201930184610418565b9461ffff85600194971c168152019301848b61040f565b6001919461ffff8560301c16815201930184610406565b6001919461ffff85831c168152019301846103fe565b6001919461ffff8560101c168152019301846103f6565b6001919461ffff85168152019301846103ee565b945092610200838b60109495816001958a8c5480809681948280809661ffff9a8b9a8b84819a9782809916855260108284911c16818601521c169101528c606095858460301c16878301528560809485921c169101528c60a095858560501c16878301528560c09a8b921c16910152838360701c16908d01521c166101008a0152828260901c166101208a01521c16610140870152828260b01c166101608701521c16610180840152808260d01c166101a084015281891c166101c083015260f01c6101e08201520195019101859287949592956103d4565b823461017557602090816003193601126101755761070d610eb4565b9160006080835161071d81610ec5565b8281526060848201528285820152606080820152015261ffff8093168060005260018252838360002054161561080557600052600181526107f8826000209280519361076885610ec5565b85815416855261077a60018201610fd4565b918486019283526107de60018060a01b039160a08360028601541695828a0196875260ff60046107ac60038901610fd4565b9760608d019889520154169860808b019915158a5283519b8c9b828d525116908b0152519189015260c0880190610f5a565b925116606086015251848203601f19016080860152610f5a565b9051151560a08301520390f35b602490835190635112327760e01b82526004820152fd5b82346101755760203660031901126101755760209061ffff6101cb610eb4565b82346101755760003660031901126101755760005490516001600160a01b039091168152602090f35b8234610175578060031936011261017557600435906024359163ffffffff8316809303610175577f1121620854be62ee6386fe112976b58e1f8f41bec38d8bd2f2d8438ce15c8f70926108b6611079565b816000526005602052826000208163ffffffff1982541617905580600052600660205281836000205582519182526020820152a1005b8234610175576020366003190112610175576004359063ffffffff8216809203610175576020916000526006825280600020549051908152f35b8234610175576000366003190112610175576020905160328152f35b346101755760003660031901126101755761095b611079565b600080546001600160a01b0319811682556001600160a01b03167f8be0079c531659141344cd1fd0a4f28419497f9722a3daafe3b4186f6b6457e08280a3005b82346101755760003660031901126101755760209061ffff600354169051908152f35b82346101755760a0366003190112610175576109d8610eb4565b60243567ffffffffffffffff8111610175576109f8903690600401610f03565b916044356001600160a01b038116908190036101755760643567ffffffffffffffff811161017557610a2e903690600401610f03565b60843580151580910361017557610a43611079565b8215610e525761ffff8516600052600160205261ffff846000205416610e375760326002541015610e2657835191610a7a83610ec5565b61ffff861683526020830193878552858401526060830152608082015261ffff84166000526001602052826000209161ffff82511661ffff198454161783555180519067ffffffffffffffff8211610c73578190610adb6001860154610f9a565b601f8111610dd3575b50602090601f8311600114610d6157600092610d56575b50508160011b916000199060031b1c19161760018301555b6002820160018060a01b0384830151166001600160601b0360a01b825416179055606081015180519067ffffffffffffffff8211610c7357610b586003850154610f9a565b601f8111610d0b575b50602090601f8311600114610c94579282600493608093610bb49796600092610c89575b50508160011b916000199060031b1c19161760038501555b0151151591019060ff801983541691151516179055565b6002549168010000000000000000831015610c73576001830180600255831015610c5d57610c5861ffff927f62bb0ad0b7a8956c331b58a2677c0309932bd3f9ff9275b0d913ee6f544a8a569460026000528060041c7f405787fa12a823e0f2b7631cc41b3ba8828b3321ca811111fa75cd3aa3bb5ace019060f082549160041b169086808716831b921b1916179055519283926020845216946020830190610f5a565b0390a2005b634e487b7160e01b600052603260045260246000fd5b634e487b7160e01b600052604160045260246000fd5b015190508a80610b85565b90601f198316916003860160005260206000209260005b818110610cf3575093608093610bb49796936001938360049810610cda575b505050811b016003850155610b9d565b015160001960f88460031b161c191690558a8080610cca565b92936020600181928786015181550195019301610cab565b600385016000526020600020601f840160051c81019160208510610d4c575b601f0160051c01905b818110610d405750610b61565b60008155600101610d33565b9091508190610d2a565b015190508780610afb565b9250600185016000526020600020906000935b601f1984168510610db8576001945083601f19811610610d9f575b505050811b016001830155610b13565b015160001960f88460031b161c19169055878080610d8f565b81810151835560209485019460019093019290910190610d74565b909150600185016000526020600020601f840160051c810160208510610e1f575b90849392915b601f830160051c82018110610e10575050610ae4565b60008155859450600101610dfa565b5080610df4565b835163b73ef67b60e01b8152600490fd5b8351630b4ab72d60e21b815261ffff86166004820152602490fd5b835163d92e233d60e01b8152600490fd5b8390346101755760203660031901126101755760209161ffff9081610e86610eb4565b16600052600184526000209081541615159081610ea5575b5015158152f35b60ff9150600401541683610e9e565b6004359061ffff8216820361017557565b60a0810190811067ffffffffffffffff821117610c7357604052565b90601f8019910116810190811067ffffffffffffffff821117610c7357604052565b81601f820112156101755780359067ffffffffffffffff8211610c735760405192610f38601f8401601f191660200185610ee1565b8284526020838301011161017557816000926020809301838601378301015290565b919082519283825260005b848110610f86575050826000602080949584010152601f8019910116010190565b602081830181015184830182015201610f65565b90600182811c92168015610fca575b6020831014610fb457565b634e487b7160e01b600052602260045260246000fd5b91607f1691610fa9565b90604051918260008254610fe781610f9a565b908184526020946001916001811690816000146110575750600114611018575b50505061101692500383610ee1565b565b600090815285812095935091905b81831061103f5750506110169350820101388080611007565b85548884018501529485019487945091830191611026565b9250505061101694925060ff191682840152151560051b820101388080611007565b6000546001600160a01b0316330361108d57565b60405163118cdaa760e01b8152336004820152602490fdfea264697066735822122044eec437d4ba62400ca9086b32113cf9ac54badb5f52d56329e0cfe6e25c23c964736f6c63430008160033","linkReferences":{}},"methodIdentifiers":{"MAX_SUPPORTED_CHAINS()":"7da670a0","chainIdToEid(uint256)":"f151e497","eidToChainId(uint32)":"8b42babd","getChainConfig(uint16)":"c17786a0","getCurrentChainId()":"5cf0e8a4","getEidForChainId(uint256)":"eba8cf8d","getLayerZeroEndpoint(uint16)":"b87f29e1","getSupportedChainCount()":"eced3dfb","getSupportedChains()":"c4bffe2b","isChainSupported(uint16)":"28f41de3","layerZeroEndpoints(uint16)":"f0a594a9","owner()":"8da5cb5b","registerChain(uint16,string,address,string,bool)":"3fb0a191","renounceOwnership()":"715018a6","setChainIdToEid(uint256,uint32)":"8cb3aaa3","setChainStatus(uint16,bool)":"cf236627","setLayerZeroEndpoint(uint16,address)":"decb1d9a","transferOwnership(address)":"f2fde38b"},"id":1}