{"abi":[{"type":"function","name":"delegates","inputs":[{"name":"","type":"address","internalType":"address"}],"outputs":[{"name":"","type":"address","internalType":"address"}],"stateMutability":"pure"},{"type":"function","name":"eid","inputs":[],"outputs":[{"name":"","type":"uint32","internalType":"uint32"}],"stateMutability":"pure"},{"type":"function","name":"peers","inputs":[{"name":"","type":"address","internalType":"address"},{"name":"","type":"uint32","internalType":"uint32"}],"outputs":[{"name":"","type":"bytes32","internalType":"bytes32"}],"stateMutability":"view"},{"type":"function","name":"setDelegate","inputs":[{"name":"","type":"address","internalType":"address"}],"outputs":[],"stateMutability":"pure"}],"bytecode":{"object":"0x608080604052346100165761015c908161001c8239f35b600080fdfe6080604090808252600436101561001557600080fd5b600091823560e01c918263416ecebf146100ef57508163587cde1e146100c9578163b697fe2e14610070575063ca5eb5e11461005057600080fd5b3461006d57602036600319011261006d5761006961010b565b5080f35b80fd5b9050346100c557806003193601126100c55761008a61010b565b6024359063ffffffff82168092036100c1576001600160a01b03168352602083815282842091845290815291819020549051908152f35b8380fd5b5080fd5b9050346100c55760203660031901126100c557906020916100e861010b565b5051908152f35b8390346100c557816003193601126100c55780619ce160209252f35b600435906001600160a01b038216820361012157565b600080fdfea2646970667358221220d830a5e075ca626c703b6b8a59641d09c4b493634dc9d347f1ce7e5d59a1122964736f6c63430008160033","linkReferences":{}},"methodIdentifiers":{"delegates(address)":"587cde1e","eid()":"416ecebf","peers(address,uint32)":"b697fe2e","setDelegate(address)":"ca5eb5e1"},"id":24}