{"abi":[{"type":"constructor","inputs":[{"name":"_vaultAddress","type":"address","internalType":"address"},{"name":"_charmFactory","type":"address","internalType":"address"},{"name":"_wlfi","type":"address","internalType":"address"},{"name":"_usd1","type":"address","internalType":"address"},{"name":"_weth","type":"address","internalType":"address"},{"name":"_uniswapRouter","type":"address","internalType":"address"},{"name":"_owner","type":"address","internalType":"address"}],"stateMutability":"nonpayable"},{"type":"function","name":"CHARM_FACTORY","inputs":[],"outputs":[{"name":"","type":"address","internalType":"contract ICharmFactory"}],"stateMutability":"view"},{"type":"function","name":"EAGLE_VAULT","inputs":[],"outputs":[{"name":"","type":"address","internalType":"address"}],"stateMutability":"view"},{"type":"function","name":"POOL_DESCRIPTION","inputs":[],"outputs":[{"name":"","type":"string","internalType":"string"}],"stateMutability":"view"},{"type":"function","name":"POOL_FEE","inputs":[],"outputs":[{"name":"","type":"uint24","internalType":"uint24"}],"stateMutability":"view"},{"type":"function","name":"UNISWAP_ROUTER","inputs":[],"outputs":[{"name":"","type":"address","internalType":"contract ISwapRouter"}],"stateMutability":"view"},{"type":"function","name":"UNISWAP_V3_POOL","inputs":[],"outputs":[{"name":"","type":"address","internalType":"address"}],"stateMutability":"view"},{"type":"function","name":"USD1","inputs":[],"outputs":[{"name":"","type":"address","internalType":"contract IERC20"}],"stateMutability":"view"},{"type":"function","name":"WETH","inputs":[],"outputs":[{"name":"","type":"address","internalType":"contract IERC20"}],"stateMutability":"view"},{"type":"function","name":"WLFI","inputs":[],"outputs":[{"name":"","type":"address","internalType":"contract IERC20"}],"stateMutability":"view"},{"type":"function","name":"active","inputs":[],"outputs":[{"name":"","type":"bool","internalType":"bool"}],"stateMutability":"view"},{"type":"function","name":"charmVault","inputs":[],"outputs":[{"name":"","type":"address","internalType":"contract ICharmVault"}],"stateMutability":"view"},{"type":"function","name":"deposit","inputs":[{"name":"wlfiAmount","type":"uint256","internalType":"uint256"},{"name":"usd1Amount","type":"uint256","internalType":"uint256"}],"outputs":[{"name":"shares","type":"uint256","internalType":"uint256"}],"stateMutability":"nonpayable"},{"type":"function","name":"getShareBalance","inputs":[],"outputs":[{"name":"","type":"uint256","internalType":"uint256"}],"stateMutability":"view"},{"type":"function","name":"getTotalAmounts","inputs":[],"outputs":[{"name":"wlfiAmount","type":"uint256","internalType":"uint256"},{"name":"usd1Amount","type":"uint256","internalType":"uint256"}],"stateMutability":"view"},{"type":"function","name":"initializeApprovals","inputs":[],"outputs":[],"stateMutability":"nonpayable"},{"type":"function","name":"initializeWithExistingVault","inputs":[{"name":"_charmVault","type":"address","internalType":"address"}],"outputs":[],"stateMutability":"nonpayable"},{"type":"function","name":"initializeWithNewVault","inputs":[{"name":"maxTotalSupply","type":"uint256","internalType":"uint256"}],"outputs":[],"stateMutability":"nonpayable"},{"type":"function","name":"isInitialized","inputs":[],"outputs":[{"name":"","type":"bool","internalType":"bool"}],"stateMutability":"view"},{"type":"function","name":"lastRebalance","inputs":[],"outputs":[{"name":"","type":"uint256","internalType":"uint256"}],"stateMutability":"view"},{"type":"function","name":"maxSlippage","inputs":[],"outputs":[{"name":"","type":"uint256","internalType":"uint256"}],"stateMutability":"view"},{"type":"function","name":"owner","inputs":[],"outputs":[{"name":"","type":"address","internalType":"address"}],"stateMutability":"view"},{"type":"function","name":"pause","inputs":[],"outputs":[],"stateMutability":"nonpayable"},{"type":"function","name":"rebalance","inputs":[],"outputs":[],"stateMutability":"nonpayable"},{"type":"function","name":"renounceOwnership","inputs":[],"outputs":[],"stateMutability":"nonpayable"},{"type":"function","name":"rescueIdleTokens","inputs":[],"outputs":[],"stateMutability":"nonpayable"},{"type":"function","name":"rescueToken","inputs":[{"name":"token","type":"address","internalType":"address"},{"name":"amount","type":"uint256","internalType":"uint256"},{"name":"to","type":"address","internalType":"address"}],"outputs":[],"stateMutability":"nonpayable"},{"type":"function","name":"resume","inputs":[],"outputs":[],"stateMutability":"nonpayable"},{"type":"function","name":"setTokenApproval","inputs":[{"name":"token","type":"address","internalType":"address"},{"name":"spender","type":"address","internalType":"address"},{"name":"amount","type":"uint256","internalType":"uint256"}],"outputs":[],"stateMutability":"nonpayable"},{"type":"function","name":"transferOwnership","inputs":[{"name":"newOwner","type":"address","internalType":"address"}],"outputs":[],"stateMutability":"nonpayable"},{"type":"function","name":"updateParameters","inputs":[{"name":"_maxSlippage","type":"uint256","internalType":"uint256"}],"outputs":[],"stateMutability":"nonpayable"},{"type":"function","name":"withdraw","inputs":[{"name":"value","type":"uint256","internalType":"uint256"}],"outputs":[{"name":"wlfiAmount","type":"uint256","internalType":"uint256"},{"name":"usd1Amount","type":"uint256","internalType":"uint256"}],"stateMutability":"nonpayable"},{"type":"event","name":"CharmVaultInitialized","inputs":[{"name":"charmVault","type":"address","indexed":true,"internalType":"address"},{"name":"isNewVault","type":"bool","indexed":false,"internalType":"bool"}],"anonymous":false},{"type":"event","name":"OwnershipTransferred","inputs":[{"name":"previousOwner","type":"address","indexed":true,"internalType":"address"},{"name":"newOwner","type":"address","indexed":true,"internalType":"address"}],"anonymous":false},{"type":"event","name":"StrategyDeposit","inputs":[{"name":"wlfiAmount","type":"uint256","indexed":false,"internalType":"uint256"},{"name":"usd1Amount","type":"uint256","indexed":false,"internalType":"uint256"},{"name":"shares","type":"uint256","indexed":false,"internalType":"uint256"}],"anonymous":false},{"type":"event","name":"StrategyRebalanced","inputs":[{"name":"newTotal0","type":"uint256","indexed":false,"internalType":"uint256"},{"name":"newTotal1","type":"uint256","indexed":false,"internalType":"uint256"}],"anonymous":false},{"type":"event","name":"StrategyWithdraw","inputs":[{"name":"shares","type":"uint256","indexed":false,"internalType":"uint256"},{"name":"wlfiAmount","type":"uint256","indexed":false,"internalType":"uint256"},{"name":"usd1Amount","type":"uint256","indexed":false,"internalType":"uint256"}],"anonymous":false},{"type":"event","name":"TokensSwapped","inputs":[{"name":"tokenIn","type":"address","indexed":true,"internalType":"address"},{"name":"tokenOut","type":"address","indexed":true,"internalType":"address"},{"name":"amountIn","type":"uint256","indexed":false,"internalType":"uint256"},{"name":"amountOut","type":"uint256","indexed":false,"internalType":"uint256"}],"anonymous":false},{"type":"event","name":"UnusedTokensReturned","inputs":[{"name":"wlfiAmount","type":"uint256","indexed":false,"internalType":"uint256"},{"name":"usd1Amount","type":"uint256","indexed":false,"internalType":"uint256"}],"anonymous":false},{"type":"error","name":"AlreadyInitialized","inputs":[]},{"type":"error","name":"InsufficientBalance","inputs":[]},{"type":"error","name":"NotInitialized","inputs":[]},{"type":"error","name":"OnlyVault","inputs":[]},{"type":"error","name":"OwnableInvalidOwner","inputs":[{"name":"owner","type":"address","internalType":"address"}]},{"type":"error","name":"OwnableUnauthorizedAccount","inputs":[{"name":"account","type":"address","internalType":"address"}]},{"type":"error","name":"ReentrancyGuardReentrantCall","inputs":[]},{"type":"error","name":"SafeERC20FailedOperation","inputs":[{"name":"token","type":"address","internalType":"address"}]},{"type":"error","name":"SlippageExceeded","inputs":[]},{"type":"error","name":"StrategyPaused","inputs":[]},{"type":"error","name":"ZeroAddress","inputs":[]}],"bytecode":{"object":"0x61014034620002fe57601f6200269938819003918201601f19168301916001600160401b03831184841017620003035780849260e094604052833981010312620002fe576200004e8162000319565b6200005c6020830162000319565b906200006b6040840162000319565b620000796060850162000319565b620000876080860162000319565b91620000a460c06200009c60a0890162000319565b970162000319565b60016000556001600160a01b03949085168015620002e557600180546001600160a01b031981168317909155604051919087167f8be0079c531659141344cd1fd0a4f28419497f9722a3daafe3b4186f6b6457e0600080a36101f4600355858216158015620002da575b8015620002cf575b8015620002c4575b8015620002b9575b620002aa5750918480949392819360805281610120981688521660a0521660c0521660e05261010092168252426004556040519061236a92836200032f84396080518381816102000152818161054401528181610a6b01528181610b1e01528181610d30015281816111ea015281816117ba0152818161180a01528181611a0b0152611a5d015260a05183818161022a0152818161079201528181610bd301528181610dab0152818161156301528181611a7e01528181611db2015261205c015260c05183818161027b01528181610c4401528181610e06015281816115c701528181611a2c01528181611d8401528181611f130152612254015260e0518381816102d6015281816107b60152818161098801528181610e2f015281816117db0152818161189101528181611f4101528181611ffc0152818161208a01526122260152518281816105f001528181610dd401528181611d5e01528181611eed01528181611fd601528181612037015261220001525181818161063301526107680152f35b63d92e233d60e01b8152600490fd5b508588161562000126565b50858516156200011e565b508584161562000116565b50858316156200010e565b604051631e4fbdf760e01b815260006004820152602490fd5b600080fd5b634e487b7160e01b600052604160045260246000fd5b51906001600160a01b0382168203620002fe5756fe60806040908082526004918236101561001757600080fd5b600091823560e01c90816302fb0c5e14610f5857508063046f7da214610f09578063106b9ca114610eeb578063175fadbe14610ea65780631de2885714610e8357806327f8eaac14610d905780632e1a7d4d14610d1b578063392e53cd14610cd95780633ec6620214610c735780634438632114610c3057806344b6b11c14610c025780635e787f1914610bbf578063715018a614610b625780637d7c2a1c14610b095780638456cb5914610ae05780638c04166f14610ac25780638da5cb5b14610a9a578063a0b660b514610a57578063a51c237f146109b7578063ad5c464814610974578063bc5d0bad14610732578063bf214acd1461068c578063c4a7761e14610662578063c69b2f371461061f578063d8264920146105dc578063dd1b9c4a146105c0578063e2bbb15814610531578063e6ff0a2f14610509578063f2fde38b1461047e578063f88163a3146101e35763f8a67a621461017a57600080fd5b346101df5760603660031901126101df57610193610f7c565b90604435906001600160a01b03908183168084036101db576101b3611aca565b156101cc57506101c993945060243592166121b3565b80f35b5163d92e233d60e01b81528590fd5b8580fd5b5080fd5b5082903461047a578260031936011261047a576001600160a01b037f0000000000000000000000000000000000000000000000000000000000000000818116330361046b577f00000000000000000000000000000000000000000000000000000000000000008351926370a0823160e01b92838552308786015260209687866024818688165afa9586156103f157899661043c575b507f000000000000000000000000000000000000000000000000000000000000000090875195808752308288015289876024818887165afa96871561043257908a92918c986103fb575b506024908a519687938492835230908301527f0000000000000000000000000000000000000000000000000000000000000000165afa9283156103f15789936103be575b50819086159487861593846103ad575b50505085801515938461039c575b505050821515928361038c575b5092610384575b50811561037c575b50610349578480f35b7f4f3aef3cf11fd9405846420fd580666c49868d4f5c814b48ec46092b91a1b9cb938351928352820152a1818080808480f35b905086610340565b915087610338565b610395906121ef565b5089610331565b6103a5926121b3565b898581610324565b6103b6926121b3565b8a8784610316565b9092508781813d83116103ea575b6103d68183610fe6565b810103126103e657519181610306565b8880fd5b503d6103cc565b87513d8b823e3d90fd5b8381949299503d831161042b575b6104138183610fe6565b810103126104275760248a925197906102c2565b8a80fd5b503d610409565b89513d8d823e3d90fd5b9095508781813d8311610464575b6104548183610fe6565b810103126103e657519489610278565b503d61044a565b505051638d1af8bd60e01b8152fd5b8280fd5b50823461047a57602036600319011261047a57610499610f7c565b906104a2611aca565b6001600160a01b039182169283156104f3575050600154826001600160601b0360a01b821617600155167f8be0079c531659141344cd1fd0a4f28419497f9722a3daafe3b4186f6b6457e08380a380f35b51631e4fbdf760e01b8152908101849052602490fd5b50346101df57816003193601126101df5760025490516001600160a01b039091168152602090f35b50346101df57806003193601126101df577f00000000000000000000000000000000000000000000000000000000000000006001600160a01b031633036105b15760ff60025460a01c16156105a257600161059a602094610590611c6a565b602435903561152f565b925551908152f35b5163e628b94960e01b81529050fd5b51638d1af8bd60e01b81529050fd5b50346101df57816003193601126101df57602090516127108152f35b50346101df57816003193601126101df57517f00000000000000000000000000000000000000000000000000000000000000006001600160a01b03168152602090f35b50346101df57816003193601126101df57517f00000000000000000000000000000000000000000000000000000000000000006001600160a01b03168152602090f35b5090346106895780600319360112610689575061067d6113a9565b82519182526020820152f35b80fd5b50823461047a578260031936011261047a578151908282019082821067ffffffffffffffff83111761071f57508252600c81526020906b574c46492f5745544820312560a01b6020820152825193849260208452825192836020860152825b84811061070957505050828201840152601f01601f19168101030190f35b81810183015188820188015287955082016106eb565b634e487b7160e01b855260419052602484fd5b5082903461047a576020806003193601126109705761074f611aca565b6002805490926001600160a01b039291831661096257827f00000000000000000000000000000000000000000000000000000000000000001692831561095257807f00000000000000000000000000000000000000000000000000000000000000001690807f0000000000000000000000000000000000000000000000000000000000000000168351926372326ea560e11b84528089850152816024850152896127109485604482015287816064818c5afa90811561094857908591839161092b575b501697881561087257505050505050827ffd3467e49b152f14daae78252691e529e693ad052990f05e749c6338e7893338939495506001600160601b0360a01b86541617855551858152a25b805460ff60a01b1916600160a01b17905580f35b86985087959a6084949597519b8c96879563141b1bc160e21b875283870152602486015260448501523560648401525af18015610921577ffd3467e49b152f14daae78252691e529e693ad052990f05e749c6338e789333893949587916108f4575b501692836001600160601b0360a01b8654161785555160018152a261085e565b6109149150833d851161091a575b61090c8183610fe6565b81019061138a565b876108d4565b503d610902565b83513d88823e3d90fd5b6109429150893d8b1161091a5761090c8183610fe6565b8d610812565b87513d84823e3d90fd5b815163d92e233d60e01b81528690fd5b5162dc149f60e41b81528490fd5b8380fd5b50346101df57816003193601126101df57517f00000000000000000000000000000000000000000000000000000000000000006001600160a01b03168152602090f35b5082903461047a57602036600319011261047a576109d3610f7c565b6109db611aca565b600254906001600160a01b0390818316610a485716928315610a3a57506001600160a81b0319168217600160a01b17600255518281527ffd3467e49b152f14daae78252691e529e693ad052990f05e749c6338e789333890602090a280f35b825163d92e233d60e01b8152fd5b5050505162dc149f60e41b8152fd5b50346101df57816003193601126101df57517f00000000000000000000000000000000000000000000000000000000000000006001600160a01b03168152602090f35b50346101df57816003193601126101df5760015490516001600160a01b039091168152602090f35b50346101df57816003193601126101df576020906003549051908152f35b8234610689578060031936011261068957610af9611aca565b6002805460ff60a01b1916905580f35b5082903461047a578260031936011261047a577f00000000000000000000000000000000000000000000000000000000000000006001600160a01b03163303610b5557826101c961133b565b51638d1af8bd60e01b8152fd5b8234610689578060031936011261068957610b7b611aca565b600180546001600160a01b0319811690915581906001600160a01b03167f8be0079c531659141344cd1fd0a4f28419497f9722a3daafe3b4186f6b6457e08280a380f35b50346101df57816003193601126101df57517f00000000000000000000000000000000000000000000000000000000000000006001600160a01b03168152602090f35b50346101df57816003193601126101df576020905173ca2e972f081764c30ae5f012a29d5277eef338388152f35b50346101df57816003193601126101df57517f00000000000000000000000000000000000000000000000000000000000000006001600160a01b03168152602090f35b50823461047a57602036600319011261047a57803591610c91611aca565b6103e88311610ca257505060035580f35b906020606492519162461bcd60e51b835282015260116024820152700a6d8d2e0e0c2ceca40e8dede40d0d2ced607b1b6044820152fd5b50346101df57816003193601126101df576020906002549060ff8260a01c169182610d08575b50519015158152f35b6001600160a01b03161515915083610cff565b5091346101df5760203660031901126101df577f00000000000000000000000000000000000000000000000000000000000000006001600160a01b03163303610d8257610d72600191610d6c611c6a565b35611104565b9190925582519182526020820152f35b8251638d1af8bd60e01b8152fd5b8234610689578060031936011261068957610da9611aca565b7f00000000000000000000000000000000000000000000000000000000000000006001600160a01b037f0000000000000000000000000000000000000000000000000000000000000000811690610e008284611af6565b610e2a827f0000000000000000000000000000000000000000000000000000000000000000611af6565b610e557f00000000000000000000000000000000000000000000000000000000000000009283611af6565b80600254169283610e64578480f35b610e7b93610e7191611af6565b6002541690611af6565b818080808480f35b50346101df57816003193601126101df57602090610e9f611008565b9051908152f35b823461068957606036600319011261068957610ec0610f7c565b6001600160a01b03906024358281168103610970576101c992610ee1611aca565b6044359216611bb4565b50823461047a578260031936011261047a5760209250549051908152f35b50823461047a578260031936011261047a57610f23611aca565b600254916001600160a01b03831615610f4b57505060ff60a01b1916600160a01b1760025580f35b516321c4e35760e21b8152fd5b8390346101df57816003193601126101df5760209060ff60025460a01c1615158152f35b600435906001600160a01b0382168203610f9257565b600080fd5b610100810190811067ffffffffffffffff821117610fb457604052565b634e487b7160e01b600052604160045260246000fd5b6080810190811067ffffffffffffffff821117610fb457604052565b90601f8019910116810190811067ffffffffffffffff821117610fb457604052565b6002546001600160a01b03168015611085576020602491604051928380926370a0823160e01b82523060048301525afa9081156110795760009161104a575090565b90506020813d602011611071575b8161106560209383610fe6565b81010312610f92575190565b3d9150611058565b6040513d6000823e3d90fd5b50600090565b9190820180921161109857565b634e487b7160e01b600052601160045260246000fd5b8181029291811591840414171561109857565b81156110cb570490565b634e487b7160e01b600052601260045260246000fd5b9190820391821161109857565b9190826040910312610f92576020825192015190565b8015611332576002546001600160a01b0390811692908315611328576040928351946370a0823160e01b8652306004870152602086602481845afa95861561131d576000966112e9575b5085156112dd5761119761118c959661118c6111686113a9565b9583611174888461108b565b918281106112c357506111919150809a8b80946110ae565b6110c1565b956110ae565b916003549261271093840384811161109857846111c5828b976111be6000956084986110ae565b04946110ae565b04938551968795869463d331bef760e01b86528b6004870152602486015260448501527f00000000000000000000000000000000000000000000000000000000000000001660648401525af19283156112b857600091600094611265575b5093519384526020840181905260408401839052927f9b4015fbfa21a538378486da76932c7362cc536aa85cc6d6ddbe3a41fec4f6da9080606081015b0390a1565b6112a99194507f9b4015fbfa21a538378486da76932c7362cc536aa85cc6d6ddbe3a41fec4f6da9250853d87116112b1575b6112a18183610fe6565b8101906110ee565b939091611223565b503d611297565b84513d6000823e3d90fd5b6111919261118c6112d492846110ae565b9a8b80946110ae565b50600094508493505050565b90956020823d602011611315575b8161130460209383610fe6565b81010312610689575051943861114e565b3d91506112f7565b85513d6000823e3d90fd5b5060009250829150565b50600090600090565b6002546001600160a01b031615611388577fea234a6aeb16b402d7b401a7a7acf39d7871be5134e4392193eccfda0be6201e60406113776113a9565b4260045582519182526020820152a1565b565b90816020910312610f9257516001600160a01b0381168103610f925790565b60025460ff8160a01c1615801561151e575b61133257604080516370a0823160e01b81523060048201526001600160a01b0392909216929160208082602481885afa918215611513576000926114e4575b508115611471578251636253bb0f60e11b8152908382600481895afa9586156112b8576000926000976114b9575b5090806004928651938480926318160ddd60e01b82525afa9485156114af575060009461147e575b5050821561147157816111918461118c61146e969561118c956110ae565b90565b5050509050600090600090565b8181959293953d83116114a8575b6114968183610fe6565b81010312610689575051913880611450565b503d61148c565b513d6000823e3d90fd5b8293506004929197506114d890863d88116112b1576112a18183610fe6565b93909397919250611428565b90918282813d831161150c575b6114fb8183610fe6565b8101031261068957505190386113fa565b503d6114f1565b83513d6000823e3d90fd5b506001600160a01b038116156113bb565b80159291908380611ac2575b611aba576002546001600160a01b039490851615611aa85715611a56575b5080611a04575b507f0000000000000000000000000000000000000000000000000000000000000000604080516370a0823160e01b91828252306004830152602080836024818a89165afa92831561187b576000936119d5575b50815193845230600485015280846024818a7f0000000000000000000000000000000000000000000000000000000000000000165afa93841561187b576000946119a6575b506004828860025416815192838092636253bb0f60e11b82525afa90811561151357600090600092611986575b508015158061197d575b15611931576116428161118c84886110ae565b95801561191e5761165290611edc565b95808710156118da57611672929161166d8861118c936110e1565b6110ae565b838110156118ce5761169c8161169660009697611690606095612026565b9061108b565b966110e1565b975b886118ba575b85611886575b6002541660a484518096819363365d0ed760e01b83528c60048401528960248401528160448401528160648401523060848401525af193841561187b5760009586948796611836575b509183611260949288946117338961172d8a7fe92d6d2dfb3946d2655ac9a4ed7e724c4bcf0d2d993c5ab9b70e9a4785bd20559d9f6110e1565b936110e1565b908280159182159182611804575b505082151590816117b4575b916117ac575b50611778575b5050505051938493846040919493926060820195825260208201520152565b7f4f3aef3cf11fd9405846420fd580666c49868d4f5c814b48ec46092b91a1b9cb938351928352820152a138818180611759565b905038611753565b6117ff847f00000000000000000000000000000000000000000000000000000000000000007f00000000000000000000000000000000000000000000000000000000000000006121b3565b61174d565b61182f917f0000000000000000000000000000000000000000000000000000000000000000906121b3565b3884611741565b9450959094506060843d606011611873575b8161185560609383610fe6565b810103126106895750825183820151938301519095909490836116f3565b3d9150611848565b82513d6000823e3d90fd5b6118b58682600254167f0000000000000000000000000000000000000000000000000000000000000000612128565b6116aa565b6118c989826002541689612128565b6116a4565b5060606000939761169e565b9895939492939150508781111561190e5761190760009493926116906119028b6060956110e1565b611fc5565b979461169e565b939650906060600093929761169e565b505050959250600091956060839461169e565b50939693509091861561196d579060606119676119626000959461195c8b60011c9161169083611d4d565b9a6110e1565b611edc565b9461169e565b600092919650956060839461169e565b5081151561162f565b905061199f9150833d85116112b1576112a18183610fe6565b9038611625565b90938482813d83116119ce575b6119bd8183610fe6565b8101031261068957505192386115f8565b503d6119b3565b90928382813d83116119fd575b6119ec8183610fe6565b8101031261068957505191386115b3565b503d6119e2565b611a5090307f00000000000000000000000000000000000000000000000000000000000000007f0000000000000000000000000000000000000000000000000000000000000000611c8d565b38611560565b611aa290307f00000000000000000000000000000000000000000000000000000000000000007f0000000000000000000000000000000000000000000000000000000000000000611c8d565b38611559565b6040516321c4e35760e21b8152600490fd5b506000925050565b50811561153b565b6001546001600160a01b03163303611ade57565b60405163118cdaa760e01b8152336004820152602490fd5b604051906020820163095ea7b360e01b938482526020600060018060a01b03809316938460248801528119604488015260448752611b3387610fca565b86519082875af1903d6000519083611b93575b50505015611b55575b50505050565b611b8a93611b859160405191602083015260248201526000604482015260448152611b7f81610fca565b826122d8565b6122d8565b38808080611b4f565b91925090611baa575082163b15155b388080611b46565b6001915014611ba2565b60405163095ea7b360e01b60208083018281526001600160a01b03861660248501526044808501979097529583529094919391600090611bf5606487610fe6565b85519082865af16000513d82611c45575b505015611c135750505050565b611b8a93611b859160405191602083015260018060a01b031660248201526000604482015260448152611b7f81610fca565b909150611c6257506001600160a01b0382163b15155b3880611c06565b600114611c5b565b600260005414611c7b576002600055565b604051633ee5aeb560e01b8152600490fd5b6040516323b872dd60e01b60208201526001600160a01b03928316602482015292909116604483015260648083019390935291815260a081019181831067ffffffffffffffff841117610fb457611388926040526122d8565b91909160e06101008201938160018060a01b039182815116855282602082015116602086015262ffffff60408201511660408601528260608201511660608601526080810151608086015260a081015160a086015260c081015160c0860152015116910152565b908115611ed6576001600160a01b037f000000000000000000000000000000000000000000000000000000000000000081169290807f0000000000000000000000000000000000000000000000000000000000000000611dae848783612128565b16907f00000000000000000000000000000000000000000000000000000000000000001691604090815195611de287610f97565b8387526020968588820152612710848201523060608201524260808201528260a082015287611e36600093838560c0819601528460e0820152875194858094819363414bf38960e01b835260048301611ce6565b03925af1918215611ecb578092611e7b575b505090817f25f1d03755df23c30e25db2dbd3891e31ce084bdfbfc46f9fe5e446ee5f9b2d49392978351928352820152a3565b9091508782813d8311611ec4575b611e938183610fe6565b810103126106895750517f25f1d03755df23c30e25db2dbd3891e31ce084bdfbfc46f9fe5e446ee5f9b2d438611e48565b503d611e89565b8451903d90823e3d90fd5b60009150565b908115611ed6576001600160a01b037f000000000000000000000000000000000000000000000000000000000000000081169290807f0000000000000000000000000000000000000000000000000000000000000000611f3d848783612128565b16907f00000000000000000000000000000000000000000000000000000000000000001691604090815195611f7187610f97565b8387526020968588820152610bb8848201523060608201524260808201528260a082015287611e36600093838560c0819601528460e0820152875194858094819363414bf38960e01b835260048301611ce6565b908115611ed6576001600160a01b037f000000000000000000000000000000000000000000000000000000000000000081169290807f0000000000000000000000000000000000000000000000000000000000000000611dae848783612128565b908115611ed6576001600160a01b037f0000000000000000000000000000000000000000000000000000000000000000811690807f0000000000000000000000000000000000000000000000000000000000000000612086868583612128565b16907f0000000000000000000000000000000000000000000000000000000000000000169160035494612710958603868111611098576120c78791836110ae565b04916040928351906120d882610f97565b858252602098878a840152858301523060608301524260808301528360a083015260c082015287611e36600093838560e081960152875194858094819363414bf38960e01b835260048301611ce6565b604051636eb1769f60e11b81523060048201526001600160a01b0380841660248301529192916020908290604490829087165afa9081156110795760009161217f575b50611388936121799161108b565b91611bb4565b90506020813d6020116121ab575b8161219a60209383610fe6565b81010312610f92575161138861216b565b3d915061218d565b60405163a9059cbb60e01b60208201526001600160a01b0392909216602483015260448083019390935291815261138891611b85606483610fe6565b908115611ed6576001600160a01b037f000000000000000000000000000000000000000000000000000000000000000081169290807f0000000000000000000000000000000000000000000000000000000000000000612250848783612128565b16907f0000000000000000000000000000000000000000000000000000000000000000169160409081519561228487610f97565b83875260209685888201526101f4848201523060608201524260808201528260a082015287611e36600093838560c0819601528460e0820152875194858094819363414bf38960e01b835260048301611ce6565b906000602091828151910182855af115611079576000513d61232b57506001600160a01b0381163b155b6123095750565b604051635274afe760e01b81526001600160a01b039091166004820152602490fd5b6001141561230256fea264697066735822122042f1cde47e7a3d3af7f59b75717ef779ac09c545ef93957e1b2f7b41b5a3a36564736f6c63430008160033","linkReferences":{}},"methodIdentifiers":{"CHARM_FACTORY()":"c69b2f37","EAGLE_VAULT()":"a0b660b5","POOL_DESCRIPTION()":"bf214acd","POOL_FEE()":"dd1b9c4a","UNISWAP_ROUTER()":"d8264920","UNISWAP_V3_POOL()":"44b6b11c","USD1()":"44386321","WETH()":"ad5c4648","WLFI()":"5e787f19","active()":"02fb0c5e","charmVault()":"e6ff0a2f","deposit(uint256,uint256)":"e2bbb158","getShareBalance()":"1de28857","getTotalAmounts()":"c4a7761e","initializeApprovals()":"27f8eaac","initializeWithExistingVault(address)":"a51c237f","initializeWithNewVault(uint256)":"bc5d0bad","isInitialized()":"392e53cd","lastRebalance()":"106b9ca1","maxSlippage()":"8c04166f","owner()":"8da5cb5b","pause()":"8456cb59","rebalance()":"7d7c2a1c","renounceOwnership()":"715018a6","rescueIdleTokens()":"f88163a3","rescueToken(address,uint256,address)":"f8a67a62","resume()":"046f7da2","setTokenApproval(address,address,uint256)":"175fadbe","transferOwnership(address)":"f2fde38b","updateParameters(uint256)":"3ec66202","withdraw(uint256)":"2e1a7d4d"},"id":27}