{"abi":[{"type":"constructor","inputs":[{"name":"_price","type":"int256","internalType":"int256"},{"name":"_decimals","type":"uint8","internalType":"uint8"}],"stateMutability":"nonpayable"},{"type":"function","name":"decimals","inputs":[],"outputs":[{"name":"","type":"uint8","internalType":"uint8"}],"stateMutability":"view"},{"type":"function","name":"latestRoundData","inputs":[],"outputs":[{"name":"roundId","type":"uint80","internalType":"uint80"},{"name":"answer","type":"int256","internalType":"int256"},{"name":"startedAt","type":"uint256","internalType":"uint256"},{"name":"updatedAt","type":"uint256","internalType":"uint256"},{"name":"answeredInRound","type":"uint80","internalType":"uint80"}],"stateMutability":"view"},{"type":"function","name":"price","inputs":[],"outputs":[{"name":"","type":"int256","internalType":"int256"}],"stateMutability":"view"},{"type":"function","name":"setPrice","inputs":[{"name":"_price","type":"int256","internalType":"int256"}],"outputs":[],"stateMutability":"nonpayable"}],"bytecode":{"object":"0x60803461006d57601f61019238819003918201601f19168301916001600160401b0383118484101761007257808492604094855283398101031261006d57602081519101519060ff821680920361006d5760005560ff19600154161760015560405161010990816100898239f35b600080fd5b634e487b7160e01b600052604160045260246000fdfe6080806040526004361015601257600080fd5b600090813560e01c908163313ce5671460b257508063a035b1fe146097578063f7a3080614607f5763feaf968c14604857600080fd5b34607c5780600319360112607c5760a090546040519060018252602082015242604082015242606082015260016080820152f35b80fd5b5034607c576020366003190112607c57600435815580f35b5034607c5780600319360112607c5760209054604051908152f35b90503460cf578160031936011260cf5760209060ff600154168152f35b5080fdfea264697066735822122051fb758348592f370b44f235de4f6474c5ed9e552789f259464ac6f40cdf4bd964736f6c63430008160033","linkReferences":{}},"methodIdentifiers":{"decimals()":"313ce567","latestRoundData()":"feaf968c","price()":"a035b1fe","setPrice(int256)":"f7a30806"},"id":25}