{"abi":[{"type":"constructor","inputs":[{"name":"_name","type":"string","internalType":"string"},{"name":"_symbol","type":"string","internalType":"string"},{"name":"_registry","type":"address","internalType":"address"},{"name":"_delegate","type":"address","internalType":"address"}],"stateMutability":"nonpayable"},{"type":"function","name":"SEND","inputs":[],"outputs":[{"name":"","type":"uint16","internalType":"uint16"}],"stateMutability":"view"},{"type":"function","name":"SEND_AND_CALL","inputs":[],"outputs":[{"name":"","type":"uint16","internalType":"uint16"}],"stateMutability":"view"},{"type":"function","name":"allowInitializePath","inputs":[{"name":"origin","type":"tuple","internalType":"struct Origin","components":[{"name":"srcEid","type":"uint32","internalType":"uint32"},{"name":"sender","type":"bytes32","internalType":"bytes32"},{"name":"nonce","type":"uint64","internalType":"uint64"}]}],"outputs":[{"name":"","type":"bool","internalType":"bool"}],"stateMutability":"view"},{"type":"function","name":"allowance","inputs":[{"name":"owner","type":"address","internalType":"address"},{"name":"spender","type":"address","internalType":"address"}],"outputs":[{"name":"","type":"uint256","internalType":"uint256"}],"stateMutability":"view"},{"type":"function","name":"approvalRequired","inputs":[],"outputs":[{"name":"","type":"bool","internalType":"bool"}],"stateMutability":"pure"},{"type":"function","name":"approve","inputs":[{"name":"spender","type":"address","internalType":"address"},{"name":"value","type":"uint256","internalType":"uint256"}],"outputs":[{"name":"","type":"bool","internalType":"bool"}],"stateMutability":"nonpayable"},{"type":"function","name":"balanceOf","inputs":[{"name":"account","type":"address","internalType":"address"}],"outputs":[{"name":"","type":"uint256","internalType":"uint256"}],"stateMutability":"view"},{"type":"function","name":"burn","inputs":[{"name":"from","type":"address","internalType":"address"},{"name":"amount","type":"uint256","internalType":"uint256"}],"outputs":[],"stateMutability":"nonpayable"},{"type":"function","name":"category","inputs":[],"outputs":[{"name":"","type":"string","internalType":"string"}],"stateMutability":"pure"},{"type":"function","name":"checkMinter","inputs":[{"name":"account","type":"address","internalType":"address"}],"outputs":[{"name":"","type":"bool","internalType":"bool"}],"stateMutability":"view"},{"type":"function","name":"combineOptions","inputs":[{"name":"_eid","type":"uint32","internalType":"uint32"},{"name":"_msgType","type":"uint16","internalType":"uint16"},{"name":"_extraOptions","type":"bytes","internalType":"bytes"}],"outputs":[{"name":"","type":"bytes","internalType":"bytes"}],"stateMutability":"view"},{"type":"function","name":"decimalConversionRate","inputs":[],"outputs":[{"name":"","type":"uint256","internalType":"uint256"}],"stateMutability":"view"},{"type":"function","name":"decimals","inputs":[],"outputs":[{"name":"","type":"uint8","internalType":"uint8"}],"stateMutability":"view"},{"type":"function","name":"description","inputs":[],"outputs":[{"name":"","type":"string","internalType":"string"}],"stateMutability":"pure"},{"type":"function","name":"endpoint","inputs":[],"outputs":[{"name":"","type":"address","internalType":"contract ILayerZeroEndpointV2"}],"stateMutability":"view"},{"type":"function","name":"enforcedOptions","inputs":[{"name":"eid","type":"uint32","internalType":"uint32"},{"name":"msgType","type":"uint16","internalType":"uint16"}],"outputs":[{"name":"enforcedOption","type":"bytes","internalType":"bytes"}],"stateMutability":"view"},{"type":"function","name":"isComposeMsgSender","inputs":[{"name":"","type":"tuple","internalType":"struct Origin","components":[{"name":"srcEid","type":"uint32","internalType":"uint32"},{"name":"sender","type":"bytes32","internalType":"bytes32"},{"name":"nonce","type":"uint64","internalType":"uint64"}]},{"name":"","type":"bytes","internalType":"bytes"},{"name":"_sender","type":"address","internalType":"address"}],"outputs":[{"name":"","type":"bool","internalType":"bool"}],"stateMutability":"view"},{"type":"function","name":"isMinter","inputs":[{"name":"","type":"address","internalType":"address"}],"outputs":[{"name":"","type":"bool","internalType":"bool"}],"stateMutability":"view"},{"type":"function","name":"isPeer","inputs":[{"name":"_eid","type":"uint32","internalType":"uint32"},{"name":"_peer","type":"bytes32","internalType":"bytes32"}],"outputs":[{"name":"","type":"bool","internalType":"bool"}],"stateMutability":"view"},{"type":"function","name":"lzReceive","inputs":[{"name":"_origin","type":"tuple","internalType":"struct Origin","components":[{"name":"srcEid","type":"uint32","internalType":"uint32"},{"name":"sender","type":"bytes32","internalType":"bytes32"},{"name":"nonce","type":"uint64","internalType":"uint64"}]},{"name":"_guid","type":"bytes32","internalType":"bytes32"},{"name":"_message","type":"bytes","internalType":"bytes"},{"name":"_executor","type":"address","internalType":"address"},{"name":"_extraData","type":"bytes","internalType":"bytes"}],"outputs":[],"stateMutability":"payable"},{"type":"function","name":"lzReceiveAndRevert","inputs":[{"name":"_packets","type":"tuple[]","internalType":"struct InboundPacket[]","components":[{"name":"origin","type":"tuple","internalType":"struct Origin","components":[{"name":"srcEid","type":"uint32","internalType":"uint32"},{"name":"sender","type":"bytes32","internalType":"bytes32"},{"name":"nonce","type":"uint64","internalType":"uint64"}]},{"name":"dstEid","type":"uint32","internalType":"uint32"},{"name":"receiver","type":"address","internalType":"address"},{"name":"guid","type":"bytes32","internalType":"bytes32"},{"name":"value","type":"uint256","internalType":"uint256"},{"name":"executor","type":"address","internalType":"address"},{"name":"message","type":"bytes","internalType":"bytes"},{"name":"extraData","type":"bytes","internalType":"bytes"}]}],"outputs":[],"stateMutability":"payable"},{"type":"function","name":"lzReceiveSimulate","inputs":[{"name":"_origin","type":"tuple","internalType":"struct Origin","components":[{"name":"srcEid","type":"uint32","internalType":"uint32"},{"name":"sender","type":"bytes32","internalType":"bytes32"},{"name":"nonce","type":"uint64","internalType":"uint64"}]},{"name":"_guid","type":"bytes32","internalType":"bytes32"},{"name":"_message","type":"bytes","internalType":"bytes"},{"name":"_executor","type":"address","internalType":"address"},{"name":"_extraData","type":"bytes","internalType":"bytes"}],"outputs":[],"stateMutability":"payable"},{"type":"function","name":"mint","inputs":[{"name":"to","type":"address","internalType":"address"},{"name":"amount","type":"uint256","internalType":"uint256"}],"outputs":[],"stateMutability":"nonpayable"},{"type":"function","name":"msgInspector","inputs":[],"outputs":[{"name":"","type":"address","internalType":"address"}],"stateMutability":"view"},{"type":"function","name":"name","inputs":[],"outputs":[{"name":"","type":"string","internalType":"string"}],"stateMutability":"view"},{"type":"function","name":"nextNonce","inputs":[{"name":"","type":"uint32","internalType":"uint32"},{"name":"","type":"bytes32","internalType":"bytes32"}],"outputs":[{"name":"nonce","type":"uint64","internalType":"uint64"}],"stateMutability":"view"},{"type":"function","name":"oApp","inputs":[],"outputs":[{"name":"","type":"address","internalType":"address"}],"stateMutability":"view"},{"type":"function","name":"oAppVersion","inputs":[],"outputs":[{"name":"senderVersion","type":"uint64","internalType":"uint64"},{"name":"receiverVersion","type":"uint64","internalType":"uint64"}],"stateMutability":"pure"},{"type":"function","name":"oftVersion","inputs":[],"outputs":[{"name":"interfaceId","type":"bytes4","internalType":"bytes4"},{"name":"version","type":"uint64","internalType":"uint64"}],"stateMutability":"pure"},{"type":"function","name":"owner","inputs":[],"outputs":[{"name":"","type":"address","internalType":"address"}],"stateMutability":"view"},{"type":"function","name":"peers","inputs":[{"name":"eid","type":"uint32","internalType":"uint32"}],"outputs":[{"name":"peer","type":"bytes32","internalType":"bytes32"}],"stateMutability":"view"},{"type":"function","name":"preCrime","inputs":[],"outputs":[{"name":"","type":"address","internalType":"address"}],"stateMutability":"view"},{"type":"function","name":"quoteOFT","inputs":[{"name":"_sendParam","type":"tuple","internalType":"struct SendParam","components":[{"name":"dstEid","type":"uint32","internalType":"uint32"},{"name":"to","type":"bytes32","internalType":"bytes32"},{"name":"amountLD","type":"uint256","internalType":"uint256"},{"name":"minAmountLD","type":"uint256","internalType":"uint256"},{"name":"extraOptions","type":"bytes","internalType":"bytes"},{"name":"composeMsg","type":"bytes","internalType":"bytes"},{"name":"oftCmd","type":"bytes","internalType":"bytes"}]}],"outputs":[{"name":"oftLimit","type":"tuple","internalType":"struct OFTLimit","components":[{"name":"minAmountLD","type":"uint256","internalType":"uint256"},{"name":"maxAmountLD","type":"uint256","internalType":"uint256"}]},{"name":"oftFeeDetails","type":"tuple[]","internalType":"struct OFTFeeDetail[]","components":[{"name":"feeAmountLD","type":"int256","internalType":"int256"},{"name":"description","type":"string","internalType":"string"}]},{"name":"oftReceipt","type":"tuple","internalType":"struct OFTReceipt","components":[{"name":"amountSentLD","type":"uint256","internalType":"uint256"},{"name":"amountReceivedLD","type":"uint256","internalType":"uint256"}]}],"stateMutability":"view"},{"type":"function","name":"quoteSend","inputs":[{"name":"_sendParam","type":"tuple","internalType":"struct SendParam","components":[{"name":"dstEid","type":"uint32","internalType":"uint32"},{"name":"to","type":"bytes32","internalType":"bytes32"},{"name":"amountLD","type":"uint256","internalType":"uint256"},{"name":"minAmountLD","type":"uint256","internalType":"uint256"},{"name":"extraOptions","type":"bytes","internalType":"bytes"},{"name":"composeMsg","type":"bytes","internalType":"bytes"},{"name":"oftCmd","type":"bytes","internalType":"bytes"}]},{"name":"_payInLzToken","type":"bool","internalType":"bool"}],"outputs":[{"name":"msgFee","type":"tuple","internalType":"struct MessagingFee","components":[{"name":"nativeFee","type":"uint256","internalType":"uint256"},{"name":"lzTokenFee","type":"uint256","internalType":"uint256"}]}],"stateMutability":"view"},{"type":"function","name":"registry","inputs":[],"outputs":[{"name":"","type":"address","internalType":"contract IEagleRegistry"}],"stateMutability":"view"},{"type":"function","name":"renounceOwnership","inputs":[],"outputs":[],"stateMutability":"nonpayable"},{"type":"function","name":"send","inputs":[{"name":"_sendParam","type":"tuple","internalType":"struct SendParam","components":[{"name":"dstEid","type":"uint32","internalType":"uint32"},{"name":"to","type":"bytes32","internalType":"bytes32"},{"name":"amountLD","type":"uint256","internalType":"uint256"},{"name":"minAmountLD","type":"uint256","internalType":"uint256"},{"name":"extraOptions","type":"bytes","internalType":"bytes"},{"name":"composeMsg","type":"bytes","internalType":"bytes"},{"name":"oftCmd","type":"bytes","internalType":"bytes"}]},{"name":"_fee","type":"tuple","internalType":"struct MessagingFee","components":[{"name":"nativeFee","type":"uint256","internalType":"uint256"},{"name":"lzTokenFee","type":"uint256","internalType":"uint256"}]},{"name":"_refundAddress","type":"address","internalType":"address"}],"outputs":[{"name":"msgReceipt","type":"tuple","internalType":"struct MessagingReceipt","components":[{"name":"guid","type":"bytes32","internalType":"bytes32"},{"name":"nonce","type":"uint64","internalType":"uint64"},{"name":"fee","type":"tuple","internalType":"struct MessagingFee","components":[{"name":"nativeFee","type":"uint256","internalType":"uint256"},{"name":"lzTokenFee","type":"uint256","internalType":"uint256"}]}]},{"name":"oftReceipt","type":"tuple","internalType":"struct OFTReceipt","components":[{"name":"amountSentLD","type":"uint256","internalType":"uint256"},{"name":"amountReceivedLD","type":"uint256","internalType":"uint256"}]}],"stateMutability":"payable"},{"type":"function","name":"setDelegate","inputs":[{"name":"_delegate","type":"address","internalType":"address"}],"outputs":[],"stateMutability":"nonpayable"},{"type":"function","name":"setEnforcedOptions","inputs":[{"name":"_enforcedOptions","type":"tuple[]","internalType":"struct EnforcedOptionParam[]","components":[{"name":"eid","type":"uint32","internalType":"uint32"},{"name":"msgType","type":"uint16","internalType":"uint16"},{"name":"options","type":"bytes","internalType":"bytes"}]}],"outputs":[],"stateMutability":"nonpayable"},{"type":"function","name":"setMinter","inputs":[{"name":"minter","type":"address","internalType":"address"},{"name":"status","type":"bool","internalType":"bool"}],"outputs":[],"stateMutability":"nonpayable"},{"type":"function","name":"setMsgInspector","inputs":[{"name":"_msgInspector","type":"address","internalType":"address"}],"outputs":[],"stateMutability":"nonpayable"},{"type":"function","name":"setPeer","inputs":[{"name":"_eid","type":"uint32","internalType":"uint32"},{"name":"_peer","type":"bytes32","internalType":"bytes32"}],"outputs":[],"stateMutability":"nonpayable"},{"type":"function","name":"setPreCrime","inputs":[{"name":"_preCrime","type":"address","internalType":"address"}],"outputs":[],"stateMutability":"nonpayable"},{"type":"function","name":"sharedDecimals","inputs":[],"outputs":[{"name":"","type":"uint8","internalType":"uint8"}],"stateMutability":"view"},{"type":"function","name":"symbol","inputs":[],"outputs":[{"name":"","type":"string","internalType":"string"}],"stateMutability":"view"},{"type":"function","name":"token","inputs":[],"outputs":[{"name":"","type":"address","internalType":"address"}],"stateMutability":"view"},{"type":"function","name":"totalSupply","inputs":[],"outputs":[{"name":"","type":"uint256","internalType":"uint256"}],"stateMutability":"view"},{"type":"function","name":"transfer","inputs":[{"name":"to","type":"address","internalType":"address"},{"name":"value","type":"uint256","internalType":"uint256"}],"outputs":[{"name":"","type":"bool","internalType":"bool"}],"stateMutability":"nonpayable"},{"type":"function","name":"transferFrom","inputs":[{"name":"from","type":"address","internalType":"address"},{"name":"to","type":"address","internalType":"address"},{"name":"value","type":"uint256","internalType":"uint256"}],"outputs":[{"name":"","type":"bool","internalType":"bool"}],"stateMutability":"nonpayable"},{"type":"function","name":"transferOwnership","inputs":[{"name":"newOwner","type":"address","internalType":"address"}],"outputs":[],"stateMutability":"nonpayable"},{"type":"function","name":"version","inputs":[],"outputs":[{"name":"","type":"string","internalType":"string"}],"stateMutability":"pure"},{"type":"event","name":"Approval","inputs":[{"name":"owner","type":"address","indexed":true,"internalType":"address"},{"name":"spender","type":"address","indexed":true,"internalType":"address"},{"name":"value","type":"uint256","indexed":false,"internalType":"uint256"}],"anonymous":false},{"type":"event","name":"EnforcedOptionSet","inputs":[{"name":"_enforcedOptions","type":"tuple[]","indexed":false,"internalType":"struct EnforcedOptionParam[]","components":[{"name":"eid","type":"uint32","internalType":"uint32"},{"name":"msgType","type":"uint16","internalType":"uint16"},{"name":"options","type":"bytes","internalType":"bytes"}]}],"anonymous":false},{"type":"event","name":"MinterUpdated","inputs":[{"name":"minter","type":"address","indexed":true,"internalType":"address"},{"name":"status","type":"bool","indexed":false,"internalType":"bool"}],"anonymous":false},{"type":"event","name":"MsgInspectorSet","inputs":[{"name":"inspector","type":"address","indexed":false,"internalType":"address"}],"anonymous":false},{"type":"event","name":"OFTReceived","inputs":[{"name":"guid","type":"bytes32","indexed":true,"internalType":"bytes32"},{"name":"srcEid","type":"uint32","indexed":false,"internalType":"uint32"},{"name":"toAddress","type":"address","indexed":true,"internalType":"address"},{"name":"amountReceivedLD","type":"uint256","indexed":false,"internalType":"uint256"}],"anonymous":false},{"type":"event","name":"OFTSent","inputs":[{"name":"guid","type":"bytes32","indexed":true,"internalType":"bytes32"},{"name":"dstEid","type":"uint32","indexed":false,"internalType":"uint32"},{"name":"fromAddress","type":"address","indexed":true,"internalType":"address"},{"name":"amountSentLD","type":"uint256","indexed":false,"internalType":"uint256"},{"name":"amountReceivedLD","type":"uint256","indexed":false,"internalType":"uint256"}],"anonymous":false},{"type":"event","name":"OwnershipTransferred","inputs":[{"name":"previousOwner","type":"address","indexed":true,"internalType":"address"},{"name":"newOwner","type":"address","indexed":true,"internalType":"address"}],"anonymous":false},{"type":"event","name":"PeerSet","inputs":[{"name":"eid","type":"uint32","indexed":false,"internalType":"uint32"},{"name":"peer","type":"bytes32","indexed":false,"internalType":"bytes32"}],"anonymous":false},{"type":"event","name":"PreCrimeSet","inputs":[{"name":"preCrimeAddress","type":"address","indexed":false,"internalType":"address"}],"anonymous":false},{"type":"event","name":"Transfer","inputs":[{"name":"from","type":"address","indexed":true,"internalType":"address"},{"name":"to","type":"address","indexed":true,"internalType":"address"},{"name":"value","type":"uint256","indexed":false,"internalType":"uint256"}],"anonymous":false},{"type":"error","name":"ERC20InsufficientAllowance","inputs":[{"name":"spender","type":"address","internalType":"address"},{"name":"allowance","type":"uint256","internalType":"uint256"},{"name":"needed","type":"uint256","internalType":"uint256"}]},{"type":"error","name":"ERC20InsufficientBalance","inputs":[{"name":"sender","type":"address","internalType":"address"},{"name":"balance","type":"uint256","internalType":"uint256"},{"name":"needed","type":"uint256","internalType":"uint256"}]},{"type":"error","name":"ERC20InvalidApprover","inputs":[{"name":"approver","type":"address","internalType":"address"}]},{"type":"error","name":"ERC20InvalidReceiver","inputs":[{"name":"receiver","type":"address","internalType":"address"}]},{"type":"error","name":"ERC20InvalidSender","inputs":[{"name":"sender","type":"address","internalType":"address"}]},{"type":"error","name":"ERC20InvalidSpender","inputs":[{"name":"spender","type":"address","internalType":"address"}]},{"type":"error","name":"InvalidDelegate","inputs":[]},{"type":"error","name":"InvalidEndpointCall","inputs":[]},{"type":"error","name":"InvalidLocalDecimals","inputs":[]},{"type":"error","name":"InvalidOptions","inputs":[{"name":"options","type":"bytes","internalType":"bytes"}]},{"type":"error","name":"LzTokenUnavailable","inputs":[]},{"type":"error","name":"NoPeer","inputs":[{"name":"eid","type":"uint32","internalType":"uint32"}]},{"type":"error","name":"NotEnoughNative","inputs":[{"name":"msgValue","type":"uint256","internalType":"uint256"}]},{"type":"error","name":"NotMinter","inputs":[]},{"type":"error","name":"OnlyEndpoint","inputs":[{"name":"addr","type":"address","internalType":"address"}]},{"type":"error","name":"OnlyPeer","inputs":[{"name":"eid","type":"uint32","internalType":"uint32"},{"name":"sender","type":"bytes32","internalType":"bytes32"}]},{"type":"error","name":"OnlySelf","inputs":[]},{"type":"error","name":"OwnableInvalidOwner","inputs":[{"name":"owner","type":"address","internalType":"address"}]},{"type":"error","name":"OwnableUnauthorizedAccount","inputs":[{"name":"account","type":"address","internalType":"address"}]},{"type":"error","name":"SafeERC20FailedOperation","inputs":[{"name":"token","type":"address","internalType":"address"}]},{"type":"error","name":"SimulationResult","inputs":[{"name":"result","type":"bytes","internalType":"bytes"}]},{"type":"error","name":"SlippageExceeded","inputs":[{"name":"amountLD","type":"uint256","internalType":"uint256"},{"name":"minAmountLD","type":"uint256","internalType":"uint256"}]},{"type":"error","name":"ZeroAddress","inputs":[]}],"bytecode":{"object":"0x60e0604090808252346200052f57600090620037b5803803809162000025828562000534565b83398101906080818303126200049e5780516001600160401b0391908281116200052b5783620000579183016200056e565b9060209384820151848111620005275790620000759183016200056e565b62000090606062000088898501620005e4565b9301620005e4565b6001600160a01b03928316969092908715620005165788519363b87f29e160e01b855260049261ffff4616848701528589818c6024998a915afa9081156200050c579082918591620004c8575b5016918215620004b8578116908115620004a25783546001600160a01b03198116831785558291167f8be0079c531659141344cd1fd0a4f28419497f9722a3daafe3b4186f6b6457e08580a381608052813b156200049e5782918683928d51948593849263ca5eb5e160e01b8452898401525af18015620004945762000471575b509064e8d4a5100060a0528451938685116200037c57600854946001968787811c9716801562000466575b8a88101462000454578190601f9788811162000400575b508a90888311600114620003995786926200038d575b5050600019600383901b1c191690871b176008555b83519687116200037c57600954918683811c9316801562000371575b898410146200036057505083811162000317575b5085928511600114620002ae579394508492919083620002a2575b50501b916000199060031b1c1916176009555b60c052516131bb9081620005fa823960805181818161072801528181610c1b0152818161106101528181611bcb01528181611d7501528181612fb60152613063015260a051818181610b650152818161146401528181611a9a01528181612455015281816126a70152612da9015260c051816112ab0152f35b01519250388062000216565b6009815285812093958591601f198316915b88838310620002fc5750505010620002e2575b505050811b0160095562000229565b015160001960f88460031b161c19169055388080620002d3565b858701518855909601959485019487935090810190620002c0565b600982528682208480880160051c82019289891062000356575b0160051c019085905b8281106200034a575050620001fb565b8381550185906200033a565b9250819262000331565b634e487b7160e01b84526022905282fd5b92607f1692620001e7565b634e487b7160e01b83526041825282fd5b015190503880620001b6565b600887528b87208a94509190601f198416888e5b828210620003e85750508411620003ce575b505050811b01600855620001cb565b015160001960f88460031b161c19169055388080620003bf565b8385015186558d979095019493840193018e620003ad565b909150600886528a86208880850160051c8201928d86106200044a575b918b91869594930160051c01915b8281106200043b575050620001a0565b8881558594508b91016200042b565b925081926200041d565b634e487b7160e01b8552602284528285fd5b96607f169662000189565b86811162000482578952386200015e565b5060418492634e487b7160e01b835252fd5b8a513d84823e3d90fd5b8280fd5b8b51631e4fbdf760e01b81528086018590528790fd5b8b5163d92e233d60e01b81528590fd5b8092508b8092503d831162000504575b620004e4818362000534565b810103126200050057620004f98291620005e4565b38620000dd565b8380fd5b503d620004d8565b8c513d86823e3d90fd5b885163d92e233d60e01b8152600490fd5b8680fd5b8480fd5b600080fd5b601f909101601f19168101906001600160401b038211908210176200055857604052565b634e487b7160e01b600052604160045260246000fd5b919080601f840112156200052f5782516001600160401b038111620005585760209060405192620005a983601f19601f850116018562000534565b8184528282870101116200052f5760005b818110620005d057508260009394955001015290565b8581018301518482018401528201620005ba565b51906001600160a01b03821682036200052f5756fe6080604052600436101561001257600080fd5b60003560e01c806306fdde0314610342578063095ea7b31461033d5780630d35b41514610338578063111ecdad1461033357806313137d651461032e578063134d4f2514610329578063156a0d0f1461032457806317442b701461031f57806318160ddd1461031a5780631f5e13341461031557806323b872dd14610310578063313ce5671461030b5780633400288b146103065780633b6f743b1461030157806340c10f19146102fc57806352ae28791461025257806354fd4d50146102f75780635535d461146102f25780635a0dfe4d146102ed5780635e280f11146102e85780636fc1b31e146102e357806370a08231146102de578063715018a6146102d95780637284e416146102d45780637b103999146102cf5780637d25a05e146102ca57806382413eac146102c5578063857749b0146102c05780638da5cb5b146102bb57806395d89b41146102b6578063963efcaa146102b15780639dc29fac146102ac5780639f68b964146102a7578063a9059cbb146102a2578063aa271e1a1461029d578063b731ea0a14610298578063b789bb1a14610293578063b98bd0701461028e578063bb0b6a5314610289578063bc70b35414610284578063bd815db01461027f578063c7c7f5b31461027a578063ca5eb5e114610275578063cf456ae714610270578063d045a0dc1461026b578063d424388514610266578063dd62ed3e14610261578063ef430aa61461025c578063f2fde38b14610257578063fc0c546a146102525763ff7bd03d1461024d57600080fd5b611fcd565b610d69565b611f41565b611eef565b611e8c565b611e1c565b611cc0565b611c33565b611b9a565b611a1e565b61187e565b61182a565b6117ef565b611714565b61166b565b611642565b611600565b6115d6565b6115ba565b611487565b61144c565b6113a4565b61137b565b61135f565b611301565b6112da565b611295565b611198565b61113d565b611100565b611090565b61104b565b611003565b610f84565b610d84565b610cc1565b610b08565b610a77565b610a4d565b610998565b61097c565b61095e565b61093c565b610915565b6108f9565b61070d565b610640565b61059a565b6104ad565b6103b3565b600091031261035257565b600080fd5b60005b83811061036a5750506000910152565b818101518382015260200161035a565b9060209161039381518092818552858086019101610357565b601f01601f1916010190565b9060206103b092818152019061037a565b90565b3461035257600080600319360112610499576040519080600854906103d782610df9565b8085529160209160019182811690811561046c5750600114610414575b6104108661040481880382610f63565b6040519182918261039f565b0390f35b9350600884527ff3f7a9fe364faab93b216da50a3214154f22a0a2b415b23a84c8169e8b636ee35b8385106104595750505050810160200161040482610410386103f4565b805486860184015293820193810161043c565b90508695506104109693506020925061040494915060ff191682840152151560051b8201019293386103f4565b80fd5b6001600160a01b0381160361035257565b34610352576040366003190112610352576104d76004356104cd8161049c565b6024359033612c73565b602060405160018152f35b908160e09103126103525790565b93929161050b8560a081019360208091805184520151910152565b60409160a06040870152815180915260c086019160c08260051b880101936020809201936000915b84831061055b575050505050509060606105599294019060208091805184520151910152565b565b909192939495848061058a6001938d60bf1990820301875285838c51805184520151918185820152019061037a565b9801930193019194939290610533565b34610352576020366003190112610352576001600160401b03600435818111610352576105cb9036906004016104e2565b906105d461202d565b506105dd61202d565b50604051906105eb82610edf565b6000825260208201526104106106246040519361060785610f2d565b600085526106148161205d565b506040606082013591013561244c565b61062c612013565b9182526020820152604051938493846104f0565b34610352576000366003190112610352576004546040516001600160a01b039091168152602090f35b606090600319011261035257600490565b9181601f84011215610352578235916001600160401b038311610352576020838186019501011161035257565b600319810160e081126103525760601361035257600491606435916001600160401b039060843582811161035257816106e29160040161067a565b9390939260a4356106f28161049c565b9260c435918211610352576107099160040161067a565b9091565b610716366106a7565b50929492506001600160a01b039190507f000000000000000000000000000000000000000000000000000000000000000082163381036108e157833561075b81610a69565b610764816124a6565b9060208601358092036108ac57505061078c6107808388612d7d565b6001600160a01b031690565b916107b26107a261079d838a612d89565b612d9b565b6107ab8761205d565b5084612dcf565b809760288311610803575b505050506107fe6107dc6000805160206131668339815191529461205d565b956040519384931696836020909392919363ffffffff60408201951681520152565b0390a3005b9061082e929161082861081860408a016124de565b936108228a61205d565b92612df3565b92612e0f565b90803b1561035257604051633e5ac80960e11b815291600091839182908490829061085e908c8a600485016124e8565b03925af180156108a757600080516020613166833981519152946107fe926107dc9261088e575b889196506107bd565b8061089b6108a192610f1a565b80610347565b38610885565b6123ba565b6108b581610a69565b60405163309afaf360e21b815263ffffffff9190911660048201526024810191909152604490fd5b0390fd5b6040516391ac5e4f60e01b8152336004820152602490fd5b3461035257600036600319011261035257602060405160028152f35b34610352576000366003190112610352576040805162b9270b60e21b815260016020820152f35b3461035257600036600319011261035257604080516001815260026020820152f35b34610352576000366003190112610352576020600754604051908152f35b3461035257600036600319011261035257602060405160018152f35b34610352576060366003190112610352576004356109b58161049c565b6024356109c18161049c565b6001600160a01b03821660009081526006602090815260408083203384529091529020604435919054926000198410610a0b575b6109ff9350612513565b60405160018152602090f35b828410610a2757610a22836109ff95033383612d10565b6109f5565b604051637dc7a0d960e11b81523360048201526024810185905260448101849052606490fd5b3461035257600036600319011261035257602060405160128152f35b63ffffffff81160361035257565b34610352576040366003190112610352577f238399d427b947898edb290f5ff0f9109849b1c3ba196a42e35f00c50a54b98b600435610ab581610a69565b60243590610ac1612630565b63ffffffff8116600052600160205281604060002055610af9604051928392836020909392919363ffffffff60408201951681520152565b0390a1005b8015150361035257565b3461035257604080600319360112610352576004356001600160401b03811161035257610b399036906004016104e2565b90602435610b4681610afe565b610b4e61202d565b506060830135833593610b6085610a69565b610b967f0000000000000000000000000000000000000000000000000000000000000000610b918187850135612d4a565b612d6a565b91808310610ca457508392610bb2610c179693610bfc93612696565b90610bbc85610a69565b610bc461202d565b50610bce856124a6565b610be5610bd9612020565b63ffffffff9097168752565b602086015285850152606084015215156080830152565b815180948192631bb8518b60e31b83523090600484016127e1565b03817f00000000000000000000000000000000000000000000000000000000000000006001600160a01b03165afa9081156108a75761041092600092610c75575b505191829182815181526020918201519181019190915260400190565b81610c969293503d8411610c9d575b610c8e8183610f63565b8101906127cd565b9038610c58565b503d610c84565b826044918651916371c4efed60e01b835260048301526024820152fd5b3461035257604036600319011261035257600435610cde8161049c565b60243533600052600a602052610d01610cfd604060002060ff90541690565b1590565b80610d54575b610d42576001600160a01b03821615610d3057610d2e91610d29821515612067565b61284f565b005b60405163d92e233d60e01b8152600490fd5b604051633e34a41b60e21b8152600490fd5b506000546001600160a01b0316331415610d07565b34610352576000366003190112610352576020604051308152f35b3461035257600036600319011261035257610410604051610da481610edf565b6014815273322e302e302d6d61696e6e65742d73696d706c6560601b602082015260405191829160208352602083019061037a565b6024359061ffff8216820361035257565b359061ffff8216820361035257565b90600182811c92168015610e29575b6020831014610e1357565b634e487b7160e01b600052602260045260246000fd5b91607f1691610e08565b805460009392610e4282610df9565b91828252602093600191600181169081600014610eaa5750600114610e69575b5050505050565b90939495506000929192528360002092846000945b838610610e9657505050500101903880808080610e62565b805485870183015294019385908201610e7e565b60ff19168685015250505090151560051b010191503880808080610e62565b634e487b7160e01b600052604160045260246000fd5b604081019081106001600160401b03821117610efa57604052565b610ec9565b606081019081106001600160401b03821117610efa57604052565b6001600160401b038111610efa57604052565b602081019081106001600160401b03821117610efa57604052565b60a081019081106001600160401b03821117610efa57604052565b90601f801991011681019081106001600160401b03821117610efa57604052565b3461035257604036600319011261035257610410610fe8610fef610fdc600435610fad81610a69565b63ffffffff610fba610dd9565b9116600052600360205260406000209061ffff16600052602052604060002090565b60405192838092610e33565b0382610f63565b60405191829160208352602083019061037a565b3461035257604036600319011261035257602061104160043561102581610a69565b6024359063ffffffff1660005260016020526040600020541490565b6040519015158152f35b34610352576000366003190112610352576040517f00000000000000000000000000000000000000000000000000000000000000006001600160a01b03168152602090f35b34610352576020366003190112610352577ff0be4f1e87349231d80c36b33f9e8639658eeaf474014dee15a3e6a4d441419760206004356110d08161049c565b6110d8612630565b600480546001600160a01b0319166001600160a01b03929092169182179055604051908152a1005b346103525760203660031901126103525760043561111d8161049c565b60018060a01b031660005260056020526020604060002054604051908152f35b346103525760008060031936011261049957611157612630565b80546001600160a01b03198116825581906001600160a01b03167f8be0079c531659141344cd1fd0a4f28419497f9722a3daafe3b4186f6b6457e08280a380f35b346103525760003660031901126103525760405160c08101908082106001600160401b03831117610efa5761041091604052609281527f4561676c65205661756c7420536861726520546f6b656e202d2052657072657360208201527f656e74732070726f706f7274696f6e616c206f776e657273686970206f66206160408201527f737365747320696e20746865204561676c65204f6d6e69636861696e2056617560608201527f6c742e2053696d696c617220746f20416176652061546f6b656e73206f72205960808201527132b0b937103b30bab63a103a37b5b2b7399760711b60a082015260405191829160208352602083019061037a565b34610352576000366003190112610352576040517f00000000000000000000000000000000000000000000000000000000000000006001600160a01b03168152602090f35b34610352576040366003190112610352576112f6600435610a69565b602060405160008152f35b346103525760a03660031901126103525761131b36610669565b506064356001600160401b0381116103525761133b90369060040161067a565b5050602060843561134b8161049c565b6040516001600160a01b0390911630148152f35b3461035257600036600319011261035257602060405160068152f35b34610352576000366003190112610352576000546040516001600160a01b039091168152602090f35b3461035257600080600319360112610499576040519080600954906113c882610df9565b8085529160209160019182811690811561046c57506001146113f4576104108661040481880382610f63565b9350600984527f6e1540171b6c0c960b71a7020d9f60077f6af931a8bbf590da0223dacf75c7af5b8385106114395750505050810160200161040482610410386103f4565b805486860184015293820193810161141c565b346103525760003660031901126103525760206040517f00000000000000000000000000000000000000000000000000000000000000008152f35b34610352576040366003190112610352576004356114a48161049c565b336000908152600a60205260409020602435906114c790610cfd905b5460ff1690565b8061159c575b610d42576001600160a01b038216918215610d3057336000908152600a60205260409020610d2e93906114ff906114c0565b90811561157c575b3314159081611573575b50156128c45761156e611567836115553361153e8660018060a01b03166000526006602052604060002090565b9060018060a01b0316600052602052604060002090565b54611562828210156120d9565b61213b565b3383612c73565b6128c4565b90501538611511565b600054909150611594906001600160a01b0316610780565b331490611507565b506000546115b2906001600160a01b0316610780565b3314156114cd565b3461035257600036600319011261035257602060405160008152f35b34610352576040366003190112610352576104d76004356115f68161049c565b6024359033612513565b346103525760203660031901126103525760043561161d8161049c565b60018060a01b0316600052600a602052602060ff604060002054166040519015158152f35b34610352576000366003190112610352576002546040516001600160a01b039091168152602090f35b3461035257602036600319011261035257602060043561168a8161049c565b6001600160a01b039081166000818152600a8452604090205460ff169182156116ba575b50506040519015158152f35b6000541614905038806116ae565b906020600319830112610352576004356001600160401b039283821161035257806023830112156103525781600401359384116103525760248460051b83010111610352576024019190565b3461035257611722366116c8565b9061172b612630565b61173482612046565b9060406117446040519384610f63565b8383526020938484019060051b8301923684116103525780915b84831061176e57610d2e86612b4d565b6001600160401b03908335828111610352578301916060833603126103525785519261179984610eff565b80356117a481610a69565b84526117b18a8201610dea565b8a8501528681013591821161035257019036601f830112156103525788926117e084933690858135910161214d565b8782015281520192019161175e565b346103525760203660031901126103525763ffffffff60043561181181610a69565b1660005260016020526020604060002054604051908152f35b346103525760603660031901126103525760043561184781610a69565b61184f610dd9565b604435906001600160401b0382116103525761041092611876610fef93369060040161067a565b92909161220f565b611887366116c8565b60005b8181106118f657604051638e9e709960e01b8152600081600481335afa80156108a7576108dd916000916118d3575b50604051638351eea760e01b81529182916004830161039f565b6118f091503d806000833e6118e88183610f63565b8101906123c6565b826118b9565b6119018183856122cb565b9061192f610cfd6119118461205d565b60208501359063ffffffff1660005260016020526040600020541490565b6119c4576119416101008301836122f3565b9261194e60e08201612325565b9061195d6101208201826122f3565b959095303b156103525760009461199360c092604051998a9788968795633411683760e21b875260a08a01358a60048901612340565b03920135305af19182156108a7576001926119b1575b505b0161188a565b8061089b6119be92610f1a565b386119a9565b600191506119ab565b916080610559929493611a0d604060c0830197805184526001600160401b0360208201511660208501520151604083019060208091805184520151910152565b019060208091805184520151910152565b6080366003190112610352576004356001600160401b03811161035257611a499036906004016104e2565b604036602319011261035257606435611a618161049c565b611a69612424565b50611a7261202d565b50611a7b612424565b50611a8461202d565b50606082013590611a958335610a69565b611ac77f0000000000000000000000000000000000000000000000000000000000000000610b91816040870135612d4a565b91808310611b7c5750611b0190611ade83336128c4565b611ae88385612696565b611af18661205d565b91611afb36612c4b565b92612f39565b90611b0a612013565b928184528160208501527f85496b760a4b7f8d66384b9df21b381f5d1b1e79f229a47aaf4c232edc2fe59a611b6a611b4385519361205d565b936040519181839233978460409194939263ffffffff606083019616825260208201520152565b0390a3610410604051928392836119cd565b82604491604051916371c4efed60e01b835260048301526024820152fd5b34610352576000602036600319011261049957600435611bb98161049c565b611bc1612630565b6001600160a01b037f0000000000000000000000000000000000000000000000000000000000000000811691839190833b15611c2f5760249083604051958694859363ca5eb5e160e01b85521660048401525af180156108a757611c23575080f35b611c2c90610f1a565b80f35b8280fd5b3461035257604036600319011261035257600435611c508161049c565b60243590611c5d82610afe565b611c65612630565b6001600160a01b0316908115610d305760207fb21afb9ce9be0a676f8f317ff0ca072fb89a4f8ce2d1b6fe80f8755c14f1cb199183600052600a825260406000209015159060ff1981541660ff8316179055604051908152a2005b611cc9366106a7565b5050509290303303611e0a57611ce26107808583612d7d565b93611d03611cf361079d8385612d89565b611cfc8561205d565b5086612dcf565b9160288211611d53575b5050611d276000805160206131668339815191529261205d565b6040805163ffffffff909216825260208201929092526001600160a01b039094169390819081016107fe565b9082611d7292610828611d68604088016124de565b936108228861205d565b917f00000000000000000000000000000000000000000000000000000000000000006001600160a01b0316803b1561035257604051633e5ac80960e11b8152936000918591829084908290611dcc908b8d600485016124e8565b03925af19081156108a75760008051602061316683398151915293611d2792611df7575b5092611d0d565b8061089b611e0492610f1a565b38611df0565b60405163029a949d60e31b8152600490fd5b34610352576020366003190112610352577fd48d879cef83a1c0bdda516f27b13ddb1b3f8bbac1c9e1511bb2a659c24277606020600435611e5c8161049c565b611e64612630565b600280546001600160a01b0319166001600160a01b03929092169182179055604051908152a1005b34610352576040366003190112610352576020611ee6600435611eae8161049c565b60243590611ebb8261049c565b60018060a01b03166000526006835260406000209060018060a01b0316600052602052604060002090565b54604051908152f35b3461035257600036600319011261035257610410604051611f0f81610edf565b60118152702b30bab63a1029b430b932902a37b5b2b760791b602082015260405191829160208352602083019061037a565b3461035257602036600319011261035257600435611f5e8161049c565b611f66612630565b6001600160a01b039081168015611fb457600080546001600160a01b03198116831782559092167f8be0079c531659141344cd1fd0a4f28419497f9722a3daafe3b4186f6b6457e08380a380f35b604051631e4fbdf760e01b815260006004820152602490fd5b34610352576060366003190112610352576020611fe936610669565b63ffffffff8135611ff981610a69565b166000526001825260406000205482604051920135148152f35b6040519061055982610edf565b6040519061055982610f48565b6040519061203a82610edf565b60006020838281520152565b6001600160401b038111610efa5760051b60200190565b356103b081610a69565b1561206e57565b60405162461bcd60e51b815260206004820152602260248201527f4d696e7420616d6f756e74206d7573742062652067726561746572207468616e604482015261020360f41b6064820152608490fd5b6001600160401b038111610efa57601f01601f191660200190565b156120e057565b60405162461bcd60e51b815260206004820152601d60248201527f45524332303a20696e73756666696369656e7420616c6c6f77616e63650000006044820152606490fd5b634e487b7160e01b600052601160045260246000fd5b9190820391821161214857565b612125565b929192612159826120be565b916121676040519384610f63565b829481845281830111610352578281602093846000960137010152565b909291928360021161035257831161035257600201916001190190565b602090836105599395949560405196836121c48995518092888089019101610357565b8401918583013701600083820152038085520183610f63565b908060209392818452848401376000828201840152601f01601f1916010190565b9160206103b09381815201916121dd565b610fdc610fe89263ffffffff612244939795969716600052600360205260406000209061ffff16600052602052604060002090565b8051156122a75783156122a15760028410156122785750506108dd604051928392639a6d49cd60e01b8452600484016121fe565b90928061229b916103b09461229661229136848461214d565b612c13565b612184565b916121a1565b92509050565b5091906103b091369161214d565b634e487b7160e01b600052603260045260246000fd5b91908110156122ee5760051b8101359061013e1981360301821215610352570190565b6122b5565b903590601e198136030182121561035257018035906001600160401b0382116103525760200191813603831361035257565b356103b08161049c565b6001600160401b0381160361035257565b92909361239c926001600160401b0360406103b09a98999763ffffffff813561236881610a69565b1688526020810135602089015201356123808161232f565b166040860152606085015260e0608085015260e08401916121dd565b6001600160a01b0390941660a082015280840360c0909101526121dd565b6040513d6000823e3d90fd5b602081830312610352578051906001600160401b038211610352570181601f820112156103525780516123f8816120be565b926124066040519485610f63565b81845260208284010111610352576103b09160208085019101610357565b6040519061243182610eff565b816000815260006020820152604061244761202d565b910152565b61247b90610b917f00000000000000000000000000000000000000000000000000000000000000008092612d4a565b9182918084106124885750565b83604491604051916371c4efed60e01b835260048301526024820152fd5b63ffffffff168060005260016020526040600020549081156124c6575090565b6024906040519063f6ff4fb760e01b82526004820152fd5b356103b08161232f565b6103b0939260809260018060a01b03168252602082015260006040820152816060820152019061037a565b916001600160a01b03808416929083156126175781169384156125fe576001600160a01b0381166000908152600560205260409020548381106125cf576125ca9284926125997fddf252ad1be2c89b69c2b068fc378daa952ba7f163c4a11628f55a4df523b3ef966125b494039160018060a01b03166000526005602052604060002090565b556001600160a01b0316600090815260056020526040902090565b8054820190556040519081529081906020820190565b0390a3565b60405163391434e360e21b81526001600160a01b03929092166004830152602482015260448101839052606490fd5b60405163ec442f0560e01b815260006004820152602490fd5b604051634b637e8f60e11b815260006004820152602490fd5b6000546001600160a01b0316330361264457565b60405163118cdaa760e01b8152336004820152602490fd5b9081602091031261035257516103b081610afe565b90916126886103b09360408452604084019061037a565b91602081840391015261037a565b90916126fa6126d86126cc612721957f000000000000000000000000000000000000000000000000000000000000000090612d4a565b6001600160401b031690565b6126ef6126e860a08601866122f3565b369161214d565b906020850135612e6c565b939092839460001461279d576002905b6118766127168261205d565b9160808101906122f3565b60045490926001600160a01b0390911690838261273d57505050565b60405163043a78eb60e01b8152926020928492839182916127619160048401612671565b03915afa80156108a7576127725750565b6127939060203d602011612796575b61278b8183610f63565b81019061265c565b50565b503d612781565b60019061270a565b9190826040910312610352576040516127bd81610edf565b6020808294805184520151910152565b90604082820312610352576103b0916127a5565b906020909392936040835263ffffffff8151166040840152818101516060840152608061283561281f604084015160a08488015260e087019061037a565b6060840151868203603f190160a088015261037a565b910151151560c08401526001600160a01b03909416910152565b6001600160a01b038116919082156125fe5760075490828201809211612148576000926128b56020927fddf252ad1be2c89b69c2b068fc378daa952ba7f163c4a11628f55a4df523b3ef9460075560018060a01b03166000526005602052604060002090565b818154019055604051908152a3565b91906001600160a01b038316908115612617576001600160a01b03841660009081526005602052604090205493818510612951578160209161293f7fddf252ad1be2c89b69c2b068fc378daa952ba7f163c4a11628f55a4df523b3ef9460009798039160018060a01b03166000526005602052604060002090565b558060075403600755604051908152a3565b60405163391434e360e21b81526001600160a01b03919091166004820152602481018590526044810191909152606490fd5b80518210156122ee5760209160051b010190565b90601f81116129a557505050565b6000916000526020600020906020601f850160051c830194106129e3575b601f0160051c01915b8281106129d857505050565b8181556001016129cc565b90925082906129c3565b91909182516001600160401b038111610efa57612a1481612a0e8454610df9565b84612997565b602080601f8311600114612a5757508190612a48939495600092612a4c575b50508160011b916000199060031b1c19161790565b9055565b015190503880612a33565b90601f19831695612a6d85600052602060002090565b926000905b888210612aaa57505083600195969710612a91575b505050811b019055565b015160001960f88460031b161c19169055388080612a87565b80600185968294968601518155019501930190612a72565b6020808201908083528351809252604092604081018260408560051b8401019601946000925b858410612af9575050505050505090565b909192939495968580612b3c600193603f198682030188528b518760609163ffffffff815116845261ffff8682015116868501520151918189820152019061037a565b990194019401929594939190612ae8565b9060009160005b8151811015612bd957600190612bd36040612b7b81612b738588612983565b510151612c13565b612bce81612b898588612983565b5101519163ffffffff612b9c8689612983565b515116895261ffff602091600383528a2091612bb8878a612983565b5101511661ffff16600052602052604060002090565b6129ed565b01612b54565b507fbe4864a8e820971c0247f5992e2da559595f7bf076a21cb5928d443d2a13b674919250612c0e9060405191829182612ac2565b0390a1565b600361ffff60028301511603612c265750565b604051639a6d49cd60e01b8152602060048201529081906108dd90602483019061037a565b60409060231901126103525760405190612c6482610edf565b60243582526044356020830152565b6001600160a01b038082169291908315612cf7578216938415612cde5780612cd47f8c5be1e5ebec7d5bd14f71427d1e84f3dd0314c0f7b2291e5b200ac8c7c3b9259461153e60209560018060a01b03166000526006602052604060002090565b55604051908152a3565b604051634a1406b160e11b815260006004820152602490fd5b60405163e602df0560e01b815260006004820152602490fd5b906001600160a01b0380831615612cf757811615612cde5761153e612d479260018060a01b03166000526006602052604060002090565b55565b8115612d54570490565b634e487b7160e01b600052601260045260246000fd5b8181029291811591840414171561214857565b90602011610352573590565b90602811610352576020013560c01c90565b6103b0906001600160401b037f00000000000000000000000000000000000000000000000000000000000000009116612d6a565b816001600160a01b03821615612de9575b6103b09161284f565b61dead9150612de0565b9080602811610352576103b0913691602719019060280161214d565b604c91936103b0936040519586936001600160401b0360c01b9060c01b16602085015263ffffffff60e01b9060e01b166028840152602c830152612e5c8151809260208686019101610357565b810103602c810184520182610f63565b82511580159390612eca57612ec79160689160405194859260208401526001600160401b0360c01b9060c01b166040830152336048830152612eb78151809260208686019101610357565b8101036048810184520182610f63565b91565b50906040519160208301526001600160401b0360c01b9060c01b16604082015260288152612ec781610eff565b9060808282031261035257612f31906040805193612f1485610eff565b805185526020810151612f268161232f565b6020860152016127a5565b604082015290565b612f9660809492612fb29694612f4d612424565b506020612f5a865161302a565b95019182518061301b575b50612f6f856124a6565b9251151592612f7f610bd9612020565b602086015260408501526060840152151585830152565b6040518095819482936302637a4560e41b8452600484016127e1565b03917f00000000000000000000000000000000000000000000000000000000000000006001600160a01b03165af19081156108a757600091612ff2575090565b6103b0915060803d608011613014575b61300c8183610f63565b810190612ef7565b503d613002565b6130249061304c565b38612f65565b8034036130345790565b6040516304fb820960e51b8152346004820152602490fd5b60405163393f876560e21b81526001600160a01b037f00000000000000000000000000000000000000000000000000000000000000008116926020929091908381600481885afa9081156108a75760009161312f575b501692831561311d5760009160405190848201926323b872dd60e01b845233602484015260448301526064820152606481526130dd81610f48565b519082855af1156123ba576000513d6131145750803b155b6130fc5750565b60249060405190635274afe760e01b82526004820152fd5b600114156130f5565b6040516329b99a9560e11b8152600490fd5b90508381813d831161315e575b6131468183610f63565b8101031261035257516131588161049c565b386130a2565b503d61313c56feefed6d3500546b29533b128a29e3a94d70788727f0507505ac12eaf2e578fd9ca26469706673582212201995ba2b1aa216d22e5168e4f62c4f10dd591800303760054e883fb96bb3efa264736f6c63430008160033","linkReferences":{}},"methodIdentifiers":{"SEND()":"1f5e1334","SEND_AND_CALL()":"134d4f25","allowInitializePath((uint32,bytes32,uint64))":"ff7bd03d","allowance(address,address)":"dd62ed3e","approvalRequired()":"9f68b964","approve(address,uint256)":"095ea7b3","balanceOf(address)":"70a08231","burn(address,uint256)":"9dc29fac","category()":"ef430aa6","checkMinter(address)":"b789bb1a","combineOptions(uint32,uint16,bytes)":"bc70b354","decimalConversionRate()":"963efcaa","decimals()":"313ce567","description()":"7284e416","endpoint()":"5e280f11","enforcedOptions(uint32,uint16)":"5535d461","isComposeMsgSender((uint32,bytes32,uint64),bytes,address)":"82413eac","isMinter(address)":"aa271e1a","isPeer(uint32,bytes32)":"5a0dfe4d","lzReceive((uint32,bytes32,uint64),bytes32,bytes,address,bytes)":"13137d65","lzReceiveAndRevert(((uint32,bytes32,uint64),uint32,address,bytes32,uint256,address,bytes,bytes)[])":"bd815db0","lzReceiveSimulate((uint32,bytes32,uint64),bytes32,bytes,address,bytes)":"d045a0dc","mint(address,uint256)":"40c10f19","msgInspector()":"111ecdad","name()":"06fdde03","nextNonce(uint32,bytes32)":"7d25a05e","oApp()":"52ae2879","oAppVersion()":"17442b70","oftVersion()":"156a0d0f","owner()":"8da5cb5b","peers(uint32)":"bb0b6a53","preCrime()":"b731ea0a","quoteOFT((uint32,bytes32,uint256,uint256,bytes,bytes,bytes))":"0d35b415","quoteSend((uint32,bytes32,uint256,uint256,bytes,bytes,bytes),bool)":"3b6f743b","registry()":"7b103999","renounceOwnership()":"715018a6","send((uint32,bytes32,uint256,uint256,bytes,bytes,bytes),(uint256,uint256),address)":"c7c7f5b3","setDelegate(address)":"ca5eb5e1","setEnforcedOptions((uint32,uint16,bytes)[])":"b98bd070","setMinter(address,bool)":"cf456ae7","setMsgInspector(address)":"6fc1b31e","setPeer(uint32,bytes32)":"3400288b","setPreCrime(address)":"d4243885","sharedDecimals()":"857749b0","symbol()":"95d89b41","token()":"fc0c546a","totalSupply()":"18160ddd","transfer(address,uint256)":"a9059cbb","transferFrom(address,address,uint256)":"23b872dd","transferOwnership(address)":"f2fde38b","version()":"54fd4d50"},"id":19}