{"abi":[{"type":"constructor","inputs":[{"name":"_token","type":"address","internalType":"address"},{"name":"_lzEndpoint","type":"address","internalType":"address"},{"name":"_delegate","type":"address","internalType":"address"}],"stateMutability":"nonpayable"},{"type":"function","name":"SEND","inputs":[],"outputs":[{"name":"","type":"uint16","internalType":"uint16"}],"stateMutability":"view"},{"type":"function","name":"SEND_AND_CALL","inputs":[],"outputs":[{"name":"","type":"uint16","internalType":"uint16"}],"stateMutability":"view"},{"type":"function","name":"allowInitializePath","inputs":[{"name":"origin","type":"tuple","internalType":"struct Origin","components":[{"name":"srcEid","type":"uint32","internalType":"uint32"},{"name":"sender","type":"bytes32","internalType":"bytes32"},{"name":"nonce","type":"uint64","internalType":"uint64"}]}],"outputs":[{"name":"","type":"bool","internalType":"bool"}],"stateMutability":"view"},{"type":"function","name":"approvalRequired","inputs":[],"outputs":[{"name":"","type":"bool","internalType":"bool"}],"stateMutability":"pure"},{"type":"function","name":"combineOptions","inputs":[{"name":"_eid","type":"uint32","internalType":"uint32"},{"name":"_msgType","type":"uint16","internalType":"uint16"},{"name":"_extraOptions","type":"bytes","internalType":"bytes"}],"outputs":[{"name":"","type":"bytes","internalType":"bytes"}],"stateMutability":"view"},{"type":"function","name":"decimalConversionRate","inputs":[],"outputs":[{"name":"","type":"uint256","internalType":"uint256"}],"stateMutability":"view"},{"type":"function","name":"endpoint","inputs":[],"outputs":[{"name":"","type":"address","internalType":"contract ILayerZeroEndpointV2"}],"stateMutability":"view"},{"type":"function","name":"enforcedOptions","inputs":[{"name":"eid","type":"uint32","internalType":"uint32"},{"name":"msgType","type":"uint16","internalType":"uint16"}],"outputs":[{"name":"enforcedOption","type":"bytes","internalType":"bytes"}],"stateMutability":"view"},{"type":"function","name":"isComposeMsgSender","inputs":[{"name":"","type":"tuple","internalType":"struct Origin","components":[{"name":"srcEid","type":"uint32","internalType":"uint32"},{"name":"sender","type":"bytes32","internalType":"bytes32"},{"name":"nonce","type":"uint64","internalType":"uint64"}]},{"name":"","type":"bytes","internalType":"bytes"},{"name":"_sender","type":"address","internalType":"address"}],"outputs":[{"name":"","type":"bool","internalType":"bool"}],"stateMutability":"view"},{"type":"function","name":"isPeer","inputs":[{"name":"_eid","type":"uint32","internalType":"uint32"},{"name":"_peer","type":"bytes32","internalType":"bytes32"}],"outputs":[{"name":"","type":"bool","internalType":"bool"}],"stateMutability":"view"},{"type":"function","name":"lzReceive","inputs":[{"name":"_origin","type":"tuple","internalType":"struct Origin","components":[{"name":"srcEid","type":"uint32","internalType":"uint32"},{"name":"sender","type":"bytes32","internalType":"bytes32"},{"name":"nonce","type":"uint64","internalType":"uint64"}]},{"name":"_guid","type":"bytes32","internalType":"bytes32"},{"name":"_message","type":"bytes","internalType":"bytes"},{"name":"_executor","type":"address","internalType":"address"},{"name":"_extraData","type":"bytes","internalType":"bytes"}],"outputs":[],"stateMutability":"payable"},{"type":"function","name":"lzReceiveAndRevert","inputs":[{"name":"_packets","type":"tuple[]","internalType":"struct InboundPacket[]","components":[{"name":"origin","type":"tuple","internalType":"struct Origin","components":[{"name":"srcEid","type":"uint32","internalType":"uint32"},{"name":"sender","type":"bytes32","internalType":"bytes32"},{"name":"nonce","type":"uint64","internalType":"uint64"}]},{"name":"dstEid","type":"uint32","internalType":"uint32"},{"name":"receiver","type":"address","internalType":"address"},{"name":"guid","type":"bytes32","internalType":"bytes32"},{"name":"value","type":"uint256","internalType":"uint256"},{"name":"executor","type":"address","internalType":"address"},{"name":"message","type":"bytes","internalType":"bytes"},{"name":"extraData","type":"bytes","internalType":"bytes"}]}],"outputs":[],"stateMutability":"payable"},{"type":"function","name":"lzReceiveSimulate","inputs":[{"name":"_origin","type":"tuple","internalType":"struct Origin","components":[{"name":"srcEid","type":"uint32","internalType":"uint32"},{"name":"sender","type":"bytes32","internalType":"bytes32"},{"name":"nonce","type":"uint64","internalType":"uint64"}]},{"name":"_guid","type":"bytes32","internalType":"bytes32"},{"name":"_message","type":"bytes","internalType":"bytes"},{"name":"_executor","type":"address","internalType":"address"},{"name":"_extraData","type":"bytes","internalType":"bytes"}],"outputs":[],"stateMutability":"payable"},{"type":"function","name":"msgInspector","inputs":[],"outputs":[{"name":"","type":"address","internalType":"address"}],"stateMutability":"view"},{"type":"function","name":"nextNonce","inputs":[{"name":"","type":"uint32","internalType":"uint32"},{"name":"","type":"bytes32","internalType":"bytes32"}],"outputs":[{"name":"nonce","type":"uint64","internalType":"uint64"}],"stateMutability":"view"},{"type":"function","name":"oApp","inputs":[],"outputs":[{"name":"","type":"address","internalType":"address"}],"stateMutability":"view"},{"type":"function","name":"oAppVersion","inputs":[],"outputs":[{"name":"senderVersion","type":"uint64","internalType":"uint64"},{"name":"receiverVersion","type":"uint64","internalType":"uint64"}],"stateMutability":"pure"},{"type":"function","name":"oftVersion","inputs":[],"outputs":[{"name":"interfaceId","type":"bytes4","internalType":"bytes4"},{"name":"version","type":"uint64","internalType":"uint64"}],"stateMutability":"pure"},{"type":"function","name":"owner","inputs":[],"outputs":[{"name":"","type":"address","internalType":"address"}],"stateMutability":"view"},{"type":"function","name":"peers","inputs":[{"name":"eid","type":"uint32","internalType":"uint32"}],"outputs":[{"name":"peer","type":"bytes32","internalType":"bytes32"}],"stateMutability":"view"},{"type":"function","name":"preCrime","inputs":[],"outputs":[{"name":"","type":"address","internalType":"address"}],"stateMutability":"view"},{"type":"function","name":"quoteOFT","inputs":[{"name":"_sendParam","type":"tuple","internalType":"struct SendParam","components":[{"name":"dstEid","type":"uint32","internalType":"uint32"},{"name":"to","type":"bytes32","internalType":"bytes32"},{"name":"amountLD","type":"uint256","internalType":"uint256"},{"name":"minAmountLD","type":"uint256","internalType":"uint256"},{"name":"extraOptions","type":"bytes","internalType":"bytes"},{"name":"composeMsg","type":"bytes","internalType":"bytes"},{"name":"oftCmd","type":"bytes","internalType":"bytes"}]}],"outputs":[{"name":"oftLimit","type":"tuple","internalType":"struct OFTLimit","components":[{"name":"minAmountLD","type":"uint256","internalType":"uint256"},{"name":"maxAmountLD","type":"uint256","internalType":"uint256"}]},{"name":"oftFeeDetails","type":"tuple[]","internalType":"struct OFTFeeDetail[]","components":[{"name":"feeAmountLD","type":"int256","internalType":"int256"},{"name":"description","type":"string","internalType":"string"}]},{"name":"oftReceipt","type":"tuple","internalType":"struct OFTReceipt","components":[{"name":"amountSentLD","type":"uint256","internalType":"uint256"},{"name":"amountReceivedLD","type":"uint256","internalType":"uint256"}]}],"stateMutability":"view"},{"type":"function","name":"quoteSend","inputs":[{"name":"_sendParam","type":"tuple","internalType":"struct SendParam","components":[{"name":"dstEid","type":"uint32","internalType":"uint32"},{"name":"to","type":"bytes32","internalType":"bytes32"},{"name":"amountLD","type":"uint256","internalType":"uint256"},{"name":"minAmountLD","type":"uint256","internalType":"uint256"},{"name":"extraOptions","type":"bytes","internalType":"bytes"},{"name":"composeMsg","type":"bytes","internalType":"bytes"},{"name":"oftCmd","type":"bytes","internalType":"bytes"}]},{"name":"_payInLzToken","type":"bool","internalType":"bool"}],"outputs":[{"name":"msgFee","type":"tuple","internalType":"struct MessagingFee","components":[{"name":"nativeFee","type":"uint256","internalType":"uint256"},{"name":"lzTokenFee","type":"uint256","internalType":"uint256"}]}],"stateMutability":"view"},{"type":"function","name":"renounceOwnership","inputs":[],"outputs":[],"stateMutability":"nonpayable"},{"type":"function","name":"send","inputs":[{"name":"_sendParam","type":"tuple","internalType":"struct SendParam","components":[{"name":"dstEid","type":"uint32","internalType":"uint32"},{"name":"to","type":"bytes32","internalType":"bytes32"},{"name":"amountLD","type":"uint256","internalType":"uint256"},{"name":"minAmountLD","type":"uint256","internalType":"uint256"},{"name":"extraOptions","type":"bytes","internalType":"bytes"},{"name":"composeMsg","type":"bytes","internalType":"bytes"},{"name":"oftCmd","type":"bytes","internalType":"bytes"}]},{"name":"_fee","type":"tuple","internalType":"struct MessagingFee","components":[{"name":"nativeFee","type":"uint256","internalType":"uint256"},{"name":"lzTokenFee","type":"uint256","internalType":"uint256"}]},{"name":"_refundAddress","type":"address","internalType":"address"}],"outputs":[{"name":"msgReceipt","type":"tuple","internalType":"struct MessagingReceipt","components":[{"name":"guid","type":"bytes32","internalType":"bytes32"},{"name":"nonce","type":"uint64","internalType":"uint64"},{"name":"fee","type":"tuple","internalType":"struct MessagingFee","components":[{"name":"nativeFee","type":"uint256","internalType":"uint256"},{"name":"lzTokenFee","type":"uint256","internalType":"uint256"}]}]},{"name":"oftReceipt","type":"tuple","internalType":"struct OFTReceipt","components":[{"name":"amountSentLD","type":"uint256","internalType":"uint256"},{"name":"amountReceivedLD","type":"uint256","internalType":"uint256"}]}],"stateMutability":"payable"},{"type":"function","name":"setDelegate","inputs":[{"name":"_delegate","type":"address","internalType":"address"}],"outputs":[],"stateMutability":"nonpayable"},{"type":"function","name":"setEnforcedOptions","inputs":[{"name":"_enforcedOptions","type":"tuple[]","internalType":"struct EnforcedOptionParam[]","components":[{"name":"eid","type":"uint32","internalType":"uint32"},{"name":"msgType","type":"uint16","internalType":"uint16"},{"name":"options","type":"bytes","internalType":"bytes"}]}],"outputs":[],"stateMutability":"nonpayable"},{"type":"function","name":"setMsgInspector","inputs":[{"name":"_msgInspector","type":"address","internalType":"address"}],"outputs":[],"stateMutability":"nonpayable"},{"type":"function","name":"setPeer","inputs":[{"name":"_eid","type":"uint32","internalType":"uint32"},{"name":"_peer","type":"bytes32","internalType":"bytes32"}],"outputs":[],"stateMutability":"nonpayable"},{"type":"function","name":"setPreCrime","inputs":[{"name":"_preCrime","type":"address","internalType":"address"}],"outputs":[],"stateMutability":"nonpayable"},{"type":"function","name":"sharedDecimals","inputs":[],"outputs":[{"name":"","type":"uint8","internalType":"uint8"}],"stateMutability":"view"},{"type":"function","name":"token","inputs":[],"outputs":[{"name":"","type":"address","internalType":"address"}],"stateMutability":"view"},{"type":"function","name":"transferOwnership","inputs":[{"name":"newOwner","type":"address","internalType":"address"}],"outputs":[],"stateMutability":"nonpayable"},{"type":"event","name":"EnforcedOptionSet","inputs":[{"name":"_enforcedOptions","type":"tuple[]","indexed":false,"internalType":"struct EnforcedOptionParam[]","components":[{"name":"eid","type":"uint32","internalType":"uint32"},{"name":"msgType","type":"uint16","internalType":"uint16"},{"name":"options","type":"bytes","internalType":"bytes"}]}],"anonymous":false},{"type":"event","name":"MsgInspectorSet","inputs":[{"name":"inspector","type":"address","indexed":false,"internalType":"address"}],"anonymous":false},{"type":"event","name":"OFTReceived","inputs":[{"name":"guid","type":"bytes32","indexed":true,"internalType":"bytes32"},{"name":"srcEid","type":"uint32","indexed":false,"internalType":"uint32"},{"name":"toAddress","type":"address","indexed":true,"internalType":"address"},{"name":"amountReceivedLD","type":"uint256","indexed":false,"internalType":"uint256"}],"anonymous":false},{"type":"event","name":"OFTSent","inputs":[{"name":"guid","type":"bytes32","indexed":true,"internalType":"bytes32"},{"name":"dstEid","type":"uint32","indexed":false,"internalType":"uint32"},{"name":"fromAddress","type":"address","indexed":true,"internalType":"address"},{"name":"amountSentLD","type":"uint256","indexed":false,"internalType":"uint256"},{"name":"amountReceivedLD","type":"uint256","indexed":false,"internalType":"uint256"}],"anonymous":false},{"type":"event","name":"OwnershipTransferred","inputs":[{"name":"previousOwner","type":"address","indexed":true,"internalType":"address"},{"name":"newOwner","type":"address","indexed":true,"internalType":"address"}],"anonymous":false},{"type":"event","name":"PeerSet","inputs":[{"name":"eid","type":"uint32","indexed":false,"internalType":"uint32"},{"name":"peer","type":"bytes32","indexed":false,"internalType":"bytes32"}],"anonymous":false},{"type":"event","name":"PreCrimeSet","inputs":[{"name":"preCrimeAddress","type":"address","indexed":false,"internalType":"address"}],"anonymous":false},{"type":"error","name":"InvalidDelegate","inputs":[]},{"type":"error","name":"InvalidEndpointCall","inputs":[]},{"type":"error","name":"InvalidLocalDecimals","inputs":[]},{"type":"error","name":"InvalidOptions","inputs":[{"name":"options","type":"bytes","internalType":"bytes"}]},{"type":"error","name":"LzTokenUnavailable","inputs":[]},{"type":"error","name":"NoPeer","inputs":[{"name":"eid","type":"uint32","internalType":"uint32"}]},{"type":"error","name":"NotEnoughNative","inputs":[{"name":"msgValue","type":"uint256","internalType":"uint256"}]},{"type":"error","name":"OnlyEndpoint","inputs":[{"name":"addr","type":"address","internalType":"address"}]},{"type":"error","name":"OnlyPeer","inputs":[{"name":"eid","type":"uint32","internalType":"uint32"},{"name":"sender","type":"bytes32","internalType":"bytes32"}]},{"type":"error","name":"OnlySelf","inputs":[]},{"type":"error","name":"OwnableInvalidOwner","inputs":[{"name":"owner","type":"address","internalType":"address"}]},{"type":"error","name":"OwnableUnauthorizedAccount","inputs":[{"name":"account","type":"address","internalType":"address"}]},{"type":"error","name":"SafeERC20FailedOperation","inputs":[{"name":"token","type":"address","internalType":"address"}]},{"type":"error","name":"SimulationResult","inputs":[{"name":"result","type":"bytes","internalType":"bytes"}]},{"type":"error","name":"SlippageExceeded","inputs":[{"name":"amountLD","type":"uint256","internalType":"uint256"},{"name":"minAmountLD","type":"uint256","internalType":"uint256"}]}],"bytecode":{"object":"0x60e06040523480156200001157600080fd5b5060405162002ee338038062002ee3833981016040819052620000349162000254565b828282826001600160a01b031663313ce5676040518163ffffffff1660e01b8152600401602060405180830381865afa15801562000076573d6000803e3d6000fd5b505050506040513d601f19601f820116820180604052508101906200009c91906200029e565b8282818181818a6001600160a01b038116620000d257604051631e4fbdf760e01b81526000600482015260240160405180910390fd5b620000dd81620001e2565b506001600160a01b0380831660805281166200010c57604051632d618d8160e21b815260040160405180910390fd5b60805160405163ca5eb5e160e01b81526001600160a01b0383811660048301529091169063ca5eb5e190602401600060405180830381600087803b1580156200015457600080fd5b505af115801562000169573d6000803e3d6000fd5b5050505050505050620001816200023260201b60201c565b60ff168360ff161015620001a8576040516301e9714b60e41b815260040160405180910390fd5b620001b5600684620002e0565b620001c290600a620003ff565b60a0525050506001600160a01b0390921660c05250620004109350505050565b600080546001600160a01b038381166001600160a01b0319831681178455604051919092169283917f8be0079c531659141344cd1fd0a4f28419497f9722a3daafe3b4186f6b6457e09190a35050565b600690565b80516001600160a01b03811681146200024f57600080fd5b919050565b6000806000606084860312156200026a57600080fd5b620002758462000237565b9250620002856020850162000237565b9150620002956040850162000237565b90509250925092565b600060208284031215620002b157600080fd5b815160ff81168114620002c357600080fd5b9392505050565b634e487b7160e01b600052601160045260246000fd5b60ff8281168282160390811115620002fc57620002fc620002ca565b92915050565b600181815b8085111562000343578160001904821115620003275762000327620002ca565b808516156200033557918102915b93841c939080029062000307565b509250929050565b6000826200035c57506001620002fc565b816200036b57506000620002fc565b81600181146200038457600281146200038f57620003af565b6001915050620002fc565b60ff841115620003a357620003a3620002ca565b50506001821b620002fc565b5060208310610133831016604e8410600b8410161715620003d4575081810a620002fc565b620003e0838362000302565b8060001904821115620003f757620003f7620002ca565b029392505050565b6000620002c360ff8416836200034b565b60805160a05160c051612a4f62000494600039600081816106690152818161168701526117f90152600081816104e2015281816115ce0152818161164a015261173a0152600081816103e40152818161078001528181610d8f01528181610ff4015281816112810152818161185d01528181611a040152611abd0152612a4f6000f3fe6080604052600436106101ee5760003560e01c806382413eac1161010d578063bc70b354116100a0578063d045a0dc1161006f578063d045a0dc14610607578063d42438851461061a578063f2fde38b1461063a578063fc0c546a1461065a578063ff7bd03d1461068d57600080fd5b8063bc70b35414610593578063bd815db0146105b3578063c7c7f5b3146105c6578063ca5eb5e1146105e757600080fd5b80639f68b964116100dc5780639f68b96414610512578063b731ea0a14610526578063b98bd07014610546578063bb0b6a531461056657600080fd5b806382413eac14610476578063857749b0146104965780638da5cb5b146104b2578063963efcaa146104d057600080fd5b80633b6f743b116101855780635e280f11116101545780635e280f11146103d25780636fc1b31e14610406578063715018a6146104265780637d25a05e1461043b57600080fd5b80633b6f743b1461031e57806352ae28791461034b5780635535d4611461035e5780635a0dfe4d1461038b57600080fd5b8063156a0d0f116101c1578063156a0d0f146102a057806317442b70146102c75780631f5e1334146102e95780633400288b146102fe57600080fd5b80630d35b415146101f3578063111ecdad1461022b57806313137d6514610263578063134d4f2514610278575b600080fd5b3480156101ff57600080fd5b5061021361020e366004611bb2565b6106ad565b60405161022293929190611c36565b60405180910390f35b34801561023757600080fd5b5060045461024b906001600160a01b031681565b6040516001600160a01b039091168152602001610222565b610276610271366004611d3e565b61077e565b005b34801561028457600080fd5b5061028d600281565b60405161ffff9091168152602001610222565b3480156102ac57600080fd5b506040805162b9270b60e21b81526001602082015201610222565b3480156102d357600080fd5b5060408051600181526002602082015201610222565b3480156102f557600080fd5b5061028d600181565b34801561030a57600080fd5b50610276610319366004611df6565b61083e565b34801561032a57600080fd5b5061033e610339366004611e2e565b610854565b6040516102229190611e7f565b34801561035757600080fd5b503061024b565b34801561036a57600080fd5b5061037e610379366004611ea8565b6108bd565b6040516102229190611edb565b34801561039757600080fd5b506103c26103a6366004611df6565b63ffffffff919091166000908152600160205260409020541490565b6040519015158152602001610222565b3480156103de57600080fd5b5061024b7f000000000000000000000000000000000000000000000000000000000000000081565b34801561041257600080fd5b50610276610421366004611eee565b610962565b34801561043257600080fd5b506102766109bf565b34801561044757600080fd5b5061045e610456366004611df6565b600092915050565b6040516001600160401b039091168152602001610222565b34801561048257600080fd5b506103c2610491366004611f0b565b6109d3565b3480156104a257600080fd5b5060405160068152602001610222565b3480156104be57600080fd5b506000546001600160a01b031661024b565b3480156104dc57600080fd5b506105047f000000000000000000000000000000000000000000000000000000000000000081565b604051908152602001610222565b34801561051e57600080fd5b5060016103c2565b34801561053257600080fd5b5060025461024b906001600160a01b031681565b34801561055257600080fd5b50610276610561366004611fb5565b6109e8565b34801561057257600080fd5b50610504610581366004611ff6565b60016020526000908152604090205481565b34801561059f57600080fd5b5061037e6105ae366004612011565b610a02565b6102766105c1366004611fb5565b610baa565b6105d96105d4366004612071565b610d34565b6040516102229291906120de565b3480156105f357600080fd5b50610276610602366004611eee565b610d68565b610276610615366004611d3e565b610dee565b34801561062657600080fd5b50610276610635366004611eee565b610e1d565b34801561064657600080fd5b50610276610655366004611eee565b610e73565b34801561066657600080fd5b507f000000000000000000000000000000000000000000000000000000000000000061024b565b34801561069957600080fd5b506103c26106a8366004612130565b610eb1565b604080518082019091526000808252602082015260606106e0604051806040016040528060008152602001600081525090565b60408051808201825260008082526001600160401b0360208084018290528451838152908101909452919550918261073b565b6040805180820190915260008152606060208201528152602001906001900390816107135790505b509350600080610760604089013560608a013561075b60208c018c611ff6565b610ee7565b60408051808201909152918252602082015296989597505050505050565b7f00000000000000000000000000000000000000000000000000000000000000006001600160a01b031633146107ce576040516391ac5e4f60e01b81523360048201526024015b60405180910390fd5b602087018035906107e8906107e3908a611ff6565b610f23565b14610826576107fa6020880188611ff6565b60405163309afaf360e21b815263ffffffff9091166004820152602088013560248201526044016107c5565b61083587878787878787610f5f565b50505050505050565b6108466110c6565b61085082826110f3565b5050565b604080518082019091526000808252602082015260006108846040850135606086013561075b6020880188611ff6565b9150506000806108948684611148565b90925090506108b16108a96020880188611ff6565b83838861126b565b93505050505b92915050565b6003602090815260009283526040808420909152908252902080546108e190612162565b80601f016020809104026020016040519081016040528092919081815260200182805461090d90612162565b801561095a5780601f1061092f5761010080835404028352916020019161095a565b820191906000526020600020905b81548152906001019060200180831161093d57829003601f168201915b505050505081565b61096a6110c6565b600480546001600160a01b0319166001600160a01b0383169081179091556040519081527ff0be4f1e87349231d80c36b33f9e8639658eeaf474014dee15a3e6a4d4414197906020015b60405180910390a150565b6109c76110c6565b6109d1600061134c565b565b6001600160a01b03811630145b949350505050565b6109f06110c6565b6108506109fd8284612237565b61139c565b63ffffffff8416600090815260036020908152604080832061ffff87168452909152812080546060929190610a3690612162565b80601f0160208091040260200160405190810160405280929190818152602001828054610a6290612162565b8015610aaf5780601f10610a8457610100808354040283529160200191610aaf565b820191906000526020600020905b815481529060010190602001808311610a9257829003601f168201915b505050505090508051600003610aff5783838080601f0160208091040260200160405190810160405280939291908181526020018383808284376000920191909152509294506109e09350505050565b6000839003610b0f5790506109e0565b60028310610b8d57610b5684848080601f0160208091040260200160405190810160405280939291908181526020018383808284376000920191909152506114a392505050565b80610b64846002818861234c565b604051602001610b7693929190612376565b6040516020818303038152906040529150506109e0565b8383604051639a6d49cd60e01b81526004016107c59291906123c7565b60005b81811015610cb35736838383818110610bc857610bc86123db565b9050602002810190610bda91906123f1565b9050610c0d610bec6020830183611ff6565b602083013563ffffffff919091166000908152600160205260409020541490565b610c175750610cab565b3063d045a0dc60c08301358360a0810135610c36610100830183612412565b610c47610100890160e08a01611eee565b610c556101208a018a612412565b6040518963ffffffff1660e01b8152600401610c77979695949392919061246d565b6000604051808303818588803b158015610c9057600080fd5b505af1158015610ca4573d6000803e3d6000fd5b5050505050505b600101610bad565b50336001600160a01b0316638e9e70996040518163ffffffff1660e01b8152600401600060405180830381865afa158015610cf2573d6000803e3d6000fd5b505050506040513d6000823e601f3d908101601f19168201604052610d1a91908101906124f3565b604051638351eea760e01b81526004016107c59190611edb565b610d3c611b53565b6040805180820190915260008082526020820152610d5b8585856114cf565b915091505b935093915050565b610d706110c6565b60405163ca5eb5e160e01b81526001600160a01b0382811660048301527f0000000000000000000000000000000000000000000000000000000000000000169063ca5eb5e190602401600060405180830381600087803b158015610dd357600080fd5b505af1158015610de7573d6000803e3d6000fd5b5050505050565b333014610e0e5760405163029a949d60e31b815260040160405180910390fd5b61083587878787878787610826565b610e256110c6565b600280546001600160a01b0319166001600160a01b0383169081179091556040519081527fd48d879cef83a1c0bdda516f27b13ddb1b3f8bbac1c9e1511bb2a659c2427760906020016109b4565b610e7b6110c6565b6001600160a01b038116610ea557604051631e4fbdf760e01b8152600060048201526024016107c5565b610eae8161134c565b50565b6000602082018035906001908390610ec99086611ff6565b63ffffffff1681526020810191909152604001600020541492915050565b600080610ef3856115ca565b915081905083811015610d60576040516371c4efed60e01b815260048101829052602481018590526044016107c5565b63ffffffff8116600090815260016020526040812054806108b75760405163f6ff4fb760e01b815263ffffffff841660048201526024016107c5565b6000610f71610f6e8787611601565b90565b90506000610f9d82610f8b610f868a8a611620565b611643565b610f9860208d018d611ff6565b611678565b90506028861115611064576000610fda610fbd60608c0160408d01612560565b610fca60208d018d611ff6565b84610fd58c8c6116b6565b611701565b604051633e5ac80960e11b81529091506001600160a01b037f00000000000000000000000000000000000000000000000000000000000000001690637cb59012906110309086908d90600090879060040161257d565b600060405180830381600087803b15801561104a57600080fd5b505af115801561105e573d6000803e3d6000fd5b50505050505b6001600160a01b038216887fefed6d3500546b29533b128a29e3a94d70788727f0507505ac12eaf2e578fd9c61109d60208d018d611ff6565b6040805163ffffffff9092168252602082018690520160405180910390a3505050505050505050565b6000546001600160a01b031633146109d15760405163118cdaa760e01b81523360048201526024016107c5565b63ffffffff8216600081815260016020908152604091829020849055815192835282018390527f238399d427b947898edb290f5ff0f9109849b1c3ba196a42e35f00c50a54b98b910160405180910390a15050565b60608060006111a5856020013561115e86611733565b61116b60a0890189612412565b8080601f01602080910402602001604051908101604052809392919081815260200183838082843760009201919091525061175f92505050565b90935090506000816111b85760016111bb565b60025b90506111db6111cd6020880188611ff6565b826105ae60808a018a612412565b6004549093506001600160a01b031680156112615760405163043a78eb60e01b81526001600160a01b0382169063043a78eb9061121e90889088906004016125b8565b602060405180830381865afa15801561123b573d6000803e3d6000fd5b505050506040513d601f19601f8201168201806040525081019061125f91906125dd565b505b5050509250929050565b60408051808201909152600080825260208201527f00000000000000000000000000000000000000000000000000000000000000006001600160a01b031663ddc28c586040518060a001604052808863ffffffff1681526020016112ce89610f23565b8152602001878152602001868152602001851515815250306040518363ffffffff1660e01b81526004016113039291906125fa565b6040805180830381865afa15801561131f573d6000803e3d6000fd5b505050506040513d601f19601f8201168201806040525081019061134391906126a3565b95945050505050565b600080546001600160a01b038381166001600160a01b0319831681178455604051919092169283917f8be0079c531659141344cd1fd0a4f28419497f9722a3daafe3b4186f6b6457e09190a35050565b60005b8151811015611473576113ce8282815181106113bd576113bd6123db565b6020026020010151604001516114a3565b8181815181106113e0576113e06123db565b60200260200101516040015160036000848481518110611402576114026123db565b60200260200101516000015163ffffffff1663ffffffff168152602001908152602001600020600084848151811061143c5761143c6123db565b60200260200101516020015161ffff1661ffff168152602001908152602001600020908161146a919061270f565b5060010161139f565b507fbe4864a8e820971c0247f5992e2da559595f7bf076a21cb5928d443d2a13b674816040516109b491906127ce565b600281015161ffff81166003146108505781604051639a6d49cd60e01b81526004016107c59190611edb565b6114d7611b53565b604080518082019091526000808252602082015260008061150e33604089013560608a013561150960208c018c611ff6565b6117d9565b9150915060008061151f8984611148565b909250905061154b61153460208b018b611ff6565b8383611545368d90038d018d612859565b8b61182a565b60408051808201909152858152602080820186905282519298509096503391907f85496b760a4b7f8d66384b9df21b381f5d1b1e79f229a47aaf4c232edc2fe59a90611599908d018d611ff6565b6040805163ffffffff909216825260208201899052810187905260600160405180910390a350505050935093915050565b60007f00000000000000000000000000000000000000000000000000000000000000006115f7818461288b565b6108b791906128ad565b6000611610602082848661234c565b611619916128d2565b9392505050565b600061163060286020848661234c565b611639916128f0565b60c01c9392505050565b60006108b77f00000000000000000000000000000000000000000000000000000000000000006001600160401b0384166128ad565b60006116ae6001600160a01b037f0000000000000000000000000000000000000000000000000000000000000000168585611935565b509092915050565b60606116c5826028818661234c565b8080601f016020809104026020016040519081016040528093929190818152602001838380828437600092019190915250929695505050505050565b60608484848460405160200161171a9493929190612920565b6040516020818303038152906040529050949350505050565b60006108b77f00000000000000000000000000000000000000000000000000000000000000008361288b565b80516060901515806117a857848460405160200161179492919091825260c01b6001600160c01b031916602082015260280190565b6040516020818303038152906040526117cf565b848433856040516020016117bf949392919061296f565b6040516020818303038152906040525b9150935093915050565b6000806117e7858585610ee7565b90925090506118216001600160a01b037f000000000000000000000000000000000000000000000000000000000000000016873085611999565b94509492505050565b611832611b53565b600061184184600001516119d8565b60208501519091501561185b5761185b8460200151611a00565b7f00000000000000000000000000000000000000000000000000000000000000006001600160a01b0316632637a450826040518060a001604052808b63ffffffff1681526020016118ab8c610f23565b81526020018a815260200189815260200160008960200151111515815250866040518463ffffffff1660e01b81526004016118e79291906125fa565b60806040518083038185885af1158015611905573d6000803e3d6000fd5b50505050506040513d601f19601f8201168201806040525081019061192a91906129b2565b979650505050505050565b6040516001600160a01b0383811660248301526044820183905261199491859182169063a9059cbb906064015b604051602081830303815290604052915060e01b6020820180516001600160e01b038381831617835250505050611ae2565b505050565b6040516001600160a01b0384811660248301528381166044830152606482018390526119d29186918216906323b872dd90608401611962565b50505050565b60008134146119fc576040516304fb820960e51b81523460048201526024016107c5565b5090565b60007f00000000000000000000000000000000000000000000000000000000000000006001600160a01b031663e4fe1d946040518163ffffffff1660e01b8152600401602060405180830381865afa158015611a60573d6000803e3d6000fd5b505050506040513d601f19601f82011682018060405250810190611a8491906129fc565b90506001600160a01b038116611aad576040516329b99a9560e11b815260040160405180910390fd5b6108506001600160a01b038216337f000000000000000000000000000000000000000000000000000000000000000085611999565b600080602060008451602086016000885af180611b05576040513d6000823e3d81fd5b50506000513d91508115611b1d578060011415611b2a565b6001600160a01b0384163b155b156119d257604051635274afe760e01b81526001600160a01b03851660048201526024016107c5565b60405180606001604052806000801916815260200160006001600160401b03168152602001611b95604051806040016040528060008152602001600081525090565b905290565b600060e08284031215611bac57600080fd5b50919050565b600060208284031215611bc457600080fd5b81356001600160401b03811115611bda57600080fd5b6109e084828501611b9a565b60005b83811015611c01578181015183820152602001611be9565b50506000910152565b60008151808452611c22816020860160208601611be6565b601f01601f19169290920160200192915050565b8351815260208085015190820152600060a08201604060a0604085015281865180845260c08601915060c08160051b8701019350602080890160005b83811015611cb15788870360bf19018552815180518852830151838801879052611c9e87890182611c0a565b9750509382019390820190600101611c72565b505087516060880152505050602085015160808501525090506109e0565b600060608284031215611bac57600080fd5b60008083601f840112611cf357600080fd5b5081356001600160401b03811115611d0a57600080fd5b602083019150836020828501011115611d2257600080fd5b9250929050565b6001600160a01b0381168114610eae57600080fd5b600080600080600080600060e0888a031215611d5957600080fd5b611d638989611ccf565b96506060880135955060808801356001600160401b0380821115611d8657600080fd5b611d928b838c01611ce1565b909750955060a08a01359150611da782611d29565b90935060c08901359080821115611dbd57600080fd5b50611dca8a828b01611ce1565b989b979a50959850939692959293505050565b803563ffffffff81168114611df157600080fd5b919050565b60008060408385031215611e0957600080fd5b611e1283611ddd565b946020939093013593505050565b8015158114610eae57600080fd5b60008060408385031215611e4157600080fd5b82356001600160401b03811115611e5757600080fd5b611e6385828601611b9a565b9250506020830135611e7481611e20565b809150509250929050565b8151815260208083015190820152604081016108b7565b803561ffff81168114611df157600080fd5b60008060408385031215611ebb57600080fd5b611ec483611ddd565b9150611ed260208401611e96565b90509250929050565b6020815260006116196020830184611c0a565b600060208284031215611f0057600080fd5b813561161981611d29565b60008060008060a08587031215611f2157600080fd5b611f2b8686611ccf565b935060608501356001600160401b03811115611f4657600080fd5b611f5287828801611ce1565b9094509250506080850135611f6681611d29565b939692955090935050565b60008083601f840112611f8357600080fd5b5081356001600160401b03811115611f9a57600080fd5b6020830191508360208260051b8501011115611d2257600080fd5b60008060208385031215611fc857600080fd5b82356001600160401b03811115611fde57600080fd5b611fea85828601611f71565b90969095509350505050565b60006020828403121561200857600080fd5b61161982611ddd565b6000806000806060858703121561202757600080fd5b61203085611ddd565b935061203e60208601611e96565b925060408501356001600160401b0381111561205957600080fd5b61206587828801611ce1565b95989497509550505050565b6000806000838503608081121561208757600080fd5b84356001600160401b0381111561209d57600080fd5b6120a987828801611b9a565b9450506040601f19820112156120be57600080fd5b5060208401915060608401356120d381611d29565b809150509250925092565b600060c082019050835182526001600160401b0360208501511660208301526040840151612119604084018280518252602090810151910152565b5082516080830152602083015160a0830152611619565b60006060828403121561214257600080fd5b6116198383611ccf565b634e487b7160e01b600052604160045260246000fd5b600181811c9082168061217657607f821691505b602082108103611bac57634e487b7160e01b600052602260045260246000fd5b604051606081016001600160401b03811182821017156121b8576121b861214c565b60405290565b604080519081016001600160401b03811182821017156121b8576121b861214c565b604051601f8201601f191681016001600160401b03811182821017156122085761220861214c565b604052919050565b60006001600160401b038211156122295761222961214c565b50601f01601f191660200190565b60006001600160401b03808411156122515761225161214c565b8360051b60206122628183016121e0565b86815291850191818101903684111561227a57600080fd5b865b84811015612340578035868111156122945760008081fd5b880160603682900312156122a85760008081fd5b6122b0612196565b6122b982611ddd565b81526122c6868301611e96565b86820152604080830135898111156122de5760008081fd5b929092019136601f8401126122f35760008081fd5b823561230661230182612210565b6121e0565b818152368983870101111561231b5760008081fd5b818986018a83013760009181018901919091529082015284525091830191830161227c565b50979650505050505050565b6000808585111561235c57600080fd5b8386111561236957600080fd5b5050820193919092039150565b60008451612388818460208901611be6565b8201838582376000930192835250909392505050565b81835281816020850137506000828201602090810191909152601f909101601f19169091010190565b6020815260006109e060208301848661239e565b634e487b7160e01b600052603260045260246000fd5b6000823561013e1983360301811261240857600080fd5b9190910192915050565b6000808335601e1984360301811261242957600080fd5b8301803591506001600160401b0382111561244357600080fd5b602001915036819003821315611d2257600080fd5b6001600160401b0381168114610eae57600080fd5b63ffffffff61247b89611ddd565b168152602088013560208201526000604089013561249881612458565b6001600160401b03811660408401525087606083015260e060808301526124c360e08301878961239e565b6001600160a01b03861660a084015282810360c08401526124e581858761239e565b9a9950505050505050505050565b60006020828403121561250557600080fd5b81516001600160401b0381111561251b57600080fd5b8201601f8101841361252c57600080fd5b805161253a61230182612210565b81815285602083850101111561254f57600080fd5b611343826020830160208601611be6565b60006020828403121561257257600080fd5b813561161981612458565b60018060a01b038516815283602082015261ffff831660408201526080606082015260006125ae6080830184611c0a565b9695505050505050565b6040815260006125cb6040830185611c0a565b82810360208401526113438185611c0a565b6000602082840312156125ef57600080fd5b815161161981611e20565b6040815263ffffffff8351166040820152602083015160608201526000604084015160a0608084015261263060e0840182611c0a565b90506060850151603f198483030160a085015261264d8282611c0a565b60809690960151151560c08501525050506001600160a01b039190911660209091015290565b60006040828403121561268557600080fd5b61268d6121be565b9050815181526020820151602082015292915050565b6000604082840312156126b557600080fd5b6116198383612673565b601f821115611994576000816000526020600020601f850160051c810160208610156126e85750805b601f850160051c820191505b81811015612707578281556001016126f4565b505050505050565b81516001600160401b038111156127285761272861214c565b61273c816127368454612162565b846126bf565b602080601f83116001811461277157600084156127595750858301515b600019600386901b1c1916600185901b178555612707565b600085815260208120601f198616915b828110156127a057888601518255948401946001909101908401612781565b50858210156127be5787850151600019600388901b60f8161c191681555b5050505050600190811b01905550565b600060208083018184528085518083526040925060408601915060408160051b87010184880160005b8381101561284b57888303603f190185528151805163ffffffff1684528781015161ffff1688850152860151606087850181905261283781860183611c0a565b9689019694505050908601906001016127f7565b509098975050505050505050565b60006040828403121561286b57600080fd5b6128736121be565b82358152602083013560208201528091505092915050565b6000826128a857634e487b7160e01b600052601260045260246000fd5b500490565b80820281158282048414176108b757634e487b7160e01b600052601160045260246000fd5b803560208310156108b757600019602084900360031b1b1692915050565b6001600160c01b031981358181169160088510156129185780818660080360031b1b83161692505b505092915050565b6001600160401b0360c01b8560c01b16815263ffffffff60e01b8460e01b16600882015282600c8201526000825161295f81602c850160208701611be6565b91909101602c0195945050505050565b8481526001600160401b0360c01b8460c01b166020820152826028820152600082516129a2816048850160208701611be6565b9190910160480195945050505050565b6000608082840312156129c457600080fd5b6129cc612196565b8251815260208301516129de81612458565b60208201526129f08460408501612673565b60408201529392505050565b600060208284031215612a0e57600080fd5b815161161981611d2956fea2646970667358221220b0fa0a6a972bb33432025bf362f77834292edb02499911d553af714799f852b364736f6c63430008160033","linkReferences":{}},"methodIdentifiers":{"SEND()":"1f5e1334","SEND_AND_CALL()":"134d4f25","allowInitializePath((uint32,bytes32,uint64))":"ff7bd03d","approvalRequired()":"9f68b964","combineOptions(uint32,uint16,bytes)":"bc70b354","decimalConversionRate()":"963efcaa","endpoint()":"5e280f11","enforcedOptions(uint32,uint16)":"5535d461","isComposeMsgSender((uint32,bytes32,uint64),bytes,address)":"82413eac","isPeer(uint32,bytes32)":"5a0dfe4d","lzReceive((uint32,bytes32,uint64),bytes32,bytes,address,bytes)":"13137d65","lzReceiveAndRevert(((uint32,bytes32,uint64),uint32,address,bytes32,uint256,address,bytes,bytes)[])":"bd815db0","lzReceiveSimulate((uint32,bytes32,uint64),bytes32,bytes,address,bytes)":"d045a0dc","msgInspector()":"111ecdad","nextNonce(uint32,bytes32)":"7d25a05e","oApp()":"52ae2879","oAppVersion()":"17442b70","oftVersion()":"156a0d0f","owner()":"8da5cb5b","peers(uint32)":"bb0b6a53","preCrime()":"b731ea0a","quoteOFT((uint32,bytes32,uint256,uint256,bytes,bytes,bytes))":"0d35b415","quoteSend((uint32,bytes32,uint256,uint256,bytes,bytes,bytes),bool)":"3b6f743b","renounceOwnership()":"715018a6","send((uint32,bytes32,uint256,uint256,bytes,bytes,bytes),(uint256,uint256),address)":"c7c7f5b3","setDelegate(address)":"ca5eb5e1","setEnforcedOptions((uint32,uint16,bytes)[])":"b98bd070","setMsgInspector(address)":"6fc1b31e","setPeer(uint32,bytes32)":"3400288b","setPreCrime(address)":"d4243885","sharedDecimals()":"857749b0","token()":"fc0c546a","transferOwnership(address)":"f2fde38b"},"id":5}