{"abi":[{"type":"constructor","inputs":[{"name":"_wlfi","type":"address","internalType":"address"},{"name":"_vault","type":"address","internalType":"address"},{"name":"_registry","type":"address","internalType":"address"},{"name":"_delegate","type":"address","internalType":"address"}],"stateMutability":"nonpayable"},{"type":"function","name":"MAX_BPS","inputs":[],"outputs":[{"name":"","type":"uint256","internalType":"uint256"}],"stateMutability":"view"},{"type":"function","name":"SEND","inputs":[],"outputs":[{"name":"","type":"uint16","internalType":"uint16"}],"stateMutability":"view"},{"type":"function","name":"SEND_AND_CALL","inputs":[],"outputs":[{"name":"","type":"uint16","internalType":"uint16"}],"stateMutability":"view"},{"type":"function","name":"adapterName","inputs":[],"outputs":[{"name":"","type":"string","internalType":"string"}],"stateMutability":"pure"},{"type":"function","name":"adapterVersion","inputs":[],"outputs":[{"name":"","type":"string","internalType":"string"}],"stateMutability":"pure"},{"type":"function","name":"allowInitializePath","inputs":[{"name":"origin","type":"tuple","internalType":"struct Origin","components":[{"name":"srcEid","type":"uint32","internalType":"uint32"},{"name":"sender","type":"bytes32","internalType":"bytes32"},{"name":"nonce","type":"uint64","internalType":"uint64"}]}],"outputs":[{"name":"","type":"bool","internalType":"bool"}],"stateMutability":"view"},{"type":"function","name":"approvalRequired","inputs":[],"outputs":[{"name":"","type":"bool","internalType":"bool"}],"stateMutability":"pure"},{"type":"function","name":"bufferRatioBps","inputs":[],"outputs":[{"name":"","type":"uint256","internalType":"uint256"}],"stateMutability":"view"},{"type":"function","name":"combineOptions","inputs":[{"name":"_eid","type":"uint32","internalType":"uint32"},{"name":"_msgType","type":"uint16","internalType":"uint16"},{"name":"_extraOptions","type":"bytes","internalType":"bytes"}],"outputs":[{"name":"","type":"bytes","internalType":"bytes"}],"stateMutability":"view"},{"type":"function","name":"decimalConversionRate","inputs":[],"outputs":[{"name":"","type":"uint256","internalType":"uint256"}],"stateMutability":"view"},{"type":"function","name":"depositIdleToVault","inputs":[],"outputs":[],"stateMutability":"nonpayable"},{"type":"function","name":"endpoint","inputs":[],"outputs":[{"name":"","type":"address","internalType":"contract ILayerZeroEndpointV2"}],"stateMutability":"view"},{"type":"function","name":"enforcedOptions","inputs":[{"name":"eid","type":"uint32","internalType":"uint32"},{"name":"msgType","type":"uint16","internalType":"uint16"}],"outputs":[{"name":"enforcedOption","type":"bytes","internalType":"bytes"}],"stateMutability":"view"},{"type":"function","name":"getBufferBalance","inputs":[],"outputs":[{"name":"","type":"uint256","internalType":"uint256"}],"stateMutability":"view"},{"type":"function","name":"getBufferStatus","inputs":[],"outputs":[{"name":"actual","type":"uint256","internalType":"uint256"},{"name":"target","type":"uint256","internalType":"uint256"}],"stateMutability":"view"},{"type":"function","name":"getTotalLiquidity","inputs":[],"outputs":[{"name":"","type":"uint256","internalType":"uint256"}],"stateMutability":"view"},{"type":"function","name":"getVaultShares","inputs":[],"outputs":[{"name":"","type":"uint256","internalType":"uint256"}],"stateMutability":"view"},{"type":"function","name":"getVaultValue","inputs":[],"outputs":[{"name":"","type":"uint256","internalType":"uint256"}],"stateMutability":"view"},{"type":"function","name":"isComposeMsgSender","inputs":[{"name":"","type":"tuple","internalType":"struct Origin","components":[{"name":"srcEid","type":"uint32","internalType":"uint32"},{"name":"sender","type":"bytes32","internalType":"bytes32"},{"name":"nonce","type":"uint64","internalType":"uint64"}]},{"name":"","type":"bytes","internalType":"bytes"},{"name":"_sender","type":"address","internalType":"address"}],"outputs":[{"name":"","type":"bool","internalType":"bool"}],"stateMutability":"view"},{"type":"function","name":"isPeer","inputs":[{"name":"_eid","type":"uint32","internalType":"uint32"},{"name":"_peer","type":"bytes32","internalType":"bytes32"}],"outputs":[{"name":"","type":"bool","internalType":"bool"}],"stateMutability":"view"},{"type":"function","name":"lzReceive","inputs":[{"name":"_origin","type":"tuple","internalType":"struct Origin","components":[{"name":"srcEid","type":"uint32","internalType":"uint32"},{"name":"sender","type":"bytes32","internalType":"bytes32"},{"name":"nonce","type":"uint64","internalType":"uint64"}]},{"name":"_guid","type":"bytes32","internalType":"bytes32"},{"name":"_message","type":"bytes","internalType":"bytes"},{"name":"_executor","type":"address","internalType":"address"},{"name":"_extraData","type":"bytes","internalType":"bytes"}],"outputs":[],"stateMutability":"payable"},{"type":"function","name":"lzReceiveAndRevert","inputs":[{"name":"_packets","type":"tuple[]","internalType":"struct InboundPacket[]","components":[{"name":"origin","type":"tuple","internalType":"struct Origin","components":[{"name":"srcEid","type":"uint32","internalType":"uint32"},{"name":"sender","type":"bytes32","internalType":"bytes32"},{"name":"nonce","type":"uint64","internalType":"uint64"}]},{"name":"dstEid","type":"uint32","internalType":"uint32"},{"name":"receiver","type":"address","internalType":"address"},{"name":"guid","type":"bytes32","internalType":"bytes32"},{"name":"value","type":"uint256","internalType":"uint256"},{"name":"executor","type":"address","internalType":"address"},{"name":"message","type":"bytes","internalType":"bytes"},{"name":"extraData","type":"bytes","internalType":"bytes"}]}],"outputs":[],"stateMutability":"payable"},{"type":"function","name":"lzReceiveSimulate","inputs":[{"name":"_origin","type":"tuple","internalType":"struct Origin","components":[{"name":"srcEid","type":"uint32","internalType":"uint32"},{"name":"sender","type":"bytes32","internalType":"bytes32"},{"name":"nonce","type":"uint64","internalType":"uint64"}]},{"name":"_guid","type":"bytes32","internalType":"bytes32"},{"name":"_message","type":"bytes","internalType":"bytes"},{"name":"_executor","type":"address","internalType":"address"},{"name":"_extraData","type":"bytes","internalType":"bytes"}],"outputs":[],"stateMutability":"payable"},{"type":"function","name":"minBuffer","inputs":[],"outputs":[{"name":"","type":"uint256","internalType":"uint256"}],"stateMutability":"view"},{"type":"function","name":"msgInspector","inputs":[],"outputs":[{"name":"","type":"address","internalType":"address"}],"stateMutability":"view"},{"type":"function","name":"needsRebalance","inputs":[],"outputs":[{"name":"needed","type":"bool","internalType":"bool"},{"name":"reason","type":"string","internalType":"string"}],"stateMutability":"view"},{"type":"function","name":"nextNonce","inputs":[{"name":"","type":"uint32","internalType":"uint32"},{"name":"","type":"bytes32","internalType":"bytes32"}],"outputs":[{"name":"nonce","type":"uint64","internalType":"uint64"}],"stateMutability":"view"},{"type":"function","name":"oApp","inputs":[],"outputs":[{"name":"","type":"address","internalType":"address"}],"stateMutability":"view"},{"type":"function","name":"oAppVersion","inputs":[],"outputs":[{"name":"senderVersion","type":"uint64","internalType":"uint64"},{"name":"receiverVersion","type":"uint64","internalType":"uint64"}],"stateMutability":"pure"},{"type":"function","name":"oftVersion","inputs":[],"outputs":[{"name":"interfaceId","type":"bytes4","internalType":"bytes4"},{"name":"version","type":"uint64","internalType":"uint64"}],"stateMutability":"pure"},{"type":"function","name":"owner","inputs":[],"outputs":[{"name":"","type":"address","internalType":"address"}],"stateMutability":"view"},{"type":"function","name":"peers","inputs":[{"name":"eid","type":"uint32","internalType":"uint32"}],"outputs":[{"name":"peer","type":"bytes32","internalType":"bytes32"}],"stateMutability":"view"},{"type":"function","name":"preCrime","inputs":[],"outputs":[{"name":"","type":"address","internalType":"address"}],"stateMutability":"view"},{"type":"function","name":"quoteOFT","inputs":[{"name":"_sendParam","type":"tuple","internalType":"struct SendParam","components":[{"name":"dstEid","type":"uint32","internalType":"uint32"},{"name":"to","type":"bytes32","internalType":"bytes32"},{"name":"amountLD","type":"uint256","internalType":"uint256"},{"name":"minAmountLD","type":"uint256","internalType":"uint256"},{"name":"extraOptions","type":"bytes","internalType":"bytes"},{"name":"composeMsg","type":"bytes","internalType":"bytes"},{"name":"oftCmd","type":"bytes","internalType":"bytes"}]}],"outputs":[{"name":"oftLimit","type":"tuple","internalType":"struct OFTLimit","components":[{"name":"minAmountLD","type":"uint256","internalType":"uint256"},{"name":"maxAmountLD","type":"uint256","internalType":"uint256"}]},{"name":"oftFeeDetails","type":"tuple[]","internalType":"struct OFTFeeDetail[]","components":[{"name":"feeAmountLD","type":"int256","internalType":"int256"},{"name":"description","type":"string","internalType":"string"}]},{"name":"oftReceipt","type":"tuple","internalType":"struct OFTReceipt","components":[{"name":"amountSentLD","type":"uint256","internalType":"uint256"},{"name":"amountReceivedLD","type":"uint256","internalType":"uint256"}]}],"stateMutability":"view"},{"type":"function","name":"quoteSend","inputs":[{"name":"_sendParam","type":"tuple","internalType":"struct SendParam","components":[{"name":"dstEid","type":"uint32","internalType":"uint32"},{"name":"to","type":"bytes32","internalType":"bytes32"},{"name":"amountLD","type":"uint256","internalType":"uint256"},{"name":"minAmountLD","type":"uint256","internalType":"uint256"},{"name":"extraOptions","type":"bytes","internalType":"bytes"},{"name":"composeMsg","type":"bytes","internalType":"bytes"},{"name":"oftCmd","type":"bytes","internalType":"bytes"}]},{"name":"_payInLzToken","type":"bool","internalType":"bool"}],"outputs":[{"name":"msgFee","type":"tuple","internalType":"struct MessagingFee","components":[{"name":"nativeFee","type":"uint256","internalType":"uint256"},{"name":"lzTokenFee","type":"uint256","internalType":"uint256"}]}],"stateMutability":"view"},{"type":"function","name":"rebalanceBuffer","inputs":[],"outputs":[],"stateMutability":"nonpayable"},{"type":"function","name":"registry","inputs":[],"outputs":[{"name":"","type":"address","internalType":"contract IChainRegistry"}],"stateMutability":"view"},{"type":"function","name":"renounceOwnership","inputs":[],"outputs":[],"stateMutability":"nonpayable"},{"type":"function","name":"send","inputs":[{"name":"_sendParam","type":"tuple","internalType":"struct SendParam","components":[{"name":"dstEid","type":"uint32","internalType":"uint32"},{"name":"to","type":"bytes32","internalType":"bytes32"},{"name":"amountLD","type":"uint256","internalType":"uint256"},{"name":"minAmountLD","type":"uint256","internalType":"uint256"},{"name":"extraOptions","type":"bytes","internalType":"bytes"},{"name":"composeMsg","type":"bytes","internalType":"bytes"},{"name":"oftCmd","type":"bytes","internalType":"bytes"}]},{"name":"_fee","type":"tuple","internalType":"struct MessagingFee","components":[{"name":"nativeFee","type":"uint256","internalType":"uint256"},{"name":"lzTokenFee","type":"uint256","internalType":"uint256"}]},{"name":"_refundAddress","type":"address","internalType":"address"}],"outputs":[{"name":"msgReceipt","type":"tuple","internalType":"struct MessagingReceipt","components":[{"name":"guid","type":"bytes32","internalType":"bytes32"},{"name":"nonce","type":"uint64","internalType":"uint64"},{"name":"fee","type":"tuple","internalType":"struct MessagingFee","components":[{"name":"nativeFee","type":"uint256","internalType":"uint256"},{"name":"lzTokenFee","type":"uint256","internalType":"uint256"}]}]},{"name":"oftReceipt","type":"tuple","internalType":"struct OFTReceipt","components":[{"name":"amountSentLD","type":"uint256","internalType":"uint256"},{"name":"amountReceivedLD","type":"uint256","internalType":"uint256"}]}],"stateMutability":"payable"},{"type":"function","name":"setBufferRatio","inputs":[{"name":"_bufferRatioBps","type":"uint256","internalType":"uint256"}],"outputs":[],"stateMutability":"nonpayable"},{"type":"function","name":"setDelegate","inputs":[{"name":"_delegate","type":"address","internalType":"address"}],"outputs":[],"stateMutability":"nonpayable"},{"type":"function","name":"setEnforcedOptions","inputs":[{"name":"_enforcedOptions","type":"tuple[]","internalType":"struct EnforcedOptionParam[]","components":[{"name":"eid","type":"uint32","internalType":"uint32"},{"name":"msgType","type":"uint16","internalType":"uint16"},{"name":"options","type":"bytes","internalType":"bytes"}]}],"outputs":[],"stateMutability":"nonpayable"},{"type":"function","name":"setMinBuffer","inputs":[{"name":"_minBuffer","type":"uint256","internalType":"uint256"}],"outputs":[],"stateMutability":"nonpayable"},{"type":"function","name":"setMsgInspector","inputs":[{"name":"_msgInspector","type":"address","internalType":"address"}],"outputs":[],"stateMutability":"nonpayable"},{"type":"function","name":"setPeer","inputs":[{"name":"_eid","type":"uint32","internalType":"uint32"},{"name":"_peer","type":"bytes32","internalType":"bytes32"}],"outputs":[],"stateMutability":"nonpayable"},{"type":"function","name":"setPreCrime","inputs":[{"name":"_preCrime","type":"address","internalType":"address"}],"outputs":[],"stateMutability":"nonpayable"},{"type":"function","name":"sharedDecimals","inputs":[],"outputs":[{"name":"","type":"uint8","internalType":"uint8"}],"stateMutability":"view"},{"type":"function","name":"token","inputs":[],"outputs":[{"name":"","type":"address","internalType":"address"}],"stateMutability":"view"},{"type":"function","name":"transferOwnership","inputs":[{"name":"newOwner","type":"address","internalType":"address"}],"outputs":[],"stateMutability":"nonpayable"},{"type":"function","name":"vault","inputs":[],"outputs":[{"name":"","type":"address","internalType":"contract IERC4626"}],"stateMutability":"view"},{"type":"function","name":"wlfi","inputs":[],"outputs":[{"name":"","type":"address","internalType":"contract IERC20"}],"stateMutability":"view"},{"type":"event","name":"BufferRatioUpdated","inputs":[{"name":"oldRatio","type":"uint256","indexed":false,"internalType":"uint256"},{"name":"newRatio","type":"uint256","indexed":false,"internalType":"uint256"}],"anonymous":false},{"type":"event","name":"DepositedToVault","inputs":[{"name":"wlfiAmount","type":"uint256","indexed":false,"internalType":"uint256"},{"name":"sharesReceived","type":"uint256","indexed":false,"internalType":"uint256"}],"anonymous":false},{"type":"event","name":"EnforcedOptionSet","inputs":[{"name":"_enforcedOptions","type":"tuple[]","indexed":false,"internalType":"struct EnforcedOptionParam[]","components":[{"name":"eid","type":"uint32","internalType":"uint32"},{"name":"msgType","type":"uint16","internalType":"uint16"},{"name":"options","type":"bytes","internalType":"bytes"}]}],"anonymous":false},{"type":"event","name":"MinBufferUpdated","inputs":[{"name":"oldMin","type":"uint256","indexed":false,"internalType":"uint256"},{"name":"newMin","type":"uint256","indexed":false,"internalType":"uint256"}],"anonymous":false},{"type":"event","name":"MsgInspectorSet","inputs":[{"name":"inspector","type":"address","indexed":false,"internalType":"address"}],"anonymous":false},{"type":"event","name":"OFTReceived","inputs":[{"name":"guid","type":"bytes32","indexed":true,"internalType":"bytes32"},{"name":"srcEid","type":"uint32","indexed":false,"internalType":"uint32"},{"name":"toAddress","type":"address","indexed":true,"internalType":"address"},{"name":"amountReceivedLD","type":"uint256","indexed":false,"internalType":"uint256"}],"anonymous":false},{"type":"event","name":"OFTSent","inputs":[{"name":"guid","type":"bytes32","indexed":true,"internalType":"bytes32"},{"name":"dstEid","type":"uint32","indexed":false,"internalType":"uint32"},{"name":"fromAddress","type":"address","indexed":true,"internalType":"address"},{"name":"amountSentLD","type":"uint256","indexed":false,"internalType":"uint256"},{"name":"amountReceivedLD","type":"uint256","indexed":false,"internalType":"uint256"}],"anonymous":false},{"type":"event","name":"OwnershipTransferred","inputs":[{"name":"previousOwner","type":"address","indexed":true,"internalType":"address"},{"name":"newOwner","type":"address","indexed":true,"internalType":"address"}],"anonymous":false},{"type":"event","name":"PeerSet","inputs":[{"name":"eid","type":"uint32","indexed":false,"internalType":"uint32"},{"name":"peer","type":"bytes32","indexed":false,"internalType":"bytes32"}],"anonymous":false},{"type":"event","name":"PreCrimeSet","inputs":[{"name":"preCrimeAddress","type":"address","indexed":false,"internalType":"address"}],"anonymous":false},{"type":"event","name":"RedeemedFromVault","inputs":[{"name":"sharesRedeemed","type":"uint256","indexed":false,"internalType":"uint256"},{"name":"wlfiReceived","type":"uint256","indexed":false,"internalType":"uint256"}],"anonymous":false},{"type":"error","name":"BufferRatioTooHigh","inputs":[]},{"type":"error","name":"InsufficientVaultShares","inputs":[]},{"type":"error","name":"InvalidDelegate","inputs":[]},{"type":"error","name":"InvalidEndpointCall","inputs":[]},{"type":"error","name":"InvalidLocalDecimals","inputs":[]},{"type":"error","name":"InvalidOptions","inputs":[{"name":"options","type":"bytes","internalType":"bytes"}]},{"type":"error","name":"LzTokenUnavailable","inputs":[]},{"type":"error","name":"NoPeer","inputs":[{"name":"eid","type":"uint32","internalType":"uint32"}]},{"type":"error","name":"NotEnoughNative","inputs":[{"name":"msgValue","type":"uint256","internalType":"uint256"}]},{"type":"error","name":"OnlyEndpoint","inputs":[{"name":"addr","type":"address","internalType":"address"}]},{"type":"error","name":"OnlyPeer","inputs":[{"name":"eid","type":"uint32","internalType":"uint32"},{"name":"sender","type":"bytes32","internalType":"bytes32"}]},{"type":"error","name":"OnlySelf","inputs":[]},{"type":"error","name":"OwnableInvalidOwner","inputs":[{"name":"owner","type":"address","internalType":"address"}]},{"type":"error","name":"OwnableUnauthorizedAccount","inputs":[{"name":"account","type":"address","internalType":"address"}]},{"type":"error","name":"SafeERC20FailedOperation","inputs":[{"name":"token","type":"address","internalType":"address"}]},{"type":"error","name":"SimulationResult","inputs":[{"name":"result","type":"bytes","internalType":"bytes"}]},{"type":"error","name":"SlippageExceeded","inputs":[{"name":"amountLD","type":"uint256","internalType":"uint256"},{"name":"minAmountLD","type":"uint256","internalType":"uint256"}]}],"bytecode":{"object":"0x610140604090808252346200061a5760009160808262003adb80380380916200002982856200061f565b83398101031262000616576200003f8262000659565b9260206200004f81850162000659565b906200006b60606200006386880162000659565b960162000659565b845163173c3a2960e21b815290966001600160a01b0396871696919360049291848685818c5afa9586156200060c578796620005c7575b5061ffff88519663b87f29e160e01b88521684870152602495858188818d5afa908115620004b857908491899162000583575b50169081156200052a57885163313ce56760e01b81529084169a909190868387818f5afa92831562000520579085918a94620004dc575b50168015620004c65788546001600160a01b0319811682178a55819086167f8be0079c531659141344cd1fd0a4f28419497f9722a3daafe3b4186f6b6457e08b80a381608052813b15620004c25788918883928c51948593849263ca5eb5e160e01b84528b8401525af18015620004b85762000489575b5060ff166006811062000479576005190160ff8111620004675760ff16604d81116200046757600a0a60a0528860c0526103e8600555683635c9adc5dea000006006558815620004125716908115620003bc57861562000363579060448392866101009a808c528460e0526101209a8b528951978895869463095ea7b360e01b8652850152600019908401525af18015620003595762000318575b505050519061346c92836200066f843960805183818161067801528181610cbf0152818161107b01528181611ac001528181611bda0152818161322a015261331e015260a051838181610c09015281816113900152818161196a015281816127d301528181612a920152612f51015260c0518381816119ac01528181611fe10152613008015260e0518381816109b8015281816110db01528181611ede01528181611f9c0152818161203c0152818161226301526128e201525182818161090901528181610d7e0152818161142901528181611d1d01528181611e68015281816122220152818161242f0152612f9c0152518161127f0152f35b81813d831162000351575b6200032f81836200061f565b810103126200034d5751801515036200034a5780806200021e565b80fd5b5080fd5b503d62000323565b84513d85823e3d90fd5b855162461bcd60e51b8152908101839052602e818501527f50726f64756374697665574c4649416461707465723a2072656769737472792060448201526d63616e6e6f74206265207a65726f60901b6064820152608490fd5b855162461bcd60e51b8152908101839052602b818501527f50726f64756374697665574c4649416461707465723a207661756c742063616e60448201526a6e6f74206265207a65726f60a81b6064820152608490fd5b865162461bcd60e51b8152808401859052602a818701527f50726f64756374697665574c4649416461707465723a20776c66692063616e6e6044820152696f74206265207a65726f60b01b6064820152608490fd5b634e487b7160e01b8752601184528587fd5b87516301e9714b60e41b81528490fd5b9096906001600160401b038111620004a65788529560ff62000183565b634e487b7160e01b8252604185528682fd5b89513d8a823e3d90fd5b8880fd5b8951631e4fbdf760e01b81528087018a90528890fd5b88809295508193503d831162000518575b620004f981836200061f565b81010312620004c2575160ff81168103620004c257849092386200010c565b503d620004ed565b8a513d8b823e3d90fd5b885162461bcd60e51b8152808601879052602e818901527f50726f64756374697665574c4649416461707465723a20656e64706f696e742060448201526d1b9bdd0818dbdb999a59dd5c995960921b6064820152608490fd5b809250878092503d8311620005bf575b6200059f81836200061f565b81010312620005bb57620005b4849162000659565b38620000d5565b8780fd5b503d62000593565b9095508481813d831162000604575b620005e281836200061f565b8101031262000600575161ffff8116810362000600579438620000a2565b8680fd5b503d620005d6565b88513d89823e3d90fd5b8280fd5b600080fd5b601f909101601f19168101906001600160401b038211908210176200064357604052565b634e487b7160e01b600052604160045260246000fd5b51906001600160a01b03821682036200061a5756fe6080604052600436101561001257600080fd5b60003560e01c8063084219e8146103425780630d35b4151461033d578063111ecdad1461033857806311e5ff3f1461033357806313137d651461032e578063134d4f2514610329578063156a0d0f1461032457806317442b701461031f5780631f5e1334146102bb5780632374ff291461031a5780633400288b1461031557806335c7e9251461031057806335cd299e1461030b5780633b6f743b146103065780633ebd5b2d1461030157806352ae2879146102fc5780635535d461146102f75780635a0dfe4d146102f25780635e280f11146102ed57806362290822146102e85780636fc1b31e146102e3578063715018a6146102de5780637b103999146102d95780637d25a05e146102d457806382413eac146102cf578063857749b0146102ca5780638da5cb5b146102c5578063963efcaa146102c05780639f68b964146102bb578063a1325aff146102b6578063a3603bca146102b1578063a77ec9e0146102ac578063b731ea0a146102a7578063b98bd070146102a2578063ba2865781461029d578063bb0b6a5314610298578063bc70b35414610293578063bd815db01461028e578063c7c7f5b314610289578063ca5eb5e114610284578063d045a0dc1461027f578063d42438851461027a578063dc24fc0714610275578063e38f6a5514610270578063f2fde38b1461026b578063f5d5744914610266578063fbfa77cf14610261578063fc0c546a1461025c578063fcea330214610257578063fd967f47146102525763ff7bd03d1461024d57600080fd5b61209c565b61207f565b612010565b611fcb565b611f86565b611e28565b611d9c565b611d7e565b611cf1565b611c81565b611b25565b611a8f565b6118ee565b61174a565b6116f6565b6116bb565b611653565b611576565b611501565b6114b0565b6113eb565b6113b3565b6108ae565b611378565b61134f565b611333565b6112d5565b6112ae565b611269565b61120e565b61119e565b6110aa565b611065565b61101d565b610faf565b610dad565b610d68565b610bac565b610b29565b610b06565b610a84565b6108ca565b61088c565b610865565b610849565b61065d565b61058a565b610561565b6104ac565b346103a75760203660031901126103a7577fa24e2cd1945fb07bf82161814fdbe71e993e0fa33efe870ca206ce688af1d36360043561037f61279e565b600654816006556103a26040519283928360209093929193604081019481520152565b0390a1005b600080fd5b908160e09103126103a75790565b60005b8381106103cd5750506000910152565b81810151838201526020016103bd565b906020916103f6815180928185528580860191016103ba565b601f01601f1916010190565b93929161041d8560a081019360208091805184520151910152565b60409160a06040870152815180915260c086019160c08260051b880101936020809201936000915b84831061046d5750505050505090606061046b9294019060208091805184520151910152565b565b909192939495848061049c6001938d60bf1990820301875285838c5180518452015191818582015201906103dd565b9801930193019194939290610445565b346103a75760203660031901126103a7576001600160401b036004358181116103a7576104dd9036906004016103ac565b906104e66120fc565b506104ef6120fc565b50604051906104fd82610e38565b6000825260208201526105526105366040519361051985610e86565b600085526105268161212c565b50604060608201359101356127ca565b61053e6120e2565b918252602082015260405193849384610402565b0390f35b60009103126103a757565b346103a75760003660031901126103a7576004546040516001600160a01b039091168152602090f35b346103a75760003660031901126103a7576020600654604051908152f35b60609060031901126103a757600490565b9181601f840112156103a7578235916001600160401b0383116103a757602083818601950101116103a757565b6001600160a01b038116036103a757565b600319810160e081126103a7576060136103a757600491606435916001600160401b03906084358281116103a75781610632916004016105b9565b9390939260a435610642816105e6565b9260c4359182116103a757610659916004016105b9565b9091565b610666366105f7565b50929492506001600160a01b039190507f000000000000000000000000000000000000000000000000000000000000000082163381036108315783356106ab81610a76565b6106b481612827565b9060208601358092036107fc5750506106dc6106d08388612f25565b6001600160a01b031690565b916107026106f26106ed838a612f31565b612f43565b6106fb8761212c565b5084612f77565b809760288311610753575b5050505061074e61072c6000805160206134178339815191529461212c565b956040519384931696836020909392919363ffffffff60408201951681520152565b0390a3005b9061077e929161077861076860408a0161285f565b936107728a61212c565b92613067565b92613083565b90803b156103a757604051633e5ac80960e11b81529160009183918290849082906107ae908c8a60048501612869565b03925af180156107f7576000805160206134178339815191529461074e9261072c926107de575b8891965061070d565b806107eb6107f192610e73565b80610556565b386107d5565b612145565b61080581610a76565b60405163309afaf360e21b815263ffffffff9190911660048201526024810191909152604490fd5b0390fd5b6040516391ac5e4f60e01b8152336004820152602490fd5b346103a75760003660031901126103a757602060405160028152f35b346103a75760003660031901126103a7576040805162b9270b60e21b815260016020820152f35b346103a75760003660031901126103a757604080516001815260026020820152f35b346103a75760003660031901126103a757602060405160018152f35b346103a757600080600319360112610a73576108e461279e565b6040516370a0823160e01b81523060048201526001600160a01b0390602080826024817f000000000000000000000000000000000000000000000000000000000000000087165afa9182156107f7578492610a54575b50610943612894565b928383101561096357505061095b90610960926121e2565b6128c2565b80f35b91909261097961097282612167565b6064900490565b8211610987575b5050505080f35b610990916121e2565b604051636e553f6560e01b8152600481018290523060248201529183908390604490829088907f0000000000000000000000000000000000000000000000000000000000000000165af19182156107f7577f4b8c73bef6e1bd45b4180a4201d607313ad6c1354f597acbb089dbe59a963a63938593610a25575b5050604080519182526020820192909252a138808080610980565b610a45929350803d10610a4d575b610a3d8183610ed7565b810190612136565b903880610a0a565b503d610a33565b81610a6c9293503d8411610a4d57610a3d8183610ed7565b903861093a565b80fd5b63ffffffff8116036103a757565b346103a75760403660031901126103a7577f238399d427b947898edb290f5ff0f9109849b1c3ba196a42e35f00c50a54b98b600435610ac281610a76565b60243590610ace61279e565b63ffffffff81166000526001602052816040600020556103a2604051928392836020909392919363ffffffff60408201951681520152565b346103a75760003660031901126103a7576020610b216121fc565b604051908152f35b346103a75760203660031901126103a757600435610b4561279e565b6113888111610b905760058054908290556040805191825260208201929092527f1bfcf87373b9ef3658e440e51f9821682150437788b733305f3424ffde6fe75d91819081016103a2565b6040516325fbe8eb60e21b8152600490fd5b801515036103a757565b346103a7576040806003193601126103a7576004356001600160401b0381116103a757610bdd9036906004016103ac565b90602435610bea81610ba2565b610bf26120fc565b506060830135833593610c0485610a76565b610c3a7f0000000000000000000000000000000000000000000000000000000000000000610c3581878501356121c2565b6121af565b91808310610d4857508392610c56610cbb9693610ca093612a81565b90610c6085610a76565b610c686120fc565b50610c7285612827565b610c89610c7d6120ef565b63ffffffff9097168752565b602086015285850152606084015215156080830152565b815180948192631bb8518b60e31b8352309060048401612bcc565b03817f00000000000000000000000000000000000000000000000000000000000000006001600160a01b03165afa9081156107f75761055292600092610d19575b505191829182815181526020918201519181019190915260400190565b81610d3a9293503d8411610d41575b610d328183610ed7565b810190612bb8565b9038610cfc565b503d610d28565b84516371c4efed60e01b8152600481018490526024810191909152604490fd5b346103a75760003660031901126103a7576040517f00000000000000000000000000000000000000000000000000000000000000006001600160a01b03168152602090f35b346103a75760003660031901126103a7576020604051308152f35b6024359061ffff821682036103a757565b359061ffff821682036103a757565b90600182811c92168015610e18575b6020831014610e0257565b634e487b7160e01b600052602260045260246000fd5b91607f1691610df7565b634e487b7160e01b600052604160045260246000fd5b604081019081106001600160401b03821117610e5357604052565b610e22565b606081019081106001600160401b03821117610e5357604052565b6001600160401b038111610e5357604052565b602081019081106001600160401b03821117610e5357604052565b60a081019081106001600160401b03821117610e5357604052565b608081019081106001600160401b03821117610e5357604052565b90601f801991011681019081106001600160401b03821117610e5357604052565b90604051918260008254610f0b81610de8565b90818452602094600191600181169081600014610f795750600114610f3a575b50505061046b92500383610ed7565b600090815285812095935091905b818310610f6157505061046b9350820101388080610f2b565b85548884018501529485019487945091830191610f48565b9250505061046b94925060ff191682840152151560051b820101388080610f2b565b906020610fac9281815201906103dd565b90565b346103a75760403660031901126103a757610552611009611004600435610fd581610a76565b63ffffffff610fe2610dc8565b9116600052600360205260406000209061ffff16600052602052604060002090565b610ef8565b6040519182916020835260208301906103dd565b346103a75760403660031901126103a757602061105b60043561103f81610a76565b6024359063ffffffff1660005260016020526040600020541490565b6040519015158152f35b346103a75760003660031901126103a7576040517f00000000000000000000000000000000000000000000000000000000000000006001600160a01b03168152602090f35b346103a75760003660031901126103a7576040516370a0823160e01b81523060048201526020906001600160a01b037f000000000000000000000000000000000000000000000000000000000000000016908281602481855afa80156107f75761113992849260009261117f575b5060405180809581946303d1689d60e11b8352600483019190602083019252565b03915afa9081156107f75761055292600092611162575b50506040519081529081906020820190565b6111789250803d10610a4d57610a3d8183610ed7565b3880611150565b611197919250833d8511610a4d57610a3d8183610ed7565b9038611118565b346103a75760203660031901126103a7577ff0be4f1e87349231d80c36b33f9e8639658eeaf474014dee15a3e6a4d441419760206004356111de816105e6565b6111e661279e565b600480546001600160a01b0319166001600160a01b03929092169182179055604051908152a1005b346103a757600080600319360112610a735761122861279e565b80546001600160a01b03198116825581906001600160a01b03167f8be0079c531659141344cd1fd0a4f28419497f9722a3daafe3b4186f6b6457e08280a380f35b346103a75760003660031901126103a7576040517f00000000000000000000000000000000000000000000000000000000000000006001600160a01b03168152602090f35b346103a75760403660031901126103a7576112ca600435610a76565b602060405160008152f35b346103a75760a03660031901126103a7576112ef366105a8565b506064356001600160401b0381116103a75761130f9036906004016105b9565b5050602060843561131f816105e6565b6040516001600160a01b0390911630148152f35b346103a75760003660031901126103a757602060405160068152f35b346103a75760003660031901126103a7576000546040516001600160a01b039091168152602090f35b346103a75760003660031901126103a75760206040517f00000000000000000000000000000000000000000000000000000000000000008152f35b346103a75760003660031901126103a7576113cc61240c565b90610552604051928392151583526040602084015260408301906103dd565b346103a757600080600319360112610a73576114056121fc565b6040516370a0823160e01b8152306004820152906020826024816001600160a01b037f0000000000000000000000000000000000000000000000000000000000000000165afa9182156107f757839261148f575b50600554928115611487575061147161147692612182565b6121c2565b604080519182526020820192909252f35b915050611476565b6114a991925060203d602011610a4d57610a3d8183610ed7565b9038611459565b346103a75760003660031901126103a7576105526040516114d081610e38565b601081526f322e302e302d70726f6475637469766560801b60208201526040519182916020835260208301906103dd565b346103a75760003660031901126103a7576002546040516001600160a01b039091168152602090f35b9060206003198301126103a7576004356001600160401b03928382116103a757806023830112156103a75781600401359384116103a75760248460051b830101116103a7576024019190565b346103a7576115843661152a565b9061158d61279e565b61159682612115565b9060406115a66040519384610ed7565b8383526020938484019060051b8301923684116103a75780915b8483106115d2576115d086612e04565b005b6001600160401b039083358281116103a7578301916060833603126103a7578551926115fd84610e58565b803561160881610a76565b84526116158a8201610dd9565b8a850152868101359182116103a757019036601f830112156103a75788926116448493369085813591016124ce565b878201528152019201916115c0565b346103a75760003660031901126103a75761055260405161167381610e58565b602181527f50726f6475637469766520574c4649204c617965725a65726f204164617074656020820152603960f91b60408201526040519182916020835260208301906103dd565b346103a75760203660031901126103a75763ffffffff6004356116dd81610a76565b1660005260016020526020604060002054604051908152f35b346103a75760603660031901126103a75760043561171381610a76565b61171b610dc8565b604435906001600160401b0382116103a757610552926117426110099336906004016105b9565b929091612573565b6117533661152a565b60005b8181106117c257604051638e9e709960e01b8152600081600481335afa80156107f75761082d9160009161179f575b50604051638351eea760e01b815291829160048301610f9b565b6117bc91503d806000833e6117b48183610ed7565b810190612718565b82611785565b6117cd818385612629565b906117ff6117fb6117dd8461212c565b60208501359063ffffffff1660005260016020526040600020541490565b1590565b61189457611811610100830183612651565b9261181e60e08201612683565b9061182d610120820182612651565b959095303b156103a75760009461186360c092604051998a9788968795633411683760e21b875260a08a01358a6004890161269e565b03920135305af19182156107f757600192611881575b505b01611756565b806107eb61188e92610e73565b38611879565b6001915061187b565b91608061046b9294936118dd604060c0830197805184526001600160401b0360208201511660208501520151604083019060208091805184520151910152565b019060208091805184520151910152565b60803660031901126103a7576004356001600160401b0381116103a7576119199036906004016103ac565b60403660231901126103a757606435611931816105e6565b611939612776565b506119426120fc565b5061194b612776565b506119546120fc565b506060820135906119658335610a76565b6119977f0000000000000000000000000000000000000000000000000000000000000000610c358160408701356121c2565b91808310611a6e57506119f3906119d08330337f000000000000000000000000000000000000000000000000000000000000000061329e565b6119da8385612a81565b6119e38661212c565b916119ed36612efd565b926131ad565b906119fc6120e2565b928184528160208501527f85496b760a4b7f8d66384b9df21b381f5d1b1e79f229a47aaf4c232edc2fe59a611a5c611a3585519361212c565b936040519181839233978460409194939263ffffffff606083019616825260208201520152565b0390a36105526040519283928361189d565b6040516371c4efed60e01b8152600481018490526024810191909152604490fd5b346103a75760006020366003190112610a7357600435611aae816105e6565b611ab661279e565b6001600160a01b037f0000000000000000000000000000000000000000000000000000000000000000811691839190833b15611b215760249083604051958694859363ca5eb5e160e01b85521660048401525af180156107f757611b18575080f35b61096090610e73565b8280fd5b611b2e366105f7565b5050509290303303611c6f57611b476106d08583612f25565b93611b68611b586106ed8385612f31565b611b618561212c565b5086612f77565b9160288211611bb8575b5050611b8c6000805160206134178339815191529261212c565b6040805163ffffffff909216825260208201929092526001600160a01b0390941693908190810161074e565b9082611bd792610778611bcd6040880161285f565b936107728861212c565b917f00000000000000000000000000000000000000000000000000000000000000006001600160a01b0316803b156103a757604051633e5ac80960e11b8152936000918591829084908290611c31908b8d60048501612869565b03925af19081156107f75760008051602061341783398151915293611b8c92611c5c575b5092611b72565b806107eb611c6992610e73565b38611c55565b60405163029a949d60e31b8152600490fd5b346103a75760203660031901126103a7577fd48d879cef83a1c0bdda516f27b13ddb1b3f8bbac1c9e1511bb2a659c24277606020600435611cc1816105e6565b611cc961279e565b600280546001600160a01b0319166001600160a01b03929092169182179055604051908152a1005b346103a75760003660031901126103a7576040516370a0823160e01b81523060048201526020816024817f00000000000000000000000000000000000000000000000000000000000000006001600160a01b03165afa80156107f757602091600091611d61575b50604051908152f35b611d789150823d8411610a4d57610a3d8183610ed7565b38611d58565b346103a75760003660031901126103a7576020600554604051908152f35b346103a75760203660031901126103a757600435611db9816105e6565b611dc161279e565b6001600160a01b039081168015611e0f57600080546001600160a01b03198116831782559092167f8be0079c531659141344cd1fd0a4f28419497f9722a3daafe3b4186f6b6457e08380a380f35b604051631e4fbdf760e01b815260006004820152602490fd5b346103a757600080600319360112610a7357611e4261279e565b6040516370a0823160e01b81523060048201526020906001600160a01b039082816024817f000000000000000000000000000000000000000000000000000000000000000086165afa9081156107f7578491611f69575b50611ea2612894565b808211611ead578480f35b611eb6916121e2565b604051636e553f6560e01b8152600481018290523060248201529183908390604490829088907f0000000000000000000000000000000000000000000000000000000000000000165af19182156107f7577f4b8c73bef6e1bd45b4180a4201d607313ad6c1354f597acbb089dbe59a963a63938593611f4a575b5050604080519182526020820192909252a1388080808480f35b611f61929350803d10610a4d57610a3d8183610ed7565b903880611f30565b611f809150833d8511610a4d57610a3d8183610ed7565b38611e99565b346103a75760003660031901126103a7576040517f00000000000000000000000000000000000000000000000000000000000000006001600160a01b03168152602090f35b346103a75760003660031901126103a7576040517f00000000000000000000000000000000000000000000000000000000000000006001600160a01b03168152602090f35b346103a75760003660031901126103a7576040516370a0823160e01b81523060048201526020816024817f00000000000000000000000000000000000000000000000000000000000000006001600160a01b03165afa80156107f757602091600091611d615750604051908152f35b346103a75760003660031901126103a75760206040516127108152f35b346103a75760603660031901126103a75760206120b8366105a8565b63ffffffff81356120c881610a76565b166000526001825260406000205482604051920135148152f35b6040519061046b82610e38565b6040519061046b82610ea1565b6040519061210982610e38565b60006020838281520152565b6001600160401b038111610e535760051b60200190565b35610fac81610a76565b908160209103126103a7575190565b6040513d6000823e3d90fd5b634e487b7160e01b600052601160045260246000fd5b9060788202918083046078149015171561217d57565b612151565b906127109182810292818404149015171561217d57565b9060508202918083046050149015171561217d57565b8181029291811591840414171561217d57565b81156121cc570490565b634e487b7160e01b600052601260045260246000fd5b9190820391821161217d57565b9190820180921161217d57565b6040516370a0823160e01b8082523060048301526020916001600160a01b0383826024817f000000000000000000000000000000000000000000000000000000000000000085165afa9182156107f75760009261231d575b506040519283523060048401527f000000000000000000000000000000000000000000000000000000000000000016918381602481865afa80156107f7576122c19385926000926122fe575b5060405180809681946303d1689d60e11b8352600483019190602083019252565b03915afa9182156107f757610fac936000936122df575b50506121ef565b6122f6929350803d10610a4d57610a3d8183610ed7565b9038806122d8565b612316919250833d8511610a4d57610a3d8183610ed7565b90386122a0565b612335919250843d8611610a4d57610a3d8183610ed7565b9038612254565b6001600160401b038111610e5357601f01601f191660200190565b6040519061236482610e38565b601f82527f42756666657220746f6f206c6f7720283c383025206f662074617267657429006020830152565b6040519061239d82610e58565b60218252602960f81b6040837f42756666657220746f6f206869676820283e31323025206f662074617267657460208201520152565b604051906123e082610e38565b601e82527f4275666665722077697468696e2061636365707461626c652072616e676500006020830152565b6040516370a0823160e01b81523060048201526020816024816001600160a01b037f0000000000000000000000000000000000000000000000000000000000000000165afa9081156107f7576000916124af575b50612469612894565b61247561097282612199565b82106124a25761097261248791612167565b1061249757600090610fac6123d3565b600190610fac612390565b5050600190610fac612357565b6124c8915060203d602011610a4d57610a3d8183610ed7565b38612460565b9291926124da8261233c565b916124e86040519384610ed7565b8294818452818301116103a7578281602093846000960137010152565b6020908361046b93959495604051968361252889955180928880890191016103ba565b8401918583013701600083820152038085520183610ed7565b908060209392818452848401376000828201840152601f01601f1916010190565b916020610fac938181520191612541565b6125a19163ffffffff6110049216600052600360205260406000209061ffff16600052602052604060002090565b8051156126075782156126015760028310156125d4575061082d604051928392639a6d49cd60e01b845260048401612562565b6125e76125e23685856124ce565b612ec5565b826002116103a757610fac92600119019160020190612505565b91505090565b50610fac9136916124ce565b634e487b7160e01b600052603260045260246000fd5b919081101561264c5760051b8101359061013e19813603018212156103a7570190565b612613565b903590601e19813603018212156103a757018035906001600160401b0382116103a7576020019181360383136103a757565b35610fac816105e6565b6001600160401b038116036103a757565b9290936126fa926001600160401b036040610fac9a98999763ffffffff81356126c681610a76565b1688526020810135602089015201356126de8161268d565b166040860152606085015260e0608085015260e0840191612541565b6001600160a01b0390941660a082015280840360c090910152612541565b6020818303126103a7578051906001600160401b0382116103a7570181601f820112156103a757805161274a8161233c565b926127586040519485610ed7565b818452602082840101116103a757610fac91602080850191016103ba565b6040519061278382610e58565b81600081526000602082015260406127996120fc565b910152565b6000546001600160a01b031633036127b257565b60405163118cdaa760e01b8152336004820152602490fd5b6127f990610c357f000000000000000000000000000000000000000000000000000000000000000080926121c2565b9182918084106128065750565b6040516371c4efed60e01b8152600481018590526024810191909152604490fd5b63ffffffff16806000526001602052604060002054908115612847575090565b6024906040519063f6ff4fb760e01b82526004820152fd5b35610fac8161268d565b610fac939260809260018060a01b0316825260208201526000604082015281606082015201906103dd565b6127106128ab6128a26121fc565b600554906121af565b046006548082116000146128bd575090565b905090565b6040516370a0823160e01b81523060048201526020916001600160a01b037f000000000000000000000000000000000000000000000000000000000000000016918381602481865afa9081156107f757612940928591600093612a28575b5060405180948192630a28a47760e01b8352600483019190602083019252565b0381865afa9182156107f757600092612a09575b5081116129f757604051635d043b2960e11b81526004810182905230602482018190526044820152918390839060649082906000905af19182156107f7577f1892ca930b5dd3a0971bd2c1fa26772587171e0701c89333b4473bb7194e29a0936000936129d8575b505060408051918252602082019290925290819081015b0390a1565b6129ef929350803d10610a4d57610a3d8183610ed7565b9038806129bc565b604051631ce9bb1f60e11b8152600490fd5b612a21919250843d8611610a4d57610a3d8183610ed7565b9038612954565b612a40919350823d8411610a4d57610a3d8183610ed7565b9138612920565b908160209103126103a75751610fac81610ba2565b9091612a73610fac936040845260408401906103dd565b9160208184039101526103dd565b9091612ae5612ac3612ab7612b0c957f0000000000000000000000000000000000000000000000000000000000000000906121c2565b6001600160401b031690565b612ada612ad360a0860186612651565b36916124ce565b9060208501356130e0565b9390928394600014612b88576002905b611742612b018261212c565b916080810190612651565b60045490926001600160a01b03909116908382612b2857505050565b60405163043a78eb60e01b815292602092849283918291612b4c9160048401612a5c565b03915afa80156107f757612b5d5750565b612b7e9060203d602011612b81575b612b768183610ed7565b810190612a47565b50565b503d612b6c565b600190612af5565b91908260409103126103a757604051612ba881610e38565b6020808294805184520151910152565b906040828203126103a757610fac91612b90565b906020909392936040835263ffffffff81511660408401528181015160608401526080612c20612c0a604084015160a08488015260e08701906103dd565b6060840151868203603f190160a08801526103dd565b910151151560c08401526001600160a01b03909416910152565b805182101561264c5760209160051b010190565b90601f8111612c5c57505050565b6000916000526020600020906020601f850160051c83019410612c9a575b601f0160051c01915b828110612c8f57505050565b818155600101612c83565b9092508290612c7a565b91909182516001600160401b038111610e5357612ccb81612cc58454610de8565b84612c4e565b602080601f8311600114612d0e57508190612cff939495600092612d03575b50508160011b916000199060031b1c19161790565b9055565b015190503880612cea565b90601f19831695612d2485600052602060002090565b926000905b888210612d6157505083600195969710612d48575b505050811b019055565b015160001960f88460031b161c19169055388080612d3e565b80600185968294968601518155019501930190612d29565b6020808201908083528351809252604092604081018260408560051b8401019601946000925b858410612db0575050505050505090565b909192939495968580612df3600193603f198682030188528b518760609163ffffffff815116845261ffff868201511686850152015191818982015201906103dd565b990194019401929594939190612d9f565b9060009160005b8151811015612e9057600190612e8a6040612e3281612e2a8588612c3a565b510151612ec5565b612e8581612e408588612c3a565b5101519163ffffffff612e538689612c3a565b515116895261ffff602091600383528a2091612e6f878a612c3a565b5101511661ffff16600052602052604060002090565b612ca4565b01612e0b565b507fbe4864a8e820971c0247f5992e2da559595f7bf076a21cb5928d443d2a13b6749192506129d39060405191829182612d79565b600361ffff60028301511603612ed85750565b604051639a6d49cd60e01b81526020600482015290819061082d9060248301906103dd565b60409060231901126103a75760405190612f1682610e38565b60243582526044356020830152565b906020116103a7573590565b906028116103a7576020013560c01c90565b610fac906001600160401b037f000000000000000000000000000000000000000000000000000000000000000091166121af565b6040516370a0823160e01b81523060048201526001600160a01b0391906020816024817f000000000000000000000000000000000000000000000000000000000000000087165afa9081156107f757600091613048575b5083811061302c575b5060405163a9059cbb60e01b60208201529116602482015260448082018390528152610fac9061300681610ebc565b7f00000000000000000000000000000000000000000000000000000000000000006133ba565b83039183831161217d57613042610fac936128c2565b91612fd7565b613061915060203d602011610a4d57610a3d8183610ed7565b38612fce565b90806028116103a757610fac91369160271901906028016124ce565b604c9193610fac936040519586936001600160401b0360c01b9060c01b16602085015263ffffffff60e01b9060e01b166028840152602c8301526130d081518092602086860191016103ba565b810103602c810184520182610ed7565b8251158015939061313e5761313b9160689160405194859260208401526001600160401b0360c01b9060c01b16604083015233604883015261312b81518092602086860191016103ba565b8101036048810184520182610ed7565b91565b50906040519160208301526001600160401b0360c01b9060c01b1660408201526028815261313b81610e58565b906080828203126103a7576131a590604080519361318885610e58565b80518552602081015161319a8161268d565b602086015201612b90565b604082015290565b61320a6080949261322696946131c1612776565b5060206131ce86516132e5565b95019182518061328f575b506131e385612827565b92511515926131f3610c7d6120ef565b602086015260408501526060840152151585830152565b6040518095819482936302637a4560e41b845260048401612bcc565b03917f00000000000000000000000000000000000000000000000000000000000000006001600160a01b03165af19081156107f757600091613266575090565b610fac915060803d608011613288575b6132808183610ed7565b81019061316b565b503d613276565b61329890613307565b386131d9565b6040516323b872dd60e01b60208201526001600160a01b03928316602482015292909116604483015260648083019390935291815261046b916132e082610ea1565b6133ba565b8034036132ef5790565b6040516304fb820960e51b8152346004820152602490fd5b60405163393f876560e21b81526001600160a01b037f000000000000000000000000000000000000000000000000000000000000000081169291602081600481875afa9081156107f75760009161337f575b501691821561336d5761046b92339061329e565b6040516329b99a9560e11b8152600490fd5b90506020813d6020116133b2575b8161339a60209383610ed7565b810103126103a757516133ac816105e6565b38613359565b3d915061338d565b906000602091828151910182855af115612145576000513d61340d57506001600160a01b0381163b155b6133eb5750565b604051635274afe760e01b81526001600160a01b039091166004820152602490fd5b600114156133e456feefed6d3500546b29533b128a29e3a94d70788727f0507505ac12eaf2e578fd9ca2646970667358221220bdf4e7eb4bc53236411305ea4ead97bcd3334607da1bfb07c34d7e97e5744ec964736f6c63430008160033","linkReferences":{}},"methodIdentifiers":{"MAX_BPS()":"fd967f47","SEND()":"1f5e1334","SEND_AND_CALL()":"134d4f25","adapterName()":"ba286578","adapterVersion()":"a77ec9e0","allowInitializePath((uint32,bytes32,uint64))":"ff7bd03d","approvalRequired()":"9f68b964","bufferRatioBps()":"e38f6a55","combineOptions(uint32,uint16,bytes)":"bc70b354","decimalConversionRate()":"963efcaa","depositIdleToVault()":"f5d57449","endpoint()":"5e280f11","enforcedOptions(uint32,uint16)":"5535d461","getBufferBalance()":"dc24fc07","getBufferStatus()":"a3603bca","getTotalLiquidity()":"35c7e925","getVaultShares()":"fcea3302","getVaultValue()":"62290822","isComposeMsgSender((uint32,bytes32,uint64),bytes,address)":"82413eac","isPeer(uint32,bytes32)":"5a0dfe4d","lzReceive((uint32,bytes32,uint64),bytes32,bytes,address,bytes)":"13137d65","lzReceiveAndRevert(((uint32,bytes32,uint64),uint32,address,bytes32,uint256,address,bytes,bytes)[])":"bd815db0","lzReceiveSimulate((uint32,bytes32,uint64),bytes32,bytes,address,bytes)":"d045a0dc","minBuffer()":"11e5ff3f","msgInspector()":"111ecdad","needsRebalance()":"a1325aff","nextNonce(uint32,bytes32)":"7d25a05e","oApp()":"52ae2879","oAppVersion()":"17442b70","oftVersion()":"156a0d0f","owner()":"8da5cb5b","peers(uint32)":"bb0b6a53","preCrime()":"b731ea0a","quoteOFT((uint32,bytes32,uint256,uint256,bytes,bytes,bytes))":"0d35b415","quoteSend((uint32,bytes32,uint256,uint256,bytes,bytes,bytes),bool)":"3b6f743b","rebalanceBuffer()":"2374ff29","registry()":"7b103999","renounceOwnership()":"715018a6","send((uint32,bytes32,uint256,uint256,bytes,bytes,bytes),(uint256,uint256),address)":"c7c7f5b3","setBufferRatio(uint256)":"35cd299e","setDelegate(address)":"ca5eb5e1","setEnforcedOptions((uint32,uint16,bytes)[])":"b98bd070","setMinBuffer(uint256)":"084219e8","setMsgInspector(address)":"6fc1b31e","setPeer(uint32,bytes32)":"3400288b","setPreCrime(address)":"d4243885","sharedDecimals()":"857749b0","token()":"fc0c546a","transferOwnership(address)":"f2fde38b","vault()":"fbfa77cf","wlfi()":"3ebd5b2d"},"id":17}