{"abi":[{"type":"constructor","inputs":[{"name":"_name","type":"string","internalType":"string"},{"name":"_symbol","type":"string","internalType":"string"},{"name":"_lzEndpoint","type":"address","internalType":"address"},{"name":"_delegate","type":"address","internalType":"address"}],"stateMutability":"nonpayable"},{"type":"function","name":"SEND","inputs":[],"outputs":[{"name":"","type":"uint16","internalType":"uint16"}],"stateMutability":"view"},{"type":"function","name":"SEND_AND_CALL","inputs":[],"outputs":[{"name":"","type":"uint16","internalType":"uint16"}],"stateMutability":"view"},{"type":"function","name":"allowInitializePath","inputs":[{"name":"origin","type":"tuple","internalType":"struct Origin","components":[{"name":"srcEid","type":"uint32","internalType":"uint32"},{"name":"sender","type":"bytes32","internalType":"bytes32"},{"name":"nonce","type":"uint64","internalType":"uint64"}]}],"outputs":[{"name":"","type":"bool","internalType":"bool"}],"stateMutability":"view"},{"type":"function","name":"allowance","inputs":[{"name":"owner","type":"address","internalType":"address"},{"name":"spender","type":"address","internalType":"address"}],"outputs":[{"name":"","type":"uint256","internalType":"uint256"}],"stateMutability":"view"},{"type":"function","name":"approvalRequired","inputs":[],"outputs":[{"name":"","type":"bool","internalType":"bool"}],"stateMutability":"pure"},{"type":"function","name":"approve","inputs":[{"name":"spender","type":"address","internalType":"address"},{"name":"value","type":"uint256","internalType":"uint256"}],"outputs":[{"name":"","type":"bool","internalType":"bool"}],"stateMutability":"nonpayable"},{"type":"function","name":"balanceOf","inputs":[{"name":"account","type":"address","internalType":"address"}],"outputs":[{"name":"","type":"uint256","internalType":"uint256"}],"stateMutability":"view"},{"type":"function","name":"combineOptions","inputs":[{"name":"_eid","type":"uint32","internalType":"uint32"},{"name":"_msgType","type":"uint16","internalType":"uint16"},{"name":"_extraOptions","type":"bytes","internalType":"bytes"}],"outputs":[{"name":"","type":"bytes","internalType":"bytes"}],"stateMutability":"view"},{"type":"function","name":"decimalConversionRate","inputs":[],"outputs":[{"name":"","type":"uint256","internalType":"uint256"}],"stateMutability":"view"},{"type":"function","name":"decimals","inputs":[],"outputs":[{"name":"","type":"uint8","internalType":"uint8"}],"stateMutability":"view"},{"type":"function","name":"endpoint","inputs":[],"outputs":[{"name":"","type":"address","internalType":"contract ILayerZeroEndpointV2"}],"stateMutability":"view"},{"type":"function","name":"enforcedOptions","inputs":[{"name":"eid","type":"uint32","internalType":"uint32"},{"name":"msgType","type":"uint16","internalType":"uint16"}],"outputs":[{"name":"enforcedOption","type":"bytes","internalType":"bytes"}],"stateMutability":"view"},{"type":"function","name":"isComposeMsgSender","inputs":[{"name":"","type":"tuple","internalType":"struct Origin","components":[{"name":"srcEid","type":"uint32","internalType":"uint32"},{"name":"sender","type":"bytes32","internalType":"bytes32"},{"name":"nonce","type":"uint64","internalType":"uint64"}]},{"name":"","type":"bytes","internalType":"bytes"},{"name":"_sender","type":"address","internalType":"address"}],"outputs":[{"name":"","type":"bool","internalType":"bool"}],"stateMutability":"view"},{"type":"function","name":"isPeer","inputs":[{"name":"_eid","type":"uint32","internalType":"uint32"},{"name":"_peer","type":"bytes32","internalType":"bytes32"}],"outputs":[{"name":"","type":"bool","internalType":"bool"}],"stateMutability":"view"},{"type":"function","name":"lzReceive","inputs":[{"name":"_origin","type":"tuple","internalType":"struct Origin","components":[{"name":"srcEid","type":"uint32","internalType":"uint32"},{"name":"sender","type":"bytes32","internalType":"bytes32"},{"name":"nonce","type":"uint64","internalType":"uint64"}]},{"name":"_guid","type":"bytes32","internalType":"bytes32"},{"name":"_message","type":"bytes","internalType":"bytes"},{"name":"_executor","type":"address","internalType":"address"},{"name":"_extraData","type":"bytes","internalType":"bytes"}],"outputs":[],"stateMutability":"payable"},{"type":"function","name":"lzReceiveAndRevert","inputs":[{"name":"_packets","type":"tuple[]","internalType":"struct InboundPacket[]","components":[{"name":"origin","type":"tuple","internalType":"struct Origin","components":[{"name":"srcEid","type":"uint32","internalType":"uint32"},{"name":"sender","type":"bytes32","internalType":"bytes32"},{"name":"nonce","type":"uint64","internalType":"uint64"}]},{"name":"dstEid","type":"uint32","internalType":"uint32"},{"name":"receiver","type":"address","internalType":"address"},{"name":"guid","type":"bytes32","internalType":"bytes32"},{"name":"value","type":"uint256","internalType":"uint256"},{"name":"executor","type":"address","internalType":"address"},{"name":"message","type":"bytes","internalType":"bytes"},{"name":"extraData","type":"bytes","internalType":"bytes"}]}],"outputs":[],"stateMutability":"payable"},{"type":"function","name":"lzReceiveSimulate","inputs":[{"name":"_origin","type":"tuple","internalType":"struct Origin","components":[{"name":"srcEid","type":"uint32","internalType":"uint32"},{"name":"sender","type":"bytes32","internalType":"bytes32"},{"name":"nonce","type":"uint64","internalType":"uint64"}]},{"name":"_guid","type":"bytes32","internalType":"bytes32"},{"name":"_message","type":"bytes","internalType":"bytes"},{"name":"_executor","type":"address","internalType":"address"},{"name":"_extraData","type":"bytes","internalType":"bytes"}],"outputs":[],"stateMutability":"payable"},{"type":"function","name":"mint","inputs":[{"name":"to","type":"address","internalType":"address"},{"name":"amount","type":"uint256","internalType":"uint256"}],"outputs":[],"stateMutability":"nonpayable"},{"type":"function","name":"msgInspector","inputs":[],"outputs":[{"name":"","type":"address","internalType":"address"}],"stateMutability":"view"},{"type":"function","name":"name","inputs":[],"outputs":[{"name":"","type":"string","internalType":"string"}],"stateMutability":"view"},{"type":"function","name":"nextNonce","inputs":[{"name":"","type":"uint32","internalType":"uint32"},{"name":"","type":"bytes32","internalType":"bytes32"}],"outputs":[{"name":"nonce","type":"uint64","internalType":"uint64"}],"stateMutability":"view"},{"type":"function","name":"oApp","inputs":[],"outputs":[{"name":"","type":"address","internalType":"address"}],"stateMutability":"view"},{"type":"function","name":"oAppVersion","inputs":[],"outputs":[{"name":"senderVersion","type":"uint64","internalType":"uint64"},{"name":"receiverVersion","type":"uint64","internalType":"uint64"}],"stateMutability":"pure"},{"type":"function","name":"oftVersion","inputs":[],"outputs":[{"name":"interfaceId","type":"bytes4","internalType":"bytes4"},{"name":"version","type":"uint64","internalType":"uint64"}],"stateMutability":"pure"},{"type":"function","name":"owner","inputs":[],"outputs":[{"name":"","type":"address","internalType":"address"}],"stateMutability":"view"},{"type":"function","name":"peers","inputs":[{"name":"eid","type":"uint32","internalType":"uint32"}],"outputs":[{"name":"peer","type":"bytes32","internalType":"bytes32"}],"stateMutability":"view"},{"type":"function","name":"preCrime","inputs":[],"outputs":[{"name":"","type":"address","internalType":"address"}],"stateMutability":"view"},{"type":"function","name":"quoteOFT","inputs":[{"name":"_sendParam","type":"tuple","internalType":"struct SendParam","components":[{"name":"dstEid","type":"uint32","internalType":"uint32"},{"name":"to","type":"bytes32","internalType":"bytes32"},{"name":"amountLD","type":"uint256","internalType":"uint256"},{"name":"minAmountLD","type":"uint256","internalType":"uint256"},{"name":"extraOptions","type":"bytes","internalType":"bytes"},{"name":"composeMsg","type":"bytes","internalType":"bytes"},{"name":"oftCmd","type":"bytes","internalType":"bytes"}]}],"outputs":[{"name":"oftLimit","type":"tuple","internalType":"struct OFTLimit","components":[{"name":"minAmountLD","type":"uint256","internalType":"uint256"},{"name":"maxAmountLD","type":"uint256","internalType":"uint256"}]},{"name":"oftFeeDetails","type":"tuple[]","internalType":"struct OFTFeeDetail[]","components":[{"name":"feeAmountLD","type":"int256","internalType":"int256"},{"name":"description","type":"string","internalType":"string"}]},{"name":"oftReceipt","type":"tuple","internalType":"struct OFTReceipt","components":[{"name":"amountSentLD","type":"uint256","internalType":"uint256"},{"name":"amountReceivedLD","type":"uint256","internalType":"uint256"}]}],"stateMutability":"view"},{"type":"function","name":"quoteSend","inputs":[{"name":"_sendParam","type":"tuple","internalType":"struct SendParam","components":[{"name":"dstEid","type":"uint32","internalType":"uint32"},{"name":"to","type":"bytes32","internalType":"bytes32"},{"name":"amountLD","type":"uint256","internalType":"uint256"},{"name":"minAmountLD","type":"uint256","internalType":"uint256"},{"name":"extraOptions","type":"bytes","internalType":"bytes"},{"name":"composeMsg","type":"bytes","internalType":"bytes"},{"name":"oftCmd","type":"bytes","internalType":"bytes"}]},{"name":"_payInLzToken","type":"bool","internalType":"bool"}],"outputs":[{"name":"msgFee","type":"tuple","internalType":"struct MessagingFee","components":[{"name":"nativeFee","type":"uint256","internalType":"uint256"},{"name":"lzTokenFee","type":"uint256","internalType":"uint256"}]}],"stateMutability":"view"},{"type":"function","name":"renounceOwnership","inputs":[],"outputs":[],"stateMutability":"nonpayable"},{"type":"function","name":"send","inputs":[{"name":"_sendParam","type":"tuple","internalType":"struct SendParam","components":[{"name":"dstEid","type":"uint32","internalType":"uint32"},{"name":"to","type":"bytes32","internalType":"bytes32"},{"name":"amountLD","type":"uint256","internalType":"uint256"},{"name":"minAmountLD","type":"uint256","internalType":"uint256"},{"name":"extraOptions","type":"bytes","internalType":"bytes"},{"name":"composeMsg","type":"bytes","internalType":"bytes"},{"name":"oftCmd","type":"bytes","internalType":"bytes"}]},{"name":"_fee","type":"tuple","internalType":"struct MessagingFee","components":[{"name":"nativeFee","type":"uint256","internalType":"uint256"},{"name":"lzTokenFee","type":"uint256","internalType":"uint256"}]},{"name":"_refundAddress","type":"address","internalType":"address"}],"outputs":[{"name":"msgReceipt","type":"tuple","internalType":"struct MessagingReceipt","components":[{"name":"guid","type":"bytes32","internalType":"bytes32"},{"name":"nonce","type":"uint64","internalType":"uint64"},{"name":"fee","type":"tuple","internalType":"struct MessagingFee","components":[{"name":"nativeFee","type":"uint256","internalType":"uint256"},{"name":"lzTokenFee","type":"uint256","internalType":"uint256"}]}]},{"name":"oftReceipt","type":"tuple","internalType":"struct OFTReceipt","components":[{"name":"amountSentLD","type":"uint256","internalType":"uint256"},{"name":"amountReceivedLD","type":"uint256","internalType":"uint256"}]}],"stateMutability":"payable"},{"type":"function","name":"setDelegate","inputs":[{"name":"_delegate","type":"address","internalType":"address"}],"outputs":[],"stateMutability":"nonpayable"},{"type":"function","name":"setEnforcedOptions","inputs":[{"name":"_enforcedOptions","type":"tuple[]","internalType":"struct EnforcedOptionParam[]","components":[{"name":"eid","type":"uint32","internalType":"uint32"},{"name":"msgType","type":"uint16","internalType":"uint16"},{"name":"options","type":"bytes","internalType":"bytes"}]}],"outputs":[],"stateMutability":"nonpayable"},{"type":"function","name":"setMsgInspector","inputs":[{"name":"_msgInspector","type":"address","internalType":"address"}],"outputs":[],"stateMutability":"nonpayable"},{"type":"function","name":"setPeer","inputs":[{"name":"_eid","type":"uint32","internalType":"uint32"},{"name":"_peer","type":"bytes32","internalType":"bytes32"}],"outputs":[],"stateMutability":"nonpayable"},{"type":"function","name":"setPreCrime","inputs":[{"name":"_preCrime","type":"address","internalType":"address"}],"outputs":[],"stateMutability":"nonpayable"},{"type":"function","name":"sharedDecimals","inputs":[],"outputs":[{"name":"","type":"uint8","internalType":"uint8"}],"stateMutability":"view"},{"type":"function","name":"symbol","inputs":[],"outputs":[{"name":"","type":"string","internalType":"string"}],"stateMutability":"view"},{"type":"function","name":"token","inputs":[],"outputs":[{"name":"","type":"address","internalType":"address"}],"stateMutability":"view"},{"type":"function","name":"totalSupply","inputs":[],"outputs":[{"name":"","type":"uint256","internalType":"uint256"}],"stateMutability":"view"},{"type":"function","name":"transfer","inputs":[{"name":"to","type":"address","internalType":"address"},{"name":"value","type":"uint256","internalType":"uint256"}],"outputs":[{"name":"","type":"bool","internalType":"bool"}],"stateMutability":"nonpayable"},{"type":"function","name":"transferFrom","inputs":[{"name":"from","type":"address","internalType":"address"},{"name":"to","type":"address","internalType":"address"},{"name":"value","type":"uint256","internalType":"uint256"}],"outputs":[{"name":"","type":"bool","internalType":"bool"}],"stateMutability":"nonpayable"},{"type":"function","name":"transferOwnership","inputs":[{"name":"newOwner","type":"address","internalType":"address"}],"outputs":[],"stateMutability":"nonpayable"},{"type":"event","name":"Approval","inputs":[{"name":"owner","type":"address","indexed":true,"internalType":"address"},{"name":"spender","type":"address","indexed":true,"internalType":"address"},{"name":"value","type":"uint256","indexed":false,"internalType":"uint256"}],"anonymous":false},{"type":"event","name":"EnforcedOptionSet","inputs":[{"name":"_enforcedOptions","type":"tuple[]","indexed":false,"internalType":"struct EnforcedOptionParam[]","components":[{"name":"eid","type":"uint32","internalType":"uint32"},{"name":"msgType","type":"uint16","internalType":"uint16"},{"name":"options","type":"bytes","internalType":"bytes"}]}],"anonymous":false},{"type":"event","name":"MsgInspectorSet","inputs":[{"name":"inspector","type":"address","indexed":false,"internalType":"address"}],"anonymous":false},{"type":"event","name":"OFTReceived","inputs":[{"name":"guid","type":"bytes32","indexed":true,"internalType":"bytes32"},{"name":"srcEid","type":"uint32","indexed":false,"internalType":"uint32"},{"name":"toAddress","type":"address","indexed":true,"internalType":"address"},{"name":"amountReceivedLD","type":"uint256","indexed":false,"internalType":"uint256"}],"anonymous":false},{"type":"event","name":"OFTSent","inputs":[{"name":"guid","type":"bytes32","indexed":true,"internalType":"bytes32"},{"name":"dstEid","type":"uint32","indexed":false,"internalType":"uint32"},{"name":"fromAddress","type":"address","indexed":true,"internalType":"address"},{"name":"amountSentLD","type":"uint256","indexed":false,"internalType":"uint256"},{"name":"amountReceivedLD","type":"uint256","indexed":false,"internalType":"uint256"}],"anonymous":false},{"type":"event","name":"OwnershipTransferred","inputs":[{"name":"previousOwner","type":"address","indexed":true,"internalType":"address"},{"name":"newOwner","type":"address","indexed":true,"internalType":"address"}],"anonymous":false},{"type":"event","name":"PeerSet","inputs":[{"name":"eid","type":"uint32","indexed":false,"internalType":"uint32"},{"name":"peer","type":"bytes32","indexed":false,"internalType":"bytes32"}],"anonymous":false},{"type":"event","name":"PreCrimeSet","inputs":[{"name":"preCrimeAddress","type":"address","indexed":false,"internalType":"address"}],"anonymous":false},{"type":"event","name":"Transfer","inputs":[{"name":"from","type":"address","indexed":true,"internalType":"address"},{"name":"to","type":"address","indexed":true,"internalType":"address"},{"name":"value","type":"uint256","indexed":false,"internalType":"uint256"}],"anonymous":false},{"type":"error","name":"ERC20InsufficientAllowance","inputs":[{"name":"spender","type":"address","internalType":"address"},{"name":"allowance","type":"uint256","internalType":"uint256"},{"name":"needed","type":"uint256","internalType":"uint256"}]},{"type":"error","name":"ERC20InsufficientBalance","inputs":[{"name":"sender","type":"address","internalType":"address"},{"name":"balance","type":"uint256","internalType":"uint256"},{"name":"needed","type":"uint256","internalType":"uint256"}]},{"type":"error","name":"ERC20InvalidApprover","inputs":[{"name":"approver","type":"address","internalType":"address"}]},{"type":"error","name":"ERC20InvalidReceiver","inputs":[{"name":"receiver","type":"address","internalType":"address"}]},{"type":"error","name":"ERC20InvalidSender","inputs":[{"name":"sender","type":"address","internalType":"address"}]},{"type":"error","name":"ERC20InvalidSpender","inputs":[{"name":"spender","type":"address","internalType":"address"}]},{"type":"error","name":"InvalidDelegate","inputs":[]},{"type":"error","name":"InvalidEndpointCall","inputs":[]},{"type":"error","name":"InvalidLocalDecimals","inputs":[]},{"type":"error","name":"InvalidOptions","inputs":[{"name":"options","type":"bytes","internalType":"bytes"}]},{"type":"error","name":"LzTokenUnavailable","inputs":[]},{"type":"error","name":"NoPeer","inputs":[{"name":"eid","type":"uint32","internalType":"uint32"}]},{"type":"error","name":"NotEnoughNative","inputs":[{"name":"msgValue","type":"uint256","internalType":"uint256"}]},{"type":"error","name":"OnlyEndpoint","inputs":[{"name":"addr","type":"address","internalType":"address"}]},{"type":"error","name":"OnlyPeer","inputs":[{"name":"eid","type":"uint32","internalType":"uint32"},{"name":"sender","type":"bytes32","internalType":"bytes32"}]},{"type":"error","name":"OnlySelf","inputs":[]},{"type":"error","name":"OwnableInvalidOwner","inputs":[{"name":"owner","type":"address","internalType":"address"}]},{"type":"error","name":"OwnableUnauthorizedAccount","inputs":[{"name":"account","type":"address","internalType":"address"}]},{"type":"error","name":"SafeERC20FailedOperation","inputs":[{"name":"token","type":"address","internalType":"address"}]},{"type":"error","name":"SimulationResult","inputs":[{"name":"result","type":"bytes","internalType":"bytes"}]},{"type":"error","name":"SlippageExceeded","inputs":[{"name":"amountLD","type":"uint256","internalType":"uint256"},{"name":"minAmountLD","type":"uint256","internalType":"uint256"}]}],"bytecode":{"object":"0x60c060409080825234620004c45760006200319a8038038091620000248286620004c9565b84398201608083820312620004c05782516001600160401b0390818111620004bc57826200005491860162000503565b60209283860151838111620004a057906200007191870162000503565b9160606200008188880162000579565b966001600160a01b0391829162000099910162000579565b16968715620004a45786546001600160a01b0319811689178855889083167f8be0079c531659141344cd1fd0a4f28419497f9722a3daafe3b4186f6b6457e08980a3169283608052833b15620004a05787519563ca5eb5e160e01b87526004978888015260249681818981838a5af18015620004965762000473575b509064e8d4a5100060a0528351918383116200037e57600854926001958685811c9516801562000468575b8986101462000456578190601f9586811162000402575b5089908683116001146200039c57849262000390575b5050600019600383901b1c191690861b176008555b81519384116200037e576009548581811c9116801562000373575b88821014620003615783811162000318575b5086928411600114620002b25791839491849394620002a6575b50501b916000199060031b1c1916176009555b1562000250578351612c0b90816200058f823960805181818161074101528181610c3401528181610fb0015281816118310152818161194e015281816129e60152612a93015260a051818181610b7e01528181611271015281816116e601528181611f110152818161215101526127000152f35b90602d91608494519362461bcd60e51b85528401528201527f5553443141737365744f46543a20656e64706f696e742063616e6e6f7420626560448201526c207a65726f206164647265737360981b6064820152fd5b015192503880620001c9565b919083601f19811660098552888520945b8988838310620003005750505010620002e6575b505050811b01600955620001dc565b015160001960f88460031b161c19169055388080620002d7565b868601518855909601959485019487935001620002c3565b600982528782208480870160051c8201928a881062000357575b0160051c019086905b8281106200034b575050620001af565b8381550186906200033b565b9250819262000332565b634e487b7160e01b825260228a528882fd5b90607f16906200019d565b634e487b7160e01b8152604189528790fd5b0151905038806200016d565b600885528a85208994509190601f198416865b8d828210620003eb5750508411620003d1575b505050811b0160085562000182565b015160001960f88460031b161c19169055388080620003c2565b8385015186558c97909501949384019301620003af565b909150600884528984208680850160051c8201928c86106200044c575b918a91869594930160051c01915b8281106200043d57505062000157565b8681558594508a91016200042d565b925081926200041f565b634e487b7160e01b835260228b528983fd5b94607f169462000140565b838111620004845789523862000115565b634e487b7160e01b8252604189528782fd5b8a513d84823e3d90fd5b8580fd5b8851631e4fbdf760e01b815260048101889052602490fd5b8380fd5b5080fd5b600080fd5b601f909101601f19168101906001600160401b03821190821017620004ed57604052565b634e487b7160e01b600052604160045260246000fd5b919080601f84011215620004c45782516001600160401b038111620004ed57602090604051926200053e83601f19601f8501160185620004c9565b818452828287010111620004c45760005b8181106200056557508260009394955001015290565b85810183015184820184015282016200054f565b51906001600160a01b0382168203620004c45756fe6080604052600436101561001257600080fd5b60003560e01c806306fdde03146102c2578063095ea7b3146102bd5780630d35b415146102b8578063111ecdad146102b357806313137d65146102ae578063134d4f25146102a9578063156a0d0f146102a457806317442b701461029f57806318160ddd1461029a5780631f5e13341461029557806323b872dd14610290578063313ce5671461028b5780633400288b146102865780633b6f743b1461028157806340c10f191461027c57806352ae2879146101fa5780635535d461146102775780635a0dfe4d146102725780635e280f111461026d5780636fc1b31e1461026857806370a0823114610263578063715018a61461025e5780637d25a05e1461025957806382413eac14610254578063857749b01461024f5780638da5cb5b1461024a57806395d89b4114610245578063963efcaa146102405780639f68b9641461023b578063a9059cbb14610236578063b731ea0a14610231578063b98bd0701461022c578063bb0b6a5314610227578063bc70b35414610222578063bd815db01461021d578063c7c7f5b314610218578063ca5eb5e114610213578063d045a0dc1461020e578063d424388514610209578063dd62ed3e14610204578063f2fde38b146101ff578063fc0c546a146101fa5763ff7bd03d146101f557600080fd5b611b54565b610d0d565b611ac8565b611a65565b6119f5565b611899565b611800565b611668565b6114c4565b611470565b611435565b61135a565b6112e5565b6112b0565b611294565b611259565b6111b1565b611188565b61116c565b61110e565b6110e7565b61108c565b61104f565b610fdf565b610f9a565b610f52565b610ed3565b610cda565b610b21565b610a90565b610a66565b6109b1565b610995565b610977565b610955565b61092e565b610912565b610726565b610659565b6105b3565b61042d565b610333565b60009103126102d257565b600080fd5b60005b8381106102ea5750506000910152565b81810151838201526020016102da565b90602091610313815180928185528580860191016102d7565b601f01601f1916010190565b9060206103309281815201906102fa565b90565b346102d2576000806003193601126104195760405190806008549061035782610d48565b808552916020916001918281169081156103ec5750600114610394575b6103908661038481880382610eb2565b6040519182918261031f565b0390f35b9350600884527ff3f7a9fe364faab93b216da50a3214154f22a0a2b415b23a84c8169e8b636ee35b8385106103d9575050505081016020016103848261039038610374565b80548686018401529382019381016103bc565b90508695506103909693506020925061038494915060ff191682840152151560051b820101929338610374565b80fd5b6001600160a01b038116036102d257565b346102d25760403660031901126102d25760043561044a8161041c565b60243533156104e2576001600160a01b0382169182156104c9573360009081526006602052604090208291610491915b9060018060a01b0316600052602052604060002090565b556040519081527f8c5be1e5ebec7d5bd14f71427d1e84f3dd0314c0f7b2291e5b200ac8c7c3b92560203392a3602060405160018152f35b604051634a1406b160e11b815260006004820152602490fd5b60405163e602df0560e01b815260006004820152602490fd5b908160e09103126102d25790565b9392916105248560a081019360208091805184520151910152565b60409160a06040870152815180915260c086019160c08260051b880101936020809201936000915b848310610574575050505050509060606105729294019060208091805184520151910152565b565b90919293949584806105a36001938d60bf1990820301875285838c5180518452015191818582015201906102fa565b980193019301919493929061054c565b346102d25760203660031901126102d2576001600160401b036004358181116102d2576105e49036906004016104fb565b906105ed611bb4565b506105f6611bb4565b506040519061060482610e2e565b60008252602082015261039061063d6040519361062085610e7c565b6000855261062d81611be4565b5060406060820135910135611f08565b610645611b9a565b918252602082015260405193849384610509565b346102d25760003660031901126102d2576004546040516001600160a01b039091168152602090f35b60609060031901126102d257600490565b9181601f840112156102d2578235916001600160401b0383116102d257602083818601950101116102d257565b600319810160e081126102d2576060136102d257600491606435916001600160401b03906084358281116102d257816106fb91600401610693565b9390939260a43561070b8161041c565b9260c4359182116102d25761072291600401610693565b9091565b61072f366106c0565b50929492506001600160a01b039190507f000000000000000000000000000000000000000000000000000000000000000082163381036108fa57833561077481610a82565b61077d81611f62565b9060208601358092036108c55750506107a561079983886126d4565b6001600160a01b031690565b916107cb6107bb6107b6838a6126e0565b6126f2565b6107c487611be4565b5084612726565b80976028831161081c575b505050506108176107f5600080516020612b9683398151915294611be4565b956040519384931696836020909392919363ffffffff60408201951681520152565b0390a3005b90610847929161084161083160408a01611f9a565b9361083b8a611be4565b9261274a565b92612766565b90803b156102d257604051633e5ac80960e11b8152916000918391829084908290610877908c8a60048501611fa4565b03925af180156108c057600080516020612b9683398151915294610817926107f5926108a7575b889196506107d6565b806108b46108ba92610e69565b806102c7565b3861089e565b611e76565b6108ce81610a82565b60405163309afaf360e21b815263ffffffff9190911660048201526024810191909152604490fd5b0390fd5b6040516391ac5e4f60e01b8152336004820152602490fd5b346102d25760003660031901126102d257602060405160028152f35b346102d25760003660031901126102d2576040805162b9270b60e21b815260016020820152f35b346102d25760003660031901126102d257604080516001815260026020820152f35b346102d25760003660031901126102d2576020600754604051908152f35b346102d25760003660031901126102d257602060405160018152f35b346102d25760603660031901126102d2576004356109ce8161041c565b6024356109da8161041c565b6001600160a01b03821660009081526006602090815260408083203384529091529020604435919054926000198410610a24575b610a189350611fcf565b60405160018152602090f35b828410610a4057610a3b83610a1895033383612651565b610a0e565b604051637dc7a0d960e11b81523360048201526024810185905260448101849052606490fd5b346102d25760003660031901126102d257602060405160128152f35b63ffffffff8116036102d257565b346102d25760403660031901126102d2577f238399d427b947898edb290f5ff0f9109849b1c3ba196a42e35f00c50a54b98b600435610ace81610a82565b60243590610ada6120da565b63ffffffff8116600052600160205281604060002055610b12604051928392836020909392919363ffffffff60408201951681520152565b0390a1005b801515036102d257565b346102d2576040806003193601126102d2576004356001600160401b0381116102d257610b529036906004016104fb565b90602435610b5f81610b17565b610b67611bb4565b506060830135833593610b7985610a82565b610baf7f0000000000000000000000000000000000000000000000000000000000000000610baa81878501356126a1565b6126c1565b91808310610cbd57508392610bcb610c309693610c1593612140565b90610bd585610a82565b610bdd611bb4565b50610be785611f62565b610bfe610bf2611ba7565b63ffffffff9097168752565b602086015285850152606084015215156080830152565b815180948192631bb8518b60e31b835230906004840161228b565b03817f00000000000000000000000000000000000000000000000000000000000000006001600160a01b03165afa9081156108c05761039092600092610c8e575b505191829182815181526020918201519181019190915260400190565b81610caf9293503d8411610cb6575b610ca78183610eb2565b810190612277565b9038610c71565b503d610c9d565b826044918651916371c4efed60e01b835260048301526024820152fd5b346102d25760403660031901126102d257610d0b600435610cfa8161041c565b610d026120da565b602435906122f9565b005b346102d25760003660031901126102d2576020604051308152f35b6024359061ffff821682036102d257565b359061ffff821682036102d257565b90600182811c92168015610d78575b6020831014610d6257565b634e487b7160e01b600052602260045260246000fd5b91607f1691610d57565b805460009392610d9182610d48565b91828252602093600191600181169081600014610df95750600114610db8575b5050505050565b90939495506000929192528360002092846000945b838610610de557505050500101903880808080610db1565b805485870183015294019385908201610dcd565b60ff19168685015250505090151560051b010191503880808080610db1565b634e487b7160e01b600052604160045260246000fd5b604081019081106001600160401b03821117610e4957604052565b610e18565b606081019081106001600160401b03821117610e4957604052565b6001600160401b038111610e4957604052565b602081019081106001600160401b03821117610e4957604052565b60a081019081106001600160401b03821117610e4957604052565b90601f801991011681019081106001600160401b03821117610e4957604052565b346102d25760403660031901126102d257610390610f37610f3e610f2b600435610efc81610a82565b63ffffffff610f09610d28565b9116600052600360205260406000209061ffff16600052602052604060002090565b60405192838092610d82565b0382610eb2565b6040519182916020835260208301906102fa565b346102d25760403660031901126102d2576020610f90600435610f7481610a82565b6024359063ffffffff1660005260016020526040600020541490565b6040519015158152f35b346102d25760003660031901126102d2576040517f00000000000000000000000000000000000000000000000000000000000000006001600160a01b03168152602090f35b346102d25760203660031901126102d2577ff0be4f1e87349231d80c36b33f9e8639658eeaf474014dee15a3e6a4d4414197602060043561101f8161041c565b6110276120da565b600480546001600160a01b0319166001600160a01b03929092169182179055604051908152a1005b346102d25760203660031901126102d25760043561106c8161041c565b60018060a01b031660005260056020526020604060002054604051908152f35b346102d257600080600319360112610419576110a66120da565b80546001600160a01b03198116825581906001600160a01b03167f8be0079c531659141344cd1fd0a4f28419497f9722a3daafe3b4186f6b6457e08280a380f35b346102d25760403660031901126102d257611103600435610a82565b602060405160008152f35b346102d25760a03660031901126102d25761112836610682565b506064356001600160401b0381116102d257611148903690600401610693565b505060206084356111588161041c565b6040516001600160a01b0390911630148152f35b346102d25760003660031901126102d257602060405160068152f35b346102d25760003660031901126102d2576000546040516001600160a01b039091168152602090f35b346102d257600080600319360112610419576040519080600954906111d582610d48565b808552916020916001918281169081156103ec5750600114611201576103908661038481880382610eb2565b9350600984527f6e1540171b6c0c960b71a7020d9f60077f6af931a8bbf590da0223dacf75c7af5b838510611246575050505081016020016103848261039038610374565b8054868601840152938201938101611229565b346102d25760003660031901126102d25760206040517f00000000000000000000000000000000000000000000000000000000000000008152f35b346102d25760003660031901126102d257602060405160008152f35b346102d25760403660031901126102d2576112da6004356112d08161041c565b6024359033611fcf565b602060405160018152f35b346102d25760003660031901126102d2576002546040516001600160a01b039091168152602090f35b9060206003198301126102d2576004356001600160401b03928382116102d257806023830112156102d25781600401359384116102d25760248460051b830101116102d2576024019190565b346102d2576113683661130e565b906113716120da565b61137a82611bcd565b90604061138a6040519384610eb2565b8383526020938484019060051b8301923684116102d25780915b8483106113b457610d0b8661252b565b6001600160401b039083358281116102d2578301916060833603126102d2578551926113df84610e4e565b80356113ea81610a82565b84526113f78a8201610d39565b8a850152868101359182116102d257019036601f830112156102d2578892611426849336908581359101611c09565b878201528152019201916113a4565b346102d25760203660031901126102d25763ffffffff60043561145781610a82565b1660005260016020526020604060002054604051908152f35b346102d25760603660031901126102d25760043561148d81610a82565b611495610d28565b604435906001600160401b0382116102d257610390926114bc610f3e933690600401610693565b929091611ccb565b6114cd3661130e565b60005b81811061153c57604051638e9e709960e01b8152600081600481335afa80156108c0576108f691600091611519575b50604051638351eea760e01b81529182916004830161031f565b61153691503d806000833e61152e8183610eb2565b810190611e82565b826114ff565b611547818385611d87565b9061157961157561155784611be4565b60208501359063ffffffff1660005260016020526040600020541490565b1590565b61160e5761158b610100830183611daf565b9261159860e08201611de1565b906115a7610120820182611daf565b959095303b156102d2576000946115dd60c092604051998a9788968795633411683760e21b875260a08a01358a60048901611dfc565b03920135305af19182156108c0576001926115fb575b505b016114d0565b806108b461160892610e69565b386115f3565b600191506115f5565b916080610572929493611657604060c0830197805184526001600160401b0360208201511660208501520151604083019060208091805184520151910152565b019060208091805184520151910152565b60803660031901126102d2576004356001600160401b0381116102d2576116939036906004016104fb565b6040806023193601126102d257606435906116ad8261041c565b6116b5611ee0565b506116be611bb4565b506116c7611ee0565b506116d0611bb4565b506060830135916116e18435610a82565b6117127f0000000000000000000000000000000000000000000000000000000000000000610baa81858801356126a1565b928084106117e3575033156117cb57906117566103909261173385336127c3565b61173d8587612140565b61174688611be4565b9161175036612629565b92612969565b9261175f611b9a565b948186528160208701527f85496b760a4b7f8d66384b9df21b381f5d1b1e79f229a47aaf4c232edc2fe59a6117be611798875193611be4565b9385519181839233978460409194939263ffffffff606083019616825260208201520152565b0390a35192839283611617565b8151634b637e8f60e11b815260006004820152602490fd5b836044918451916371c4efed60e01b835260048301526024820152fd5b346102d257600060203660031901126104195760043561181f8161041c565b6118276120da565b6001600160a01b037f0000000000000000000000000000000000000000000000000000000000000000811691839190833b156118955760249083604051958694859363ca5eb5e160e01b85521660048401525af180156108c057611889575080f35b61189290610e69565b80f35b8280fd5b6118a2366106c0565b50505092903033036119e3576118bb61079985836126d4565b936118dc6118cc6107b683856126e0565b6118d585611be4565b5086612726565b916028821161192c575b5050611900600080516020612b9683398151915292611be4565b6040805163ffffffff909216825260208201929092526001600160a01b03909416939081908101610817565b908261194b9261084161194160408801611f9a565b9361083b88611be4565b917f00000000000000000000000000000000000000000000000000000000000000006001600160a01b0316803b156102d257604051633e5ac80960e11b81529360009185918290849082906119a5908b8d60048501611fa4565b03925af19081156108c057600080516020612b9683398151915293611900926119d0575b50926118e6565b806108b46119dd92610e69565b386119c9565b60405163029a949d60e31b8152600490fd5b346102d25760203660031901126102d2577fd48d879cef83a1c0bdda516f27b13ddb1b3f8bbac1c9e1511bb2a659c24277606020600435611a358161041c565b611a3d6120da565b600280546001600160a01b0319166001600160a01b03929092169182179055604051908152a1005b346102d25760403660031901126102d2576020611abf600435611a878161041c565b60243590611a948261041c565b60018060a01b03166000526006835260406000209060018060a01b0316600052602052604060002090565b54604051908152f35b346102d25760203660031901126102d257600435611ae58161041c565b611aed6120da565b6001600160a01b039081168015611b3b57600080546001600160a01b03198116831782559092167f8be0079c531659141344cd1fd0a4f28419497f9722a3daafe3b4186f6b6457e08380a380f35b604051631e4fbdf760e01b815260006004820152602490fd5b346102d25760603660031901126102d2576020611b7036610682565b63ffffffff8135611b8081610a82565b166000526001825260406000205482604051920135148152f35b6040519061057282610e2e565b6040519061057282610e97565b60405190611bc182610e2e565b60006020838281520152565b6001600160401b038111610e495760051b60200190565b3561033081610a82565b6001600160401b038111610e4957601f01601f191660200190565b929192611c1582611bee565b91611c236040519384610eb2565b8294818452818301116102d2578281602093846000960137010152565b90929192836002116102d25783116102d257600201916001190190565b60209083610572939594956040519683611c8089955180928880890191016102d7565b8401918583013701600083820152038085520183610eb2565b908060209392818452848401376000828201840152601f01601f1916010190565b916020610330938181520191611c99565b610f2b610f379263ffffffff611d00939795969716600052600360205260406000209061ffff16600052602052604060002090565b805115611d63578315611d5d576002841015611d345750506108f6604051928392639a6d49cd60e01b845260048401611cba565b909280611d579161033094611d52611d4d368484611c09565b6125f1565b611c40565b91611c5d565b92509050565b509190610330913691611c09565b634e487b7160e01b600052603260045260246000fd5b9190811015611daa5760051b8101359061013e19813603018212156102d2570190565b611d71565b903590601e19813603018212156102d257018035906001600160401b0382116102d2576020019181360383136102d257565b356103308161041c565b6001600160401b038116036102d257565b929093611e58926001600160401b0360406103309a98999763ffffffff8135611e2481610a82565b168852602081013560208901520135611e3c81611deb565b166040860152606085015260e0608085015260e0840191611c99565b6001600160a01b0390941660a082015280840360c090910152611c99565b6040513d6000823e3d90fd5b6020818303126102d2578051906001600160401b0382116102d2570181601f820112156102d2578051611eb481611bee565b92611ec26040519485610eb2565b818452602082840101116102d25761033091602080850191016102d7565b60405190611eed82610e4e565b8160008152600060208201526040611f03611bb4565b910152565b611f3790610baa7f000000000000000000000000000000000000000000000000000000000000000080926126a1565b918291808410611f445750565b83604491604051916371c4efed60e01b835260048301526024820152fd5b63ffffffff16806000526001602052604060002054908115611f82575090565b6024906040519063f6ff4fb760e01b82526004820152fd5b3561033081611deb565b610330939260809260018060a01b0316825260208201526000604082015281606082015201906102fa565b916001600160a01b03808416929083156120c15781169384156120a8576001600160a01b03811660009081526005602052604090205483811061207957612074928492612043600080516020612bb68339815191529661205e94039160018060a01b03166000526005602052604060002090565b556001600160a01b0316600090815260056020526040902090565b8054820190556040519081529081906020820190565b0390a3565b60405163391434e360e21b81526001600160a01b03929092166004830152602482015260448101839052606490fd5b60405163ec442f0560e01b815260006004820152602490fd5b604051634b637e8f60e11b815260006004820152602490fd5b6000546001600160a01b031633036120ee57565b60405163118cdaa760e01b8152336004820152602490fd5b908160209103126102d2575161033081610b17565b9091612132610330936040845260408401906102fa565b9160208184039101526102fa565b90916121a46121826121766121cb957f0000000000000000000000000000000000000000000000000000000000000000906126a1565b6001600160401b031690565b61219961219260a0860186611daf565b3691611c09565b90602085013561289c565b9390928394600014612247576002905b6114bc6121c082611be4565b916080810190611daf565b60045490926001600160a01b039091169083826121e757505050565b60405163043a78eb60e01b81529260209284928391829161220b916004840161211b565b03915afa80156108c05761221c5750565b61223d9060203d602011612240575b6122358183610eb2565b810190612106565b50565b503d61222b565b6001906121b4565b91908260409103126102d25760405161226781610e2e565b6020808294805184520151910152565b906040828203126102d2576103309161224f565b906020909392936040835263ffffffff815116604084015281810151606084015260806122df6122c9604084015160a08488015260e08701906102fa565b6060840151868203603f190160a08801526102fa565b910151151560c08401526001600160a01b03909416910152565b6001600160a01b038116919082156120a8576007549082820180921161235c5760009261234d602092600080516020612bb68339815191529460075560018060a01b03166000526005602052604060002090565b818154019055604051908152a3565b61268b565b8051821015611daa5760209160051b010190565b90601f811161238357505050565b6000916000526020600020906020601f850160051c830194106123c1575b601f0160051c01915b8281106123b657505050565b8181556001016123aa565b90925082906123a1565b91909182516001600160401b038111610e49576123f2816123ec8454610d48565b84612375565b602080601f83116001146124355750819061242693949560009261242a575b50508160011b916000199060031b1c19161790565b9055565b015190503880612411565b90601f1983169561244b85600052602060002090565b926000905b8882106124885750508360019596971061246f575b505050811b019055565b015160001960f88460031b161c19169055388080612465565b80600185968294968601518155019501930190612450565b6020808201908083528351809252604092604081018260408560051b8401019601946000925b8584106124d7575050505050505090565b90919293949596858061251a600193603f198682030188528b518760609163ffffffff815116845261ffff868201511686850152015191818982015201906102fa565b9901940194019295949391906124c6565b9060009160005b81518110156125b7576001906125b16040612559816125518588612361565b5101516125f1565b6125ac816125678588612361565b5101519163ffffffff61257a8689612361565b515116895261ffff602091600383528a2091612596878a612361565b5101511661ffff16600052602052604060002090565b6123cb565b01612532565b507fbe4864a8e820971c0247f5992e2da559595f7bf076a21cb5928d443d2a13b6749192506125ec90604051918291826124a0565b0390a1565b600361ffff600283015116036126045750565b604051639a6d49cd60e01b8152602060048201529081906108f69060248301906102fa565b60409060231901126102d2576040519061264282610e2e565b60243582526044356020830152565b906001600160a01b03808316156104e2578116156104c95761047a6126889260018060a01b03166000526006602052604060002090565b55565b634e487b7160e01b600052601160045260246000fd5b81156126ab570490565b634e487b7160e01b600052601260045260246000fd5b8181029291811591840414171561235c57565b906020116102d2573590565b906028116102d2576020013560c01c90565b610330906001600160401b037f000000000000000000000000000000000000000000000000000000000000000091166126c1565b816001600160a01b03821615612740575b610330916122f9565b61dead9150612737565b90806028116102d2576103309136916027190190602801611c09565b604c9193610330936040519586936001600160401b0360c01b9060c01b16602085015263ffffffff60e01b9060e01b166028840152602c8301526127b381518092602086860191016102d7565b810103602c810184520182610eb2565b6001600160a01b038116908161280c57506007549180830180931161235c576020600080516020612bb6833981519152916000946007555b8060075403600755604051908152a3565b6001600160a01b03811660009081526005602052604090205493929081851061286a5781602091612864600080516020612bb68339815191529460009798039160018060a01b03166000526005602052604060002090565b556127fb565b60405163391434e360e21b81526001600160a01b03919091166004820152602481018590526044810191909152606490fd5b825115801593906128fa576128f79160689160405194859260208401526001600160401b0360c01b9060c01b1660408301523360488301526128e781518092602086860191016102d7565b8101036048810184520182610eb2565b91565b50906040519160208301526001600160401b0360c01b9060c01b166040820152602881526128f781610e4e565b906080828203126102d25761296190604080519361294485610e4e565b80518552602081015161295681611deb565b60208601520161224f565b604082015290565b6129c6608094926129e2969461297d611ee0565b50602061298a8651612a5a565b950191825180612a4b575b5061299f85611f62565b92511515926129af610bf2611ba7565b602086015260408501526060840152151585830152565b6040518095819482936302637a4560e41b84526004840161228b565b03917f00000000000000000000000000000000000000000000000000000000000000006001600160a01b03165af19081156108c057600091612a22575090565b610330915060803d608011612a44575b612a3c8183610eb2565b810190612927565b503d612a32565b612a5490612a7c565b38612995565b803403612a645790565b6040516304fb820960e51b8152346004820152602490fd5b60405163393f876560e21b81526001600160a01b037f00000000000000000000000000000000000000000000000000000000000000008116926020929091908381600481885afa9081156108c057600091612b5f575b5016928315612b4d5760009160405190848201926323b872dd60e01b84523360248401526044830152606482015260648152612b0d81610e97565b519082855af115611e76576000513d612b445750803b155b612b2c5750565b60249060405190635274afe760e01b82526004820152fd5b60011415612b25565b6040516329b99a9560e11b8152600490fd5b90508381813d8311612b8e575b612b768183610eb2565b810103126102d25751612b888161041c565b38612ad2565b503d612b6c56feefed6d3500546b29533b128a29e3a94d70788727f0507505ac12eaf2e578fd9cddf252ad1be2c89b69c2b068fc378daa952ba7f163c4a11628f55a4df523b3efa26469706673582212204f044aceaf0694a93333770acd88d6c8e3e7a8dde92ea7557f7bc79b56da4bd864736f6c63430008160033","linkReferences":{}},"methodIdentifiers":{"SEND()":"1f5e1334","SEND_AND_CALL()":"134d4f25","allowInitializePath((uint32,bytes32,uint64))":"ff7bd03d","allowance(address,address)":"dd62ed3e","approvalRequired()":"9f68b964","approve(address,uint256)":"095ea7b3","balanceOf(address)":"70a08231","combineOptions(uint32,uint16,bytes)":"bc70b354","decimalConversionRate()":"963efcaa","decimals()":"313ce567","endpoint()":"5e280f11","enforcedOptions(uint32,uint16)":"5535d461","isComposeMsgSender((uint32,bytes32,uint64),bytes,address)":"82413eac","isPeer(uint32,bytes32)":"5a0dfe4d","lzReceive((uint32,bytes32,uint64),bytes32,bytes,address,bytes)":"13137d65","lzReceiveAndRevert(((uint32,bytes32,uint64),uint32,address,bytes32,uint256,address,bytes,bytes)[])":"bd815db0","lzReceiveSimulate((uint32,bytes32,uint64),bytes32,bytes,address,bytes)":"d045a0dc","mint(address,uint256)":"40c10f19","msgInspector()":"111ecdad","name()":"06fdde03","nextNonce(uint32,bytes32)":"7d25a05e","oApp()":"52ae2879","oAppVersion()":"17442b70","oftVersion()":"156a0d0f","owner()":"8da5cb5b","peers(uint32)":"bb0b6a53","preCrime()":"b731ea0a","quoteOFT((uint32,bytes32,uint256,uint256,bytes,bytes,bytes))":"0d35b415","quoteSend((uint32,bytes32,uint256,uint256,bytes,bytes,bytes),bool)":"3b6f743b","renounceOwnership()":"715018a6","send((uint32,bytes32,uint256,uint256,bytes,bytes,bytes),(uint256,uint256),address)":"c7c7f5b3","setDelegate(address)":"ca5eb5e1","setEnforcedOptions((uint32,uint16,bytes)[])":"b98bd070","setMsgInspector(address)":"6fc1b31e","setPeer(uint32,bytes32)":"3400288b","setPreCrime(address)":"d4243885","sharedDecimals()":"857749b0","symbol()":"95d89b41","token()":"fc0c546a","totalSupply()":"18160ddd","transfer(address,uint256)":"a9059cbb","transferFrom(address,address,uint256)":"23b872dd","transferOwnership(address)":"f2fde38b"},"id":20}