{"abi":[{"type":"constructor","inputs":[{"name":"_decimals","type":"uint8","internalType":"uint8"},{"name":"initialPrice","type":"int256","internalType":"int256"}],"stateMutability":"nonpayable"},{"type":"function","name":"decimals","inputs":[],"outputs":[{"name":"","type":"uint8","internalType":"uint8"}],"stateMutability":"view"},{"type":"function","name":"latestRoundData","inputs":[],"outputs":[{"name":"roundId","type":"uint80","internalType":"uint80"},{"name":"answer","type":"int256","internalType":"int256"},{"name":"startedAt","type":"uint256","internalType":"uint256"},{"name":"updatedAt","type":"uint256","internalType":"uint256"},{"name":"answeredInRound","type":"uint80","internalType":"uint80"}],"stateMutability":"view"},{"type":"function","name":"setPrice","inputs":[{"name":"newPrice","type":"int256","internalType":"int256"}],"outputs":[],"stateMutability":"nonpayable"}],"bytecode":{"object":"0x60803461006c57601f61016c38819003918201601f19168301916001600160401b0383118484101761007157808492604094855283398101031261006c5780519060ff821680920361006c57602001519060ff19600054161760005560015560405160e490816100888239f35b600080fd5b634e487b7160e01b600052604160045260246000fdfe6080806040526004361015601257600080fd5b600090813560e01c908163313ce56714608f57508063f7a308061460765763feaf968c14603e57600080fd5b346073578060031936011260735760a06001546040519060018252602082015242604082015242606082015260016080820152f35b80fd5b5034607357602036600319011260735760043560015580f35b90503460aa578160031936011260aa5760ff60209254168152f35b5080fdfea26469706673582212200cabb85383007e0fa87ec8c4b39ac09477578e70b711f9e42d6719cbb2508e9b64736f6c63430008160033","linkReferences":{}},"methodIdentifiers":{"decimals()":"313ce567","latestRoundData()":"feaf968c","setPrice(int256)":"f7a30806"},"id":22}