{"abi":[{"type":"constructor","inputs":[{"name":"_vault","type":"address","internalType":"address"},{"name":"_stablePoolFactory","type":"address","internalType":"address"},{"name":"_weightedPoolFactory","type":"address","internalType":"address"},{"name":"_owner","type":"address","internalType":"address"}],"stateMutability":"nonpayable"},{"type":"function","name":"addLiquidity","inputs":[{"name":"poolId","type":"bytes32","internalType":"bytes32"},{"name":"amounts","type":"uint256[]","internalType":"uint256[]"},{"name":"minBptOut","type":"uint256","internalType":"uint256"}],"outputs":[{"name":"bptOut","type":"uint256","internalType":"uint256"}],"stateMutability":"nonpayable"},{"type":"function","name":"createStablePool","inputs":[{"name":"name","type":"string","internalType":"string"},{"name":"symbol","type":"string","internalType":"string"},{"name":"tokens","type":"address[]","internalType":"address[]"},{"name":"amplificationParameter","type":"uint256","internalType":"uint256"},{"name":"rateProviders","type":"address[]","internalType":"address[]"},{"name":"swapFeePercentage","type":"uint256","internalType":"uint256"},{"name":"owner","type":"address","internalType":"address"}],"outputs":[{"name":"pool","type":"address","internalType":"address"},{"name":"poolId","type":"bytes32","internalType":"bytes32"}],"stateMutability":"nonpayable"},{"type":"function","name":"createWeightedPool","inputs":[{"name":"name","type":"string","internalType":"string"},{"name":"symbol","type":"string","internalType":"string"},{"name":"tokens","type":"address[]","internalType":"address[]"},{"name":"weights","type":"uint256[]","internalType":"uint256[]"},{"name":"swapFeePercentage","type":"uint256","internalType":"uint256"},{"name":"owner","type":"address","internalType":"address"}],"outputs":[{"name":"pool","type":"address","internalType":"address"},{"name":"poolId","type":"bytes32","internalType":"bytes32"}],"stateMutability":"nonpayable"},{"type":"function","name":"getAllPoolIds","inputs":[],"outputs":[{"name":"","type":"bytes32[]","internalType":"bytes32[]"}],"stateMutability":"view"},{"type":"function","name":"getPoolInfo","inputs":[{"name":"poolId","type":"bytes32","internalType":"bytes32"}],"outputs":[{"name":"","type":"tuple","internalType":"struct BalancerPoolCreator.PoolInfo","components":[{"name":"poolAddress","type":"address","internalType":"address"},{"name":"tokens","type":"address[]","internalType":"address[]"},{"name":"weights","type":"uint256[]","internalType":"uint256[]"},{"name":"poolType","type":"uint8","internalType":"enum BalancerPoolCreator.PoolType"},{"name":"active","type":"bool","internalType":"bool"}]}],"stateMutability":"view"},{"type":"function","name":"owner","inputs":[],"outputs":[{"name":"","type":"address","internalType":"address"}],"stateMutability":"view"},{"type":"function","name":"poolIds","inputs":[{"name":"","type":"uint256","internalType":"uint256"}],"outputs":[{"name":"","type":"bytes32","internalType":"bytes32"}],"stateMutability":"view"},{"type":"function","name":"pools","inputs":[{"name":"","type":"bytes32","internalType":"bytes32"}],"outputs":[{"name":"poolAddress","type":"address","internalType":"address"},{"name":"poolType","type":"uint8","internalType":"enum BalancerPoolCreator.PoolType"},{"name":"active","type":"bool","internalType":"bool"}],"stateMutability":"view"},{"type":"function","name":"renounceOwnership","inputs":[],"outputs":[],"stateMutability":"nonpayable"},{"type":"function","name":"stablePoolFactory","inputs":[],"outputs":[{"name":"","type":"address","internalType":"contract IComposableStablePoolFactory"}],"stateMutability":"view"},{"type":"function","name":"transferOwnership","inputs":[{"name":"newOwner","type":"address","internalType":"address"}],"outputs":[],"stateMutability":"nonpayable"},{"type":"function","name":"vault","inputs":[],"outputs":[{"name":"","type":"address","internalType":"contract IBalancerVault"}],"stateMutability":"view"},{"type":"function","name":"weightedPoolFactory","inputs":[],"outputs":[{"name":"","type":"address","internalType":"contract IWeightedPoolFactory"}],"stateMutability":"view"},{"type":"event","name":"LiquidityAdded","inputs":[{"name":"poolId","type":"bytes32","indexed":true,"internalType":"bytes32"},{"name":"provider","type":"address","indexed":true,"internalType":"address"},{"name":"amounts","type":"uint256[]","indexed":false,"internalType":"uint256[]"},{"name":"bptOut","type":"uint256","indexed":false,"internalType":"uint256"}],"anonymous":false},{"type":"event","name":"OwnershipTransferred","inputs":[{"name":"previousOwner","type":"address","indexed":true,"internalType":"address"},{"name":"newOwner","type":"address","indexed":true,"internalType":"address"}],"anonymous":false},{"type":"event","name":"PoolCreated","inputs":[{"name":"poolId","type":"bytes32","indexed":true,"internalType":"bytes32"},{"name":"poolAddress","type":"address","indexed":true,"internalType":"address"},{"name":"poolType","type":"uint8","indexed":false,"internalType":"enum BalancerPoolCreator.PoolType"},{"name":"tokens","type":"address[]","indexed":false,"internalType":"address[]"}],"anonymous":false},{"type":"error","name":"OwnableInvalidOwner","inputs":[{"name":"owner","type":"address","internalType":"address"}]},{"type":"error","name":"OwnableUnauthorizedAccount","inputs":[{"name":"account","type":"address","internalType":"address"}]}],"bytecode":{"object":"0x60e0346200021557601f62001bf438819003918201601f191683019291906001600160401b038411838510176200021a5781608092849260409687528339810103126200021557620000518162000230565b906060620000626020830162000230565b6200006f85840162000230565b926001600160a01b0392839162000087910162000230565b16938415620001fd57600080546001600160a01b031981168717825587519685939290918416907f8be0079c531659141344cd1fd0a4f28419497f9722a3daafe3b4186f6b6457e09080a316938415620001cb57508116918215620001875716918215620001435760805260a05260c052516119ae908162000246823960805181818160c501528181610f4d015281816110c30152611187015260a0518181816108160152610a55015260c0518181816102a801526104730152f35b835162461bcd60e51b815260206004820152601860248201527f496e76616c696420776569676874656420666163746f727900000000000000006044820152606490fd5b845162461bcd60e51b815260206004820152601660248201527f496e76616c696420737461626c6520666163746f7279000000000000000000006044820152606490fd5b62461bcd60e51b815260206004820152600d60248201526c125b9d985b1a59081d985d5b1d609a1b6044820152606490fd5b8551631e4fbdf760e01b815260006004820152602490fd5b600080fd5b634e487b7160e01b600052604160045260246000fd5b51906001600160a01b0382168203620002155756fe608080604052600436101561001357600080fd5b600090813560e01c90816309f2c019146113d7575080630ed658a814610d9157806346b44c731461091857806369883b4e146108c6578063715018a61461086c5780638da5cb5b14610845578063a219675514610800578063a23da67e146102d7578063ae2d969614610292578063b5217bb41461023d578063f19c3d5b14610189578063f2fde38b146100f75763fbfa77cf146100b057600080fd5b346100f457806003193601126100f4576040517f00000000000000000000000000000000000000000000000000000000000000006001600160a01b03168152602090f35b80fd5b50346100f45760203660031901126100f4576004356001600160a01b03818116918290036101845761012761194c565b811561016b57600054826001600160601b0360a01b821617600055167f8be0079c531659141344cd1fd0a4f28419497f9722a3daafe3b4186f6b6457e0600080a380f35b604051631e4fbdf760e01b815260048101849052602490fd5b600080fd5b50346100f457806003193601126100f45760405180916002549081835260208093018092600283527f405787fa12a823e0f2b7631cc41b3ba8828b3321ca811111fa75cd3aa3bb5ace90835b81811061022957505050846101eb91038561160d565b60405193838594850191818652518092526040850193925b82811061021257505050500390f35b835185528695509381019392810192600101610203565b8254845292860192600192830192016101d5565b50346100f45760203660031901126100f4576040606091600435815260016020522060ff600360018060a01b03835416920154604051928352610285602084018383166115b9565b60081c1615156040820152f35b50346100f457806003193601126100f4576040517f00000000000000000000000000000000000000000000000000000000000000006001600160a01b03168152602090f35b50346100f45760031960c0368201126107fc576004356001600160401b0381116107f8576103099036906004016116a5565b906024356001600160401b0381116107f4576103299036906004016116a5565b6044356001600160401b0381116107f0576103489036906004016116fb565b906064356001600160401b0381116107ec57610368903690600401611645565b9160a4356001600160a01b038116908190036101845761038661194c565b61039460028351101561182d565b60088251116107b8578151845103610781578694855b85518710156103e6576103bd8787611777565b5181018091116103d2576001909601956103aa565b634e487b7160e01b89526011600452602489fd5b9087670de0b6b3a76400008a979594930361073c5760209261045e61042e9361044e61043e6040519a8b97889763fbce039360e01b895260c060048a015260c48901906117ed565b90848883030160248901526117ed565b8286820301604487015288611891565b90848203016064850152876117b9565b608480359084015260a48301919091520381877f00000000000000000000000000000000000000000000000000000000000000006001600160a01b03165af1928315610731578493610700575b5060405163038fff2d60e41b8152936001600160a01b0384169290602086600481875afa9586156106f35781966106bf575b50604051916104eb836115dc565b8483526020830190848252604084015260016060840152600160808401528682526001602052604082209060018060a01b038451166001600160601b0360a01b835416178255600182019051908151916001600160401b03831161068e57600160401b831161068e57602090610566848454818655856118ce565b0190845260208420845b8381106106a25750505050600281016040840151908151916001600160401b03831161068e57600160401b831161068e576020906105b3848454818655856118ce565b0190845260208420845b83811061067a57505050506003019160608101519160028310156106665750928261064792889560ff61ff0060807f9a9e7d9ffec265a74a509d3906195d9878339fef52c57ad2aac714cc72a6319e9854930151151560081b1692169061ffff19161717905561062c84611904565b60405191829160018352604060208401526040830190611891565b0390a3604080516001600160a01b039290921682526020820192909252f35b634e487b7160e01b81526021600452602490fd5b6001906020845194019381840155016105bd565b634e487b7160e01b85526041600452602485fd5b82516001600160a01b031681830155602090920191600101610570565b9095506020813d6020116106eb575b816106db6020938361160d565b81010312610184575194866104dd565b3d91506106ce565b50604051903d90823e3d90fd5b61072391935060203d60201161072a575b61071b818361160d565b810190611872565b91846104ab565b503d610711565b6040513d86823e3d90fd5b60405162461bcd60e51b815260206004820152601860248201527f57656967687473206d7573742073756d20746f203165313800000000000000006044820152606490fd5b60405162461bcd60e51b815260206004820152600f60248201526e098cadccee8d040dad2e6dac2e8c6d608b1b6044820152606490fd5b60405162461bcd60e51b815260206004820152600c60248201526b4d6178203820746f6b656e7360a01b6044820152606490fd5b8580fd5b8480fd5b8380fd5b8280fd5b5080fd5b50346100f457806003193601126100f4576040517f00000000000000000000000000000000000000000000000000000000000000006001600160a01b03168152602090f35b50346100f457806003193601126100f457546040516001600160a01b039091168152602090f35b50346100f457806003193601126100f45761088561194c565b600080546001600160a01b0319811682556001600160a01b03167f8be0079c531659141344cd1fd0a4f28419497f9722a3daafe3b4186f6b6457e08280a380f35b50346100f45760203660031901126100f4576004356002548110156107fc5760209060026000527f405787fa12a823e0f2b7631cc41b3ba8828b3321ca811111fa75cd3aa3bb5ace0154604051908152f35b50346100f4576003199060e0368301126100f4576001600160401b03916004358381116107f85761094d9036906004016116a5565b9160249081358581116107fc576109689036906004016116a5565b936044358681116107f8576109819036906004016116fb565b936084358781116107f45761099a9036906004016116fb565b6001600160a01b039660c43588811693929190849003610184576109bc61194c565b6109ca60028951101561182d565b6005885111610d5e5791610a3b91610a24610a14610a05979695604051988998632984eb8360e11b8a5260e060048b015260e48a01906117ed565b9085898303018c8a01526117ed565b838782030160448801528a611891565b916064356064870152858303016084860152611891565b9060a43560a484015260c48301528160209384920381868a7f0000000000000000000000000000000000000000000000000000000000000000165af1908115610d53578391610d36575b5060405163038fff2d60e41b815291818716908084600481855afa938415610d2b578594610cfc575b50865196610abb8861162e565b97610ac9604051998a61160d565b808952610ad8601f199161162e565b0136838a0137855b815180821015610b22578015610b0f5790600191670de0b6b3a764000004610b08828c611777565b5201610ae0565b634e487b7160e01b885260126004528888fd5b505087868a898d8960405191610b37836115dc565b89835288830196888852604084019081526060840197878952608085019660019460018952895260018c528060408a209651166001600160601b0360a01b87541617865560018601915191825191858311610ce957600160401b93848411610cd657908e8092610bac868654818855876118ce565b01928c5287828d20928d905b868210610cc15750505050505050600285019151908151938411610cae578311610c9b578a90610bed848454818655856118ce565b01908752898720875b838110610c8a5750505050506003019351926002841015610c795750507f9a9e7d9ffec265a74a509d3906195d9878339fef52c57ad2aac714cc72a6319e93838996936106479360ff61ff00604098549251151560081b1692169061ffff191617179055610c6386611904565b8351938493600085528401526040830190611891565b634e487b7160e01b81526021600452fd5b825182820155918b01918401610bf6565b634e487b7160e01b885260416004528588fd5b634e487b7160e01b895260416004528689fd5b8386511695019481850155018f908991610bb8565b634e487b7160e01b8c526041600452898cfd5b634e487b7160e01b8b526041600452888bfd5b9080945081813d8311610d24575b610d14818361160d565b8101031261018457519238610aae565b503d610d0a565b6040513d87823e3d90fd5b610d4d9150823d841161072a5761071b818361160d565b38610a85565b6040513d85823e3d90fd5b60405162461bcd60e51b815260206004820152600c818901526b4d6178203520746f6b656e7360a01b6044820152606490fd5b50346100f45760603660031901126100f4576024356001600160401b0381116107fc57610dc2903690600401611645565b60043582526001602052604082209060405191610dde836115dc565b80546001600160a01b031683526040516001820180548083529086526020808720918391820190885b8181106113b5575050610e1c9250038261160d565b60208401526002810160405190816020825491828152019187526020872090875b81811061139f575050509181610e5960039360ff95038261160d565b60408601520154610e6f8282166060860161176b565b60081c1615801560808401526113685780516020830151510361132a578291925b602084015151811015610ff0579182610eab82959484611777565b51610ebe575b6001915001929192610e90565b81602060018060a01b03610ed58483890151611777565b51166064610ee38588611777565b5160405194859384926323b872dd60e01b845233600485015230602485015260448401525af18015610d5357610fd1575b506020848101516001600160a01b0390610f2f908490611777565b51166044610f3d8487611777565b5160405163095ea7b360e01b81527f00000000000000000000000000000000000000000000000000000000000000006001600160a01b0316600482015260248101919091529485928391905af1918215610d2b57600192610fa2575b50849150610eb1565b610fc39060203d602011610fca575b610fbb818361160d565b8101906117a1565b5038610f99565b503d610fb1565b610fe99060203d602011610fca57610fbb818361160d565b5038610f14565b5060208301519081519361101c6110068661162e565b95611014604051978861160d565b80875261162e565b601f1901366020870137835b8351811015611059576001906001600160a01b036110468287611777565b51166110528289611777565b5201611028565b50838560405182602082015260408082015261108a8161107c60608201886117b9565b03601f19810183528261160d565b60405191608083018381106001600160401b0382111761068e576040528252846020830152604082015281606082015260018060a01b037f0000000000000000000000000000000000000000000000000000000000000000163b156107fc576040519063172b958560e31b82526004356004830152306024830152336044830152608060648301528282610104810192805160806084840152805180955260206101248401910194845b8181106113055750508293945061117860609161116360208501519160831992838883030160a4890152611585565b906040850151908683030160c48701526117ed565b910151151560e48301520381837f00000000000000000000000000000000000000000000000000000000000000006001600160a01b03165af180156112fa576112ce575b5090516040516370a0823160e01b815233600482015290602090829060249082906001600160a01b03165afa9182156112c257809261128d575b5050604435811061125157602091611219604051916040835260408301906117b9565b82848301527f8fe73fefe5c48db016e50d612756d9a536b41dc910c87dc3dfd85b31e18d9c54339280600435930390a3604051908152f35b60405162461bcd60e51b8152602060048201526014602482015273125b9cdd59999a58da595b9d08109415081bdd5d60621b6044820152606490fd5b9091506020823d6020116112ba575b816112a96020938361160d565b810103126100f457505182806111f6565b3d915061129c565b604051903d90823e3d90fd5b6001600160401b0381116112e65760405260206111bc565b634e487b7160e01b82526041600452602482fd5b6040513d84823e3d90fd5b86516001600160a01b0316835260209687019689965088955090920191600101611134565b60405162461bcd60e51b8152602060048201526016602482015275092dcecc2d8d2c840c2dadeeadce8e640d8cadccee8d60531b6044820152606490fd5b60405162461bcd60e51b815260206004820152600f60248201526e506f6f6c206e6f742061637469766560881b6044820152606490fd5b8254845260209093019260019283019201610e3d565b84546001600160a01b0316835260019485019486945060209093019201610e07565b82346100f457602091826003193601126107fc57816080826113f986946115dc565b828152606084820152606060408201528260608201520152600435825260019081815260408320926040519061142e826115dc565b60018060a01b03908186541683528486019460405180968791878254918281520191855287852090855b81811061156d575050509061146e91038761160d565b848401958652600287019660405180988991888254918281520191865288862090865b81811061155757505050600392916114aa91038a61160d565b6040860198895201549360608101956114c660ff87168861176b565b60ff608083019660081c1615158652604051978189528560c08a01935116828a0152519460a060408a015285518093528160e08a01960194905b8382106115405750505050505061152861153491859651601f19878303016060880152611585565b925160808501906115b9565b51151560a08301520390f35b855181168752958201959482019490840190611500565b825484528c9450928a0192918601918601611491565b8254881684528a945092890192918501918501611458565b90815180825260208080930193019160005b8281106115a5575050505090565b835185529381019392810192600101611597565b9060028210156115c65752565b634e487b7160e01b600052602160045260246000fd5b60a081019081106001600160401b038211176115f757604052565b634e487b7160e01b600052604160045260246000fd5b90601f801991011681019081106001600160401b038211176115f757604052565b6001600160401b0381116115f75760051b60200190565b9080601f8301121561018457602090823561165f8161162e565b9361166d604051958661160d565b81855260208086019260051b82010192831161018457602001905b828210611696575050505090565b81358152908301908301611688565b81601f82011215610184578035906001600160401b0382116115f757604051926116d9601f8401601f19166020018561160d565b8284526020838301011161018457816000926020809301838601378301015290565b9080601f830112156101845760209082356117158161162e565b93611723604051958661160d565b81855260208086019260051b82010192831161018457602001905b82821061174c575050505090565b81356001600160a01b038116810361018457815290830190830161173e565b60028210156115c65752565b805182101561178b5760209160051b010190565b634e487b7160e01b600052603260045260246000fd5b90816020910312610184575180151581036101845790565b90815180825260208080930193019160005b8281106117d9575050505090565b8351855293810193928101926001016117cb565b919082519283825260005b848110611819575050826000602080949584010152601f8019910116010190565b6020818301810151848301820152016117f8565b1561183457565b60405162461bcd60e51b81526020600482015260166024820152754e656564206174206c65617374203220746f6b656e7360501b6044820152606490fd5b9081602091031261018457516001600160a01b03811681036101845790565b90815180825260208080930193019160005b8281106118b1575050505090565b83516001600160a01b0316855293810193928101926001016118a3565b90918281106118dc57505050565b600091600052602060002092830192015b8281106118f957505050565b8181556001016118ed565b600254600160401b8110156115f757600181018060025581101561178b5760026000527f405787fa12a823e0f2b7631cc41b3ba8828b3321ca811111fa75cd3aa3bb5ace0155565b6000546001600160a01b0316330361196057565b60405163118cdaa760e01b8152336004820152602490fdfea26469706673582212205f16cbbe24517f05f0121c77cc709697877ff9f9d1634924f9f67a472222dcba64736f6c63430008160033","linkReferences":{}},"methodIdentifiers":{"addLiquidity(bytes32,uint256[],uint256)":"0ed658a8","createStablePool(string,string,address[],uint256,address[],uint256,address)":"46b44c73","createWeightedPool(string,string,address[],uint256[],uint256,address)":"a23da67e","getAllPoolIds()":"f19c3d5b","getPoolInfo(bytes32)":"09f2c019","owner()":"8da5cb5b","poolIds(uint256)":"69883b4e","pools(bytes32)":"b5217bb4","renounceOwnership()":"715018a6","stablePoolFactory()":"a2196755","transferOwnership(address)":"f2fde38b","vault()":"fbfa77cf","weightedPoolFactory()":"ae2d9696"},"id":3}